:020000040800F2
:10000000204A0020110200083D0C00083F0C0008A7
:10001000430C0008470C00084B0C000800000000CF
:100020000000000000000000000000004F0C00086D
:10003000510C000800000000530C0008550C00088B
:100040002B0200082B0200082B020008476B000857
:100050002B0200082B0200082B0200082B020008CC
:100060002B0200082B0200082B0200082B020008BC
:100070002B0200082B0200082B0200082B020008AC
:100080002B0200082B0200082B0200082B0200089C
:100090002B0200082B0200082B0200082B0200088C
:1000A0002B0200082B0200082B0200082B0200087C
:1000B0002B0200082B0200082B0200082B0200086C
:1000C0002B0200082B0200082B0200082B0200085C
:1000D0002B020008AF4400082B0200082B02000886
:1000E0002B0200082B0200082B0200082B0200083C
:1000F0002B0200082B0200082B0200082B0200082C
:100100002B0200082B0200082B0200082B0200081B
:100110002B0200082B0200082B0200082B0200080B
:100120002B0200082B0200082B0200082B020008FB
:1001300000F002F800F05CF80AA090E8000C82449D
:100140008344AAF10107DA4501D100F051F8AFF27A
:10015000090EBAE80F0013F0010F18BFFB1A43F0A5
:10016000010318479C9C0000BC9C00000A444FF00F
:10017000000C10F8013B13F0070408BF10F8014B06
:100180001D1108BF10F8015B641E05D010F8016B4B
:10019000641E01F8016BF9D113F0080F1EBF10F8AF
:1001A000014BAD1C0C1B09D16D1E58BF01F801CBD2
:1001B000FAD505E014F8016B01F8016B6D1EF9D555
:1001C0009142D6D37047000000230024002500266A
:1001D000103A28BF78C1FBD8520728BF30C148BFAA
:1001E0000B6070471FB509F017F81FBD10B510BDA3
:1001F00007F096FC1146FFF7F5FF02F0EBFF07F062
:10020000B4FC03B4FFF7F2FF03BC07F0B9FC000035
:100210000948804709480047FEE7FEE7FEE7FEE79A
:10022000FEE7FEE7FEE7FEE7FEE7FEE704480549D6
:10023000054A064B704700009D2300083101000865
:10024000201A0020204A0020202A0020202A0020F6
:1002500031490143314A1160704770B500210023D4
:100260000F22C4780CB32D4C246804F4E064C4F568
:10027000E064210AC1F10403CA40447804FA03F19E
:100280008478144021430901254C0678A15504784F
:1002900004F01F050124AC4005786D114FF0E026F5
:1002A00006EB8505C5F8004109E0047804F01F0558
:1002B0000124AC401B4D0678761145F8264070BDF0
:1002C000194A0A400243154B1B1F1A60704739B187
:1002D000124A121D12680243104B1B1D1A6006E0E1
:1002E0000E4A121D126882430C4B1B1D1A60704788
:1002F000042808D14FF0E021096941F004014FF0D2
:10030000E022116107E04FF0E021096921F00401CA
:100310004FF0E022116170470000FA050CED00E09B
:1003200000E400E080E100E080FFFF1F01460020C4
:10033000FE4A106800F03800084310607047FB491F
:10034000096821F00801F94A116011460968014362
:1003500011607047F549096821F01001F34A1160F6
:1003600011460968014311607047F148EF49486040
:10037000F04848607047EE48EC494860ED484860F6
:100380007047EA48006940F08000E849086170471A
:10039000E648006940F08000E449086170470420A5
:1003A000E249C96801F00101012901D101200EE0F3
:1003B000DE49C96811F0040F01D0022007E0DB49D3
:1003C000C96811F0100F01D0032000E0042070472D
:1003D00000B502460423FFF7E2FF034603E0FFF700
:1003E000DEFF0346521E012B01D1002AF7D102B9CC
:1003F0000523184600BD30B5044604254FF43020CF
:10040000FFF7E6FF0546042D17D1C848006940F004
:100410000200C649086108464461006940F0400096
:1004200008614FF43020FFF7D3FF0546BF4800694D
:1004300041F6FD710840BD490861284630BD10B540
:1004400004244FF43020FFF7C3FF0446042C16D1D8
:10045000B648006940F00400B449086108460069E4
:1004600040F0400008614FF43020FFF7B1FF044630
:10047000AE48006941F6FB710840AC49086120466E
:1004800010BD00B502460423FFF789FF034603E0D1
:10049000FFF785FF0346521E012B01D1002AF7D139
:1004A00002B90523184600BD10B504244FF43020CE
:1004B000FFF7E7FF0446042C16D19C48006940F082
:1004C00004009A4908610846006940F0400008614C
:1004D0004FF43020FFF7D5FF04469448006941F6F9
:1004E000FB71084091490861204610BD00208F49EA
:1004F000C96911F0020F01D0012000E0002070470F
:1005000030B5A5250424FFF7F1FF00B100254FF415
:100510003020FFF75DFF0446042C3AD1844883491C
:100520008860844888600846006940F020000861BF
:100530000846006940F0400008614FF43020FFF7A2
:1005400047FF0446042C1BD17848006941F6DF714F
:100550000840764908610846006940F010000861CB
:1005600075480580E002FFF733FF0446052C10D0E4
:100570006E48006941F6EF7108406C49086108E077
:10058000052C06D06948006941F6EF7108406749BB
:100590000861204630BDF0B504460D46042600270C
:1005A000F002FFF715FF0646042E22D15F480069CE
:1005B00040F001005D4908612580F002FFF708FF67
:1005C0000646042E0ED1A71C280C3880F002FFF737
:1005D000FFFE06465548006941F6FE710840534942
:1005E000086106E05148006941F6FE7108404F4934
:1005F00008613046F0BD70B504460D460426F00291
:10060000FFF7E6FE0646042E11D14848006940F087
:100610000100464908612580F002FFF7D9FE064631
:100620004248006941F6FE71084040490861304681
:1006300070BD70B505460E460424E002FFF7C8FE03
:100640000446042C17D13A483849886039488860F4
:100650000846006940F0010008612E80E002FFF7C3
:10066000B7FE0446052C06D03048006941F6EF710C
:1006700008402E490861204670BD2DE9F04304462C
:100680004FF6FF763746B046B1460425E443E6B25E
:10069000C4F30727C4F307484FEA1469E802FFF7D9
:1006A00097FE0546042D40D1214820498860214805
:1006B00088600846006940F010000861FF2E06D0EF
:1006C0001D4808300680E802FFF782FE0546042D2B
:1006D00008D1FF2F06D018480A300780E802FFF73C
:1006E00077FE0546042D0AD1B8F1FF0F07D0124856
:1006F0000C30A0F80080E802FFF76AFE0546042DE2
:100700000AD1B9F1FF0F07D00B480E30A0F80090C6
:10071000E802FFF75DFE0546052D06D00348006997
:1007200041F6EF7108400149086107E000200240EE
:1007300023016745AB89EFCD00F8FF1F2846BDE8D0
:10074000F08330B5054604244FF43020FFF740FE17
:100750000446042C41D15F485F4988605F48886047
:100760000846006940F0200008610846006940F032
:10077000400008614FF43020FFF72AFE0446042CA5
:1007800022D15548006941F6DF710840524908619D
:100790000846006940F0100008611DB10020504972
:1007A000088002E0A5204E4908804FF43020FFF772
:1007B0000FFE0446052C10D04748006941F6EF7142
:1007C00008404549086108E0052C06D04248006908
:1007D00041F6DF71084040490861204630BDF0B560
:1007E00005460E46174604243A483B4988603B4874
:1007F0008860E002FFF7ECFD0446042C19D136486E
:10080000006940F010003449086147F0F8003043B7
:1008100028433349891C0880E002FFF7D9FD0446CC
:10082000052C06D02C48006941F6EF7108402A4992
:1008300008612046F0BD2848C069800870472648F6
:10084000006A704700202449096811F0200F01D088
:10085000012000E00020704729B11F4A12690243BD
:100860001D4B1A6104E01C4A126982431A4B1A613B
:10087000704701460020012908D1174AD26912F0B9
:10088000010F01D0012008E0002006E0124AD268E2
:100890000A4201D0012000E0002070470E49C860E4
:1008A000704704200C49C96801F00101012901D1F8
:1008B00001200EE00849C96811F0040F01D00220A0
:1008C00007E00549C96811F0100F01D0032000E0CE
:1008D000042070472301674500200240AB89EFCD1B
:1008E00000F8FF1F10B50446CA48844208D1012110
:1008F000042000F099FB0021042000F095FB46E065
:10090000C548844208D10121082000F08DFB002158
:10091000082000F089FB3AE0C048844208D1012158
:10092000102000F081FB0021102000F07DFB2EE064
:10093000BB48844208D10121202000F075FB002132
:10094000202000F071FB22E0B648844208D101214A
:10095000402000F069FB0021402000F065FB16E01C
:10096000B148844208D10121802000F05DFB0021C4
:10097000802000F059FB0AE0AC48844207D10121F5
:10098000801500F051FB0021A01500F04DFB10BDBB
:1009900010B50121084600F047FB0021012000F0BE
:1009A00043FB10BD2DE9F041024600250026002042
:1009B00000230024002791F803C00CF00F0591F8E4
:1009C00003C01CF0100F03D091F802C04CEA0505DB
:1009D000B1F800C01CF0FF0F31D0146800202BE0EC
:1009E0004FF0010C0CFA00F3B1F800C00CEA03065A
:1009F0009E4220D183004FF00F0C0CFA03F7BC434A
:100A000005FA03FC4CEA040491F803C0BCF1280F7A
:100A100006D14FF0010C0CFA00FCC2F814C00AE039
:100A200091F803C0BCF1480F05D14FF0010C0CFA4E
:100A300000FCC2F810C0401C0828D1D31460B1F8E3
:100A400000C0BCF1FF0F34DD546800202EE000F13F
:100A5000080C4FF0010808FA0CF3B1F800C00CEADA
:100A600003069E4221D183004FF00F0C0CFA03F7CE
:100A7000BC4305FA03FC4CEA040491F803C0BCF142
:100A8000280F05D100F1080C08FA0CF8C2F8148000
:100A900091F803C0BCF1480F07D100F1080C4FF0EA
:100AA000010808FA0CF8C2F81080401C0828CED3C0
:100AB0005460BDE8F0814FF6FF7101800221817022
:100AC0000421C17070470246002093680B4201D098
:100AD000012000E0002070470146886880B270471E
:100AE00002460020D3680B4201D0012000E0002024
:100AF00070470146C86880B2704701617047416124
:100B000070470AB1016100E041617047C160704700
:100B10004FF480320A438261816182618269826915
:100B2000704702460020424B18684FF68073184009
:100B300040EA021008433E4B186070473D49C861C7
:100B40007047F0B50A46002300240021002500F07C
:100B50000046B6F1004F02D1354EF16901E0344E46
:100B60007168C0F3034583B200F44016B6F5401F28
:100B700008D121F070612E4E766826F070662C4FF9
:100B80007E6012E000F48016B6F5801F06D10326C1
:100B900006FA05F4A14341F0706106E0460D360106
:100BA00003FA06F6B14341F0706122B1460D3601F9
:100BB00003FA06F6314300F00046B6F1004F02D1C9
:100BC0001B4EF16101E01A4E7160F0BD30B500229C
:100BD0008B071C0F0F2303FA04F2154B08338C10FC
:100BE00053F824309343124C08348D1044F82530C8
:100BF00023468C1053F824308C07240F00FA04F499
:100C000023430B4C08348D1044F8253030BD0A497D
:100C10000860704700080140000C014000100140CE
:100C20000014014000180140001C01400020014058
:100C30000000014000002042DC002042704700BF5D
:100C4000FEE700BFFEE700BFFEE700BFFEE770471C
:100C5000704770477047000010B50121080700F089
:100C6000F0F900214FF0805000F0EBF910BD294958
:100C70000862704727490861704701460020264AEC
:100C8000106820F0E00008431060704723490860B6
:100C9000704710B5024600201F4B186820F0030073
:100CA000104318601E4B1B6843F004031C4C236068
:100CB000012901D130BF00E020BF194B1B6823F090
:100CC0000403174C236010BD1348006840F0040073
:100CD000114908600846006840F0020008601048AA
:100CE000006840F004000E49086000BF00BF30BF3C
:100CF000704701460020084A52680A4201D001208C
:100D000000E0002070470449096841EA8001024A76
:100D10001160704700000E4200700040A0000E42BB
:100D200010ED00E0DC48006840F00100DA4908609E
:100D300008464068D9490840D749486008460068D5
:100D4000D7490840D44908600846006820F480204C
:100D500008600846406820F4FE0048604FF41F0019
:100D600088607047CC49096821F48031CA4A116013
:100D70001146096821F480211160B0F5803F03D04D
:100D8000B0F5802F0ED106E0C349096841F48031E7
:100D9000C14A116007E0C049096841F4A021BE4A78
:100DA000116000E000BF00BF704710B5014600228F
:100DB000002300204A11012A02D1B74C236806E023
:100DC000022A02D1B44C236A01E0B34C636A01F0F9
:100DD0001F02012494401C4201D0012000E00020A9
:100DE00010BD70B500240025002600BF3120FFF79C
:100DF000DCFF0646641CB4F5A06F01D0002EF5D0D0
:100E00003120FFF7D2FF08B1012500E00025284678
:100E100070BD01460020A04A106820F0F80040EAAA
:100E2000C100106070479F4908607047024600206B
:100E3000994B586820F47C1042EA01031843964B02
:100E40005860704797490866704701460020924AEB
:100E5000506820F003000843506070478E48406897
:100E600000F00C007047014600208B4A506820F0CB
:100E7000F00008435060704701460020864A5068E1
:100E800020F4E06008435060704701460020824A29
:100E9000506820F4605040EAC1005060704729B1AA
:100EA0007D4A527A02437C4B5A7206E07A4A527A61
:100EB000C343DBB21A40784B5A7270477A490860D4
:100EC000704701460020744A506820F440400843AF
:100ED000506070470021754A11706F4A82F82010E7
:100EE000012802D0042808D103E001216F4A1170C3
:100EF00004E005216D4A117000E000BF00BF70479B
:100F00006B49086070476449096A0143624A11628B
:100F10007047674944390860704730B500210022A6
:100F2000002400235C4D6D6805F00C0121B10429FB
:100F300005D0082923D105E05E4D056022E05D4D16
:100F400005601FE0544D6D6805F47012524D6D68D8
:100F500005F48034022505EB92421CB9564D5543E9
:100F600005600BE04C4D6D6815F4003F03D0524D09
:100F70005543056002E04F4D5543056002E04D4D7D
:100F8000056000BF00BF444D6D6805F0F001090920
:100F90004A4D6B5C0568DD4045603F4D6D6805F46A
:100FA000E061090A454D6B5C4568DD4085603A4D5E
:100FB0006D6805F46051C90A404D6B5C4568DD40C1
:100FC000C560354D6D6805F44041890B3C4D6B5C47
:100FD000C568B5FBF3F5056130BD29B12E4A5269EC
:100FE00002432D4B5A6104E02B4A526982432A4B3B
:100FF0005A61704729B1284A92690243264B9A6187
:1010000004E0254A92698243234B9A61704729B1D3
:10101000214AD2690243204BDA6104E01E4AD269B8
:1010200082431D4BDA61704729B11B4AD2680243E3
:10103000194BDA6004E0184AD2688243164BDA6032
:10104000704729B1144A12690243134B1A6104E034
:10105000114A12698243104B1A6170471449403992
:10106000086070470F49C86470470B49C8717047E2
:101070000948406A40F0807007494862704701465D
:101080000020054A92680A4201D0012000E00020B9
:101090007047014988727047001002400000FFF855
:1010A000FFFFF6FE00004242D800424220100240FC
:1010B0008004424200127A0000093D000000002036
:1010C0001000002029B1524A12880243504B1A8066
:1010D00006E04F4A1288C3439BB21A404C4B1A8019
:1010E00070474B48001D008840F010004849091D1A
:1010F000088070474648001D00884FF6EF71084091
:101100004349091D08807047002141481C3001886F
:10111000001F008841EA0040704700B50246FFF713
:10112000E0FF100C3A4918310880091D0A80FFF7CA
:10113000E1FF00BD00B50246FFF7D3FFC2F3034055
:10114000334908310880091D0A80FFF7D3FF00BD2D
:1011500000B50246FFF7C5FF100C2D49203108806D
:10116000091D0A80FFF7C6FF00BD00202849103185
:1011700009880907080B2649143109880843704774
:1011800000BF2348001D008810F0200FF9D07047E1
:101190001F48001D00884FF6F77108401C49091DC3
:1011A000088000BF1A48001D008810F0080FF9D011
:1011B000704701460020164A121D12880A4201D0CB
:1011C000012000E0002070471149091D0988C24331
:1011D00092B211400E4A121D118070470146002044
:1011E0000B4A121D12880A40D0B2094A12880A42DC
:1011F00002D008B1012000E0002070470449091D19
:101200000988C24392B21140014A121D11807047F1
:101210000028004010B50446BF48844208D101218F
:101220008014FFF701FF0021A014FFF7FDFE16E078
:10123000BA48844208D101210014FFF702FF0021BF
:101240002014FFF7FEFE0AE0B548844207D10121D1
:10125000C013FFF7F6FE0021E013FFF7F2FE10BD0A
:1012600010B50022028802F441520B884C882343B7
:101270008C882343CC8823430C8923434C89234304
:101280008C892343CC8923431A430280838B4FF2FA
:10129000FF74234083830B8A038210BD2DE9F04F36
:1012A00085B005460C464FF0000902274FF00008B4
:1012B0004FF0010B0026B246A88B4FF240010840C8
:1012C000A88302202884B5F81C90A068022801D1C8
:1012D00000BF36E0A08810B94FF0010B01E04FF0DD
:1012E000020B8E48854200D100E000BF6846FFF740
:1012F00014FEDDF800A0E088B0F5007F0AD14FEAC7
:101300001A2000EB80004000A168B0FBF1F0401D06
:1013100086B20BE04FEA4B10BAFBF0F000EB800016
:101320004000A168B0FBF1F0401D86B20A20B6FB78
:10133000F0F606F00108A6EB0800C0F34F074FEAED
:101340000828022F01DBFF2F02DD02274FF00008E3
:10135000E08840EA080038432884A088A18908432F
:10136000618808432188084340F4006040EA090985
:10137000A5F81C9005B0BDE8F08F002101804180E8
:101380008180C180018141818181C18107210182E8
:1013900070470021018041808180C18002218160ED
:1013A00000218181704721B1028842F04002028011
:1013B00004E002884FF6BF731A400280704721B1E3
:1013C000828B42F48062828304E0828B4FF6FF338B
:1013D0001A408283704770B5002400230C11012548
:1013E000A540ABB21AB185881D43858004E085888D
:1013F000DE43B6B23540858070BD10B51AB1838822
:101400000B43838004E08388CC43A4B223408380D1
:1014100010BD81817047014688897047A1F57E42E1
:10142000FF3A04D0028842F48072028004E002880D
:101430004FF6FF631A400280704721B1828842F064
:101440000402828004E082884FF6FB731A40828097
:10145000704702884FF2FF731A40028002880A43E5
:1014600002807047018841F480510180704721B1AA
:10147000028842F40052028004E002884DF6FF73B5
:101480001A400280704702460020012901D0108BCB
:1014900000E0908A70470146088A7047B1F5804F96
:1014A00004D1028842F48042028004E002884BF6B4
:1014B000FF731A40028070470246002013890B42D6
:1014C00001D0012000E000207047CA43028170472C
:1014D000F0B50246002000240023002501F00F078C
:1014E0000126BE40B4B20B1101269E40B3B29688CD
:1014F00006EA03051689264202D00DB1012000E05C
:101500000020F0BD10B5002201F00F040123A3401C
:101510009AB2D343038110BD00300140003800402F
:10152000003C004010B50446FE48844208D1012129
:10153000C014FFF779FD0021E014FFF775FDC4E04A
:10154000B4F1804F08D101210846FFF77AFD002150
:101550000120FFF776FDB8E0F348844208D101216D
:101560000220FFF76EFD00210220FFF76AFDACE0CC
:10157000EE48844208D101210420FFF762FD0021DA
:101580000420FFF75EFDA0E0E948844208D1012174
:101590000820FFF756FD00210820FFF752FD94E0D8
:1015A000E448844208D101211020FFF74AFD0021C0
:1015B0001020FFF746FD88E0DF48844208D1012172
:1015C0002020FFF73EFD00212020FFF73AFD7CE0C0
:1015D000DA48844208D101214014FFF725FD00219B
:1015E0006014FFF721FD70E0D548844209D1012144
:1015F000C804FFF719FD00214FF40020FFF714FD88
:1016000063E0D048844209D101210805FFF70CFDB1
:1016100000214FF48010FFF707FD56E0CA488442CE
:1016200009D101214805FFF7FFFC00214FF400100C
:10163000FFF7FAFC49E0C548844208D10121402067
:10164000FFF7FFFC00214020FFF7FBFC3DE0C04816
:10165000844208D101218020FFF7F3FC0021802083
:10166000FFF7EFFC31E0BB48844208D1012180152F
:10167000FFF7E7FC0021A015FFF7E3FC25E0B648E3
:10168000844209D101210804FFF7CEFC00214FF468
:101690008030FFF7C9FC18E0B048844209D101212D
:1016A0004804FFF7C1FC00214FF40030FFF7BCFCF9
:1016B0000BE0AB48844208D101218804FFF7B4FC59
:1016C00000214FF48020FFF7AFFC10BD00220288FC
:1016D000944B98420ED0994B98420BD0B0F1804F6A
:1016E00008D0914B984205D0904B984202D0904B35
:1016F000984204D14FF68F731A404B881A438D4B92
:10170000984207D08C4B984204D04FF6FF431A40C2
:10171000CB881A4302808B8883850B880385814B95
:1017200098420BD0854B984208D08B4B984205D0FD
:101730008A4B984202D08A4B984201D10B7A038699
:1017400001238382704770B5002400220023058C9A
:101750004FF6FE7635400584028C8388048B4FF665
:101760008F752C40B51E2C400D882C43751E2A40C9
:101770000D892A434D882A436A4DA8420BD06F4DEC
:10178000A84208D0744DA84205D0744DA84202D09A
:10179000734DA84213D14FF6F7752A404D892A435D
:1017A0004FF6FB752A408D882A434FF6FF652B4084
:1017B0004FF6FF552B408D892B43CD892B438380DA
:1017C0000483CD888586028470BD70B50024002214
:1017D0000023058C4FF6EF7635400584028C838814
:1017E000048B48F6FF752C404FF6FF452C400D88C2
:1017F0002D0644EA15444FF6DF752A400D892D0564
:1018000042EA15424D882D0542EA1542454DA8424F
:1018100002D04A4DA8421BD14FF67F752A404D8910
:101820002D0542EA15424FF6BF752A408D882D05D9
:1018300042EA15424FF6FF352B404FF2FF752B4021
:101840008D89AD0443EA1543CD89AD0443EA1543C0
:1018500083800483CD880587028470BD70B5002421
:1018600000220023058C4FF6FF6635400584028C6C
:101870008388848B4FF68F752C404FF6FC752C4077
:101880000D882C434FF6FF552A400D892D0642EA5C
:1018900015424D882D0642EA1542224DA84202D03B
:1018A000264DA8421BD14FF2FF752A404D892D06C7
:1018B00042EA15424FF6FF352A408D882D0642EA4E
:1018C00015424EF6FF752B404DF6FF752B408D8966
:1018D0002D0543EA1543CD892D0543EA1543838041
:1018E0008483CD888587028470BD70B50022002373
:1018F0000024058C4EF6FF7635400584038C8488E1
:10190000828B48F6FF752A404FF6FF452A400D8826
:101910002D0642EA15424DF6FF752B400D892D0725
:1019200020E00000002C01400004004000080040BE
:10193000000C004000100040001400400034014042
:10194000004C01400050014000540140001800408C
:10195000001C0040002000400040014000440140C5
:101960000048014043EA15434D882D0743EA1543DB
:10197000F84DA84202D0F84DA84206D14BF6FF75AB
:101980002C408D89AD0544EA154484808283CD883E
:10199000A0F84050038470BD828B4FF2FF331A4091
:1019A0008283828B0B0642EA134282837047F0B532
:1019B0000C461546002200210026078C4EF6FF7CBF
:1019C00007EA0C070784828B018C27073E0C40F640
:1019D000FF473A402F0642EA17421F0742EA1742E2
:1019E000DC4FB8420ED0DC4FB8420BD0B0F1804F84
:1019F00008D0DA4FB84205D0D94FB84202D0D94FFB
:101A0000B84206D14DF6FF77394046F48057394346
:101A100005E047F6FF57394044F480573943828345
:101A20000184F0BD828B4FF6F3731A408283828B60
:101A30000A4382837047F0B50C4615460022002108
:101A40000026078C4FF6FF6C07EA0C070784828B91
:101A5000018C27063E0C4FF60C773A401F0545EAED
:101A600017473A43BB4FB8420ED0BB4FB8420BD0DA
:101A7000B0F1804F08D0B94FB84205D0B84FB84246
:101A800002D0B84FB84206D14FF6FF57394046F45E
:101A90008077394305E04FF2FF57394044F48077AF
:101AA000394382830184F0BD028B4FF2FF331A4029
:101AB0000283028B0B0642EA134202837047F0B5A1
:101AC0000C461546002200210026078C4FF6EF7CBD
:101AD00007EA0C070784028B018C27053E0C40F6B1
:101AE000FF473A401F0742EA17422F0642EA1742D1
:101AF000984FB8420ED0984FB8420BD0B0F1804FFB
:101B000008D0964FB84205D0954FB84202D0954FB5
:101B1000B84206D14FF6DF77394046F01007394317
:101B200005E04FF65F77394044F0100739430283F0
:101B30000184F0BD028B4FF6F3731A400283028BCF
:101B40000A4302837047F0B50C4615460022002177
:101B5000068C4FF6FE773E400684028B018C4FF6D2
:101B60000C7632401E0545EA16463243794EB042A5
:101B70000ED0794EB0420BD0B0F1804F08D0774EE6
:101B8000B04205D0764EB04202D0764EB04206D179
:101B90004FF6FD76314044F00106314305E04FF643
:101BA000F576314044F00106314302830184F0BDF3
:101BB00070B505460C46674885420ED0664885429A
:101BC0000BD0B5F1804F08D06448854205D06448F9
:101BD000854202D06348854200D100E000BF2088E2
:101BE00050B92389A28861882846FFF7ACFFE188B5
:101BF0002846FFF79FFF25E0208804280AD1238983
:101C0000A28861882846FFF75AFFE1882846FFF737
:101C10004BFF17E0208808280AD12389A288618811
:101C20002846FFF708FFE1882846FFF7FBFE09E09A
:101C30002389A28861882846FFF7B9FEE1882846F3
:101C4000FFF7AAFE70BD2DE9F04105460C460026BF
:101C50000127608808B9022600E00026A088012834
:101C600001D1022700E001272088A0B92389A2889A
:101C700061882846FFF767FFE1882846FFF75AFF8B
:101C800023893A4631462846FFF719FFE18828465E
:101C9000FFF70AFF13E02389A28861882846FFF72F
:101CA0000EFFE1882846FFF7FFFE23893A463146BA
:101CB0002846FFF748FFE1882846FFF73BFFBDE8CD
:101CC000F0810A884B881A438B881A43CB881A43C1
:101CD0000B891A434B891A438B891A43A0F8442075
:101CE00070474FF6FF71818000210180C1804180E3
:101CF000017270470021018041808180C180018193
:101D000041818181C1817047002101804180012191
:101D100081800021C18001817047002101804180C4
:101D20008180C180018141818181704721B1028818
:101D300042F00102028004E002884FF6FE731A406E
:101D40000280704781B1B0F8442042F40042A0F80C
:101D500044200FE0002C014000340140000400400A
:101D600000080040000C0040B0F84420C2F30E020E
:101D7000A0F84420704710B51AB183890B438381C2
:101D800004E08389CC43A4B22340838110BD8182C7
:101D9000704741EA0203A0F84830704710B51AB105
:101DA00083890B43838104E08389CC43A4B223401D
:101DB000838110BD01894FF6F8721140018170478F
:101DC0000A46002101894FF68F73194011430181A2
:101DD000704730B504460D4629462046FFF7F0FF10
:101DE000208940F00700208130BD2DE9F0410446F4
:101DF0000D4616461F46602D06D13B460122314650
:101E00002046FFF75CFE05E03B46012231462046B6
:101E1000FFF799FE29462046FFF7D2FF208940F0C0
:101E200007002081BDE8F08130B50C460021018912
:101E3000C9B21D0642EA154525432943018130BD3B
:101E40002DE9F04105460E461746984600244346C4
:101E50003A4631462846FFF7E7FF2C894FF6F870DF
:101E6000044044F007044FF68F70044044F07004BF
:101E70002C81BDE8F081F0B504460D4616461F469C
:101E80003B46324629462046FFF7CEFF208940F4E4
:101E900080402081F0BD0185828270470A46002182
:101EA00001884FF68F731940114301807047F0B5D8
:101EB0000C4615461E460021002200230189028B94
:101EC000038C4FF6F877394021434FF6FC473A40F0
:101ED00040F201173A434FF6DD773B40370545EABC
:101EE00017473B43018102830384F0BD0A4600216A
:101EF000018B4FF68F7319401143018370470A46D7
:101F00000021018B48F6FF731940130641EA134183
:101F1000018370470A460021818B4FF68F73194069
:101F20001143818370470A460021818B48F6FF7375
:101F30001940130641EA13418183704721B1028899
:101F400042F08002028004E002884FF67F731A405C
:101F50000280704721B1828842F00402828004E04E
:101F600082884FF6FB731A408280704721B18288C5
:101F700042F00802828004E082884FF6F7731A402C
:101F80008280704721B1828842F00102828004E0A1
:101F900082884FF6FE731A40828070470A460021FD
:101FA000018B4FF6F77319401143018370470A46BE
:101FB0000021018B4FF2FF731940130641EA1341D0
:101FC000018370470A460021818B4FF6F773194051
:101FD0001143818370470A460021818B4FF2FF73C2
:101FE0001940130641EA1341818370470A460021D4
:101FF000018B4FF6FB7319401143018370470A466A
:102000000021018B4FF6FF331940130641EA1341BB
:10201000018370470A460021818B4FF6FB731940FC
:102020001143818370470A460021818B4FF6FF33AD
:102030001940130641EA1341818370470A46002183
:10204000018B4FF67F7319401143018370470A4695
:102050000021018BC1F30E01130641EA13410183F4
:1020600070470A460021818B4FF67F731940114358
:10207000818370470A460021818BC1F30E0113064C
:1020800041EA1341818370470A460021018C4FF6D3
:10209000FD7319401143018470470A460021018CE9
:1020A0004FF6F77319401143018470470A46002127
:1020B000018C4FF6DF731940130541EA1341018487
:1020C00070470A460021018C4FF67F7319401305B3
:1020D00041EA1341018470470A460021018C4FF602
:1020E000FF531940130641EA1341018470470A4621
:1020F0000021018C4FF2FF731940130641EA13418E
:10210000018470470A460021018C4DF6FF73194087
:10211000130741EA13410184704730B500230124BD
:102120008C40A3B2048CDD43ADB22C400484048CFB
:1021300002FA01F5ADB22C43048430BD30B5002362
:1021400004248C40A3B2048CDD43ADB22C40048443
:10215000048C02FA01F5ADB22C43048430BD70B595
:102160000346002000241846183001258D40ACB2EB
:102170001D8CE643B6B235401D8409B1082909D14A
:1021800000EB6100056825F07005056005681543E2
:1021900005600CE00D1FADB200EB6500056825F48D
:1021A000E04505600568160645EA1645056070BD00
:1021B00021B1028842F00202028004E002884FF658
:1021C000FD731A400280704721B1028842F0040278
:1021D000028004E002884FF6FB731A4002807047C9
:1021E00021B1828842F08002828004E082884FF62A
:1021F0007F731A408280704702884FF6F7731A4047
:10220000028002880A430280704782884FF68F73EB
:102210001A40828082880A438280704702894FF682
:10222000F8731A40028102890A43028170470289C9
:102230004FF67F731A40028102890A430281704778
:102240008184704781857047818670470187704718
:1022500081877047A0F84010704702884FF6FF430F
:102260001A40028002880A43028070470146888E25
:1022700070470146088F70470146888F70470146B6
:10228000B1F8400070470146888C70470146088DC0
:10229000704702460020138A0B4201D0012000E063
:1022A00000207047CA430282704730B502460020C2
:1022B00000230024158A05EA0103958905EA010433
:1022C00013B10CB1012000E0002030BDCA430282EE
:1022D0007047000000210020674A126842F48032F3
:1022E000654B1A6000BF644A126802F40030491C52
:1022F00010B9B1F5A06FF6D15F4A126812F4003F31
:1023000001D0012000E00020012842D15B4A126880
:1023100042F01002594B1A601A46126822F003026A
:102320001A601A46126842F002021A60524A526853
:10233000514B5A601A4652685A601A46526842F423
:1023400080625A601A46526822F47C125A601A4619
:10235000526842F4E8125A601A46126842F08072DB
:102360001A6000BF444A126812F0007FFAD0424A55
:10237000526822F00302404B5A601A46526842F0FB
:1023800002025A6000BF3C4A526802F00C02082A5E
:10239000F9D1704710B5FFF79DFF10BD10B5364855
:1023A000006840F00100344908600846406834493C
:1023B00008403149486008460068324908402E49C3
:1023C00008600846006820F48020086008464068DD
:1023D00020F4FE0048604FF41F008860FFF7DAFF2A
:1023E0004FF000602849086010BD10B500210020A2
:1023F0000022214B5B6803F00C0121B1042906D0B7
:10240000082928D107E0214B214C236027E01F4BEE
:102410001F4C236023E0184B5B6803F47010164BCD
:102420005B6803F48032022303EB904022B9194B1E
:102430004343174C23600DE00F4B5B6813F4003FE0
:1024400004D0144B4343124C236003E00F4B43432F
:102450000F4C236003E00D4B0D4C236000BF00BF09
:10246000054B5B68C3F303130B4CE15C084B1B6823
:10247000CB40074C236010BD0010024000200240FA
:102480000000FFF8FFFFF6FE08ED00E000127A0002
:102490001400002000093D001800002010B504467B
:1024A000FC48844209D101218803FEF7BDFD0021CB
:1024B0004FF48040FEF7B8FD32E0F748844209D17E
:1024C00001214804FEF7BDFD00214FF40030FEF766
:1024D000B8FD25E0F148844209D101218804FEF7C6
:1024E000B0FD00214FF48020FEF7ABFD18E0EC4872
:1024F000844209D10121C804FEF7A3FD00214FF455
:102500000020FEF79EFD0BE0E648844208D1012141
:102510000805FEF796FD00214FF48010FEF791FDAF
:1025200010BD2DE9F04786B005460E460024A246B0
:1025300000BFA1460027B08900B100BF2F462C8AFA
:102540004CF6FF700440F08804432C82AC894EF6B0
:10255000F3100440B088318908437189084304436B
:10256000AC81AC8A4FF6FF400440B0890443AC8292
:1025700001A8FEF7D2FCC748874202D1DDF810A0BF
:1025800001E0DDF80CA0A88910F4004F08D00AEB98
:10259000CA0000EB0A1031684900B0FBF1F807E00F
:1025A0000AEBCA0000EB0A1031688900B0FBF1F8B1
:1025B0006420B8FBF0F004012009642101FB1089BC
:1025C000A88910F4004F08D0322000EBC900B0FBFE
:1025D000F1F000F00700044308E0322000EB09109E
:1025E0006421B0FBF1F000F00F0004432C8106B031
:1025F000BDE8F0874FF41651016000218180C18051
:1026000001810C21418100218181704710B5024672
:102610000020108A4FF2FF0318400B884C88234398
:102620008C882343CC8823431843108210BD00219B
:10263000018041808180C180704721B1828942F44C
:102640000052828104E082894DF6FF731A40828134
:102650007047F0B503460024002600250020A1F5B0
:1026600010676A3F00D100BF1846C1F3421401F061
:102670001F06012707FA06F5012C01D10C3004E0F2
:10268000022C01D1103000E014301AB107682F433A
:10269000076002E00768AF430760F0BD10B51AB1EC
:1026A000838A0B43838204E0838ACC43A4B2234011
:1026B000838210BD028A4FF6F0731A400282028AAA
:1026C0000A430282704782894FF2FF731A40828167
:1026D00082890A438281704721B1828942F00202D5
:1026E000828104E082894FF6FD731A40828170472F
:1026F000028A4FF6DF731A400282028A0A4302827C
:10270000704721B1028A42F48042028204E0028AC8
:102710004BF6FF731A4002827047C1F308028280B1
:10272000704701468888C0F308007047818941F0EE
:10273000010181817047028BD2B20283028B42EA8F
:10274000012202837047028B02F47F420283028BD4
:102750000A430283704721B1828A42F020028282BA
:1027600004E0828A4FF6DF731A408282704721B1FB
:10277000828A42F01002828204E0828A4FF6EF736E
:102780001A408282704721B1828A42F00802828216
:1027900004E0828A4FF6F7731A408282704721B1B3
:1027A000828942F40042828103E08289C2F30E02F0
:1027B0008281704721B1828A42F40062828204E001
:1027C000828A4FF2FF731A4082827047828A4FF6E4
:1027D000FB731A408282828A0A438282704721B147
:1027E000828A42F00202828204E0828A4FF6FD73FE
:1027F0001A408282704702460020B1F5007F00D166
:1028000000BF13880B4201D0012000E00020704778
:1028100001F40072B2F5007F00D100BFCA4302800C
:10282000704770B502460024002300250020A1F562
:1028300010666A3E00D100BFC1F3421501F01F03CC
:10284000012606FA03F3012D02D19689334006E0F2
:10285000022D02D1168A334001E0968A33400C12D1
:10286000012606FA04F41688344013B10CB1012095
:1028700000E0002070BD10B500220023A1F5106417
:102880006A3C00D100BF0A1201249440A3B2DC4389
:10289000048010BD00380140004400400048004062
:1028A000004C00400050004010B50120FEF7D6FB60
:1028B0000020FEF7D3FB10BD244908607047234970
:1028C000091F08607047214984310860704701463C
:1028D00000201F4A10884FF67F42104008431C4AD0
:1028E0001080704701460020194A10884FF6807208
:1028F00010400843164A108070470022144A2C3AB0
:1029000002441160704701460022114A2C3A0A44E1
:10291000108870470D489C300068C0B270470C4862
:102920000830008840F001000949083108807047EC
:102930000648A0300068C0B27047054808300088DB
:1029400040F00200024908310880704704860D42B9
:102950002C6C004008B501215420FEF74BFB4FF4CE
:102960007F40ADF8000010208DF8030003208DF8A3
:1029700002006946F948FEF715F84FF47F40F74921
:10298000143108600320ADF800006946F448FEF7F2
:1029900009F80320F249143108603F20ADF8000027
:1029A0006946F048FDF7FEFF3F20EE491031086010
:1029B0001020ADF800006946EB48FDF7F3FF10204A
:1029C000E949086108BD08B501212020FEF712FB86
:1029D0002020ADF8000010208DF8030003208DF8B2
:1029E00002006946E148FDF7DDFF08BD10B500248F
:1029F000FFF7E9FF00BF0EE02021DC48FEF77DF87D
:102A0000012004F034FC2021D848FEF778F801209A
:102A100004F02DFC641C642CEEDB322004F027FC57
:102A200000240EE02021D148FEF767F8012004F0D1
:102A30001EFC2021CD48FEF762F8012004F017FCAF
:102A4000641C642CEEDB10BD08B54FF47F40ADF87C
:102A5000000004208DF8030003208DF80200694671
:102A6000BE48FDF79FFF4FF47A7004F04CFC08BDA0
:102A700008B54FF47F40ADF8000010208DF803003A
:102A800003208DF802006946B448FDF78BFF4FF430
:102A90007A7004F038FC08BD70B504462546AF488E
:102AA0000C300068C0B2AD490C31086008460068BF
:102AB00040EA052008600220A9491031086003207F
:102AC00004F021FCA5480C300068C0B2A3490C31C9
:102AD000086008460168681C41EA00209F490C31E3
:102AE000086002209E4914310860032004F00BFCAA
:102AF00070BD70B504462578667898480C3000683B
:102B0000C0B296490C3108600846006840EA0520CA
:102B100008600220924910310860052004F0F3FBA0
:102B20008E480C300068C0B28C490C3108600846F1
:102B3000006840EA062008600220894914310860D4
:102B4000052004F0E0FB70BD70B504460220844906
:102B500010310860072004F0D6FB80480830006878
:102B600085B2280A207002207D49143108600720B0
:102B700004F0C9FB79480830006885B2280A607003
:102B800070BD70B5044677480C3000684FF6C071D0
:102B9000214300EA010573480C3005604FF47A7058
:102BA00004F0B1FB70BD10B56E480C30006880B207
:102BB00040F03F046B480C300068204369490C31F9
:102BC00008604FF4FA6004F09EFB10BD10B50120C0
:102BD000634914310860142004F095FB012060491A
:102BE00010310860FFF7DFFF502004F09BFB01204D
:102BF0005B4914310860C82004F094FB10BD2DE936
:102C0000F04107460D4616463846FFF7BAFF022048
:102C100004F088FB002403E02819FFF76AFFA41CD6
:102C2000B442F9DBFFF7BFFFBDE8F0812DE9F047C3
:102C3000ADF5206D82460E4690461C464FF440721C
:102C40000021684600F03EFE300E8DF80000300C8A
:102C50008DF80100300A8DF80200F0B28DF8030003
:102C6000A146A01D84B2200A8DF80400E0B28DF8C0
:102C70000500002505E018F80510A81D0DF8001046
:102C80006D1C4D45F7DB2146684600F077FE074690
:102C9000380A0DF80400F9B2601C0DF80010A01CF1
:102CA00084B25046FFF76DFF002504E00DEB0500F0
:102CB000FFF71FFFAD1CA542F8DBFFF774FF0DF512
:102CC000206DBDE8F0872DE9F047C0B080460F4683
:102CD0004FF0FF0900244FF48071684604F0E3FED2
:102CE000A246FFF7B1FE4046FFF74BFF002500BFAD
:102CF0000DEB0500FFF728FFAD1C9DF80000801CC0
:102D0000A84203DD9DF80000FF28F1D19DF80040A6
:102D10002146684600F032FE0646601C1DF80000A1
:102D20001DF8041000EB01201FFA80FA564508D167
:102D30003CB1A21C6946384600F0A4FD4FF00009E2
:102D400003E040F6B83004F0DEFAFFF72CFFFFF79F
:102D50008FFE484640B0BDE8F087000000180140F3
:102D6000000C014000080140001001400014014027
:102D70002DE9F043C1B0804600244FF4807101A8D2
:102D800004F091FEA146FFF75FFE4046FFF7F9FE13
:102D9000002500BF01A94819FFF7D6FEAD1C9DF81C
:102DA0000400801CA84203DD9DF80400FF28F1D137
:102DB0009DF80440214601A800F0E0FD064601A967
:102DC000601C085C095D00EB01201FFA80F94E458C
:102DD00007D134B19DF806009DF8071000EB0120E3
:102DE00087B2FFF7E0FEFFF743FE384641B0BDE88B
:102DF000F08370B58EB00546002423E000263346EC
:102E00000BAA12492046FFF711FF4FF47A7004F025
:102E10007AFA1E22002103A800F054FD03A92046DF
:102E2000FFF751FF0DF804001DF8040030B99DF8BC
:102E30000D001A2802D10020285501E00120285554
:102E4000601CC4B20A2CD9DB0EB070BD02155FA0A5
:102E50002DE9F743ADF6982D06468846614800688F
:102E60006149884211D361A000F036FE00F010FEE7
:102E7000012361A2A021084600F09CFE814600F0DB
:102E80002BFE00F005FE00BFFEE703F00BFD5548EA
:102E900000685D49086000255DE000245B495148F9
:102EA000006800F05FFD26A908190422574900F0C8
:102EB000E9FC241D26A9081901220DF52A6100F05C
:102EC000E1FC641C8022002101A800F0FBFC4F49BA
:102ED0004448006800F046FD04224C490DF1110001
:102EE00000F0D0FC30128DF81500F0B28DF816000D
:102EF0000DF1190003F099FE0BA802F025FC0FA8B4
:102F000002F02DFC9DF8A00A8DF84C003522FF211F
:102F10000DF14D0000F0D6FC7E2101A800F02EFD41
:102F20000746380A8DF88200F8B28DF8830026A98A
:102F30000819802201A900F0A5FC8034234626AAA6
:102F400041462846FFF772FE26480068401C254986
:102F50000860681CC5B20A2D9FDB0A22002123A845
:102F600000F0B0FC284800681E490860072002F005
:102F7000AAF923A8FFF73DFF21A800F0ACFC1948EF
:102F800000680A30174908600122500403F0F0FB82
:102F900023A800F0B3FF0DF6A42DBDE8F0832DE9C2
:102FA000F04105460E46174617E0002404F002FAE9
:102FB0000446B4F5D05F0CD1FFF708FE642004F09E
:102FC00056F902F047F93A4631462846FFF740FFE6
:102FD00003E0B4F5C85F00D100E0E6E700BFBDE85C
:102FE000F08100003C080020E0930400434C52288C
:102FF00030293B0D0A000000B3ACB9FDC9D5C2BCF5
:10300000BCC6CAFD000000003000002028000020DF
:103010002DE9F041ADF5216D06460C46174620021C
:10302000C0B28DF81000E0B28DF811008DF812706A
:10303000002509E04FF00408434604AA314628461B
:10304000FFF7F4FD681CC5B20A2DF3DB0021022056
:1030500002F013FA0A22002101A800F033FC01A8B3
:10306000FFF7C7FE01A800F049FF0DF5216DBDE88F
:10307000F0812DE9F04105460E46174617E0002481
:1030800004F098F90446B4F5D05F0CD1FFF79EFD2B
:10309000642004F0ECF802F0D2F93A4631462846B2
:1030A000FFF7B6FF03E0B4F5C85F00D100E0E6E744
:1030B00000BFBDE8F081000070B5C4B00646C8206E
:1030C00004F030F9002407E000252B4601AA32491C
:1030D000E0B2FFF7ABFD641C0A2CF5DB4FF4FA609D
:1030E00004F020F90A22002141A800F0EBFB41A8DE
:1030F000FFF77FFE41A800F001FF44B070BD70B53E
:10310000054646E0002404F055F90446B4F5D05FC6
:1031100036D1FFF75BFD642004F0A9F81FA000F092
:10312000DBFC00F0B5FC0F231FA22821702000F06B
:1031300041FD064600F0D0FC00F0AAFC1F480078D4
:1031400000EB80001E49096801EB80000523642123
:103150004268822000F02EFD064600F0BDFC00F023
:1031600097FC042317A2A021902000F023FD06461F
:1031700000F0B2FC00F08CFC2846FFF79DFF08E051
:10318000B4F5C85F05D100200C49087010490870DB
:1031900000E0B7E700BF70BD01155EA1434C5228A7
:1031A00030293B0D0A000000D5FDD4DAD6B4D0D0CA
:1031B000BDE2CBF8C3FCC1EE000000002E080020E9
:1031C00028080020BDE2CBF8D6D02E2E2E0000001D
:1031D0002C08002002F01DF802F012F801F056FF52
:1031E00001E001F0FFFBFCE770B5F949097801EB5C
:1031F0008101F84A126802EB8101486802F0DAFAAC
:1032000031E3002504F0D6F80546B5F5D05F6FD15F
:10321000EF48007800EB8000EE49096801EB800080
:10322000047CEB48007800EB8000EA49096801EB78
:103230008000807C562806D0572808D058280BD00C
:1032400059280FD10BE02046FFF759FF0AE001F0A3
:10325000EEFF01F0A5FE05E002F001FB70BD02F0FB
:10326000F8FA00BF00BFDA48007800EB8000D949C7
:10327000096801EB8000807C562831D2DFE800F03D
:103280002B313940474E555C636A71787F868D9447
:103290009BA2A9F3FAF0EFEEEDECEBEAE9E8E7E642
:1032A000E5E4E3E2E1E0DFDEDDDCDBDAD9D8D7D646
:1032B000D5D4D3D2D1D0CFCECDCCCBCAC9C8C7C636
:1032C000C5C4C3C2C1C0BFBEBDBCBBBAB9B8B7B626
:1032D000B5B4B3B2B1B02246BF490020FFF75FFEDC
:1032E0009CE22246BC49491C0120FFF758FE95E2AA
:1032F00095E22246B849891C0220FFF750FE8DE274
:103300002246B549C91C0320FFF749FE86E2224642
:10331000B149091D0420FFF742FE7FE22246AE4973
:10332000491D0520FFF73BFE78E22246AA49891D88
:103330000620FFF734FE71E22246A749C91D072087
:10334000FFF72DFE6AE22246A34908310820FFF765
:1033500026FE63E22246A04909310920FFF71FFE3D
:103360005CE222469C490A310A20FFF718FE55E22A
:10337000224699490B310B20FFF711FE4EE22246FF
:1033800095490C310C20FFF70AFE47E2224692498C
:103390000D310D20FFF703FE40E222468E490E312B
:1033A0000E20FFF7FCFD39E222468B490F310F203A
:1033B000FFF7F5FD32E22246874910311020FFF772
:1033C000EEFD2BE22246844911311120FFF7E7FD83
:1033D00024E22246804912311220FFF7E0FD1DE26F
:1033E00015E20DE205E2FDE1F5E1EDE1E5E1DDE10A
:1033F000D5E1CDE1C5E1BDE1B5E1ADE1A5E19DE1FD
:1034000095E18DE185E17DE175E16DE165E15DE1EC
:1034100055E14DE145E13DE135E12DE125E11DE1DC
:1034200015E10DE105E1FDE0F5E0EDE0E5E0DDE0D1
:10343000D6E0C6E0BFE0B7E0AFE0A7E09FE097E0EE
:103440008FE087E07FE077E06FE067E05FE057E0E4
:103450004FE047E03FE037E02FE027E01FE017E0D4
:103460000FE007E0FFE722465B4913311320FFF727
:1034700096FDD3E12246584914311420FFF78FFD01
:10348000CCE12246544915311520FFF788FDC5E1EE
:103490002246514916311620FFF781FDBEE1224632
:1034A0004D4917311720FFF77AFDB7E122464A4907
:1034B00018311820FFF773FDB0E122464649193153
:1034C0001920FFF76CFDA9E1224643491A311A2061
:1034D000FFF765FDA2E122463F491B311B20FFF7A4
:1034E0005EFD9BE122463C491C311C20FFF757FD45
:1034F00094E1224638491D311D20FFF750FD8DE132
:10350000224635491E311E20FFF749FD86E122463D
:1035100031491F311F20FFF742FD7FE122462E492E
:1035200020312020FFF73BFD78E122462A49213156
:103530002120FFF734FD71E1224627492231222064
:10354000FFF72DFD6AE12246234923312320FFF7AF
:1035500026FD63E12246204924312420FFF71FFD88
:103560005CE122461C4925312520FFF718FD55E175
:103570002246194926312620FFF711FD4EE1224649
:10358000154927312720FFF70AFD47E12246124956
:1035900028312820FFF703FD40E122460E4929315A
:1035A0002920FFF7FCFC39E122460B492A312A2069
:1035B000FFF7F5FC32E1224600210848FFF759FDEC
:1035C0002CE1224601210548401CFFF752FD25E170
:1035D0002E0800202808002000115DA200115CA325
:1035E00022460221A248FFF744FD17E122460321AB
:1035F0009F48401CFFF73DFD10E1224604219C48F6
:10360000801CFFF736FD09E1224605219848C01CC1
:10361000FFF72FFD02E1224606219548001DFFF726
:1036200028FDFBE0224607219148401DFFF721FDC0
:10363000F4E0224608218E48801DFFF71AFDEDE0D8
:10364000224609218A48C01DFFF713FDE6E0224605
:103650000A2187480830FFF70CFDDFE022460B21E6
:1036600083480930FFF705FDD8E022460C21804849
:103670000A30FFF7FEFCD1E022460D217C480B30DA
:10368000FFF7F7FCCAE022460E2179480C30FFF71D
:10369000F0FCC3E022460F2175480D30FFF7E9FC2E
:1036A000BCE02246102172480E30FFF7E2FCB5E084
:1036B000224611216E480F30FFF7DBFCAEE02246B8
:1036C00012216B481030FFF7D4FCA7E022461321EB
:1036D00067481130FFF7CDFCA0E022461421644872
:1036E0001230FFF7C6FC99E02246152160481330DE
:1036F000FFF7BFFC92E0224616215D481430FFF729
:10370000B8FC8BE02246172159481530FFF7B1FC71
:1037100084E02246182156481630FFF7AAFC7DE0C7
:103720002246192152481730FFF7A3FC76E02246C3
:103730001A214F481830FFF79CFC6FE022461B21EE
:103740004B481930FFF795FC68E022461C21484899
:103750001A30FFF78EFC61E022461D2144481B30E1
:10376000FFF787FC5AE022461E2141481C30FFF734
:1037700080FC53E022461F213D481D30FFF779FCB5
:103780004CE0224620213A481E30FFF772FC45E00B
:103790002246212136481F30FFF76BFC3EE02246CF
:1037A000222133482030FFF764FC37E022462321F2
:1037B0002F482130FFF75DFC30E0224624212C48C1
:1037C0002230FFF756FC29E02246252128482330E5
:1037D000FFF74FFC22E02246262125482430FFF740
:1037E00048FC1BE02246272121482530FFF741FCF9
:1037F00014E0224628211E482630FFF73AFC0DE04F
:10380000224629211A482730FFF733FC06E02246DA
:103810002A2117482830FFF72CFC00BF23E0B5F51C
:10382000C85F20D113480078134908701148007808
:10383000801D1249087008460078114909788842AD
:1038400010DD0F4800780D4908700D4800780628F3
:1038500005DB0B480078801F0749087002E0002054
:103860000549087000E0CCE400BF00BFF6E40000AA
:1038700002115CA32E0800202C0800202D08002037
:103880003708002010B50346002002E00C5C1C54F1
:10389000401C9042FAD310BD70B50446002003E0EE
:1038A0000D5CC618A555401C9042F9D370BD70B58B
:1038B0000446002003E00D5CC618A555401C90424C
:1038C000F9DB70BD10B50346002001E01954401C1F
:1038D0009042FBD310BD10B5264A1168264AB1FBB1
:1038E000F2F230320270234A1268234BB2FBF3F437
:1038F00003FB142142F21072B1FBF2F2303242703B
:103900001C4A126842F21073B2FBF3F403FB142159
:103910004FF47A72B1FBF2F230328270154A1268BB
:103920004FF47A73B2FBF3F403FB14216422B1FB6E
:10393000F2F23032C2700F4A12686423B2FBF3F421
:1039400003FB14210A22B1FBF2F230320271094A60
:1039500012680A23B2FBF3F403FB142101F13002D5
:10396000427110BD020E0A70020C4A70020A8A707F
:10397000C87070473C080020A086010010B50246C0
:103980000B464FF6FF7109E010784840C0B2394C41
:1039900034F8100080EA21215B1E521C002BF3D169
:1039A000C84380B210BDF0B505460E4631462846E4
:1039B000FFF7E4FF0446E0B280EA24273846F0BD72
:1039C00030B50446D7212046FFF7D8FF0546281218
:1039D00094F8D710884206D194F8D800E9B288420A
:1039E00001D1002030BD0120FCE7F0B504460B46B4
:1039F00013B9FF27177057704FF6FF70002112E0C0
:103A0000665C00250CE080EA060717F0010F04D081
:103A100048F2084787EA600000E0401076106D1C0D
:103A2000082DF0D3491C9942EAD3C7B287F0FF07AB
:103A30001770FF2787EA20275770F0BDF0B50446BE
:103A40000D4646F26330002310E0E15CC2B2514003
:103A50000A46120182EA0107FAB2D100161171403A
:103A6000060A7140120281EA02005B1CAB42ECD3F1
:103A7000F0BD00002693000800BFFE48008810F04B
:103A8000200FFAD0FB48001D0088C0F308007047E3
:103A9000002000BFF8490978C02910D1F7490978FA
:103AA0004F290CD1F54949784B2908D10021F34A17
:103AB00011705170F04A1170F14A11700AE001461C
:103AC000401CF04A9142E5D30021EB4A1170EC4AC8
:103AD000117000BF00BF704710B504460FE020789A
:103AE00060B12178E348FEF718FE00BF8021E1486D
:103AF000FEF781FE0028F9D0641C00E010BDEEE75F
:103B000000B587B0012144F20500FDF773FA4FF4C8
:103B10000070ADF8180003208DF81A0018208DF8F9
:103B20001B0006A9D848FCF73DFF4FF48060ADF8B4
:103B3000180004208DF81B0006A9D348FCF732FFBB
:103B400025208DF8040003208DF805008DF806006F
:103B500001208DF8070001A8FCF77FFB4FF4E1304E
:103B600002900020ADF80C00ADF80E00ADF810008A
:103B7000ADF814000C20ADF8120002A9BD48FEF704
:103B8000D0FC012240F22551BA48FEF762FD012126
:103B9000B848FEF752FD4FF47A7003F0C3FBBBA0A8
:103BA000FFF79AFFFFF774FF4FF4FA7003F0BAFBC8
:103BB00007B000BD2DE9FE4F05460E461746984654
:103BC0000024B5A103C9CDE90101B5A000680090AA
:103BD00064220021B348FFF775FE0023052201A9E6
:103BE000B048FFF764FEA946642099FBF0F030303E
:103BF000AC494871642099FBF0F100FB11900A2157
:103C000090FBF1F03030A74988710A2099FBF0F160
:103C100000FB11903030A349C8712C200872B246C5
:103C200064209AFBF0F03030487264209AFBF0F187
:103C300000FB11A00A2190FBF1F030309949887205
:103C40000A209AFBF0F100FB11A030309549C872B0
:103C50002C2008732720487305E0395D914A04F150
:103C60000E001154641C385D0028F6D127218D4ABE
:103C700004F10E0011542C21401C11540A2098FB11
:103C8000F0F03030C1B204F1100011540A2098FB5A
:103C9000F0F100FB11803030C1B204F11100115479
:103CA000431C042269467F48FFF701FE00217D4A3C
:103CB00004F1160011541046BDE8FE8F2DE9F041C5
:103CC00004460D467849097801EB8101774A12686C
:103CD00002EB8101486803F095FE4FF4F071A1EB0F
:103CE0000010460805232A46A1B2B0B2FFF762FFD2
:103CF0000746FFF7F1FEBDE8F0812DE9F04F93B0E4
:103D0000074600254FF0B4094FF0230A002605208E
:103D100012904FF00A0B32201190282010900024AE
:103D200001200E9002200D900F200C904FF0000803
:103D300000200A9024225EA101A803F082FE65A063
:103D4000FFF7CAFEFFF7A4FE5748007800EB80009B
:103D5000564A126802EB800041681420FFF7AEFF5C
:103D6000FFF796FE5EA23C2190200C9BFFF722FFFE
:103D70000090FFF7B1FEFFF78BFE00BF4FE006F1AA
:103D80004100C0B20A900AFB169081B20AAA1FFA3B
:103D90008BF00C9BFFF70EFF0090FFF79DFEFFF7E7
:103DA00077FE38E000208DF82D0004F13100C0B21C
:103DB0008DF82C00092C05D131208DF82C003020F5
:103DC0008DF82D00785D012806D10E980F9008F12E
:103DD000010000F0FF0801E00D980F9006FB1A9219
:103DE00091B2DDE9103204FB032290B20BAA0F9BC3
:103DF000FFF7E0FE0090FFF76FFEFFF749FE785DEA
:103E0000401078556D1C322D00DD06E0092C01D1E3
:103E1000002402E0641C0A2CC4DB00BF761C12984C
:103E20008642ACDBB8F1000F0CD1172330A24FF45F
:103E30008C71B020FFF7BEFE0090FFF74DFEFFF73C
:103E400027FE14E00A2098FBF0F03030C0B28DF865
:103E500016000A2098FBF0F100FB11803030C0B250
:103E60008DF8170001A8FFF737FEFFF711FE13B01A
:103E7000BDE8F08F00380140180800201A08002023
:103E80001908002000350C00000801404449522860
:103E900031293B0D0A000000444333322800000062
:103EA000293B0D0A980800202E0800202808002031
:103EB00044433332283134342C3232302C27B4E6A8
:103EC000D4DA2020B8F6B4EDCEF3272C31293B0DFF
:103ED0000A000000434C522830293B0D0A00000024
:103EE000B1BEC2D6BDE1B9FBC8E7CFC20000000039
:103EF000C8ABB2BFCDA8B9FD000000002DE9F04F5E
:103F000091B0054600264FF0B4094FF0230AB046A1
:103F1000012010904FF0320B28200F900024012038
:103F20000D9002200C900F200B9000272422F2A16C
:103F300001A803F086FDAFF26400FFF7CDFDFFF7A7
:103F4000A7FDF648007800EB8000F54A126802EB06
:103F5000800041681420FFF7B1FEFFF799FDAFF232
:103F600080023C2190200B9BFFF724FE0090FFF77E
:103F7000B3FDFFF78DFD00BF33E02EE000208DF88C
:103F8000290004F13100C0B28DF82800092C05D1B8
:103F900031208DF8280030208DF82900A85D0128F7
:103FA00004D10D980E90781CC7B201E00C980E90C9
:103FB00008FB1A9291B20F9A04FB02B290B20AAABD
:103FC0000E9BFFF7F7FD0090FFF786FDFFF760FD02
:103FD000A85D4010A855761C641C0A2CCEDB08F1A5
:103FE000010810988045C8DB6FB91723AFF20012A3
:103FF0004FF48C71B020FFF7DDFD0090FFF76CFDF2
:10400000FFF746FD19E0C7A0FFF766FDFFF740FD8B
:104010000A2097FBF0F03030C0B28DF816000A206D
:1040200097FBF0F100FB11703030C0B28DF8170033
:1040300001A8FFF751FDFFF72BFD11B0BDE8F08F90
:104040002DE9F04F93B0064600254FF0B4094FF02C
:10405000280A0027012012904FF00A0B32201190FD
:1040600028201090002401200E9002200D900F2097
:104070000C904FF0000800200A902422AFF2D011DB
:1040800001A803F0DEFCAFF2B410FFF725FDFFF747
:10409000FFFCA248007800EB8000A14A126802EB06
:1040A000800041681420FFF709FEFFF7F1FCAFF232
:1040B000D0123C2190200C9BFFF77CFD0090FFF775
:1040C0000BFDFFF7E5FC00BF4BE00AFB179081B248
:1040D0000AAA1FFA8BF00C9BFFF76CFD0090FFF70C
:1040E000FBFCFFF7D5FC38E000208DF82D0004F133
:1040F0003100C0B28DF82C00092C05D131208DF88B
:104100002C0030208DF82D00705D012806D10E980E
:104110000F9008F1010000F0FF0801E00D980F90EA
:1041200007FB1A9291B2DDE9102304FB023290B230
:104130000BAA0F9BFFF73EFD0090FFF7CDFCFFF7AA
:10414000A7FC705D401070556D1C282D00DD06E049
:10415000092C01D1002402E0641C0A2CC4DB00BF3E
:104160007F1C12988742B0DBB8F1000F0DD11723E6
:10417000AFF284224FF48C71B020FFF71BFD00904A
:10418000FFF7AAFCFFF784FC14E00A2098FBF0F08C
:104190003030C0B28DF816000A2098FBF0F100FB19
:1041A00011803030C0B28DF8170001A8FFF794FCE1
:1041B000FFF76EFC13B0BDE8F08F2DE9FE4F05460A
:1041C0000E461746984600245CA103C9CDE90101BB
:1041D00058A0006800900023052201A95948FFF764
:1041E00066FBA946642099FBF0F0303055494871D0
:1041F000642099FBF0F100FB11900A2190FBF1F093
:104200003030504988710A2099FBF0F100FB119081
:1042100030304C49C8712C200872B24664209AFB99
:10422000F0F03030487264209AFBF0F100FB11A0EE
:104230000A2190FBF1F03030424988720A209AFB43
:10424000F0F100FB11A030303E49C8722C200873F9
:104250002720487305E0395D3A4A04F10E001154F5
:10426000641C385D0028F6D12721364A04F10E007F
:1042700011542C21401C11540A2098FBF0F03030CE
:10428000C1B204F1100011540A2098FBF0F100FBB8
:1042900011803030C1B204F111001154431C0422CA
:1042A00069462848FFF703FB0021264A04F116005F
:1042B00011541046BDE8FE8F2DE9F04389B0074642
:1042C000884614460025032604E0A05D01A9485550
:1042D0006D1C761C605D0028F7D101A98855052367
:1042E00001AA1FFA88F1B8B2FFF767FF8146FFF70E
:1042F000F3FB09B0BDE8F083444333322831343452
:104300002C3238302C27B4E6D4DA2020B8F6B4EDBD
:10431000CEF3272C31293B0D0A0000002E08002087
:104320002808002043495246283133302C32393690
:104330002C382C31293B0D0A000000004443323454
:1043400028000000980800202DE9F04F93B00746A0
:1043500000254FF0140B1B20129000260520119011
:1043600000244FF0DC094FF02D0A01200F900220AD
:104370000E904FF0000800200B902422F6A102A816
:1043800003F05FFBAFF2B440FFF7A6FBFFF780FB43
:10439000FA48007800EB8000F949096801EB8000D9
:1043A000282142680320FFF787FFFFF771FB52E0E7
:1043B00006F14100C0B20B900AFB069188B20F23B0
:1043C0000BAA0A21FFF7F9FE0190FFF785FBFFF723
:1043D0005FFB3CE000208DF8350004F13100C0B2F5
:1043E0008DF83400092C05D131208DF834003020AF
:1043F0008DF83500785D012806D10F98109008F1EE
:10440000010000F0FF0801E00E98109002220DA9B3
:104410000CA8FFF737FA129A04FB02B291B206FB1E
:104420000A9290B20CAA109BFFF7C7FE0190FFF70B
:1044300053FBFFF72DFB785D401078556D1C322D36
:1044400000DD06E0092C01D1002402E0641C0A2CE6
:10445000C0DB00BF761C11988642A9DBB8F1000FC3
:104460000DD11723AFF278524FF48C711420FFF75F
:10447000A1FB0190FFF730FBFFF70AFB14E00A20D5
:1044800098FBF0F03030C0B28DF819000A2098FB8C
:10449000F0F100FB11803030C0B28DF81A0002A894
:1044A000FFF71AFBFFF7F4FA13B0BDE8F08F10B571
:1044B000012440F22551B348FEF7B3F9F8B1B148F1
:1044C000FEF72FF9C4B2B0480078C02829D0AE4812
:1044D000007810F0400F13D00A2C0BD1AA480078B6
:1044E00040F08000A84908700020A849A84A127826
:1044F000885416E00020A4490870A549087010E00F
:104500000D2C08D0A24801780078401CA04A1070F9
:104510009E48445405E09C48007840F040009A4989
:10452000087010BD2DE9FE4F04460D4616461F4685
:1045300098A103C9CDE901018EA000680090002375
:10454000052201A99548FFF7B2F9A046642098FB1F
:10455000F0F0303091494871642098FBF0F100FB95
:1045600011800A2190FBF1F030308C4988710A20CB
:1045700098FBF0F100FB118030308849C8712C2085
:104580000872A946642099FBF0F03030487264202C
:1045900099FBF0F100FB11900A2190FBF1F0303013
:1045A0007E4988720A2099FBF0F100FB11903030AF
:1045B0007A49C8722C200873B24664209AFBF0F046
:1045C0003030487364209AFBF0F100FB11A00A21FF
:1045D00090FBF1F03030714988730A209AFBF0F1BA
:1045E00000FB11A030306D49C8732C200874BB4605
:1045F00064209BFBF0F03030487464209BFBF0F1AA
:1046000000FB11B00A2190FBF1F03030634988744F
:104610000A209BFBF0F100FB11B030305F49C874F9
:104620002C2008750A210C9890FBF1F030305B4982
:1046300048750A210C9890FBF1F201FB1200303012
:10464000564988751723042269465448FFF72FF905
:1046500000205249C8760846BDE8FE8F2DE9FE4F7E
:1046600004460D4616461F464DA103C9CDE901017A
:1046700040A0006800900023052201A94748FFF7E9
:1046800016F9A24664209AFBF0F030304349487195
:1046900064209AFBF0F100FB11A00A2190FBF1F0DD
:1046A00030303E4988710A209AFBF0F100FB11A0DE
:1046B00030303A49C8712C200872A846642098FB13
:1046C000F0F030304872642098FBF0F100FB11806C
:1046D0000A2190FBF1F03030304988720A2098FBB3
:1046E000F0F100FB118030302C49C8722C20087387
:1046F000B146642099FBF0F030304873642099FB98
:10470000F0F100FB11900A2190FBF1F030302349C9
:1047100088730A2099FBF0F100FB119030301F499B
:10472000C8732C2008740A2097FBF0F030304874CE
:104730000A2097FBF0F100FB1170303017498874A4
:104740001323042269461548FFF7B1F800201349E6
:10475000C8750846BDE8FE8F444333322832302CFA
:104760003238302C27B4E6D4DA2020B8F6B4EDCEB7
:10477000F3272C31293B0D0A000000002E080020F1
:104780002808002000380140180800201A080020DE
:1047900019080020424F58462800000098080020C1
:1047A000434952462800000008B5FD4800680090C3
:1047B0004FF400300068401C04D1012269465004C7
:1047C00001F0D6FF4FF400300068F649086008BDDC
:1047D0002DE9F0470026F44800680078F349087096
:1047E000F3480078F3490870F3480078002844D073
:1047F000F2A0FFF771F9FFF74BF9F3A0FFF76CF99F
:10480000FFF746F900BFEA48077831E0701CF94924
:104810000978884211D14FF0060806EBC6006522E0
:1048200002EB8001434606222D20FFF717FF814649
:10483000FFF752F9FFF72CF901E04FF0040807EBFE
:104840008700D94B1B6803EB8000426806EBC6006B
:10485000552303EB800143464120FFF7ABF9814626
:10486000FFF73AF9FFF714F9701CC6B2781CC7B20B
:10487000E14800788742C9DB85E0E0480078401EC7
:10488000C4B2CB480078204400EB8000C64B1B68C4
:1048900003EB8000426804EBC400552303EB800166
:1048A00000234120FFF786F98146FFF715F9FFF74E
:1048B000EFF8BF480078204400EB8000BA4B1B683B
:1048C00003EB8000426804EBC400552303EB800136
:1048D00004234120FFF76EF98146FFF7FDF8FFF74B
:1048E000D7F804EBC400652202EB80010023062206
:1048F0002D20FFF7B3FE8146FFF7EEF8FFF7C8F86B
:10490000BC480078401EC5B2A9480078284400EB96
:104910008000A54B1B6803EB8000426805EBC500D7
:10492000552303EB800100234120FFF743F9814623
:10493000FFF7D2F8FFF7ACF89D480078284400EB69
:104940008000994B1B6803EB8000426805EBC500B3
:10495000552303EB800106234120FFF72BF9814605
:10496000FFF7BAF8FFF794F805EBC500652202EBF4
:10497000800106231A462D20FFF770FE8146FFF7BF
:10498000ABF8FFF785F800209D490870994800783A
:104990009A490870BDE8F08710B59A4882490860C6
:1049A000002099490870824908707F4800680078A3
:1049B0007E490870084600789449097890FBF1F028
:1049C00020B1924800788C49087003E0774800785D
:1049D0008949087001207849087086490870FFF7F6
:1049E000F7FE10BD10B5002402F0C8FC0446B4F573
:1049F000306F7DD0B4F5985F7BD0B4F5C85F49D0F7
:104A0000B4F5D05F76D101207D4908707E480078EA
:104A100000EB80006449096801EB800080687C49F4
:104A2000884202D1FEF7E0FB33E07748007800EBE4
:104A300080005D49096801EB800080687449884204
:104A400027D0744800787449087074480078744915
:104A5000087074480078744908706B4800786D4994
:104A60000870534800786D490870634800786D49B4
:104A700008706548007800EB80004B49096801EB3D
:104A8000800080684849086000205F4908704849F4
:104A9000087059E001205A49087043480068C0680E
:104AA0005B49884231D040480068C0685549884217
:104AB0000AD13D480068C0683B490860002052495F
:104AC00008703B49087020E037480068C0683649E4
:104AD0000860504800784C490870504800783449C4
:104AE000087050480078444908704B48007802E04C
:104AF0001AE00BE027E04749087049480078474929
:104B0000087049480078474908701DE03E48007821
:104B1000401E3D49087008460078FF2803D123480D
:104B20000078401E08700FE037480078401C364976
:104B30000870084600781D490978884202D1002093
:104B40003149087000E000BF00BF2F48007820BB4B
:104B50001748007808BB29480078022806D1284861
:104B6000007818B900201449087002E001201249A9
:104B7000087000200E4908700B48006800780B4947
:104B80000870084600782149097890FBF1F028B1B7
:104B90001E480078184908704CE04FE046E00000DD
:104BA000289500083C08002028080020370800202D
:104BB0002C0800202F0800203B080020434C5228DE
:104BC00030293B0D0A000000444333322833352C92
:104BD00034302C27C7EBD1A1D4F1D0E8D2AAD6B477
:104BE000D0D0B5C4C3FCC1EE272C3135293B0D0A0A
:104BF00000000000380800202D0800203A0800209E
:104C000039080020340000202E0800203008002041
:104C100068080020310800203408002032080020F5
:104C2000350800203308002036080020FD480078B1
:104C3000FD4908700120FD49087082E0FC480078B9
:104C4000FC490978884211DBF9480078F64909786F
:104C500088420BDA0020F8490870F5480078F549D9
:104C60000978401A401CF14908706AE0F048007861
:104C7000F0490978884233DA0120EF490870EC489E
:104C8000007806281EDCEA48007818B90120E749B8
:104C9000087003E0E7480078E44908700020E5491F
:104CA0000870E0480078E549097890FBF1F020B100
:104CB000E2480078DC49087043E0DA480078DA49D5
:104CC00008703EE0DB480078801FDA49087008462B
:104CD0000078801DD44908700620D449087030E05F
:104CE000D3480078D049097888422ADB0120D2498C
:104CF0000870CC480078CE490978401ACF49097825
:104D0000884211DACA480078C01DC6490978401A9D
:104D1000C6490870C3480078801FC6490870C1485A
:104D20000078C14908700CE0C2480078801DC14974
:104D3000087008460078801DBB4908700120BB49F7
:104D40000870BF480078012801D1BB490870FFF7FF
:104D50003FFD10BD2DE9FF4F87B01E4600274FF0E5
:104D6000DC084FF01E0900254FF0010A00244FF027
:104D7000280B282006900120049002200390002098
:104D800002900190042307A807C8FEF713FF0090C4
:104D9000FEF7A2FEFEF77CFE3EE009FB158081B225
:104DA0000F2302AA1420FEF705FF0090FEF794FEE1
:104DB000FEF76EFE2CE000208DF8050004F13100B6
:104DC000C0B28DF80400092C05D131208DF8040003
:104DD00030208DF80500F05D10B10498059001E0D9
:104DE000039805907F1C09FB158291B2069A04FB7B
:104DF00002B290B201AA059BFEF7DCFE0090FEF71E
:104E00006BFEFEF745FE092C01D1002402E0641C74
:104E10000A2CD0DB00BF6D1C5545BEDB0BB0BDE8D6
:104E2000F08F2DE9F043F3B081460F46142285A19F
:104E30006EA802F006FE00206B906C906D90FF262D
:104E4000962105A802F02FFE14228349684602F03D
:104E5000F8FD00208DF8AC0000251BE04FF00008A5
:104E600043462BAA7D492846FDF7E0FE0A2002F0C2
:104E700059FA05EB05116A46881810220021FEF741
:104E800021FD05EB05106A4681182846FDF71BFF3A
:104E9000681CC5B20A2DE1DB002543E000243CE09C
:104EA00005EB051069460144601C085C302833DBC3
:104EB00005EB051069460144601C085C39282BDCB1
:104EC0006EA8015D05EB05106A460244601C105C8B
:104ED000814200DD23E06EA8015D05EB05106A4606
:104EE0000244601C105C814216DA05EB051069462D
:104EF0000144601C085C6EA908552E46002408E099
:104F000006EB061069460144601C085C6EA9085552
:104F1000641C102CF4DB02E0641C082CC0DB00BF16
:104F2000681CC5B20A2DB9DBFF2E0CD0002408E0A6
:104F300006EB061069460144601C085C6EA9085522
:104F4000641C112CF4DB002516E000206BA94855E9
:104F500000240DE06EA8015D05EB05106A460244D1
:104F6000601C105C814202D001206BA94855641C72
:104F7000102CEFDB681CC5B20A2DE6DB11226EA9EE
:104F80004846FEF77FFC12226EA93548FEF77AFCF0
:104F90000A226BA93846FEF775FC73B0BDE8F083B2
:104FA00010B588B0FDF712FE01A904A8FFF739FF7C
:104FB000AFF2F830FEF790FDFEF76AFD0F2329A24D
:104FC0000A216420FEF7F6FD0446FEF785FDFEF794
:104FD0005FFD0F2328A24B211620FEF7EBFD0446B0
:104FE000FEF77AFDFEF754FD0423254A4B21AA2043
:104FF000FEF7E0FD0446FEF76FFDFEF749FD0F23C7
:1050000020A28C211620FEF7D5FD0446FEF764FD94
:10501000FEF73EFD01AB04AA8C21AA20FFF79AFE01
:1050200008B010BD370800202D08002038080020E7
:105030002E0800202C0800203B080020300800200B
:1050400039080020303030303030303030303030BF
:1050500030303030303000004095000803155FA03C
:10506000FC080020B8F7C4A3BFE9C8EDBCFEB0E659
:10507000B1BED0C5CFA20000D6F7B0E520203A00DF
:1050800016930008B9A6C4DCB0E53A0010B5FFF7E6
:1050900087FF05E0002402F071F9044604B100E046
:1050A000F8E700BF01F07EFE05E0002402F066F99B
:1050B000044604B100E0F8E700BFFFF76DFC10BD47
:1050C0002DE9F84306460125AFF21050FEF704FD26
:1050D000FEF7DEFC0F23FEA282217020FEF76AFDA0
:1050E0008046FEF7F9FCFEF7D3FCFDA0FEF7F4FCCA
:1050F000FEF7CEFC002749E071241EE0C723201DE7
:1051000082B2B52120460095FFF70CFA8046FEF7E3
:10511000E3FCFEF7BDFC0020C723009004F17D00F6
:1051200082B2B521001F80B2FFF7FCF98046FEF77E
:10513000D3FCFEF7ADFC201D84B2E62CDEDB1EE0C6
:10514000C723201D82B2B52120460095FFF7EAF95A
:105150008046FEF7C1FCFEF79BFC0020A4F1740121
:105160008AB2091F009088B2C723B521FFF7DAF988
:105170008046FEF7B1FCFEF78BFC201D84B2B4F52F
:10518000AF7FDDDB681CC5B2781CC7B2B742B3DBAA
:1051900071241EE0C723201D82B2B5212046009550
:1051A000FFF7C0F98046FEF797FCFEF771FC002080
:1051B000C723009004F17D0082B2B521001F80B2A8
:1051C000FFF7B0F98046FEF787FCFEF761FC201D73
:1051D00084B2E62CDEDB0EE0C723201D82B2B521AF
:1051E00020460095FFF79EF98046FEF775FCFEF716
:1051F0004FFC201D84B2B4F5AF7FEDDBBDE8F88332
:1052000010B5FFF7D1FA01F020FC0320FFF758FF9B
:1052100010BD10B502F010F902F04CF802F04EF992
:1052200002F094F8FDF796FBFEF76AFC10BD10B58E
:10523000AFF27860FEF750FCFEF72AFC0F23AFA216
:105240008C216020FEF7B6FC0446FEF745FCFEF715
:105250001FFC10BD7CB50024AFF2A060FEF73CFC43
:10526000FEF716FC0F23AAA228217020FEF7A2FC4D
:105270000546FEF731FCFEF70BFC0423A9A28C21A6
:105280005A20FEF797FC0546FEF726FCFEF700FCC9
:105290006846FEF720FB04236A46B4214FF48C7065
:1052A000FEF788FC0546FEF717FCFEF7F1FB01232D
:1052B000A0A2FA218220FEF77DFC0546FEF70CFC39
:1052C000FEF7E6FB7CBD2DE9FF4705464FF00008E1
:1052D00001A8FEF700FB042301AAB4214FF48C704F
:1052E000FEF768FC8146FEF7F7FBFEF7D1FB2F4681
:1052F000781CC4B20A2094FBF0F03030C0B28DF8B4
:105300000C000A2094FBF0F100FB11403030C0B2D9
:105310008DF80D00002387A2FA218220FEF74AFCB7
:105320008146FEF7D9FBFEF7B3FB012385A2FA21E4
:105330008220FEF73FFC8146FEF7CEFBFEF7A8FB7E
:10534000012303AAFA214FF48C70FEF733FC814647
:10535000FEF7C2FBFEF79CFB002303AAFA214FF4E1
:105360008C70FEF727FC8146FEF7B6FBFEF790FB3C
:1053700000264AE0601EC4B20A2094FBF0F03030F0
:10538000C0B28DF80C000A2094FBF0F100FB114034
:105390003030C0B28DF80D00012303AAFA214FF47A
:1053A0008C70FEF707FC8146FEF796FBFEF770FB5C
:1053B00040F28A2001F0B6FF12E003204FF4A07300
:1053C00042464FF49B7100900020FFF7ABF88146F6
:1053D000FEF782FBFEF75CFB08F101001FFA80F884
:1053E0004FF4F07090FBF7F0711C48434045E4DC4B
:1053F000002303AAFA214FF48C70FEF7DBFB8146F1
:10540000FEF76AFBFEF744FB761CBE42B2DB0023CC
:105410004CA2FA218220FEF7CDFB8146FEF75CFB11
:10542000FEF736FB02234AA2FA21C820FEF7C2FB90
:105430008146FEF751FBFEF72BFBBDE8FF8710B559
:10544000AFF68800FEF748FBFEF722FB0F2342A2CF
:1054500078217020FEF7AEFB0446FEF73DFBFEF719
:1054600017FB012337A2FA218220FEF7A3FB044693
:10547000FEF732FBFEF70CFB10BD2DE9F8430446A6
:105480000D46601BC7B200267DE00A2094FBF0F0B9
:105490003030C0B28DF800000A2094FBF0F100FB20
:1054A00011403030C0B28DF8010001236A46FA2164
:1054B0004FF48C70FEF77EFB8046FEF70DFBFEF787
:1054C000E7FA40F2B63001F02DFF00236A464DE0C6
:1054D000CFB5CDB3B3F5CABCBBAFD6D02E2E2E0000
:1054E000424F58283131322C3138302C3335352C5D
:1054F0003230302C3135293B0D0A0000D5FDD4DA8D
:10550000BBF1C8A1B0E6B1BED0C5CFA22E2E2E00F1
:10551000D5FDD4DAD6B4D0D0C9D5C2BCC3FCC1EE57
:1055200000000000D6F7B0E5C9D5C2BCD0F2CAFD74
:105530003A200000B5C8B4FDD6D02E2E2E2E2E2E29
:1055400000000000CAA3D3E0CAB1BCE4A3BA0000C3
:10555000CDEAB3C9A3A10000D5FDD4DAD6B4D0D02A
:10556000BCECB2E2C3FCC1EE00000000FA214FF433
:105570008C70FEF71FFB8046FEF7AEFAFEF788FA46
:10558000601EC4B2761CBE427FF77FAF1DBB0023F6
:10559000AFF25002FA218220FEF70CFB8046FEF7A4
:1055A0009BFAFEF775FA00236A46FA214FF48C70D5
:1055B000FEF700FB8046FEF78FFAFEF769FA02233A
:1055C000AFF27402FA21C820FEF7F4FA8046FEF723
:1055D00083FAFEF75DFABDE8F8832DE9F041F6B0F5
:1055E00080460E461422FE4971A802F02AFA0020D5
:1055F0006E906F9070908DF80400002411E00027E9
:105600003B4601AAF7492046FDF710FB04EBC40115
:1056100041AA02EB410010220021FEF753F9601C61
:10562000C4B20A2CEBDBFA2001F07CFE002413E06C
:105630003B4601AAEB49491C2046FDF7F7FA0A2030
:1056400001F070FE04EBC40041AA02EB40012046C9
:10565000FDF739FB601CC4B20A2CE9DB002448E0EA
:10566000002541E004EBC40041A901EB4001681CA6
:10567000085C302837DB04EBC40041A901EB400192
:10568000681C085C39282EDC04EBC40041A901EB3E
:105690004001681C085C71A9495D884200DA25E078
:1056A00004EBC40041A901EB4001681C085C71A92E
:1056B000495D884217DD04EBC40041A901EB4001BC
:1056C000681C085C71A94855002509E004EBC4007A
:1056D00041A901EB4001681C085C71A948556D1C8B
:1056E000122DF3DB02E06D1C082DBBDB00BF601C3C
:1056F000C4B20A2CB4DB002417E000206EA90855C0
:1057000000250EE071A8415D04EBC40041AA02EB44
:105710004002681C105C814202D001206EA908552D
:105720006D1C102DEEDB601CC4B20A2CE5DB1022D0
:1057300071A94046FEF7A6F80A226EA93046FEF788
:10574000A1F876B0BDE8F0810146002004E0A64A49
:10575000125C0A54421CD0B21028F8DB7047014694
:10576000002004E0A14A125C0A54421CD0B2102866
:10577000F8DB704770B586B004460D46142101A8C9
:1057800002F091F91222002101A8FEF79BF81022E5
:105790004FF4E06101A801F0C4FE042301AA2946E8
:1057A0002046FEF707FA0646FEF796F9FEF770F96F
:1057B00006B070BD70B50446AFF60040FEF78CF938
:1057C000FEF766F90F238AA228212320FEF7F2F9BB
:1057D0000546FEF781F9FEF75BF9052322466421B1
:1057E0001420FEF7E7F90546FEF776F9FEF750F9C3
:1057F00085A0FEF771F9FEF74BF98AA0FEF76CF968
:10580000FEF746F904238EA2AE216420FEF7D2F9FA
:105810000546FEF761F9FEF73BF98BA0FEF75CF950
:10582000FEF736F904238FA24FF484716420FEF74B
:10583000C1F90546FEF750F9FEF72AF98BA0FEF7ED
:105840004BF9FEF725F990A0FEF746F9FEF720F98F
:1058500070BD10B501F026F801F0A4FA10BD00B536
:105860009BB00020139001F01DF88E48808819909D
:105870008C48807918908B48C079179089480078B7
:1058800016908848407815908648807814900020BB
:105890001A90FDE31A9804280BD01A98072808D00C
:1058A0001A980A2805D01A980D2802D01A9810289C
:1058B0000ED11398B0F5D05F03D11A98401C1A90FE
:1058C00006E01398B0F5C85F02D11A98401E1A90EE
:1058D0001A98C0B21499C9B2159AD2B2CDE9002172
:1058E00002901698C3B21798C2B21898C1B219980C
:1058F00080B201F03AFB0020139001F03FFD1390BD
:105900001398B0F5306F65D0B0F5985F63D0B0F5FF
:10591000C85F61D0B0F5D05F5FD11A9812285DDB07
:1059200040F2B2711998884204D340F69801199850
:10593000884202D940F2E3701990189808B9012002
:105940001890179808B9012017901698182801D3B5
:105950000020169015983C2801D30020159014982B
:105960003C2801D300201490199880B200F07DFFEC
:1059700038B91898022804D117981D2801D31C2083
:1059800017901898042808D01898062805D0189859
:10599000092802D018980B2804D117981F2801D382
:1059A0001E2017901898012811D0189803280ED09F
:1059B000189805280BD01898072808D01898082898
:1059C00005D018980A2802D018980C286FD117987B
:1059D0001F2869E08AE088E07FE0FDE379E066E087
:1059E0002C95000806155FA016930008FC080020FF
:1059F000C7EBC8B7C8CFC4E3D1A1D4F1B5C4B2D9FD
:105A0000D7F7D6B8C1EE0000424F584628323230A0
:105A10002C3231352C3236302C3235352C34293B72
:105A20000D0A0000424F5846283137302C313730AC
:105A30002C3231302C3231302C34293B0D0A00000D
:105A4000B7B5BBD800000000424F58462832373067
:105A50002C3137302C3331302C3231302C34293B3F
:105A60000D0A0000C8B7C8CF00000000424F5846DA
:105A7000283137302C3236302C3231302C33303024
:105A80002C34293B0D0A0000424F5846283237304B
:105A90002C3236302C3331302C3330302C34293BFF
:105AA0000D0A00000E09002001D31F201790149842
:105AB000C0B21599C9B2CDE900101698C3B21798B3
:105AC000C2B21898C1B2199880B200F062FF1BB040
:105AD00000BD1A98401C1A907EE31A9818B11A98C3
