:020000040800F2
:1000000058420020D1010008FD0B0008FF0B00083A
:10001000030C0008070C00080B0C0008000000008F
:100020000000000000000000000000000F0C0008AD
:10003000110C000800000000130C0008150C00084B
:10004000EB010008EB010008EB010008A3520008D7
:10005000EB010008EB010008EB010008EB010008D0
:10006000EB010008EB010008EB010008EB010008C0
:10007000EB010008EB010008EB010008EB010008B0
:10008000EB010008EB010008EB010008EB010008A0
:10009000EB010008EB010008EB010008EB01000890
:1000A000EB010008EB010008EB010008EB01000880
:1000B000EB010008EB010008EB010008EB01000870
:1000C000EB010008EB010008EB010008EB01000860
:1000D000EB010008B73B0008EB010008EB0100084A
:1000E000EB010008EB010008EB010008EB01000840
:1000F000EB010008EB010008EB010008EB01000830
:10010000EB010008EB010008EB010008EB0100081F
:10011000EB010008EB010008EB010008EB0100080F
:10012000EB010008EB010008EB010008EB010008FF
:1001300000F002F800F03CF80AA090E8000C8244BD
:100140008344AAF10107DA4501D100F031F8AFF29A
:10015000090EBAE80F0013F0010F18BFFB1A43F0A5
:1001600001031847E463000004640000103A24BF50
:1001700078C878C1FAD8520724BF30C830C144BF0C
:1001800004680C607047000000230024002500264E
:10019000103A28BF78C1FBD8520728BF30C148BFEA
:1001A0000B6070471FB506F090F81FBD10B510BD6D
:1001B00006F051F81146FFF7F5FF02F068FE06F071
:1001C0006FF803B4FFF7F2FF03BC06F077F8000006
:1001D0000948804709480047FEE7FEE7FEE7FEE7DB
:1001E000FEE7FEE7FEE7FEE7FEE7FEE70448054917
:1001F000054A064B704700005D23000831010008E6
:100200005812002058420020582200205822002076
:1002100031490143314A1160704770B50021002314
:100220000F22C4780CB32D4C246804F4E064C4F5A8
:10023000E064210AC1F10403CA40447804FA03F1DE
:100240008478144021430901254C0678A15504788F
:1002500004F01F050124AC4005786D114FF0E02635
:1002600006EB8505C5F8004109E0047804F01F0598
:100270000124AC401B4D0678761145F8264070BD30
:10028000194A0A400243154B1B1F1A60704739B1C7
:10029000124A121D12680243104B1B1D1A6006E021
:1002A0000E4A121D126882430C4B1B1D1A607047C8
:1002B000042808D14FF0E021096941F004014FF012
:1002C000E022116107E04FF0E021096921F004010B
:1002D0004FF0E022116170470000FA050CED00E0DC
:1002E00000E400E080E100E080FFFF1F0146002005
:1002F000FE4A106800F03800084310607047FB4960
:10030000096821F00801F94A1160114609680143A2
:1003100011607047F549096821F01001F34A116036
:1003200011460968014311607047F148EF49486080
:10033000F04848607047EE48EC494860ED48486036
:100340007047EA48006940F08000E849086170475A
:10035000E648006940F08000E449086170470420E5
:10036000E249C96801F00101012901D101200EE033
:10037000DE49C96811F0040F01D0022007E0DB4913
:10038000C96811F0100F01D0032000E0042070476D
:1003900000B502460423FFF7E2FF034603E0FFF740
:1003A000DEFF0346521E012B01D1002AF7D102B90C
:1003B0000523184600BD30B5044604254FF430200F
:1003C000FFF7E6FF0546042D17D1C848006940F045
:1003D0000200C649086108464461006940F04000D7
:1003E00008614FF43020FFF7D3FF0546BF4800698E
:1003F00041F6FD710840BD490861284630BD10B581
:1004000004244FF43020FFF7C3FF0446042C16D118
:10041000B648006940F00400B44908610846006924
:1004200040F0400008614FF43020FFF7B1FF044670
:10043000AE48006941F6FB710840AC4908612046AE
:1004400010BD00B502460423FFF789FF034603E011
:10045000FFF785FF0346521E012B01D1002AF7D179
:1004600002B90523184600BD10B504244FF430200E
:10047000FFF7E7FF0446042C16D19C48006940F0C2
:1004800004009A4908610846006940F0400008618C
:100490004FF43020FFF7D5FF04469448006941F639
:1004A000FB71084091490861204610BD00208F492A
:1004B000C96911F0020F01D0012000E0002070474F
:1004C00030B5A5250424FFF7F1FF00B100254FF456
:1004D0003020FFF75DFF0446042C3AD1844883495D
:1004E0008860844888600846006940F02000086100
:1004F0000846006940F0400008614FF43020FFF7E3
:1005000047FF0446042C1BD17848006941F6DF718F
:100510000840764908610846006940F0100008610B
:1005200075480580E002FFF733FF0446052C10D024
:100530006E48006941F6EF7108406C49086108E0B7
:10054000052C06D06948006941F6EF7108406749FB
:100550000861204630BDF0B504460D46042600274C
:10056000F002FFF715FF0646042E22D15F4800690E
:1005700040F001005D4908612580F002FFF708FFA7
:100580000646042E0ED1A71C280C3880F002FFF777
:10059000FFFE06465548006941F6FE710840534982
:1005A000086106E05148006941F6FE7108404F4974
:1005B00008613046F0BD70B504460D460426F002D1
:1005C000FFF7E6FE0646042E11D14848006940F0C8
:1005D0000100464908612580F002FFF7D9FE064672
:1005E0004248006941F6FE710840404908613046C2
:1005F00070BD70B505460E460424E002FFF7C8FE44
:100600000446042C17D13A48384988603948886034
:100610000846006940F0010008612E80E002FFF703
:10062000B7FE0446052C06D03048006941F6EF714C
:1006300008402E490861204670BD2DE9F04304466C
:100640004FF6FF763746B046B1460425E443E6B29E
:10065000C4F30727C4F307484FEA1469E802FFF719
:1006600097FE0546042D40D1214820498860214845
:1006700088600846006940F010000861FF2E06D02F
:100680001D4808300680E802FFF782FE0546042D6B
:1006900008D1FF2F06D018480A300780E802FFF77C
:1006A00077FE0546042D0AD1B8F1FF0F07D0124896
:1006B0000C30A0F80080E802FFF76AFE0546042D22
:1006C0000AD1B9F1FF0F07D00B480E30A0F8009007
:1006D000E802FFF75DFE0546052D06D003480069D8
:1006E00041F6EF7108400149086107E0002002402F
:1006F00023016745AB89EFCD00F8FF1F2846BDE811
:10070000F08330B5054604244FF43020FFF740FE57
:100710000446042C41D15F485F4988605F48886087
:100720000846006940F0200008610846006940F072
:10073000400008614FF43020FFF72AFE0446042CE5
:1007400022D15548006941F6DF71084052490861DD
:100750000846006940F0100008611DB100205049B2
:10076000088002E0A5204E4908804FF43020FFF7B2
:100770000FFE0446052C10D04748006941F6EF7182
:1007800008404549086108E0052C06D04248006948
:1007900041F6DF71084040490861204630BDF0B5A0
:1007A00005460E46174604243A483B4988603B48B4
:1007B0008860E002FFF7ECFD0446042C19D13648AE
:1007C000006940F010003449086147F0F8003043F8
:1007D00028433349891C0880E002FFF7D9FD04460D
:1007E000052C06D02C48006941F6EF7108402A49D3
:1007F00008612046F0BD2848C06980087047264837
:10080000006A704700202449096811F0200F01D0C8
:10081000012000E00020704729B11F4A12690243FD
:100820001D4B1A6104E01C4A126982431A4B1A617B
:10083000704701460020012908D1174AD26912F0F9
:10084000010F01D0012008E0002006E0124AD26822
:100850000A4201D0012000E0002070470E49C86024
:10086000704704200C49C96801F00101012901D138
:1008700001200EE00849C96811F0040F01D00220E0
:1008800007E00549C96811F0100F01D0032000E00E
:10089000042070472301674500200240AB89EFCD5B
:1008A00000F8FF1F10B50446CA48844208D1012150
:1008B000042000F099FB0021042000F095FB46E0A5
:1008C000C548844208D10121082000F08DFB002199
:1008D000082000F089FB3AE0C048844208D1012199
:1008E000102000F081FB0021102000F07DFB2EE0A5
:1008F000BB48844208D10121202000F075FB002173
:10090000202000F071FB22E0B648844208D101218A
:10091000402000F069FB0021402000F065FB16E05C
:10092000B148844208D10121802000F05DFB002104
:10093000802000F059FB0AE0AC48844207D1012135
:10094000801500F051FB0021A01500F04DFB10BDFB
:1009500010B50121084600F047FB0021012000F0FE
:1009600043FB10BD2DE9F041024600250026002082
:1009700000230024002791F803C00CF00F0591F824
:1009800003C01CF0100F03D091F802C04CEA05051B
:10099000B1F800C01CF0FF0F31D0146800202BE02C
:1009A0004FF0010C0CFA00F3B1F800C00CEA03069A
:1009B0009E4220D183004FF00F0C0CFA03F7BC438A
:1009C00005FA03FC4CEA040491F803C0BCF1280FBB
:1009D00006D14FF0010C0CFA00FCC2F814C00AE07A
:1009E00091F803C0BCF1480F05D14FF0010C0CFA8F
:1009F00000FCC2F810C0401C0828D1D31460B1F824
:100A000000C0BCF1FF0F34DD546800202EE000F17F
:100A1000080C4FF0010808FA0CF3B1F800C00CEA1A
:100A200003069E4221D183004FF00F0C0CFA03F70E
:100A3000BC4305FA03FC4CEA040491F803C0BCF182
:100A4000280F05D100F1080C08FA0CF8C2F8148040
:100A500091F803C0BCF1480F07D100F1080C4FF02A
:100A6000010808FA0CF8C2F81080401C0828CED300
:100A70005460BDE8F0814FF6FF7101800221817062
:100A80000421C17070470246002093680B4201D0D8
:100A9000012000E0002070470146886880B270475E
:100AA00002460020D3680B4201D0012000E0002064
:100AB00070470146C86880B2704701617047416164
:100AC00070470AB1016100E041617047C160704741
:100AD0004FF480320A438261816182618269826956
:100AE000704702460020424B18684FF6807318404A
:100AF00040EA021008433E4B186070473D49C86108
:100B00007047F0B50A46002300240021002500F0BC
:100B10000046B6F1004F02D1354EF16901E0344E86
:100B20007168C0F3034583B200F44016B6F5401F68
:100B300008D121F070612E4E766826F070662C4F39
:100B40007E6012E000F48016B6F5801F06D1032601
:100B500006FA05F4A14341F0706106E0460D360146
:100B600003FA06F6B14341F0706122B1460D360139
:100B700003FA06F6314300F00046B6F1004F02D109
:100B80001B4EF16101E01A4E7160F0BD30B50022DC
:100B90008B071C0F0F2303FA04F2154B08338C103C
:100BA00053F824309343124C08348D1044F8253008
:100BB00023468C1053F824308C07240F00FA04F4D9
:100BC00023430B4C08348D1044F8253030BD0A49BE
:100BD0000860704700080140000C0140001001400F
:100BE0000014014000180140001C01400020014099
:100BF0000000014000002042DC002042704700BF9E
:100C0000FEE700BFFEE700BFFEE700BFFEE770475C
:100C1000704770477047000010B50121080700F0C9
:100C2000F0F900214FF0805000F0EBF910BD294998
:100C30000862704727490861704701460020264A2C
:100C4000106820F0E00008431060704723490860F6
:100C5000704710B5024600201F4B186820F00300B3
:100C6000104318601E4B1B6843F004031C4C2360A8
:100C7000012901D130BF00E020BF194B1B6823F0D0
:100C80000403174C236010BD1348006840F00400B3
:100C9000114908600846006840F0020008601048EA
:100CA000006840F004000E49086000BF00BF30BF7C
:100CB000704701460020084A52680A4201D00120CC
:100CC00000E0002070470449096841EA8001024AB7
:100CD0001160704700000E4200700040A0000E42FC
:100CE00010ED00E0DC48006840F00100DA490860DF
:100CF00008464068D9490840D74948600846006816
:100D0000D7490840D44908600846006820F480208C
:100D100008600846406820F4FE0048604FF41F0059
:100D200088607047CC49096821F48031CA4A116053
:100D30001146096821F480211160B0F5803F03D08D
:100D4000B0F5802F0ED106E0C349096841F4803127
:100D5000C14A116007E0C049096841F4A021BE4AB8
:100D6000116000E000BF00BF704710B501460022CF
:100D7000002300204A11012A02D1B74C236806E063
:100D8000022A02D1B44C236A01E0B34C636A01F039
:100D90001F02012494401C4201D0012000E00020E9
:100DA00010BD70B500240025002600BF3120FFF7DC
:100DB000DCFF0646641CB4F5A06F01D0002EF5D010
:100DC0003120FFF7D2FF08B1012500E000252846B9
:100DD00070BD01460020A04A106820F0F80040EAEB
:100DE000C100106070479F490860704702460020AC
:100DF000994B586820F47C1042EA01031843964B43
:100E00005860704797490866704701460020924A2B
:100E1000506820F003000843506070478E484068D7
:100E200000F00C007047014600208B4A506820F00B
:100E3000F00008435060704701460020864A506821
:100E400020F4E06008435060704701460020824A69
:100E5000506820F4605040EAC1005060704729B1EA
:100E60007D4A527A02437C4B5A7206E07A4A527AA1
:100E7000C343DBB21A40784B5A7270477A49086014
:100E8000704701460020744A506820F440400843EF
:100E9000506070470021754A11706F4A82F8201027
:100EA000012802D0042808D103E001216F4A117003
:100EB00004E005216D4A117000E000BF00BF7047DB
:100EC0006B49086070476449096A0143624A1162CC
:100ED0007047674944390860704730B500210022E7
:100EE000002400235C4D6D6805F00C0121B104293C
:100EF00005D0082923D105E05E4D056022E05D4D57
:100F000005601FE0544D6D6805F47012524D6D6818
:100F100005F48034022505EB92421CB9564D554329
:100F200005600BE04C4D6D6815F4003F03D0524D49
:100F30005543056002E04F4D5543056002E04D4DBD
:100F4000056000BF00BF444D6D6805F0F001090960
:100F50004A4D6B5C0568DD4045603F4D6D6805F4AA
:100F6000E061090A454D6B5C4568DD4085603A4D9E
:100F70006D6805F46051C90A404D6B5C4568DD4001
:100F8000C560354D6D6805F44041890B3C4D6B5C87
:100F9000C568B5FBF3F5056130BD29B12E4A52692C
:100FA00002432D4B5A6104E02B4A526982432A4B7B
:100FB0005A61704729B1284A92690243264B9A61C7
:100FC00004E0254A92698243234B9A61704729B114
:100FD000214AD2690243204BDA6104E01E4AD269F9
:100FE00082431D4BDA61704729B11B4AD268024324
:100FF000194BDA6004E0184AD2688243164BDA6073
:10100000704729B1144A12690243134B1A6104E074
:10101000114A12698243104B1A61704714494039D2
:10102000086070470F49C86470470B49C871704722
:101030000948406A40F0807007494862704701469D
:101040000020054A92680A4201D0012000E00020F9
:101050007047014988727047001002400000FFF895
:10106000FFFFF6FE00004242D8004242201002403C
:101070008004424200127A0000093D000000002076
:101080001000002029B1524A12880243504B1A80A6
:1010900006E04F4A1288C3439BB21A404C4B1A8059
:1010A00070474B48001D008840F010004849091D5A
:1010B000088070474648001D00884FF6EF710840D1
:1010C0004349091D08807047002141481C300188B0
:1010D000001F008841EA0040704700B50246FFF754
:1010E000E0FF100C3A4918310880091D0A80FFF70B
:1010F000E1FF00BD00B50246FFF7D3FFC2F3034096
:10110000334908310880091D0A80FFF7D3FF00BD6D
:1011100000B50246FFF7C5FF100C2D4920310880AD
:10112000091D0A80FFF7C6FF00BD002028491031C5
:1011300009880907080B26491431098808437047B4
:1011400000BF2348001D008810F0200FF9D0704721
:101150001F48001D00884FF6F77108401C49091D03
:10116000088000BF1A48001D008810F0080FF9D051
:10117000704701460020164A121D12880A4201D00B
:10118000012000E0002070471149091D0988C24371
:1011900092B211400E4A121D118070470146002084
:1011A0000B4A121D12880A40D0B2094A12880A421C
:1011B00002D008B1012000E0002070470449091D59
:1011C0000988C24392B21140014A121D1180704732
:1011D0000028004010B50446BF48844208D10121D0
:1011E0008014FFF701FF0021A014FFF7FDFE16E0B9
:1011F000BA48844208D101210014FFF702FF002100
:101200002014FFF7FEFE0AE0B548844207D1012111
:10121000C013FFF7F6FE0021E013FFF7F2FE10BD4A
:1012200010B50022028802F441520B884C882343F7
:101230008C882343CC8823430C8923434C89234344
:101240008C892343CC8923431A430280838B4FF23A
:10125000FF74234083830B8A038210BD2DE9F04F76
:1012600085B005460C464FF0000902274FF00008F4
:101270004FF0010B0026B246A88B4FF24001084008
:10128000A88302202884B5F81C90A068022801D108
:1012900000BF36E0A08810B94FF0010B01E04FF01D
:1012A000020B8E48854200D100E000BF6846FFF780
:1012B00014FEDDF800A0E088B0F5007F0AD14FEA07
:1012C0001A2000EB80004000A168B0FBF1F0401D47
:1012D00086B20BE04FEA4B10BAFBF0F000EB800057
:1012E0004000A168B0FBF1F0401D86B20A20B6FBB9
:1012F000F0F606F00108A6EB0800C0F34F074FEA2E
:101300000828022F01DBFF2F02DD02274FF0000823
:10131000E08840EA080038432884A088A18908436F
:10132000618808432188084340F4006040EA0909C5
:10133000A5F81C9005B0BDE8F08F00210180418028
:101340008180C180018141818181C1810721018228
:1013500070470021018041808180C180022181602D
:1013600000218181704721B1028842F04002028051
:1013700004E002884FF6BF731A400280704721B123
:10138000828B42F48062828304E0828B4FF6FF33CB
:101390001A408283704770B5002400230C11012588
:1013A000A540ABB21AB185881D43858004E08588CD
:1013B000DE43B6B23540858070BD10B51AB1838862
:1013C0000B43838004E08388CC43A4B22340838012
:1013D00010BD81817047014688897047A1F57E4222
:1013E000FF3A04D0028842F48072028004E002884E
:1013F0004FF6FF631A400280704721B1828842F0A5
:101400000402828004E082884FF6FB731A408280D7
:10141000704702884FF2FF731A40028002880A4325
:1014200002807047018841F480510180704721B1EA
:10143000028842F40052028004E002884DF6FF73F5
:101440001A400280704702460020012901D0108B0B
:1014500000E0908A70470146088A7047B1F5804FD6
:1014600004D1028842F48042028004E002884BF6F4
:10147000FF731A40028070470246002013890B4216
:1014800001D0012000E000207047CA43028170476C
:10149000F0B50246002000240023002501F00F07CC
:1014A0000126BE40B4B20B1101269E40B3B296880D
:1014B00006EA03051689264202D00DB1012000E09C
:1014C0000020F0BD10B5002201F00F040123A3405D
:1014D0009AB2D343038110BD003001400038004070
:1014E000003C004010B50446FE48844208D101216A
:1014F000C014FFF779FD0021E014FFF775FDC4E08B
:10150000B4F1804F08D101210846FFF77AFD002190
:101510000120FFF776FDB8E0F348844208D10121AD
:101520000220FFF76EFD00210220FFF76AFDACE00C
:10153000EE48844208D101210420FFF762FD00211A
:101540000420FFF75EFDA0E0E948844208D10121B4
:101550000820FFF756FD00210820FFF752FD94E018
:10156000E448844208D101211020FFF74AFD002100
:101570001020FFF746FD88E0DF48844208D10121B2
:101580002020FFF73EFD00212020FFF73AFD7CE000
:10159000DA48844208D101214014FFF725FD0021DB
:1015A0006014FFF721FD70E0D548844209D1012184
:1015B000C804FFF719FD00214FF40020FFF714FDC8
:1015C00063E0D048844209D101210805FFF70CFDF2
:1015D00000214FF48010FFF707FD56E0CA4884420F
:1015E00009D101214805FFF7FFFC00214FF400104D
:1015F000FFF7FAFC49E0C548844208D101214020A8
:10160000FFF7FFFC00214020FFF7FBFC3DE0C04856
:10161000844208D101218020FFF7F3FC00218020C3
:10162000FFF7EFFC31E0BB48844208D1012180156F
:10163000FFF7E7FC0021A015FFF7E3FC25E0B64823
:10164000844209D101210804FFF7CEFC00214FF4A8
:101650008030FFF7C9FC18E0B048844209D101216D
:101660004804FFF7C1FC00214FF40030FFF7BCFC39
:101670000BE0AB48844208D101218804FFF7B4FC99
:1016800000214FF48020FFF7AFFC10BD002202883C
:10169000944B98420ED0994B98420BD0B0F1804FAA
:1016A00008D0914B984205D0904B984202D0904B75
:1016B000984204D14FF68F731A404B881A438D4BD2
:1016C000984207D08C4B984204D04FF6FF431A4003
:1016D000CB881A4302808B8883850B880385814BD6
:1016E00098420BD0854B984208D08B4B984205D03E
:1016F0008A4B984202D08A4B984201D10B7A0386DA
:1017000001238382704770B5002400220023058CDA
:101710004FF6FE7635400584028C8388048B4FF6A5
:101720008F752C40B51E2C400D882C43751E2A4009
:101730000D892A434D882A436A4DA8420BD06F4D2C
:10174000A84208D0744DA84205D0744DA84202D0DA
:10175000734DA84213D14FF6F7752A404D892A439D
:101760004FF6FB752A408D882A434FF6FF652B40C4
:101770004FF6FF552B408D892B43CD892B4383801A
:101780000483CD888586028470BD70B50024002254
:101790000023058C4FF6EF7635400584028C838854
:1017A000048B48F6FF752C404FF6FF452C400D8802
:1017B0002D0644EA15444FF6DF752A400D892D05A4
:1017C00042EA15424D882D0542EA1542454DA84290
:1017D00002D04A4DA8421BD14FF67F752A404D8951
:1017E0002D0542EA15424FF6BF752A408D882D051A
:1017F00042EA15424FF6FF352B404FF2FF752B4062
:101800008D89AD0443EA1543CD89AD0443EA154300
:1018100083800483CD880587028470BD70B5002461
:1018200000220023058C4FF6FF6635400584028CAC
:101830008388848B4FF68F752C404FF6FC752C40B7
:101840000D882C434FF6FF552A400D892D0642EA9C
:1018500015424D882D0642EA1542224DA84202D07B
:10186000264DA8421BD14FF2FF752A404D892D0607
:1018700042EA15424FF6FF352A408D882D0642EA8E
:1018800015424EF6FF752B404DF6FF752B408D89A6
:101890002D0543EA1543CD892D0543EA1543838081
:1018A0008483CD888587028470BD70B500220023B3
:1018B0000024058C4EF6FF7635400584038C848821
:1018C000828B48F6FF752A404FF6FF452A400D8867
:1018D0002D0642EA15424DF6FF752B400D892D0766
:1018E00020E00000002C01400004004000080040FF
:1018F000000C004000100040001400400034014083
:10190000004C0140005001400054014000180040CC
:10191000001C004000200040004001400044014005
:101920000048014043EA15434D882D0743EA15431B
:10193000F84DA84202D0F84DA84206D14BF6FF75EB
:101940002C408D89AD0544EA154484808283CD887E
:10195000A0F84050038470BD828B4FF2FF331A40D1
:101960008283828B0B0642EA134282837047F0B572
:101970000C461546002200210026078C4EF6FF7CFF
:1019800007EA0C070784828B018C27073E0C40F680
:10199000FF473A402F0642EA17421F0742EA174222
:1019A000DC4FB8420ED0DC4FB8420BD0B0F1804FC4
:1019B00008D0DA4FB84205D0D94FB84202D0D94F3B
:1019C000B84206D14DF6FF77394046F48057394387
:1019D00005E047F6FF57394044F480573943828386
:1019E0000184F0BD828B4FF6F3731A408283828BA1
:1019F0000A4382837047F0B50C4615460022002149
:101A00000026078C4FF6FF6C07EA0C070784828BD1
:101A1000018C27063E0C4FF60C773A401F0545EA2D
:101A200017473A43BB4FB8420ED0BB4FB8420BD01A
:101A3000B0F1804F08D0B94FB84205D0B84FB84286
:101A400002D0B84FB84206D14FF6FF57394046F49E
:101A50008077394305E04FF2FF57394044F48077EF
:101A6000394382830184F0BD028B4FF2FF331A4069
:101A70000283028B0B0642EA134202837047F0B5E1
:101A80000C461546002200210026078C4FF6EF7CFD
:101A900007EA0C070784028B018C27053E0C40F6F1
:101AA000FF473A401F0742EA17422F0642EA174211
:101AB000984FB8420ED0984FB8420BD0B0F1804F3B
:101AC00008D0964FB84205D0954FB84202D0954FF6
:101AD000B84206D14FF6DF77394046F01007394358
:101AE00005E04FF65F77394044F010073943028331
:101AF0000184F0BD028B4FF6F3731A400283028B10
:101B00000A4302837047F0B50C46154600220021B7
:101B1000068C4FF6FE773E400684028B018C4FF612
:101B20000C7632401E0545EA16463243794EB042E5
:101B30000ED0794EB0420BD0B0F1804F08D0774E26
:101B4000B04205D0764EB04202D0764EB04206D1B9
:101B50004FF6FD76314044F00106314305E04FF683
:101B6000F576314044F00106314302830184F0BD33
:101B700070B505460C46674885420ED066488542DA
:101B80000BD0B5F1804F08D06448854205D0644839
:101B9000854202D06348854200D100E000BF208822
:101BA00050B92389A28861882846FFF7ACFFE188F5
:101BB0002846FFF79FFF25E0208804280AD12389C3
:101BC000A28861882846FFF75AFFE1882846FFF778
:101BD0004BFF17E0208808280AD12389A288618852
:101BE0002846FFF708FFE1882846FFF7FBFE09E0DB
:101BF0002389A28861882846FFF7B9FEE188284634
:101C0000FFF7AAFE70BD2DE9F04105460C460026FF
:101C10000127608808B9022600E00026A088012874
:101C200001D1022700E001272088A0B92389A288DA
:101C300061882846FFF767FFE1882846FFF75AFFCB
:101C400023893A4631462846FFF719FFE18828469E
:101C5000FFF70AFF13E02389A28861882846FFF76F
:101C60000EFFE1882846FFF7FFFE23893A463146FA
:101C70002846FFF748FFE1882846FFF73BFFBDE80D
:101C8000F0810A884B881A438B881A43CB881A4301
:101C90000B891A434B891A438B891A43A0F84420B5
:101CA00070474FF6FF71818000210180C180418023
:101CB000017270470021018041808180C1800181D3
:101CC00041818181C18170470021018041800121D2
:101CD00081800021C1800181704700210180418005
:101CE0008180C180018141818181704721B1028859
:101CF00042F00102028004E002884FF6FE731A40AF
:101D00000280704781B1B0F8442042F40042A0F84C
:101D100044200FE0002C014000340140000400404A
:101D200000080040000C0040B0F84420C2F30E024E
:101D3000A0F84420704710B51AB183890B43838102
:101D400004E08389CC43A4B22340838110BD818207
:101D5000704741EA0203A0F84830704710B51AB145
:101D600083890B43838104E08389CC43A4B223405D
:101D7000838110BD01894FF6F872114001817047CF
:101D80000A46002101894FF68F73194011430181E2
:101D9000704730B504460D4629462046FFF7F0FF50
:101DA000208940F00700208130BD2DE9F041044634
:101DB0000D4616461F46602D06D13B460122314690
:101DC0002046FFF75CFE05E03B46012231462046F7
:101DD000FFF799FE29462046FFF7D2FF208940F001
:101DE00007002081BDE8F08130B50C460021018953
:101DF000C9B21D0642EA154525432943018130BD7C
:101E00002DE9F04105460E46174698460024434604
:101E10003A4631462846FFF7E7FF2C894FF6F8701F
:101E2000044044F007044FF68F70044044F07004FF
:101E30002C81BDE8F081F0B504460D4616461F46DC
:101E40003B46324629462046FFF7CEFF208940F424
:101E500080402081F0BD0185828270470A460021C2
:101E600001884FF68F731940114301807047F0B518
:101E70000C4615461E460021002200230189028BD4
:101E8000038C4FF6F877394021434FF6FC473A4030
:101E900040F201173A434FF6DD773B40370545EAFC
:101EA00017473B43018102830384F0BD0A460021AA
:101EB000018B4FF68F7319401143018370470A4617
:101EC0000021018B48F6FF731940130641EA1341C4
:101ED000018370470A460021818B4FF68F731940AA
:101EE0001143818370470A460021818B48F6FF73B6
:101EF0001940130641EA13418183704721B10288DA
:101F000042F08002028004E002884FF67F731A409C
:101F10000280704721B1828842F00402828004E08E
:101F200082884FF6FB731A408280704721B1828805
:101F300042F00802828004E082884FF6F7731A406C
:101F40008280704721B1828842F00102828004E0E1
:101F500082884FF6FE731A40828070470A4600213D
:101F6000018B4FF6F77319401143018370470A46FE
:101F70000021018B4FF2FF731940130641EA134110
:101F8000018370470A460021818B4FF6F773194091
:101F90001143818370470A460021818B4FF2FF7302
:101FA0001940130641EA1341818370470A46002114
:101FB000018B4FF6FB7319401143018370470A46AA
:101FC0000021018B4FF6FF331940130641EA1341FC
:101FD000018370470A460021818B4FF6FB7319403D
:101FE0001143818370470A460021818B4FF6FF33EE
:101FF0001940130641EA1341818370470A460021C4
:10200000018B4FF67F7319401143018370470A46D5
:102010000021018BC1F30E01130641EA1341018334
:1020200070470A460021818B4FF67F731940114398
:10203000818370470A460021818BC1F30E0113068C
:1020400041EA1341818370470A460021018C4FF613
:10205000FD7319401143018470470A460021018C29
:102060004FF6F77319401143018470470A46002167
:10207000018C4FF6DF731940130541EA13410184C7
:1020800070470A460021018C4FF67F7319401305F3
:1020900041EA1341018470470A460021018C4FF642
:1020A000FF531940130641EA1341018470470A4661
:1020B0000021018C4FF2FF731940130641EA1341CE
:1020C000018470470A460021018C4DF6FF731940C8
:1020D000130741EA13410184704730B500230124FE
:1020E0008C40A3B2048CDD43ADB22C400484048C3C
:1020F00002FA01F5ADB22C43048430BD30B50023A3
:1021000004248C40A3B2048CDD43ADB22C40048483
:10211000048C02FA01F5ADB22C43048430BD70B5D5
:102120000346002000241846183001258D40ACB22B
:102130001D8CE643B6B235401D8409B1082909D18A
:1021400000EB6100056825F0700505600568154322
:1021500005600CE00D1FADB200EB6500056825F4CD
:10216000E04505600568160645EA1645056070BD40
:1021700021B1028842F00202028004E002884FF698
:10218000FD731A400280704721B1028842F00402B8
:10219000028004E002884FF6FB731A400280704709
:1021A00021B1828842F08002828004E082884FF66A
:1021B0007F731A408280704702884FF6F7731A4087
:1021C000028002880A430280704782884FF68F732C
:1021D0001A40828082880A438280704702894FF6C3
:1021E000F8731A40028102890A430281704702890A
:1021F0004FF67F731A40028102890A4302817047B9
:102200008184704781857047818670470187704758
:1022100081877047A0F84010704702884FF6FF434F
:102220001A40028002880A43028070470146888E65
:1022300070470146088F70470146888F70470146F6
:10224000B1F8400070470146888C70470146088D00
:10225000704702460020138A0B4201D0012000E0A3
:1022600000207047CA430282704730B50246002002
:1022700000230024158A05EA0103958905EA010473
:1022800013B10CB1012000E0002030BDCA4302822E
:102290007047000000210020674A126842F4803233
:1022A000654B1A6000BF644A126802F40030491C92
:1022B00010B9B1F5A06FF6D15F4A126812F4003F71
:1022C00001D0012000E00020012842D15B4A1268C1
:1022D00042F01002594B1A601A46126822F00302AB
:1022E0001A601A46126842F002021A60524A526894
:1022F000514B5A601A4652685A601A46526842F464
:1023000080625A601A46526822F47C125A601A4659
:10231000526842F4E8125A601A46126842F080721B
:102320001A6000BF444A126812F0007FFAD0424A95
:10233000526822F00302404B5A601A46526842F03B
:1023400002025A6000BF3C4A526802F00C02082A9E
:10235000F9D1704710B5FFF79DFF10BD10B5364895
:10236000006840F00100344908600846406834497C
:1023700008403149486008460068324908402E4903
:1023800008600846006820F480200860084640681D
:1023900020F4FE0048604FF41F008860FFF7DAFF6A
:1023A0004FF000602849086010BD10B500210020E2
:1023B0000022214B5B6803F00C0121B1042906D0F7
:1023C000082928D107E0214B214C236027E01F4B2F
:1023D0001F4C236023E0184B5B6803F47010164B0E
:1023E0005B6803F48032022303EB904022B9194B5F
:1023F0004343174C23600DE00F4B5B6813F4003F21
:1024000004D0144B4343124C236003E00F4B43436F
:102410000F4C236003E00D4B0D4C236000BF00BF49
:10242000054B5B68C3F303130B4CE15C084B1B6863
:10243000CB40074C236010BD00100240002002403A
:102440000000FFF8FFFFF6FE08ED00E000127A0042
:102450001400002000093D001800002010B50446BB
:10246000FC48844209D101218803FEF7BDFD00210B
:102470004FF48040FEF7B8FD32E0F748844209D1BE
:1024800001214804FEF7BDFD00214FF40030FEF7A6
:10249000B8FD25E0F148844209D101218804FEF706
:1024A000B0FD00214FF48020FEF7ABFD18E0EC48B2
:1024B000844209D10121C804FEF7A3FD00214FF495
:1024C0000020FEF79EFD0BE0E648844208D1012182
:1024D0000805FEF796FD00214FF48010FEF791FDF0
:1024E00010BD2DE9F04786B005460E460024A246F1
:1024F00000BFA1460027B08900B100BF2F462C8A3B
:102500004CF6FF700440F08804432C82AC894EF6F0
:10251000F3100440B08831890843718908430443AB
:10252000AC81AC8A4FF6FF400440B0890443AC82D2
:1025300001A8FEF7D2FCC748874202D1DDF810A0FF
:1025400001E0DDF80CA0A88910F4004F08D00AEBD8
:10255000CA0000EB0A1031684900B0FBF1F807E04F
:102560000AEBCA0000EB0A1031688900B0FBF1F8F1
:102570006420B8FBF0F004012009642101FB1089FC
:10258000A88910F4004F08D0322000EBC900B0FB3E
:10259000F1F000F00700044308E0322000EB0910DE
:1025A0006421B0FBF1F000F00F0004432C8106B071
:1025B000BDE8F0874FF41651016000218180C18091
:1025C00001810C21418100218181704710B50246B3
:1025D0000020108A4FF2FF0318400B884C882343D9
:1025E0008C882343CC8823431843108210BD0021DC
:1025F000018041808180C180704721B1828942F48D
:102600000052828104E082894DF6FF731A40828174
:102610007047F0B503460024002600250020A1F5F0
:1026200010676A3F00D100BF1846C1F3421401F0A1
:102630001F06012707FA06F5012C01D10C3004E032
:10264000022C01D1103000E014301AB107682F437A
:10265000076002E00768AF430760F0BD10B51AB12C
:10266000838A0B43838204E0838ACC43A4B2234051
:10267000838210BD028A4FF6F0731A400282028AEA
:102680000A430282704782894FF2FF731A408281A7
:1026900082890A438281704721B1828942F0020215
:1026A000828104E082894FF6FD731A40828170476F
:1026B000028A4FF6DF731A400282028A0A430282BC
:1026C000704721B1028A42F48042028204E0028A09
:1026D0004BF6FF731A4002827047C1F308028280F2
:1026E000704701468888C0F308007047818941F02F
:1026F000010181817047028BD2B20283028B42EAD0
:10270000012202837047028B02F47F420283028B14
:102710000A430283704721B1828A42F020028282FA
:1027200004E0828A4FF6DF731A408282704721B13B
:10273000828A42F01002828204E0828A4FF6EF73AE
:102740001A408282704721B1828A42F00802828256
:1027500004E0828A4FF6F7731A408282704721B1F3
:10276000828942F40042828103E08289C2F30E0230
:102770008281704721B1828A42F40062828204E041
:10278000828A4FF2FF731A4082827047828A4FF624
:10279000FB731A408282828A0A438282704721B187
:1027A000828A42F00202828204E0828A4FF6FD733E
:1027B0001A408282704702460020B1F5007F00D1A6
:1027C00000BF13880B4201D0012000E000207047B9
:1027D00001F40072B2F5007F00D100BFCA4302804D
:1027E000704770B502460024002300250020A1F5A3
:1027F00010666A3E00D100BFC1F3421501F01F030D
:10280000012606FA03F3012D02D19689334006E032
:10281000022D02D1168A334001E0968A33400C1211
:10282000012606FA04F41688344013B10CB10120D5
:1028300000E0002070BD10B500220023A1F5106457
:102840006A3C00D100BF0A1201249440A3B2DC43C9
:10285000048010BD003801400044004000480040A2
:10286000004C00400050004010B50120FEF7D6FBA0
:102870000020FEF7D3FB10BD2449086070472349B0
:10288000091F08607047214984310860704701467C
:1028900000201F4A10884FF67F42104008431C4A10
:1028A0001080704701460020194A10884FF6807248
:1028B00010400843164A108070470022144A2C3AF0
:1028C00002441160704701460022114A2C3A0A4422
:1028D000108870470D489C300068C0B270470C48A3
:1028E0000830008840F0010009490831088070472D
:1028F0000648A0300068C0B270470548083000881C
:1029000040F00200024908310880704704860D42F9
:102910002C6C004008B501215420FEF74BFB4FF40E
:102920007F40ADF8000010208DF8030003208DF8E3
:1029300002006946F948FEF715F84FF47F40F74961
:10294000143108600320ADF800006946F448FEF732
:1029500009F80320F249143108603F20ADF8000067
:102960006946F048FDF7FEFF3F20EE491031086050
:102970001020ADF800006946EB48FDF7F3FF10208A
:10298000E949086108BD08B501212020FEF712FBC6
:102990002020ADF8000010208DF8030003208DF8F2
:1029A00002006946E148FDF7DDFF08BD10B50024CF
:1029B000FFF7E9FF00BF0EE02021DC48FEF77DF8BD
:1029C000012003F002F82021D848FEF778F8012012
:1029D00002F0FBFF641C642CEEDB322002F0F5FFFA
:1029E00000240EE02021D148FEF767F8012002F014
:1029F000ECFF2021CD48FEF762F8012002F0E5FF50
:102A0000641C642CEEDB10BD08B54FF47F40ADF8BC
:102A1000000004208DF8030003208DF802006946B1
:102A2000BE48FDF79FFF4FF47A7003F01AF808BD17
:102A300008B54FF47F40ADF8000010208DF803007A
:102A400003208DF802006946B448FDF78BFF4FF470
:102A50007A7003F006F808BD70B504462546AF4805
:102A60000C300068C0B2AD490C31086008460068FF
:102A700040EA052008600220A949103108600320BF
:102A800002F0EFFFA5480C300068C0B2A3490C313A
:102A9000086008460168681C41EA00209F490C3123
:102AA000086002209E4914310860032002F0D9FF1B
:102AB00070BD70B504462578667898480C3000687B
:102AC000C0B296490C3108600846006840EA05200B
:102AD00008600220924910310860052002F0C1FF11
:102AE0008E480C300068C0B28C490C310860084632
:102AF000006840EA06200860022089491431086015
:102B0000052002F0AEFF70BD70B504460220844976
:102B100010310860072002F0A4FF804808300068E8
:102B200085B2280A207002207D49143108600720F0
:102B300002F097FF79480830006885B2280A607073
:102B400070BD70B5044677480C3000684FF6C07110
:102B5000214300EA010573480C3005604FF47A7098
:102B600002F07FFF70BD10B56E480C30006880B277
:102B700040F03F046B480C300068204369490C3139
:102B800008604FF4FA6002F06CFF10BD10B5012030
:102B9000634914310860142002F063FF012060498A
:102BA00010310860FFF7DFFF502002F069FF0120BD
:102BB0005B4914310860C82002F062FF10BD2DE9A6
:102BC000F04107460D4616463846FFF7BAFF022089
:102BD00002F056FF002403E02819FFF76AFFA41C47
:102BE000B442F9DBFFF7BFFFBDE8F0812DE9F04704
:102BF000ADF5206D82460E4690461C464FF440725D
:102C00000021684600F0CCF9300E8DF80000300C41
:102C10008DF80100300A8DF80200F0B28DF8030043
:102C2000A146A01D84B2200A8DF80400E0B28DF800
:102C30000500002505E018F80510A81D0DF8001086
:102C40006D1C4D45F7DB2146684600F005FA074646
:102C5000380A0DF80400F9B2601C0DF80010A01C31
:102C600084B25046FFF76DFF002504E00DEB050030
:102C7000FFF71FFFAD1CA542F8DBFFF774FF0DF552
:102C8000206DBDE8F0872DE9F047C0B080460F46C3
:102C90004FF0FF0900244FF48071684603F0B1FA49
:102CA000A246FFF7B1FE4046FFF74BFF002500BFED
:102CB0000DEB0500FFF728FFAD1C9DF80000801C00
:102CC000A84203DD9DF80000FF28F1D19DF80040E7
:102CD0002146684600F0C0F90646601C1DF8000059
:102CE0001DF8041000EB01201FFA80FA564508D1A8
:102CF0003CB1A21C6946384600F032F94FF0000999
:102D000003E040F6B83002F0ACFEFFF72CFFFFF70F
:102D10008FFE484640B0BDE8F08700000018014033
:102D2000000C014000080140001001400014014067
:102D30002DE9F043C1B0804600244FF4807101A812
:102D400003F05FFAA146FFF75FFE4046FFF7F9FE8A
:102D5000002500BF01A94819FFF7D6FEAD1C9DF85C
:102D60000400801CA84203DD9DF80400FF28F1D177
:102D70009DF80440214601A800F06EF9064601A91D
:102D8000601C085C095D00EB01201FFA80F94E45CC
:102D900007D134B19DF806009DF8071000EB012023
:102DA00087B2FFF7E0FEFFF743FE384641B0BDE8CB
:102DB000F08370B596B00546002423E00026334624
:102DC00013AA12492046FFF711FF4FF47A7002F060
:102DD00048FE1E2200210BA800F0E2F80BA92046B5
:102DE000FFF751FF01A9085501A8005D30B99DF812
:102DF0002D001A2802D10020285501E00120285575
:102E0000601CC4B2282CD9DB16B070BD02005FA0D4
:102E100070B5ADF6282D0546002408E0002633469F
:102E20000AAA29462046FFF7E1FE601CC4B2282CFE
:102E3000F4DB0021022001F0B7FD282200216846C2
:102E400000F0AEF86846FFF7B4FF684600F066FC95
:102E50000DF6282D70BD70B5054615E0002402F072
:102E600057FE0446B4F5D05F0AD1FFF78FFE642009
:102E700002F0ABFD01F07AFD2846FFF7C9FF03E041
:102E8000B4F5C85F00D100E0E8E700BF70BD01F015
:102E90004CFD01F041FD01F085FC01E001F026F957
:102EA000FCE7000010B52849097801EB8101274AA9
:102EB000126802EB8101486801F0FAFE41E000244B
:102EC00002F026FE0446B4F5D05F16D11E48007805
:102ED00000EB80001D49096801EB8000807C10B187
:102EE000012809D103E01A48FFF7B5FF04E001F01B
:102EF0002AFD01F0E0FB00BF23E0B4F5C85F20D15C
:102F000011480078134908700F480078801D124955
:102F100008700846007811490978884210DD0F488A
:102F200000780D4908700D480078062805DB0B482D
:102F30000078801F0749087002E0002005490870EA
:102F400000E0BCE700BF10BD66000020600000206C
:102F500001005EA164000020650000206F000020D9
:102F600010B50346002002E00C5C1C54401C90424B
:102F7000FAD310BD70B50446002003E00D5CC618FE
:102F8000A555401C9042F9D370BD70B50446002091
:102F900003E00D5CC618A555401C9042F9DB70BDDE
:102FA00010B50346002001E01954401C9042FBD3A9
:102FB00010BD10B5264A1168264AB1FBF2F2303234
:102FC0000270234A1268234BB2FBF3F403FB142173
:102FD00042F21072B1FBF2F2303242701C4A1268B7
:102FE00042F21073B2FBF3F403FB14214FF47A7234
:102FF000B1FBF2F230328270154A12684FF47A73E4
:10300000B2FBF3F403FB14216422B1FBF2F2303281
:10301000C2700F4A12686423B2FBF3F403FB14215D
:103020000A22B1FBF2F230320271094A12680A2315
:10303000B2FBF3F403FB142101F13002427110BD25
:10304000020E0A70020C4A70020A8A70C870704739
:1030500074000020A086010010B502460B464FF612
:10306000FF7109E010784840C0B2394C34F81000C4
:1030700080EA21215B1E521C002BF3D1C84380B291
:1030800010BDF0B505460E4631462846FFF7E4FF71
:103090000446E0B280EA24273846F0BD30B5044645
:1030A000D7212046FFF7D8FF0546281294F8D710FD
:1030B000884206D194F8D800E9B2884201D10020B4
:1030C00030BD0120FCE7F0B504460B4613B9FF27DD
:1030D000177057704FF6FF70002112E0665C0025F4
:1030E0000CE080EA060717F0010F04D048F2084709
:1030F00087EA600000E0401076106D1C082DF0D3C8
:10310000491C9942EAD3C7B287F0FF071770FF271F
:1031100087EA20275770F0BDF0B504460D4646F209
:103120006330002310E0E15CC2B251400A46120154
:1031300082EA0107FAB2D10016117140060A714005
:10314000120281EA02005B1CAB42ECD3F0BD00002E
:10315000E862000800BFFE48008810F0200FFAD097
:10316000FB48001D0088C0F308007047002000BF26
:10317000F8490978C02910D1F74909784F290CD1AD
:10318000F54949784B2908D10021F34A1170517053
:10319000F04A1170F14A11700AE00146401CF04AF1
:1031A0009142E5D30021EB4A1170EC4A117000BF47
:1031B00000BF704710B504460FE0207860B1217859
:1031C000E348FFF78AFA00BF8021E148FFF7F3FAEE
:1031D0000028F9D0641C00E010BDEEE700B587B010
:1031E000012144F20500FDF7E5FE4FF40070ADF853
:1031F000180003208DF81A0018208DF81B0006A96E
:10320000D848FDF7AFFB4FF48060ADF818000420FC
:103210008DF81B0006A9D348FDF7A4FB25208DF8E7
:10322000040003208DF805008DF8060001208DF8BC
:10323000070001A8FCF7F1FF4FF4E13002900020F5
:10324000ADF80C00ADF80E00ADF81000ADF81400AC
:103250000C20ADF8120002A9BD48FFF742F9012287
:1032600040F22551BA48FFF7D4F90121B848FFF7D9
:10327000C4F94FF47A7002F003FCBBA0FFF79AFF89
:10328000FFF774FF4FF4FA7002F0FAFB07B000BDCD
:103290002DE9FE4F05460E46174698460024B5A177
:1032A00003C9CDE90101B5A00068009064220021A6
:1032B000B348FFF775FE0023052201A9B048FFF7C8
:1032C00064FEA946642099FBF0F03030AC494871A7
:1032D000642099FBF0F100FB11900A2190FBF1F0C2
:1032E0003030A74988710A2099FBF0F100FB11905A
:1032F0003030A349C8712C200872B24664209AFB72
:10330000F0F03030487264209AFBF0F100FB11A01D
:103310000A2190FBF1F03030994988720A209AFB1B
:10332000F0F100FB11A030309549C8722C200873D1
:103330002720487305E0395D914A04F10E001154CD
:10334000641C385D0028F6D127218D4A04F10E0057
:1033500011542C21401C11540A2098FBF0F03030FD
:10336000C1B204F1100011540A2098FBF0F100FBE7
:1033700011803030C1B204F111001154431C0422F9
:1033800069467F48FFF701FE00217D4A04F11600DF
:1033900011541046BDE8FE8F2DE9F04104460D465C
:1033A0007849097801EB8101774A126802EB8101C3
:1033B000486802F0D5FE4FF4F071A1EB001046080A
:1033C00005232A46A1B2B0B2FFF762FF0746FFF716
:1033D000F1FEBDE8F0812DE9F04F93B007460025DE
:1033E0004FF0B4094FF0230A0026052012904FF049
:1033F0000A0B3220119028201090002401200E90FA
:1034000002200D900F200C904FF0000800200A9031
:1034100024225EA101A802F0C2FE65A0FFF7CAFE49
:10342000FFF7A4FE5748007800EB8000564A126868
:1034300002EB800041681420FFF7AEFFFFF796FE15
:103440005EA23C2190200C9BFFF722FF0090FFF72B
:10345000B1FEFFF78BFE00BF4FE006F14100C0B2A6
:103460000A900AFB169081B20AAA1FFA8BF00C9BF5
:10347000FFF70EFF0090FFF79DFEFFF777FE38E0A5
:1034800000208DF82D0004F13100C0B28DF82C0021
:10349000092C05D131208DF82C0030208DF82D001D
:1034A000785D012806D10E980F9008F1010000F018
:1034B000FF0801E00D980F9006FB1A9291B2DDE92A
:1034C000103204FB032290B20BAA0F9BFFF7E0FE21
:1034D0000090FFF76FFEFFF749FE785D40107855CA
:1034E0006D1C322D00DD06E0092C01D1002402E024
:1034F000641C0A2CC4DB00BF761C12988642ACDB2D
:10350000B8F1000F0CD1172330A24FF48C71B0200A
:10351000FFF7BEFE0090FFF74DFEFFF727FE14E019
:103520000A2098FBF0F03030C0B28DF816000A2067
:1035300098FBF0F100FB11803030C0B28DF817001D
:1035400001A8FFF737FEFFF711FE13B0BDE8F08FBB
:10355000003801405000002052000020510000209F
:1035600000350C00000801404449522831293B0D28
:103570000A0000004443333228000000293B0D0AB2
:10358000D000002066000020600000204443333259
:10359000283134342C3232302C27B4E6D4DA2020CF
:1035A000B8F6B4EDCEF3272C31293B0D0A0000000C
:1035B000434C522830293B0D0A000000B1BEC2D650
:1035C000BDE1B9FBC8E7CFC200000000C8ABB2BF85
:1035D000CDA8B9FD000000002DE9F04F91B00546DF
:1035E00000264FF0B4094FF0230AB0460120109096
:1035F0004FF0320B28200F90002401200D90022064
:103600000C900F200B9000272422F4A101A802F0B7
:10361000C6FDAFF26400FFF7CDFDFFF7A7FDF84848
:10362000007800EB8000F74A126802EB80004168E6
:103630001420FFF7B1FEFFF799FDAFF280023C21A5
:1036400090200B9BFFF724FE0090FFF7B3FDFFF7E0
:103650008DFD00BF33E02EE000208DF8290004F13D
:103660003100C0B28DF82800092C05D131208DF829
:10367000280030208DF82900A85D012804D10D987C
:103680000E90781CC7B201E00C980E9008FB1A92BD
:1036900091B20F9A04FB02B290B20AAA0E9BFFF7F6
:1036A000F7FD0090FFF786FDFFF760FDA85D401075
:1036B000A855761C641C0A2CCEDB08F10108109872
:1036C0008045C8DB6FB91723AFF200124FF48C713D
:1036D000B020FFF7DDFD0090FFF76CFDFFF746FD22
:1036E00019E0C9A0FFF766FDFFF740FD0A2097FB30
:1036F000F0F03030C0B28DF816000A2097FBF0F1E0
:1037000000FB11703030C0B28DF8170001A8FFF730
:1037100051FDFFF72BFD11B0BDE8F08F2DE9F04F03
:1037200093B0074600254FF0D2094FF0280A002633
:10373000042012904FF00A0B322011902820109094
:10374000002401200E9002200D900F200C904FF0CD
:10375000000800200A902422B1A101A802F01FFD58
:10376000AFF2B410FFF726FDFFF700FDA448007884
:1037700000EB8000A34A126802EB8000416814202D
:10378000FFF70AFEFFF7F2FCAFF2D0123C219020C7
:103790000C9BFFF77DFD0090FFF70CFDFFF7E6FCAB
:1037A00000BF4FE006F14100C0B20A900AFB16903C
:1037B00081B20AAA1FFA8BF00C9BFFF769FD0090FB
:1037C000FFF7F8FCFFF7D2FC38E000208DF82D0061
:1037D00004F13100C0B28DF82C00092C05D1312044
:1037E0008DF82C0030208DF82D00785D012806D151
:1037F0000E980F9008F1010000F0FF0801E00D980D
:103800000F9006FB1A9291B2DDE9103204FB0322FD
:1038100090B20BAA0F9BFFF73BFD0090FFF7CAFC8D
:10382000FFF7A4FC785D401078556D1C282D00DD55
:1038300006E0092C01D1002402E0641C0A2CC4DB40
:1038400000BF761C12988642ACDBB8F1000F0DD198
:103850001723AFF288224FF48C71B020FFF718FDC8
:103860000090FFF7A7FCFFF781FC14E00A2098FB0B
:10387000F0F03030C0B28DF816000A2098FBF0F15D
:1038800000FB11803030C0B28DF8170001A8FFF79F
:1038900091FCFFF76BFC13B0BDE8F08F2DE9FE4FF4
:1038A00005460E4617469846002466A103C9CDE991
:1038B000010159A0006800900023052201A9634876
:1038C000FFF763FBA946642099FBF0F030305F49B5
:1038D0004871642099FBF0F100FB11900A2190FBE4
:1038E000F1F03030594988710A2099FBF0F100FB62
:1038F000119030305549C8712C200872B2466420AE
:103900009AFBF0F03030487264209AFBF0F100FB33
:1039100011A00A2190FBF1F030304C4988720A2046
:103920009AFBF0F100FB11A030304849C8722C20FE
:1039300008732720487305E0395D444A04F10E00FE
:103940001154641C385D0028F6D127213F4A04F148
:103950000E0011542C21401C11540A2098FBF0F049
:103960003030C1B204F1100011540A2098FBF0F17C
:1039700000FB11803030C1B204F111001154431C1E
:10398000042269463148FFF700FB00212F4A04F169
:10399000160011541046BDE8FE8F2DE9F04389B0A2
:1039A0000746884614460025032604E0A05D01A9C9
:1039B00048556D1C761C605D0028F7D101A988551B
:1039C000052301AA1FFA88F1B8B2FFF767FF814605
:1039D000FFF7F0FB09B0BDE8F08300004443333249
:1039E000283134342C3238302C27B4E6D4DA202075
:1039F000B8F6B4EDCEF3272C31293B0D0A000000B8
:103A000066000020600000204349524628313330D0
:103A10002C3239362C382C31293B0D0A000000009D
:103A200044433332283134342C3234302C27B4E63A
:103A3000D4DA2020B8F6B4EDCEF3272C31293B0D93
:103A40000A0000004443323428000000D000002067
:103A50002DE9F04F93B0074600254FF0140B1B20C3
:103A6000129000260520119000244FF0DC094FF041
:103A70002D0A01200F9002200E904FF00008002028
:103A80000B902422F6A102A802F089FBAFF2E040DD
:103A9000FFF790FBFFF76AFBFA48007800EB800025
:103AA000F949096801EB8000282142680320FFF7EB
:103AB00074FFFFF75BFB52E006F14100C0B20B90D0
:103AC0000AFB069188B20F230BAA0A21FFF7E6FE34
:103AD0000190FFF76FFBFFF749FB3CE000208DF8FA
:103AE000350004F13100C0B28DF83400092C05D145
:103AF00031208DF8340030208DF83500785D0128B4
:103B000006D10F98109008F1010000F0FF0801E0C5
:103B10000E98109002220DA90CA8FFF721FA129A14
:103B200004FB02B291B206FB0A9290B20CAA109B5F
:103B3000FFF7B4FE0190FFF73DFBFFF717FB785D41
:103B4000401078556D1C322D00DD06E0092C01D1A6
:103B5000002402E0641C0A2CC0DB00BF761C119814
:103B60008642A9DBB8F1000F0DD11723AFF2A452A2
:103B70004FF48C711420FFF78BFB0190FFF71AFBB9
:103B8000FFF7F4FA14E00A2098FBF0F03030C0B2EE
:103B90008DF819000A2098FBF0F100FB11803030FD
:103BA000C0B28DF81A0002A8FFF704FBFFF7DEFA97
:103BB00013B0BDE8F08F10B5012440F22551B34891
:103BC000FEF70FFEF8B1B148FEF78BFDC4B2B04866
:103BD0000078C02829D0AE48007810F0400F13D0EC
:103BE0000A2C0BD1AA48007840F08000A849087040
:103BF0000020A849A84A1278885416E00020A44959
:103C00000870A549087010E00D2C08D0A248017872
:103C10000078401CA04A10709E48445405E09C481F
:103C2000007840F040009A49087010BD2DE9FE4F21
:103C300004460D4616461F4698A103C9CDE9010169
:103C40008EA0006800900023052201A99548FFF787
:103C50009CF9A046642098FBF0F0303091494871FF
:103C6000642098FBF0F100FB11800A2190FBF1F039
:103C700030308C4988710A2098FBF0F100FB1180EC
:103C800030308849C8712C200872A946642099FBFD
:103C9000F0F030304872642099FBF0F100FB119095
:103CA0000A2190FBF1F030307E4988720A2099FB9E
:103CB000F0F100FB119030307A49C8722C20087363
:103CC000B24664209AFBF0F03030487364209AFBCF
:103CD000F0F100FB11A00A2190FBF1F030307149A6
:103CE00088730A209AFBF0F100FB11A030306D4977
:103CF000C8732C200874BB4664209BFBF0F0303066
:103D0000487464209BFBF0F100FB11B00A2190FB8A
:103D1000F1F03030634988740A209BFBF0F100FB1E
:103D200011B030305F49C8742C2008750A210C98F6
:103D300090FBF1F030305B4948750A210C9890FBFC
:103D4000F1F201FB12003030564988751723042226
:103D500069465448FFF719F900205249C8760846C9
:103D6000BDE8FE8F2DE9FE4F04460D4616461F4660
:103D70004DA103C9CDE9010140A0006800900023D6
:103D8000052201A94748FFF700F9A24664209AFBE3
:103D9000F0F030304349487164209AFBF0F100FBA9
:103DA00011A00A2190FBF1F030303E4988710A20C1
:103DB0009AFBF0F100FB11A030303A49C8712C2079
:103DC0000872A846642098FBF0F0303048726420F6
:103DD00098FBF0F100FB11800A2190FBF1F03030EC
:103DE000304988720A2098FBF0F100FB11803030D6
:103DF0002C49C8722C200873B146642099FBF0F05E
:103E000030304873642099FBF0F100FB11900A21D7
:103E100090FBF1F03030234988730A2099FBF0F1D0
:103E200000FB119030301F49C8732C2008740A2001
:103E300097FBF0F0303048740A2097FBF0F100FB5C
:103E400011703030174988741323042269461548CD
:103E5000FFF79BF800201349C8750846BDE8FE8FA0
:103E6000444333322832302C3238302C27B4E6D455
:103E7000DA2020B8F6B4EDCEF3272C31293B0D0A19
:103E800000000000660000206000002000380140B3
:103E9000500000205200002051000020424F5846A0
:103EA00028000000D00000204349524628000000AE
:103EB00008B5FD48006800904FF400300068401CD1
:103EC00004D101226946500401F000F84FF400309B
:103ED0000068F649086008BD2DE9F0470026F4485F
:103EE00000680078F3490870F3480078F3490870D7
:103EF000F3480078002844D0F2A0FFF75BF9FFF701
:103F000035F9F3A0FFF756F9FFF730F900BFEA489B
:103F1000077831E0701CF9490978884211D14FF0D7
:103F2000060806EBC600652202EB80014346062226
:103F30002D20FFF717FF8146FFF73CF9FFF716F931
:103F400001E04FF0040807EB8700D94B1B6803EB37
:103F50008000426806EBC600552303EB8001434610
:103F60004120FFF795F98146FFF724F9FFF7FEF8A6
:103F7000701CC6B2781CC7B2E14800788742C9DB22
:103F800085E0E0480078401EC4B2CB480078204469
:103F900000EB8000C64B1B6803EB8000426804EB1B
:103FA000C400552303EB800100234120FFF770F983
:103FB0008146FFF7FFF8FFF7D9F8BF4800782044A3
:103FC00000EB8000BA4B1B6803EB8000426804EBF7
:103FD000C400552303EB800104234120FFF758F967
:103FE0008146FFF7E7F8FFF7C1F804EBC40065224C
:103FF00002EB8001002306222D20FFF7B3FE81464D
:10400000FFF7D8F8FFF7B2F8BC480078401EC5B2F9
:10401000A9480078284400EB8000A54B1B6803EBFF
:104020008000426805EBC500552303EB80010023A7
:104030004120FFF72DF98146FFF7BCF8FFF796F80E
:104040009D480078284400EB8000994B1B6803EBE7
:104050008000426805EBC500552303EB8001062371
:104060004120FFF715F98146FFF7A4F8FFF77EF826
:1040700005EBC500652202EB800106231A462D20C0
:10408000FFF770FE8146FFF795F8FFF76FF8002005
:104090009D490870994800789A490870BDE8F087F2
:1040A00010B59A48824908600020994908708249F1
:1040B00008707F48006800787E49087008460078DC
:1040C0009449097890FBF1F020B1924800788C492E
:1040D000087003E077480078894908700120784922
:1040E000087086490870FFF7F7FE10BD10B5002470
:1040F00001F0F2FC0446B4F5306F7DD0B4F5985F62
:104100007BD0B4F5C85F49D0B4F5D05F76D101203B
:104110007D4908707E48007800EB8000644909689A
:1041200001EB800080687C49884202D1FEF7BAFE2C
:1041300033E07748007800EB80005D49096801EBC7
:10414000800080687449884227D074480078744998
:10415000087074480078744908707448007874498D
:1041600008706B4800786D490870534800786D49B5
:104170000870634800786D4908706548007800EB66
:1041800080004B49096801EB80008068484908605D
:1041900000205F4908704849087059E001205A49D9
:1041A000087043480068C0685B49884231D0404885
:1041B0000068C068554988420AD13D480068C06817
:1041C0003B4908600020524908703B49087020E0D4
:1041D00037480068C06836490860504800784C4944
:1041E00008705048007834490870504800784449B5
:1041F00008704B48007802E01AE00BE027E04749DE
:10420000087049480078474908704948007847498C
:1042100008701DE03E480078401E3D490870084681
:104220000078FF2803D123480078401E08700FE073
:1042300037480078401C36490870084600781D4908
:104240000978884202D100203149087000E000BF9F
:1042500000BF2F48007820BB1748007808BB2948CA
:104260000078022806D12848007818B9002014499F
:10427000087002E001201249087000200E49087001
:104280000B48006800780B490870084600782149FF
:10429000097890FBF1F028B11E48007818490870A1
:1042A0004CE04FE046E00000E864000874000020A5
:1042B000600000206F0000206400002067000020E4
:1042C00073000020434C522830293B0D0A000000A7
:1042D000444333322833352C34302C27C7EBD1A15B
:1042E000D4F1D0E8D2AAD6B4D0D0B5C4C3FCC1EEC4
:1042F000272C3135293B0D0A0000000070000020FA
:1043000065000020720000207100002028000020BD
:104310006600002068000020A00000206900002046
:104320006C0000206A0000206D0000206B0000205F
:104330006E000020FE480078FE4908700120FE490A
:10434000087082E0FD480078FD490978884211DB59
:10435000FA480078F749097888420BDA0020F949D1
:104360000870F6480078F6490978401A401CF2496E
:1043700008706AE0F1480078F1490978884233DA38
:104380000120F0490870ED48007806281EDCEB4853
:10439000007818B90120E849087003E0E84800787F
:1043A000E54908700020E6490870E1480078E649D0
:1043B000097890FBF1F020B1E3480078DD490870FE
:1043C00043E0DB480078DB4908703EE0DC480078D9
:1043D000801FDB49087008460078801DD5490870A9
:1043E0000620D549087030E0D4480078D1490978D2
:1043F00088422ADB0120D3490870CD480078CF4994
:104400000978401AD0490978884211DACB480078F7
:10441000C01DC7490978401AC7490870C4480078C8
:10442000801FC7490870C2480078C24908700CE074
:10443000C3480078801DC249087008460078801D76
:10444000BC4908700120BC490870C04800780128A8
:1044500001D1BC490870FFF73FFD10BD2DE9FF4FAA
:1044600087B01E4600274FF0FA084FF01E090025BE
:104470004FF0040A00244FF0280B2820069001205A
:10448000049002200390002002900190042307A8CA
:1044900007C8FEF7FDFE0090FEF78CFEFEF766FEF5
:1044A00042E005F14100C0B2029009FB158081B2E3
:1044B0000F2302AA1420FEF7EBFE0090FEF77AFE0F
:1044C000FEF754FE2CE000208DF8050004F13100C9
:1044D000C0B28DF80400092C05D131208DF80400FC
:1044E00030208DF80500F05D10B10498059001E0D2
:1044F000039805907F1C09FB158291B2069A04FB74
:1045000002B290B201AA059BFEF7C2FE0090FEF730
:1045100051FEFEF72BFE092C01D1002402E0641CA1
:104520000A2CD0DB00BF6D1C5545BADB0BB0BDE8D3
:10453000F08F2DE9F043ADF5797D81460F461422C9
:1045400083A1F4A801F02BFE2821EAA801F059FE6E
:10455000FF264FF4257105A801F053FE142281496E
:10456000684601F01CFE00208DF8A80200251BE023
:104570004FF000084346AAAA7B492846FEF736FBBF
:104580000A2001F07DFA05EB05116A468818102211
:104590000021FEF705FD05EB05106A468118284647
:1045A000FEF771FB681CC5B2282DE1DB002543E056
:1045B00000243CE005EB051069460144601C085CE2
:1045C000302833DB05EB051069460144601C085CAC
:1045D00039282BDCF4A8015D05EB05106A4602447E
:1045E000601C105C814200DD23E0F4A8015D05EB56
:1045F00005106A460244601C105C814216DA05EB25
:10460000051069460144601C085CF4A908552E4653
:10461000002408E006EB061069460144601C085CB3
:10462000F4A90855641C102CF4DB02E0641C082C6F
:10463000C0DB00BF681CC5B2282DB9DBFF2E0CD033
:10464000002408E006EB061069460144601C085C83
:10465000F4A90855641C112CF4DB002516E0002099
:10466000EAA9485500240DE0F4A8015D05EB05100A
:104670006A460244601C105C814202D00120EAA913
:104680004855641C102CEFDB681CC5B2282DE6DBF6
:104690001122F4A94846FEF763FC1222F4A933481C
:1046A000FEF75EFC2822EAA93846FEF759FC0DF514
:1046B000797DBDE8F08310B58EB0FEF767FA6946E4
:1046C0000AA8FFF736FFAFF20440FEF773FDFEF7CE
:1046D0004DFD0F2326A20A216420FEF7D9FD0446D2
:1046E000FEF768FDFEF742FD0F2326A246211620A5
:1046F000FEF7CEFD0446FEF75DFDFEF737FD042311
:10470000224A4621AA20FEF7C3FD0446FEF752FDC9
:10471000FEF72CFD0F231EA26E211620FEF7B8FD1A
:104720000446FEF747FDFEF721FD6B460AAA33E07B
:104730006F0000206500002070000020660000204F
:104740006400002073000020680000207100002039
:104750003030303030303030303030303030303059
:10476000303000000065000803005FA03401002025
:10477000B8F7C4A3BFE9C8EDBCFEB0E6B1BED0C572
:10478000CFA20000D6F7B0E520203A00D86200089A
:10479000B9A6C4DCB0E53A006E21AA20FFF75EFEA0
:1047A0000EB010BD10B5FFF786FF05E0002401F044
:1047B00093F9044604B100E0F8E700BF00F0A0FE62
:1047C00005E0002401F088F9044604B100E0F8E7B0
:1047D00000BFFFF765FC10BD2DE9F8430646012533
:1047E000AFF22050FEF7E6FCFEF7C0FC0F23F9A263
:1047F00082217020FEF74CFD8046FEF7DBFCFEF7C1
:10480000B5FCF8A0FEF7D6FCFEF7B0FC002749E0A7
:1048100071241EE0C723201D82B2B52120460095D9
:10482000FFF704FA8046FEF7C5FCFEF79FFC002068
:10483000C723009004F17D0082B2B521001F80B231
:10484000FFF7F4F98046FEF7B5FCFEF78FFC201D5C
:1048500084B2E62CDEDB1EE0C723201D82B2B52128
:1048600020460095FFF7E2F98046FEF7A3FCFEF72D
:104870007DFC0020A4F174018AB2091F009088B267
:10488000C723B521FFF7D2F98046FEF793FCFEF768
:104890006DFC201D84B2B4F5AF7FDDDB681CC5B2B2
:1048A000781CC7B2B742B3DB71241EE0C723201DBA
:1048B00082B2B52120460095FFF7B8F98046FEF791
:1048C00079FCFEF753FC0020C723009004F17D0023
:1048D00082B2B521001F80B2FFF7A8F98046FEF72B
:1048E00069FCFEF743FC201D84B2E62CDEDB0EE003
:1048F000C723201D82B2B52120460095FFF796F907
:104900008046FEF757FCFEF731FC201D84B2B4F55B
:10491000AF7FEDDBBDE8F88310B5FFF7C9FA00F013
:1049200042FC0320FFF758FF10BD10B501F032F92B
:1049300001F06EF801F070F901F0B6F8FDF7EAFF4A
:10494000FEF74CFC10BD10B5AFF28860FEF732FCEC
:10495000FEF70CFC0F23AAA28C216020FEF798FC26
:104960000446FEF727FCFEF701FC10BD10B5AFF2C0
:10497000AC60FEF71FFCFEF7F9FB0F23A5A2782120
:104980007020FEF785FC0446FEF714FCFEF7EEFBF4
:104990000123A5A2FA218220FEF77AFC0446FEF745
:1049A00009FCFEF7E3FB10BD2DE9F84304460D4674
:1049B000601BC7B200262EE00A2094FBF0F03030D6
:1049C000C0B28DF800000A2094FBF0F100FB11400A
:1049D0003030C0B28DF8010001236A46FA214FF44D
:1049E0008C70FEF755FC8046FEF7E4FBFEF7BEFB3D
:1049F00040F2B63001F044F800236A46FA214FF441
:104A00008C70FEF745FC8046FEF7D4FBFEF7AEFB4C
:104A1000601EC4B2761CBE42CEDD0DBB002382A256
:104A2000FA218220FEF734FC8046FEF7C3FBFEF736
:104A30009DFB00236A46FA214FF48C70FEF728FC98
:104A40008046FEF7B7FBFEF791FB022379A2FA211D
:104A5000C820FEF71DFC8046FEF7ACFBFEF786FB88
:104A6000BDE8F8832DE9F041F6B080460E461422E9
:104A7000724971A801F093FB00206E906F907090C6
:104A80008DF80400002411E000273B4601AA6C4980
:104A90002046FEF7ABF804EBC40141AA02EB41004B
:104AA00010220021FEF77CFA601CC4B20A2CEBDB5A
:104AB000FA2000F0E5FF002413E03B4601AA60491C
:104AC000491C2046FEF792F80A2000F0D9FF04EBBB
:104AD000C40041AA02EB40012046FEF7D4F8601C56
:104AE000C4B20A2CE9DB002448E0002541E004EBD5
:104AF000C40041A901EB4001681C085C302837DB89
:104B000004EBC40041A901EB4001681C085C392892
:104B10002EDC04EBC40041A901EB4001681C085CD9
:104B200071A9495D884200DA25E004EBC40041A97F
:104B300001EB4001681C085C71A9495D884217DDE2
:104B400004EBC40041A901EB4001681C085C71A999
:104B50004855002509E004EBC40041A901EB4001E0
:104B6000681C085C71A948556D1C122DF3DB02E02E
:104B70006D1C082DBBDB00BF601CC4B20A2CB4DB6B
:104B8000002417E000206EA9085500250EE071A84A
:104B9000415D04EBC40041AA02EB4002681C105CBA
:104BA000814202D001206EA908556D1C102DEEDB4C
:104BB000601CC4B20A2CE5DB102271A94046FEF746
:104BC000CFF90A226EA93046FEF7CAF976B0BDE8E1
:104BD000F0810000CFB5CDB3B3F5CABCBBAFD6D022
:104BE0002E2E2E00424F58283131322C3138302CA5
:104BF0003335352C3230302C3135293B0D0A00004D
:104C0000D5FDD4DABBF1C8A1B0E6B1BED0C5CFA204
:104C10002E2E2E00D5FDD4DAD6B4D0D0BCECB2E224
:104C2000C3FCC1EE00000000CAA3D3E0CAB1BCE4DB
:104C3000A3BA0000CDEAB3C9A3A10000EC64000848
:104C400006005FA00146002004E0414A125C0A54BD
:104C5000421CD0B21028F8DB70470146002004E067
:104C60003C4A125C0A54421CD0B21028F8DB704750
:104C700070B586B004460D46142101A801F0C1FAB2
:104C80001222002101A8FEF78BF910224FF4E061F7
:104C900001A800F0F4FF042301AA29462046FEF7EC
:104CA000F7FA0646FEF786FAFEF760FA06B070BD20
:104CB00070B50446AFF6F410FEF77CFAFEF756FA2C
:104CC0000F2325A228212320FEF7E2FA0546FEF74E
:104CD00071FAFEF74BFA0523224664211420FEF7F1
:104CE000D7FA0546FEF766FAFEF740FA20A0FEF76F
:104CF00061FAFEF73BFA25A0FEF75CFAFEF736FAFA
:104D0000042329A2AE216420FEF7C2FA0546FEF76D
:104D100051FAFEF72BFA26A0FEF74CFAFEF726FA18
:104D200004232AA24FF484716420FEF7B1FA0546E9
:104D3000FEF740FAFEF71AFA26A0FEF73BFAFEF756
:104D400015FA2BA0FEF736FAFEF710FA70BD000038
:104D5000D862000834010020C7EBC8B7C8CFC4E34D
:104D6000D1A1D4F1B5C4B2D9D7F7D6B8C1EE0000FD
:104D7000424F5846283232302C3231352C323630C0
:104D80002C3235352C34293B0D0A0000424F584651
:104D9000283137302C3137302C3231302C32313011
:104DA0002C34293B0D0A0000B7B5BBD80000000029
:104DB000424F5846283237302C3137302C3331307F
:104DC0002C3231302C34293B0D0A0000C8B7C8CF33
:104DD00000000000424F5846283137302C32363020
:104DE0002C3231302C3330302C34293B0D0A00006A
:104DF000424F5846283237302C3236302C3331303F
:104E00002C3330302C34293B0D0A000010B50B46F2
:104E10000021464C204403E010F8014B5C54491C2F
:104E20009142F9D310BD2DE9F04706460D461746CD
:104E3000FBF77BFA3520FBF711FD3C48FBF7BBFA8B
:104E40003B490870002416E039480078042811D145
:104E500006EB440815F81400022101FB04514978BF
:104E600000EB01201FFA80F949464046FBF7A3FBFF
:104E70002F490870641CB4EB570FE5D3FBF761FAB8
:104E8000BDE8F0872DE9F04105460E461746FBF7D1
:104E90004CFA3520FBF7E2FC2448FBF78CFA244956
:104EA000087000240CE022480078042807D136F866
:104EB000141005EB4400FBF77EFB1D490870641CD1
:104EC000BC42F0D3FBF73DFABDE8F0812DE9F0419B
:104ED00005460E461746FBF728FA3520FBF7BEFCC1
:104EE0002846FBF768FA1249087000240CE01048C5
:104EF0000078042807D156F8241005EB8400FBF74E
:104F00002AFB0B490870641CBC42F0D3FBF719FA6A
:104F1000BDE8F08110B50B46002100BF03E010F89A
:104F2000014B5C54491C9142F9DB10BD00F80108AB
:104F30007800002008B503208DF8000000208DF8CF
:104F400001008DF8020001208DF803006846FBF790
:104F500064F908BDF0B503460C461546642093FB82
:104F6000F0F0C6B2642093FBF0F700FB1730C1B23B
:104F7000132E02DD01F16400C1B20846CF1701EB28
:104F8000977701EBA702072092FBF0F700FB1720B1
:104F900082B25719601EDFF874C41CF80000384450
:104FA00082B2CF1701EB9777BF10B1EB870703D120
:104FB000032C01DA501E82B2072092FBF0F700FBAF
:104FC0001720C0B2F0BD0146CA1701EB92729210D1
:104FD000B1EB820212D1642091FBF0F200FB1210BF
:104FE00050B94FF4C87091FBF0F200FB121008B9F1
:104FF000012070470020FCE70120FAE70020F8E7D5
:105000002DE9F0474FF000090024A0460025FCF7E9
:105010005BF88146FE48B9FBF0F4FE480088A042E8
:1050200037D0FC490C8040F2B27810E04046FFF7E0
:10503000CAFF30B1B4F5B77F02D3A4F5B77402E06C
:1050400008E0A4F26D1408F101001FFA80F8B4F52D
:10505000B67FEBD800BFF048A0F804800125EF48E8
:105060000678A7B20FE0B81B87B2681C85B2681E2D
:10507000EA490E5C022D06D1E7498888FFF7A3FFB5
:1050800008B1701C86B2B742EDDAE3498D71781C25
:10509000C871DF48B9FBF0F100FB11944FF4616077
:1050A000B4FBF0F0DC4908704FF46160B4FBF0F140
:1050B00000FB11403C21B0FBF1F0D74948704FF4A0
:1050C0006160B4FBF0F100FB11403C21B0FBF1F258
:1050D00001FB1200D04988700B46DA7999799888DB
:1050E000FFF738FFCC4908720020BDE8F0872DE9B2
:1050F000F05F06460F4690469946DDE90AAB00246C
:1051000040F2B270864203DB40F63300864202DD95
:105110000120BDE8F09F40F2B2750AE02846FFF793
:1051200052FF10B1BE48044401E0BE480444681C6C
:1051300085B2B542F2DB781EC7B2002510E0B74851
:10514000405D40F2A321484304EBC0143046FFF712
:105150003AFF18B1012D01D1AD480444681C85B255
:10516000BD42ECDBA8F1010040F2A321484304EB6F
:10517000C014C9EB4910C0EB092004EB0014CAEBC2
:105180000A1004EB80045C4401214FF0C050FBF78F
:105190001EFF0120FBF74BFD2046FBF79EFFFBF7B0
:1051A000CFFF0020B5E77CB5002401214FF0C050AF
:1051B000FBF70DFF0120FBF73AFD0420FDF783FB11
:1051C0000546A5F5A040503849D0FDF74DFB01201C
:1051D000FBF760FE04E0601CC4B20A2000F050FC43
:1051E0004120FBF7C2FD08B9FA2CF4DBFA2C01DBF5
:1051F00001207CBD4FF48070FBF765FE0120FBF7BA
:1052000068FEFBF79DFFFBF7A3FF01210846FBF7B4
:1052100039FFFBF795FFFBF744FF47F6FF70FBF7FD
:1052200069FFFBF78DFF80480068401C0FD13720D5
:1052300018210E231322CDE90010062140F2E3705D
:10524000FFF755FF78480068401C77490860FBF776
:1052500031FF45F250010420FDF72FFB07E0FBF77B
:1052600077FF01210846FBF70DFFFBF769FFFFF70A
:1052700061FE6D48006864280FD11E200E210F23A7
:105280001F22CDE90010072140F2E770FFF72FFF42
:10529000654800680A3064490860FFF7B1FE0020E5
:1052A000A7E710B50120FBF779FF08B1FFF7A8FECB
:1052B0000220FBF773FF20B10220FBF77FFFFFF70F
:1052C0009FFE0520FBF77AFFFBF73AFF10BD2DE9A3
:1052D000F05F06460F4690469946DDE90AAB00248A
:1052E00040F2B270864203DB40F63300864202DDB4
:1052F0000120BDE8F09F40F2B2750AE02846FFF7B2
:1053000062FE10B14648044401E046480444681C6B
:1053100085B2B542F2DB781EC7B2002510E03F48E7
:10532000405D40F2A321484304EBC0143046FFF730
:105330004AFE18B1012D01D135480444681C85B2DC
:10534000BD42ECDBA8F1010040F2A321484304EB8D
:10535000C014C9EB4910C0EB092004EB0014CAEBE0
:105360000A1004EB80045C4401214FF0C050FBF7AD
:105370002EFE0120FBF75BFC2046FBF7C9FEFBF786
:10538000DFFE0020B5E710B5234A91884FF47A720A
:10539000B1FBF2F2303202701F4A92884FF47A73F6
:1053A00092FBF3F403FB14216422B1FBF2F23032DE
:1053B0004270194A9288642392FBF3F403FB142190
:1053C0000A22B1FBF2F230328270134A92880A2329
:1053D00092FBF3F403FB142101F13002C2702D2281
:1053E00002710D4A91799279642392FBF3F403FBE5
:1053F00014210A22B1FBF2F230324271064A92794C
:105400000A2392FBF3F403FB14210FE01465000858
:10541000805101007A00002046010020206500082C
:105420000085E2018033E1017400002001F13002C7
:1054300082712D22C271FE4AD179D279642392FB06
:10544000F3F403FB14210A22B1FBF2F230320272B0
:10545000F74AD2790A2392FBF3F403FB142101F1FA
:105460003002427220228272F14A1178127864234B
:1054700092FBF3F403FB14210A22B1FBF2F2303267
:10548000C272EB4A12780A2392FBF3F403FB142155
:1054900001F1300202733A224273E54A51785278A0
:1054A000642392FBF3F403FB14210A22B1FBF2F212
:1054B00030328273DE4A52780A2392FBF3F403FB04
:1054C000142101F13002C2733A220274D84A917851
:1054D0009278642392FBF3F403FB14210A22B1FBBC
:1054E000F2F230324274D24A92780A2392FBF3F4F9
:1054F00003FB142101F1300282740022C27410BD3A
:1055000030B585B0CA4884884FF47A70B4FBF0F0A7
:105510003030C0B28DF80000C54880884FF47A71F1
:1055200090FBF1F201FB12046420B4FBF0F0303088
:10553000C0B28DF80100BE488088642190FBF1F272
:1055400001FB12040A20B4FBF0F03030C0B28DF839
:105550000200B74880880A2190FBF1F201FB120497
:1055600004F13000C0B28DF803002D208DF8040046
:10557000AF4884798079642190FBF1F201FB120439
:105580000A20B4FBF0F03030C0B28DF80500A84816
:1055900080790A2190FBF1F201FB120404F1300042
:1055A000C0B28DF806002D208DF80700A048C47900
:1055B000C079642190FBF1F201FB12040A20B4FBD4
:1055C000F0F03030C0B28DF808009948C0790A2157
:1055D00090FBF1F201FB120404F13000C0B28DF82F
:1055E000090020208DF80A00914804780078642191
:1055F00090FBF1F201FB12040A20B4FBF0F0303012
:10560000C0B28DF80B008A4800780A2190FBF1F2B5
:1056100001FB120404F13000C0B28DF80C003A20F6
:105620008DF80D00824844784078642190FBF1F2B7
:1056300001FB12040A20B4FBF0F03030C0B28DF848
:105640000E007B4840780A2190FBF1F201FB120426
:1056500004F13000C0B28DF80F003A208DF8100030
:10566000734884788078642190FBF1F201FB120486
:105670000A20B4FBF0F03030C0B28DF811006C4855
:1056800080780A2190FBF1F201FB120404F1300052
:10569000C0B28DF8120000208DF81300C82000F071
:1056A000EFF964A0FDF786FDFDF760FD04236A466F
:1056B00096215020FDF7ECFD0546FDF77BFDFDF73B
:1056C00055FD05B030BD2DE9F04F87B005460E46BB
:1056D00017469846DDE911ABDDF840902C464FF4B3
:1056E0007A70B4FBF0F03030C0B28DF808004FF49F
:1056F0007A7095FBF0F100FB11546420B4FBF0F0DC
:105700003030C0B28DF80900642095FBF0F100FB49
:1057100011540A20B4FBF0F03030C0B28DF80A000A
:105720000A2095FBF0F100FB115404F13000C0B2E7
:105730008DF80B002D208DF80C003446642096FB6C
:10574000F0F100FB11640A20B4FBF0F03030C0B27D
:105750008DF80D000A2096FBF0F100FB116404F1B6
:105760003000C0B28DF80E002D208DF80F003C46A1
:10577000642097FBF0F100FB11740A20B4FBF0F0F9
:105780003030C0B28DF810000A2097FBF0F100FB1A
:10579000117404F13000C0B28DF8110020208DF892
:1057A00012004446642098FBF0F100FB11840A20AB
:1057B000B4FBF0F03030C0B28DF813000A2098FB33
:1057C000F0F100FB118404F13000C0B28DF8140038
:1057D0003A208DF815004C46642099FBF0F100FB4F
:1057E00011940A20B4FBF0F03030C0B28DF81600EE
:1057F0000A2099FBF0F100FB119404F13000C0B2D3
:105800008DF817003A208DF81800544664209AFB52
:10581000F0F100FB11A40A20B4FBF0F03030C0B26C
:105820008DF819000A209AFBF0F100FB11A407E0A3
:1058300046010020434C522830293B0D0A0000004D
:1058400004F13000C0B28DF81A0000208DF81B0062
:10585000642000F015F9AFF22400FDF7ABFCFDF772
:1058600085FC122331A232218C20FDF711FD00901E
:10587000FDF7A0FCFDF77AFC042302AAA02150202A
:10588000FDF706FD0090FDF795FCFDF76FFCBBF101
:10589000130F15DA02A810F80B008DF80400002091
:1058A0008DF805004FEA0B1101F150002A2301AADF
:1058B000A021FDF7EDFC0090FDF77CFCFDF756FC08
:1058C00013231DA24FF48C711420FDF7E7FF009005
:1058D000FDF770FCFDF74AFC072319A24FF48C7109
:1058E0008720FDF7DBFF0090FDF764FCFDF73EFC31
:1058F000132316A24FF48C714FF49170FDF7CEFF75
:105900000090FDF757FCFDF731FC072311A24FF47F
:105910008C714FF4B970FDF7C1FF0090FDF74AFCA0
:10592000FDF724FC07B0BDE8F08F0000B8FCB8C458
:10593000525443CAB1BCE400457363203C2D0000BF
:10594000456E746572202D3E000000005570202BBE
:1059500000000000446F776E202D000010B56FF03E
:105960000400FAF7A5FC4C4800684C49B0FBF1F084
:105970004B490870084600784FF47A71484349490A
:10598000088010BD0146464A12784A434FF0E02392
:105990005A6100229A611A46126942F001021A61A4
:1059A00000BF4FF0E022106910F0010F02D010F498
:1059B000803FF6D04FF0E022126922F001024FF052
:1059C000E0231A6100229A6170470146354A128825
:1059D0004A434FF0E0235A6100229A611A46126945
:1059E00042F001021A6100BF4FF0E022106910F08E
:1059F000010F02D010F4803FF6D04FF0E022126980
:105A000022F001024FF0E0231A6100229A617047F0
:105A10000EB54720ADF800001020ADF802000120BF
:105A2000ADF804000020ADF8060069464FF0804054
:105A3000FBF72CFE01218807FCF758F96FF00400F2
:105A4000FAF736FC144800681449B0FBF1F0144929
:105A50000870084600784FF47A714843114908806D
:105A60000EBD10B5044621464FF08040FCF7C8FB40
:105A700000BF4FF08040FCF7E6FB0028F9D110BDD5
:105A800070B50446002504E04FF47A70FFF7E9FF93
:105A90006D1CA542F8D370BD1400002000127A00DE
:105AA0007C0000207E00002008B54FF4D850ADF8EF
:105AB000000004208DF8030069463348FAF752FFCE
:105AC0004FF40050ADF8000048208DF803006946FF
:105AD0002D48FAF747FF08BD70B500BF2A48FAF70E
