:020000040000FA
:10000000D80800206D01000071010000730100009C
:100010007501000077010000790100000000000078
:100020000000000000000000000000007B01000054
:100030007D010000000000007F0100008101000040
:100040008301000083010000000000006906000039
:100050008301000083010000830100008301000090
:100060000000000083010000830100008301000004
:1000700083010000000000008301000083010000F4
:100080008301000083010000830100008301000060
:1000900083010000C306000083010000830100000B
:1000A00083010000000000008301000083010000C4
:1000B00000000000000000000000000083010000BC
:1000C00000F002F800F042F80AA090E8000C824428
:1000D0008344AAF10107DA4501D100F037F8AFF205
:1000E000090EBAE80F0013F0010F18BFFB1A43F016
:1000F000010318474013000060130000103A24BFAA
:1001000078C878C1FAD8520724BF30C830C144BF7C
:1001100004680C60704700000023002400250026BE
:10012000103A28BF78C1FBD8520728BF30C148BF5A
:100130000B607047642900F0AD87782900F0E687EE
:10014000002070471FB51FBD10B510BD01F020F98C
:100150001146FFF7F7FF00F06FFD01F03EF903B421
:10016000FFF7F2FF03BC01F043F900000848004725
:10017000FEE7FEE7FEE7FEE7FEE7FEE7FEE7FEE757
:10018000FEE7FEE703480449024A044B70470000BB
:10019000C1000000D8000020D8080020D8000020AE
:1001A000FE4910F4001F05D0FD4A526822F00042BB
:1001B000FB4B5A6010F4801F05D0F94A526822F0B8
:1001C0000052F74B5A6010F4004F05D0F44A5268C1
:1001D00022F04002F24B5A6010F4807F05D0F04AC2
:1001E000526822F02002EE4B5A6010F0010F05D049
:1001F000EB4A526822F00402E94B5A6010F4804F37
:1002000005D0E74A526822F01002E54B5A6010F41C
:10021000007F05D0E24A526822F00302E04B5A60A8
:10022000DF4A1268C3430B431A40DD4B1A60704724
:10023000DA4910F4001F05D0D94A526842F0004252
:10024000D74B5A6010F4801F05D0D54A526842F04F
:100250000052D34B5A6010F4004F05D0D04A526878
:1002600042F04002CE4B5A6010F4807F05D0CC4A59
:10027000526842F02002CA4B5A6010F0010F05D0BC
:10028000C74A526842F00402C54B5A6010F4804FCE
:1002900005D0C34A526842F01002C14B5A6010F4B4
:1002A000007F05D0BE4A526842F00302BC4B5A6040
:1002B000BB4A126820EA01031A43B94B1A6070471F
:1002C000F0B501460024002500260C291BD80C207F
:1002D000B0FBF1F701FB170008B10020F0BDB048FA
:1002E0004068B04F384040F08040AD4F78600C20FF
:1002F000B0FBF1F2501E40F4047040F4405040F066
:100300008460B86075E050292AD00CDC32291BD0FB
:1003100004DC1E2910D0302936D111E03C2917D039
:10032000462931D118E05A291ED0642920D06E29DF
:1003300022D0782928D123E028240225032625E08D
:1003400040240225032621E03224032502261DE055
:100350003C240325022619E046240325022615E045
:1003600050240325022611E05A24032502260DE01D
:1003700032240325012609E037240325012605E060
:100380003C240325012601E00020A7E700BF4FF42D
:100390008010006820F4F85040F400604FF480179B
:1003A00038607F4840687F4F38407D4F7860B004A8
:1003B00040EA8530204340F0C050F8603846C068BD
:1003C00020F00040F8603846C06840F48000F860D3
:1003D00000BF7348C06810F0804FFAD07248704F69
:1003E000B860384640686F4F3840704F38436C4FA4
:1003F00078606B4840686E4F38404F1E40EA473087
:10040000674F78606B4801FB00F3184666E7F0B56C
:100410000146002400250026302919D83020B0FBE1
:10042000F1F701FB170008B10020F0BD5C484068FF
:100430005C4F38405A4F78603020B0FBF1F3581EC3
:1004400040F4047040F4405040F08460B86067E0CD
:100450005A2920D008DC32290DD03C290FD046295A
:1004600011D0502927D112E0642918D06E291AD052
:10047000782920D11BE03224032502261DE03C24EC
:100480000325022619E046240325022615E0502400
:100490000325022611E05A24032502260DE032240A
:1004A0000325012609E037240325012605E03C2425
:1004B0000325012601E00020B7E700BF4FF48010BC
:1004C000006820F4F85040F400604FF48017386062
:1004D00033484068334F3840314F7860B00440EAC9
:1004E0008530204340F0C050F8603846C06840F086
:1004F0000040F8603846C06840F48000F86000BFF3
:100500002748C06810F0804FFAD02748244FB860C1
:1005100038464068234F3840244F3843204F786096
:100520001F484068224F38404F1E40EA47301C4F5A
:1005300078602148026840F6F63082420BD240F6DD
:10054000BE20824207D94FF47A7702FB07F0484376
:100550000327B0FBF7F2104667E7F0B5054600BF8A
:100560004FF48010006820F4F85040F400604FF41D
:10057000801108602846FFF7A3FE1049086008486C
:10058000806800F00F00441C0846006860430C4976
:10059000086003488068C0F3031013E00181300055
:1005A00000000648FFE6FFBF1032200400010040B3
:1005B000FF1F00E040420F002C0208004000002016
:1005C00044000020441C22480068B0FBF4F021499C
:1005D00008601F4800682049B0FBF1F734207843D9
:1005E0004FF47A71B0FBF1F0C6B24FF4801000689E
:1005F00020F4F85040EA06204FF480110860F0BD66
:1006000003201649086070470020144908607047AD
:1006100010B51348134908610846406940F00100CD
:1006200048610A2000F09BF900200E490861084645
:10063000406920F0010048614FF0FF30FFF7B0FD46
:100640006E20FFF78AFFFFF7DBFF10BD7047000049
:10065000400000204800002040420F0000D0084029
:100660007462966C000006489349C86B10F0100F36
:1006700015D00DE090490968904A914B1B78D154F0
:100680008F490978491C8E4A117001218D4A1170D9
:100690008949896901F010011029EBD110E010F0AF
:1006A000200F09D08449896901F08001802907D190
:1006B0000121854A117003E040F6FF717E4A5164C2
:1006C00070478249C86B10F0100F15D00DE07F49BC
:1006D00009687A4A7A4B1B78D15479490978491CC0
:1006E000774A11700121774A11707849896901F0C0
:1006F00010011029EBD110E010F0200F09D0734940
:10070000896901F08001802907D101216E4A1170A9
:1007100003E040F6FF716D4A516470472DE9F041E6
:1007200003461001B1FBF0F5B1FBF0F700FB171623
:10073000F701B7FBF0F7781C440805EB941703EBBF
:10074000430CDFF8748108EB8C4CCCF8247004F077
:100750003F0703EB430C08EB8C4CCCF82870BDE84A
:10076000F08170B504460E467CB959480568594871
:10077000C06A20F00F00401D5649C862032000F0F7
:1007800091F8032000F082F816E052488068C0F328
:100790000360401C50490968B1FBF0F54D48406BBF
:1007A00020F4701040F4A0104A494863152000F06E
:1007B00079F8152000F06AF8002043490870414993
:1007C000087004EB44003C4901EB8040006B20F0D2
:1007D000010004EB4401384A02EB814108633246D0
:1007E00029462046FFF79AFF602004EB4401324A75
:1007F00002EB8141C86240F2013004EB440102EB9C
:1008000081410863102004EB440102EB81418863BD
:1008100040F6FF7004EB440102EB814148642F482D
:1008200001682FA000F02AFC294802682A480168C4
:1008300031A000F023FC70BD00EB40021E4B03EB27
:100840008242116000BF00EB40021B4B03EB82426F
:10085000926912F0080FF6D17047F0B507460C46C2
:100860001546002606E014F8011B3846FFF7E4FFA2
:10087000701CC6B2AE42F6D3F0BD30B504460D468C
:10088000E1B20020FFF7D8FF204630BD00F01F0284
:100890000121914042094FF0E02303EB8202C2F8AC
:1008A0000011704700F01F02012191401A4A4309CC
:1008B00042F8231070470000000001485800002053
:1008C0004E0000204D0000204C00002000000D488C
:1008D000480000200000064844000020400000209E
:1008E0004143483531322072756E20617420256491
:1008F00020487A0D0A000000535243436C6F636B2B
:100900003D20256420487A2C2050436C6F636B3D5A
:1009100020256420487A0A0080E200E070B5054690
:100920000E46002404E0295D1DA000F0A7FB641C16
:10093000B442F8D31CA000F0A1FB70BD70B5054611
:100940000E46002405E055F8241018A000F096FB90
:10095000641CB442F7D314A000F090FB70BD00BF3C
:100960000100A0F10100FBD1704701460A78CB7865
:100970000B70CA704A788B784B708A70704730B5AC
:1009800002460B461046D518691E05E004780D781E
:1009900000F8015B01F801498142F7D830BD000041
:1009A000252E3278200000000A000000252E38781D
:1009B0002000000070B598B064A2D2E9013110683F
:1009C000D268CDE915311792149000201090119043
:1009D0001290139061A30FCB0CAC0FC463A3D3E9A7
:1009E0000020D3E9021309AC0BC408920125634E21
:1009F000012114A800F02CF910A8002101232A4697
:100A0000CDE90106009104A90CA800F096FA002493
:100A100009E004A8005D08A9095D884202D0012010
:100A200018B070BD641CB4EB051FF2D310A80021F0
:100A30000B462A46CDE90106009104A908A800F05A
:100A40007CFA002408E004A8005D0CA9095D884236
:100A500001D00120E4E7641CB4EB051FF3D30020B0
:100A6000DEE770B598B046A2D2E901311068D268CD
:100A7000CDE915311792149045A191E80D00C96890
:100A800010AC0DC4139146A30FCB0CAC0FC448A3FC
:100A90000FCB08AC0FC401250026012114A800F0DB
:100AA000D7F810A801210B462A46CDE9010600918E
:100AB00004A90CA800F041FA002409E004A8005D94
:100AC00008A9095D884202D0012018B070BD641CDD
:100AD000B4EB051FF2D310A8012100232A46CDE96B
:100AE0000106009104A908A800F027FA002408E0F4
:100AF00004A8005D0CA9095D884201D00120E4E74B
:100B0000641CB4EB051FF3D30020DEE710B52CA066
:100B100000F0B4FA2E48FFF743FBFFF74BFF18B184
:100B20002CA000F0ABFA02E02FA000F0A7FAFFF72C
:100B300098FF18B131A000F0A1FA02E034A000F053
:100B40009DFA38A000F09AFA10BD0000762A64E5FC
:100B50001CAE4995658B0B5347EE77782B3B317B69
:100B600040115E7D5A1D024219B940D36414E5114B
:100B7000C7336970873A45905A4B21127856341220
:100B800009184810210C2D9B75D87616426B2E6CD7
:100B900002AF0FB437ED7E94251758DD438F3D9893
:100BA0000EDB79E666AC5DD32A682F3E1EEA5B91C8
:100BB000BD1A471138CE9712B5BCB148B2D291E5F3
:100BC000534D3420746573742073746172740A0019
:100BD00021100A0020534D34204543422074657390
:100BE00074206661696C0A0020534D3420454342ED
:100BF000207465737420706173730A0020534D3440
:100C0000204342432074657374206661696C0A0056
:100C100020534D3420434243207465737420706127
:100C200073730A00534D342054657374204F7665F6
:100C300072210D0A00000000FFF7EAFC4FF4E131D9
:100C40000020FFF78EFDFFF761FF00BFFEE7000009
:100C5000C44A136943F0040313610023D3600129DC
:100C600003D1D16841F01001D16001685160416841
:100C7000516081685160C0685060D06840F00200E7
:100C8000D06010698007FCD502201061704730B534
:100C9000B44C012B0CD1E56845F02005E5601568E2
:100CA000A5605568A5609568A560D268A26003E05C
:100CB000E26822F02002E26002682260426822605C
:100CC00082682260C068206001222261E06840F0F2
:100CD0000100E0602069C007FCD022616069086003
:100CE00060694860606988606069C860012B03D1F1
:100CF000206940F00400206130BD2DE9F04186B04C
:100D000005460C4617469846FFF7C1FF012101A88A
:100D100000F09CF99DF8040000F00F00FFF71FFEA3
:100D2000914E7069706143463A4602A92846FFF722
:100D3000AEFF70698D4F10F0FD0F4FF0000506D02B
:100D400025606560A560FD20E560706124E0206895
:100D50000299884224D160680399884220D1A06812
:100D6000049988421CD1E0680599884218D19DF801
:100D700004000009FFF7F3FD2068029988420FD1B3
:100D80006068039988420BD1A0680499884207D112
:100D9000E0680599884203D1384606B0BDE8F08185
:100DA00025606560A5600020E560F6E72DE9F05F4D
:100DB00017466C4ADDE90ABAD46813B944F0040452
:100DC00001E024F00404D460DFF89C810125C8F818
:100DD0000050D8F8005045F01005C8F80050D4680D
:100DE00044F48074D460D46844F08004D4601669FC
:100DF0003407FCD508241461D46844F04004D4605E
:100E0000D46844F40074D460DFF8609104460D4661
:100E1000BBF1000F0FD100260AE05B46524629467F
:100E20002046FFF76AFF484530D110341035761C54
:100E3000BE42F2D335E0012B52465B46294620469E
:100E400013D1FFF75AFF4E4648451FD17F1E09E0D8
:100E50002A46103410355B4629462046FFF74DFFE1
:100E6000B04213D17F1EF3D21BE0FFF746FF4E4680
:100E700048450BD17F1E12E02246103410355B46E8
:100E800029462046FFF739FFB04208D0D8F80010B5
:100E900021F00401C8F800100020BDE8F09F7F1E7B
:100EA000EAD2D8F8001021F00401C8F80010484632
:100EB000F3E770B5DDE904642A4D012E0CD1EE682C
:100EC00046F02006EE602668AE606668AE60A668F2
:100ED000AE60E468AC6003E0EC6824F02004EC60F1
:100EE000002BEB6802D143F0040301E023F004037C
:100EF000EB60EB6823F48073EB601B4B1C6824F001
:100F000004041C60EB6840F2BF142340EB602B69C3
:100F1000DB06FCD4164B9860D9609000586009201D
:100F200018601869C007FCD0186940F0010018610A
:100F3000286940F00400286170BD2DE9FC41144689
:100F40001D4608AA4CCA0B4FCDE90023BE422B46D2
:100F5000224604D1FFF7ADFF0448BDE8FC81FFF74E
:100F600025FFFAE700C001400000014068DA9AA5B9
:100F700000E00240785634123E4AD1688907FCD519
:100F8000002153684354491C1029FADB70470FB500
:100F90003848012181600F2101606846FFF7ECFFAE
:100FA0000FBD34490020086033490860704731485C
:100FB000C168C907FCD04068C0B2704700B5FFF7F0
:100FC000F6FF0202FFF7F3FF10440202FFF7EFFF04
:100FD00010440202FFF7EBFF104400BDF0B5C60855
:100FE00090B010F0070F00D0761C00210B466D4624
:100FF00045F82130491C1029FADB00210EE0535C32
:1010000003F00F041B0955F824707F1C45F8247069
:1010100055F82340641C45F82340491CB142EED3E7
:1010200083080021084655F82020401C02FB0211CD
:101030001028F8DB080190FBF3F0C01A801E24286A
:1010400002D2002010B0F0BD0120FBE7034610B52E
:1010500008480C46016841F00F010160002203E0DE
:10106000FFF7A5FF9854521CA242F9D3FFF799FF4E
:10107000002010BD00200140002401400FB40449AD
:1010800010B503AA029800F055F910BC5DF814FBE6
:10109000500000202DE9F041064600241068752913
:1010A000314616A511D0AFF30080002803DAC0F155
:1010B000000013A507E031688A0701D511A502E0F9
:1010C000490704D510A5012401E0AFF300800021F9
:1010D0000A2306F1240707E0B0FBF3F203FB12003A
:1010E000303078541046491C0028F5D123462A4652
:1010F0003046BDE8F04100F0C1B80000000000003B
:101100002D0000002B0000002000000070B50446F8
:101110000D4621461068AFF300802188090502D5ED
:10112000104A7A4402E00F4A7A440E32002104F158
:10113000240307E000F00F064FEA1010965D5E549E
:1011400001F101010028F5D103462078000704D5FC
:10115000702D02D009B1113202232046BDE8704043
:1011600000F08CB8E60200002DE9F0474FF0000ACD
:1011700089460446C0F820A02046E1688847002838
:1011800076D0252806D0D4E901219047206A401C5A
:101190002062F1E7E168204600258847C4F81CA0DA
:1011A00006460027C4F818A02A2E09D0304600F0C1
:1011B00026F938B304EB8708303EC8F8186019E008
:1011C00059F8041B204604EB87029161E1688847C7
:1011D000012F064618D1E069002820DA25F0200505
:1011E0001DE0D8F8180000EB800006EB4000303816
:1011F000C8F818002046E1688847064600F0FFF866
:101200000028EED1012F0AD02E2E08D12046E16809
:1012100088477F1C0646022F45F02005C4DBA069E5
:10122000002803DA404245F00105A061E80701D03B
:1012300025F01005B6B1A6F14100192802D82036D4
:1012400045F400654A463146204625604D46FEF786
:1012500071FF58B1012806D0ED1D25F0070000F1FF
:10126000080989E704E005F1040985E730468AE7C3
:10127000206ABDE8F0877047704770472DE9F04756
:101280000D4699469246044600F1240801688806F6
:1012900004D5E06921F01001216000E00120A8429E
:1012A00002DDA0EB050700E00027A16907EB0502BE
:1012B00002EB0900A1EB0000A0612078C00602D477
:1012C0002046AFF30080002608E0D4E901211AF897
:1012D00006009047206A401C761C20624E45F4DBD5
:1012E0002078C0060AD52046AFF3008006E0D4E996
:1012F000012130209047206A401C2062381EA7F14F
:101300000107F4DC07E0D4E9012118F80500904753
:10131000206A401C2062281EA5F10105F3DC20464E
:10132000AFF300802078000602D50220BDE8F087E8
:101330000120FBE7074B70B50D467B4400F011F828
:101340000446284600F020F810B14FF0FF3070BD81
:10135000204670BD3DF5FFFF01694A1C0261087817
:10136000704700B58FB0CDE90131002105910549E5
:101370007944CDE9031011466846FFF7F5FE0FB03A
:1013800000BD0000E5FFFFFF007B00F0800070471C
:10139000754600F029F8AE4605006946534620F030
:1013A0000700854618B020B5FEF7ECFEBDE82040EA
:1013B0004FF000064FF000074FF000084FF0000B11
:1013C00021F00701AC46ACE8C009ACE8C009ACE8C4
:1013D000C009ACE8C0098D4670470446AFF30080F1
:1013E0002046FEF7BCFE0000004870477800002051
:1013F00001491820ABBEFEE72600020070473038D6
:101400000A2801D201207047002070473031323362
:101410003435363738394142434445464030580028
:10142000303132333435363738396162636465665A
:1014300040307800541400004000002018000000E4
:10144000FC0000006C140000580000208008000020
:101450001801000000000000000000000000000073
:0C14600000000000000000000000000080
:04000005000000C136
:00000001FF
