:020000040000FA
:10000000D808002071010000750100007701000090
:10001000790100007B0100007D010000000000006C
:100020000000000000000000000000007F01000050
:100030008101000000000000830100008501000034
:100040008701000087010000000000005106000049
:10005000AD080000C908000087010000870100000A
:1000600000000000870100008701000087010000F8
:1000700087010000000000008701000087010000E8
:100080008701000087010000870100008701000050
:1000900087010000AD060000870100008701000015
:1000A00087010000000000008701000087010000B8
:1000B00000000000000000000000000087010000B8
:1000C00000F002F800F044F80AA090E8000C824426
:1000D0008344AAF10107DA4501D100F039F8AFF203
:1000E000090EBAE80F0013F0010F18BFFB1A43F016
:1000F00001031847B40E0000D40E0000103A24BFCC
:1001000078C878C1FAD8520724BF30C830C144BF7C
:1001100004680C60704700000023002400250026BE
:10012000103A28BF78C1FBD8520728BF30C148BF5A
:100130000B607047642900F05B85782900F0948596
:10014000002070471FB500F013FF1FBD10B510BD94
:1001500000F0CCFE1146FFF7F5FF00F036FD00F091
:10016000EAFE03B4FFF7F2FF03BC00F0F3FE000069
:1001700008480047FEE7FEE7FEE7FEE7FEE7FEE78A
:10018000FEE7FEE7FEE7FEE703480449024A044BA8
:1001900070470000C1000000D8000020D8080020EF
:1001A000D8000020FE4AFF4910F4001F03D04B681E
:1001B00023F000434B6010F4801F03D04B6823F002
:1001C00000534B6010F4004F03D04B6823F0400302
:1001D0004B6010F4807F03D04B6823F020034B600A
:1001E00010F0010F03D04B6823F004034B6010F4B0
:1001F000804F03D04B6823F010034B6010F4007F56
:1002000003D04B6823F003034B600B6862EA0000E5
:10021000184008607047E24AE24910F4001F03D01A
:100220004B6843F000434B6010F4801F03D04B68D1
:1002300043F000534B6010F4004F03D04B6843F081
:1002400040034B6010F4807F03D04B6843F02003E1
:100250004B6010F0010F03D04B6843F004034B6078
:1002600010F4804F03D04B6843F010034B6010F440
:10027000007F03D04B6843F003034B600B6890434F
:1002800018430860704770B4C74DDFF818C34FF4C7
:1002900080140C2815D80C21B1FBF0F200FB1211D0
:1002A00000291CBF70BC7047DCF8041021F4C85151
:1002B00041F08041CCF80410511E2943CCF80810BD
:1002C00059E050287ED016DC32287CD009DC1E286C
:1002D0007AD030281CBF70BC704740210222032313
:1002E00016E03C2871D046281CBF70BC70474621E0
:1002F000032202230CE05A2868D0642867D06E28B5
:1003000066D078281CBF70BC70473C2103220123B3
:10031000266826F4F85646F400662660DCF8046089
:1003200026F4C85626F08046CCF804609B0443EAC5
:100330008232114341F0C051CCF80C10DCF80C10A3
:1003400021F00041CCF80C10DCF80C1041F48001D5
:10035000CCF80C10DCF80C1011F0804FFAD0CCF86F
:100360000850DCF8041021F4C05141F4807141F0D0
:100370008041CCF80410DCF804108C4A6FF35C3137
:1003800002EB40321143CCF804108949894A4843B2
:100390001060DCF8081001F00F01491C4143516066
:1003A000DCF80810C1F30311491CB0FBF1F19160B6
:1003B0007F49B0FBF1F0342148434FF47A71B0FB30
:1003C000F1F006E01AE011E00CE013E01AE01DE0A5
:1003D00020E02168C0B221F4F85141EA00202060F9
:1003E00070BC704728210222032391E732210322A7
:1003F00002238DE73C210322022389E750210322B7
:10040000022385E75A210322022381E732210322B6
:1004100001237DE737210322012379E770B4624D80
:10042000DFF880C14FF480140C2818D80C21B1FBE0
:10043000F0F200FB121100291CBF70BC7047DCF801
:10044000041021F4C85121F08041CCF8041030216F
:10045000B1FBF0F1491E2943CCF8081059E05028AF
:100460007DD016DC32287BD009DC1E2879D03028DC
:100470001CBF70BC704740210222032316E03C28B9
:1004800070D046281CBF70BC70474621032202234F
:100490000CE05A2867D0642866D06E2865D078288A
:1004A0001CBF70BC70473C2103220123266826F440
:1004B000F85646F400662660DCF8046026F4C85658
:1004C00026F08046CCF804609B0443EA8232114354
:1004D00041F0C051CCF80C10DCF80C1041F0004198
:1004E000CCF80C10DCF80C1041F48001CCF80C10A6
:1004F000DCF80C1011F0804FFAD0CCF80850DCF882
:10050000041021F4C05141F4807141F08041CCF8D5
:100510000410DCF80410254A6FF35C3102EB403222
:100520001143CCF8041024490968A1F6BF22B2F5A2
:100530009B7F84BF1E49484307D848434FF47A71D4
:1005400048431E49A1FB001040081A4A1060DCF81D
:10055000081001F00F01491C4143516006E03BE0E7
:1005600032E02DE034E03BE03EE041E0DCF8081012
:10057000C1F30311491CB0FBF1F191600C49B0FBD0
:10058000F1F0342148434FF47A71B0FBF1F0216867
:10059000C0B221F4F85141EA0020206070BC7047DD
:1005A00001813000000006481031200400E0FFFF08
:1005B00040420F00400000202C020800ABAAAAAA6B
:1005C00028210222032371E73221032202236DE74F
:1005D0003C210322022369E750210322022365E71D
:1005E0005A210322022361E73221032201235DE71E
:1005F00037210322012359E745E612490320086009
:100600007047104900200860704710B50F4C0E4825
:100610002061606940F0010060610A2000F071FA19
:1006200000202061606920F0010060614FF0FF3020
:10063000FFF7B8FD6E20FFF726FE02490320086091
:1006400010BD704700D008407462966C00000648E8
:1006500010B48049CB6B804813F0100F4FF00102AB
:1006600015D08B6913F0100F0EBFDFF8F0C110BC6E
:1006700070470B6884780CF8043083785B1C8370B7
:1006800042708B6913F0100FF3D010BC704713F059
:10069000200F01BF40F6FF70486410BC70478969A5
:1006A00011F0800F18BF027010BC70476C4910B475
:1006B000CB6B694813F0100F4FF0010215D08B6916
:1006C00013F0100F0EBFDFF894C110BC70470B6819
:1006D00084780CF8043083785B1C837042708B69DB
:1006E00013F0100FF3D010BC704713F0200F01BFB0
:1006F00040F6FF70486410BC7047896911F0800FA4
:1007000018BF027010BC70471201B1FBF2F302FB7C
:100710001311C901B1FBF2F1491C490803EB911215
:1007200000EB40034B4800EB8340426201F03F0185
:10073000816270472DE9F0414A4B4B4C00264B4DEE
:100740004FF0E02C002844D09A682F68C2F303626F
:10075000521CB7FBF2F25F6B27F4701747F4A01737
:100760005F634FF40013CCF88032CCF800313A4B81
:100770001E705E7000EB4003364800EB8340036B55
:1007800023F0010303630901B2FBF1F301FB132220
:10079000D201B2FBF1F1491C490803EB911242620C
:1007A00001F03F0181626021C16240F201310163C9
:1007B0001021816340F6FF7141642D4801682DA02E
:1007C00000F00AFA22682968BDE8F0412FA000F085
:1007D00003BA2268DF6A27F00F0747F00507DF62D8
:1007E0000823CCF88032CCF80031C0E700EB40029F
:1007F000184800EB82400160816911F0080FFBD1BD
:1008000070474FF0000C002A98BF704710B400EBFF
:100810004000104B03EB804411F8013B204623605D
:10082000836913F0080FFBD10CF1010000F0FF0CFD
:100830009445F1D310BC7047064BC2B200211A6038
:1008400001EB410103EB81418A6912F0080FFBD1F2
:1008500070470000000001484C00002058000020B4
:1008600000000D4800000648480000204400002019
:10087000400000204143483531322072756E2061BE
:100880007420256420487A0D0A0000005352434327
:100890006C6F636B3D20256420487A2C2050436C9C
:1008A0006F636B3D20256420487A0A007E48816989
:1008B00011F0020F08BF704701217C4A1170816955
:1008C00041F00201816170477948816911F0020F9E
:1008D00008BF70470121754A5170816941F00201DA
:1008E0008161704710B4734A4FF0E023012400B3D4
:1008F0004FF0200CC3F880C2C3F800C1D36A23F0C4
:10090000704343F0A043D362136B23F0FF0343F023
:10091000550313638A00644901EB0040826040F292
:10092000063141608462816841F00101816010BC40
:1009300070474FF0100CC3F880C2C3F800C1D36AEF
:1009400045F2505C6FF30F1343EA0C03D362E1E707
:10095000554A002102EB004041627047524A012192
:1009600002EB004041627047C2F309034E4A02EBBA
:100970000040826942F0020282610362026942F031
:1009800001020261012242620022002B0BD9D0F841
:1009900018C01CF0100FFAD190F800C0521C01F8DA
:1009A00001CB9A42F3D3816911F0020FFBD0816928
:1009B00041F002018161016921F00101016170478B
:1009C000C2F30903384A02EB0040826942F0020296
:1009D00082610362C26842F00102C2600122426287
:1009E0000022002B0BD9D0F818C01CF0080FFAD148
:1009F00011F801CB80F800C0521C9A42F3D38169F0
:100A000011F0020FFBD0816941F002018161C168E0
:100A100021F00101C160704710B4234C4FF0000C6D
:100A200004EB0040846944F0020484610362C468FA
:100A300044F00104C460046944F001040461012429
:100A40004462846914F0020F15D19C4508D2846970
:100A500014F0080F04D111F8014B04700CF1010CD3
:100A6000846914F0100F02D1047802F8014B8469F4
:100A700014F0020FE9D0816911F0100F06D101784E
:100A800002F8011B816911F0100FF8D0816941F063
:100A900002018161C16821F00101C160016921F099
:100AA0000101016110BC70470000064054000020A5
:100AB000000007400000064870B506460D1E4FF0C6
:100AC000000406D9315D1CA000F086F8641CA54224
:100AD000F8D8BDE870401AA000F07EB870B50646A0
:100AE0000D1E4FF0000407D956F8241015A000F091
:100AF00073F8641CA542F7D8BDE8704010A000F060
:100B00006BB8401EFDD270470178C2780270C17088
:100B1000417882784270817070470144491E814259
:100B200098BF704702780B7800F8013B01F8012963
:100B30008142F7D870470000252E3278200000004F
:100B40000A000000252E387820000000204B03EB1F
:100B50000040836943F0020383610262C36843F08B
:100B60000103C360012343620023002A0BDDD0F898
:100B700018C01CF0080FFAD111F801CB80F800C0A2
:100B80005B1C9342F3DB816911F0020FFBD081699A
:100B900041F002018161C16821F00101C16070472B
:100BA0000C4AD36A43F0A043D362136B43F00503AE
:100BB0001363012242EA8103054901EB004083608F
:100BC00040F20631416082627047FFF71EFDFEE78A
:100BD00000000640000006480FB4044910B503AAFF
:100BE000029800F055F910BC5DF814FB500000208D
:100BF0002DE9F0410746002510687529394616A4ED
:100C000011D0AFF30080002803DAC0F1000013A474
:100C100007E039688A0701D511A402E0490704D525
:100C200010A4012501E0AFF3008000210A2307F1A1
:100C3000240607E0B0FBF3F203FB120030307054DF
:100C40001046491C0028F5D12B4622463846BDE8FF
:100C5000F04100F0C1B80000000000002D000000CD
:100C60002B0000002000000070B504460D46214610
:100C70001068AFF300802168090502D5104A7A4454
:100C800002E00F4A7A440E32002104F1240307E007
:100C900000F00F064FEA1010965D5E5401F101015D
:100CA0000028F5D103462068000704D5702D02D036
:100CB00009B1113202232046BDE8704000F08CB823
:100CC000FC0200002DE9F0474FF0000A0446894677
:100CD000C0F820A02046E1688847002876D0252863
:100CE00006D0D4E901219047206A401C2062F1E738
:100CF000E168204600258847C4F81CA00646002766
:100D0000C4F818A02A2E09D0304600F02AF938B3CA
:100D100004EB8708303EC8F8186019E059F8041B46
:100D2000204604EB87029161E1688847012F06465F
:100D300018D1E069002820DA25F020051DE0D8F858
:100D4000180000EB800006EB40003038C8F81800AF
:100D50002046E1688847064600F003F90028EED1F6
:100D6000012F0AD02E2E08D12046E16888477F1C2B
:100D70000646022F45F02005C4DBA069002803DAEF
:100D8000404245F00105A061E80701D025F01005BB
:100D9000B6B1A6F14100192802D8203645F4006505
:100DA0004A463146204625604D46FFF7C3F958B103
:100DB000012806D0ED1D25F0070000F1080989E79C
:100DC00004E005F1040985E730468AE7206ABDE8BA
:100DD000F0877047704770472DE9F0470D4604468D
:100DE0009246994600F124080168880604D5E06916
:100DF00021F01001216000E00120A84202DDA0EBFB
:100E0000050700E00027A16907EB050202EB0900D6
:100E1000A1EB0000A0612068C00602D42046AFF319
:100E20000080002608E0D4E901211AF80600904766
:100E3000206A401C761C20624E45F4DB2068C00608
:100E40000AD52046AFF3008006E0D4E90121302026
:100E50009047206A401C2062381EA7F10107F4DC8D
:100E600007E0D4E9012118F805009047206A401CEA
:100E70002062281EA5F10105F3DC2046AFF30080B7
:100E80002068000602D50220BDE8F0870120FBE7BC
:100E9000074B70B50C467B4400F011F80546204620
:100EA00000F020F810B14FF0FF3070BD284670BD43
:100EB0009FF9FFFF01694A1C02610878704700B57D
:100EC0008FB0CDE901310021059105497944CDE983
:100ED000031011466846FFF7F5FE0FB000BD000095
:100EE000E5FFFFFFC06800F080007047754600F026
:100EF00029F8AE4605006946534620F007008546AE
:100F000018B020B5FFF740F9BDE820404FF00006CB
:100F10004FF000074FF000084FF0000B21F00701E1
:100F2000AC46ACE8C009ACE8C009ACE8C009ACE824
:100F3000C0098D4670470446AFF300802046FFF796
:100F400010F9000000487047780000200048704702
:100F50007C00002001491820ABBEFEE726000200FD
:100F6000704730380A2801D20120704700207047AE
:100F700010B5FFF7EBFF4FF00001016010BD3031FD
:100F800032333435363738394142434445464030B0
:100F90005800303132333435363738396162636462
:100FA0006566403078000000C80F00004000002057
:100FB00018000000FC000000E00F000058000020B6
:100FC0008008000018010000000000000000000080
:100FD0000000000000000000000000000000000011
:04000005000000C136
:00000001FF
