:020000040000FA
:10000000E00800206D010000710100007301000094
:100010007501000077010000790100000000000078
:100020000000000000000000000000007B01000054
:100030007D010000000000007F0100008101000040
:10004000830100008301000000000000B9070000E8
:1000500083010000830100006D0A0000830100009D
:100060000000000083010000830100008301000004
:1000700083010000000000008301000083010000F4
:10008000830100007D0A000083010000830100005D
:1000900083010000130800008301000083010000B9
:1000A00083010000000000008301000083010000C4
:1000B00000000000000000000000000083010000BC
:1000C00000F002F800F042F80AA090E8000C824428
:1000D0008344AAF10107DA4501D100F037F8AFF205
:1000E000090EBAE80F0013F0010F18BFFB1A43F016
:1000F00001031847A80F0000C80F0000103A24BFE2
:1001000078C878C1FAD8520724BF30C830C144BF7C
:1001100004680C60704700000023002400250026BE
:10012000103A28BF78C1FBD8520728BF30C148BF5A
:100130000B607047642900F0E185782900F01A8689
:10014000002070471FB51FBD10B510BD00F054FF53
:100150001146FFF7F7FF00F013FD00F072FF03B444
:10016000FFF7F2FF03BC00F077FF000008480047EC
:10017000FEE7FEE7FEE7FEE7FEE7FEE7FEE7FEE757
:10018000FEE7FEE703480449024A044B70470000BB
:10019000C1000000E0000020E0080020E000002096
:1001A000F84910F4001F05D0F74A526822F00042C7
:1001B000F54B5A6010F4801F05D0F34A526822F0C4
:1001C0000052F14B5A6010F4004F05D0EE4A5268CD
:1001D00022F04002EC4B5A6010F4807F05D0EA4ACE
:1001E000526822F02002E84B5A6010F0010F05D04F
:1001F000E54A526822F00402E34B5A6010F4804F43
:1002000005D0E14A526822F01002DF4B5A6010F428
:10021000007F05D0DC4A526822F00302DA4B5A60B4
:10022000D94A1268C3430B431A40D74B1A60704730
:10023000D44910F4001F05D0D34A526842F000425E
:10024000D14B5A6010F4801F05D0CF4A526842F05B
:100250000052CD4B5A6010F4004F05D0CA4A526884
:1002600042F04002C84B5A6010F4807F05D0C64A65
:10027000526842F02002C44B5A6010F0010F05D0C2
:10028000C14A526842F00402BF4B5A6010F4804FDA
:1002900005D0BD4A526842F01002BB4B5A6010F4C0
:1002A000007F05D0B84A526842F00302B64B5A604C
:1002B000B54A126820EA01031A43B34B1A6070472B
:1002C000F0B500240025002600220C281FD80C279A
:1002D000B7FBF0FC00FB1C7707B1F0BDAA4F7F68AD
:1002E000DFF8A8C207EA0C0747F08047DFF898C29A
:1002F000CCF804700C27B7FBF0F14F1E47F4887759
:1003000047F4405747F08467CCF8087084E05028E1
:100310002AD00CDC32281BD004DC1E2810D0302858
:1003200036D111E03C2817D0462831D118E05A28A0
:100330001ED0642820D06E2822D0782828D123E02F
:1003400028240225032624E040240225032620E059
:100350003224032502261CE03C240325022618E053
:1003600046240325022614E050240325022610E02B
:100370005A24032502260CE032240325012608E036
:1003800037240325012604E03C240325012600E050
:10039000A3E700BF4FF480173F6827F4F85747F4EE
:1003A00000674FF4801CCCF80070774F7F68DFF84F
:1003B000DCC107EA0C07DFF8D0C1CCF80470B70441
:1003C00047EA8537274347F0C057CCF80C7067469B
:1003D000FF6827F00047CCF80C706746FF6847F4C9
:1003E0008007CCF80C7000BF674FFF6817F0804F94
:1003F000FAD0674FDFF890C1CCF8087067467F6885
:10040000DFF888C107EA0C07DFF888C147EA0C0764
:10041000DFF874C1CCF804705B4F7F68DFF878C1F7
:1004200007EA0C07A0F1010C47EA4C37DFF858C186
:10043000CCF80470594F4743DFF864C1CCF8007022
:10044000514FBF6807F00F07791C67463F684F435D
:10045000DFF850C1CCF800704B4FBF68C7F30317EB
:10046000791C4F4F3F68B7FBF1F7DFF83CC1CCF880
:1004700000704B4F3F68DFF824C1B7FBFCF3342713
:100480005F434FF47A7CB7FBFCF7FAB24FF4801766
:100490003F6827F4F85747EA02274FF4801CCCF84E
:1004A000007000BF19E72DE9F04100250026002764
:1004B00000230C2825D84FF00C0CBCFBF0F800FBF7
:1004C00018CCBCF1000F01D0BDE8F081DFF8B8C056
:1004D000DCF804C0DFF8B4800CEA080CDFF8A88070
:1004E000C8F804C04FF0300CBCFBF0F2A2F1010CD4
:1004F0004CF4887C4CF4405C4CF0846CC8F808C028
:10050000A3E050282AD00CDC32281BD004DC1E28A3
:1005100010D030284AD111E03C2817D0462845D1C8
:1005200018E05A281ED0642820D06E2822D07828BF
:100530003CD123E028250226032738E04025022667
:10054000032734E032250326022730E03C2503262A
:1005500002272CE046250326022728E05025032603
:10056000022724E05A250326022720E0322503260D
:1005700001271CE037250326012718E03C25032628
:10058000012714E00181300000000648FFE6FFBFAC
:100590001031200400010040FF1F00E040420F0026
:1005A0004000002044000020480000208CE700BFED
:1005B0004FF4801CDCF800C02CF4F85C4CF4006CA8
:1005C0004FF48018C8F800C0DFF8C0C1DCF804C0E0
:1005D000DFF8BC810CEA080CDFF8B081C8F804C071
:1005E0004FEA874C4CEA863C4CEA050C4CF0C05C68
:1005F000C8F80CC0C446DCF80CC04CF0004CC8F87D
:100600000CC0C446DCF80CC04CF4800CC8F80CC01C
:1006100000BFDFF878C1DCF80CC01CF0804FF8D0C8
:10062000DFF870C1DFF86481C8F808C0C446DCF8A0
:1006300004C0DFF85C810CEA080CDFF85C814CEA4E
:10064000080CDFF84881C8F804C0DFF840C1DCF8C6
:1006500004C0DFF848810CEA080CA0F101084CEA5C
:10066000483CDFF82881C8F804C04FF4002CDCF8BF
:100670002C1240F6F63C61450ED240F6BE2C614588
:100680000AD94FF47A7C01FB0CFC0CFB00FC4FF008
:100690000308BCFBF8F103E0DFF804C100FB0CF138
:1006A000DFF800C1CCF80010DFF8E0C0DCF808C0CB
:1006B0000CF00F0C0CF10102DFF8E8C0DCF800C010
:1006C0000CFB02FCDFF8E080C8F800C0DFF8BCC01B
:1006D000DCF808C0CCF3031C0CF10102DFF8C4C045
:1006E000DCF800C0BCFBF2FCDFF8C080C8F800C03A
:1006F000DFF8B0C0DCF800C0DFF8A480BCFBF8F481
:100700004FF0340C04FB0CFC4FF47A78BCFBF8FC83
:100710000CF0FF034FF4801CDCF800C02CF4F85CF4
:100720004CEA032C4FF48018C8F800C000BFCBE699
:1007300010B504462046FFF7C3FD10BD03201C4939
:100740000860704700201A490860704710B51948C2
:100750000E4908610846406940F0010048610A20DE
:1007600000F0E3F90020094908610846406920F0DB
:10077000010048614FF0FF30FFF712FD6E20FFF7D8
:10078000D7FFFFF7DBFF10BD7047000000000648F1
:10079000FFE6FFBF1031200400010040FF1F00E012
:1007A00040420F004000002044000020480000208C
:1007B00000D008407462966C9349C86B10F0100F1B
:1007C00015D00DE090490968904A914B1B78D1549F
:1007D0008F490978491C8E4A117001218D4A117088
:1007E0008949896901F010011029EBD110E010F05E
:1007F000200F09D08449896901F08001802907D13F
:100800000121854A117003E040F6FF717E4A516470
:1008100070478249C86B10F0100F15D00DE07F496A
:1008200009687A4A7A4B1B78D15479490978491C6E
:10083000774A11700121774A11707849896901F06E
:1008400010011029EBD110E010F0200F09D07349EE
:10085000896901F08001802907D101216E4A117058
:1008600003E040F6FF716D4A516470472DE9F04195
:1008700003461001B1FBF0F5B1FBF0F700FB1716D2
:10088000F701B7FBF0F7781C440805EB941703EB6E
:10089000430CDFF8748108EB8C4CCCF8247004F026
:1008A0003F0703EB430C08EB8C4CCCF82870BDE8F9
:1008B000F08170B504460E467CB959480568594820
:1008C000C06A20F00F00401D5649C862032000F0A6
:1008D00091F8032000F082F816E052488068C0F3D7
:1008E0000360401C50490968B1FBF0F54D48406B6E
:1008F00020F4701040F4A0104A494863152000F01D
:1009000079F8152000F06AF8002043490870414941
:10091000087004EB44003C4901EB8040006B20F080
:10092000010004EB4401384A02EB8141086332467E
:1009300029462046FFF79AFF602004EB4401324A23
:1009400002EB8141C86240F2013004EB440102EB4A
:1009500081410863102004EB440102EB814188636C
:1009600040F6FF7004EB440102EB814148642F48DC
:1009700001682FA000F0B6F9294802682A480168EA
:1009800031A000F0AFF970BD00EB40021E4B03EB4D
:100990008242116000BF00EB40021B4B03EB82421E
:1009A000926912F0080FF6D17047F0B507460C4671
:1009B0001546002606E014F8011B3846FFF7E4FF51
:1009C000701CC6B2AE42F6D3F0BD30B504460D463B
:1009D000E1B20020FFF7D8FF204630BD00F01F0233
:1009E0000121914042094FF0E02303EB8202C2F85B
:1009F0000011704700F01F02012191401A4A43097B
:100A000042F8231070470000000001485C000020FD
:100A10004E0000204D0000204C00002000000D483A
:100A2000480000200000064844000020400000204C
:100A30004143483531322072756E2061742025643F
:100A400020487A0D0A000000535243436C6F636BD9
:100A50003D20256420487A2C2050436C6F636B3D09
:100A600020256420487A0A0080E200E01949086BDA
:100A70000121194A11701749886270471749086B9C
:100A80000121174A117015498862704710B5062078
:100A900000F016F8062000F007F8112000F010F81A
:100AA000112000F001F810BD00F01F02012191405B
:100AB00042094FF0E02303EB8202C2F800117047B5
:100AC00000F01F0201219140064A430942F8231019
:100AD0007047000000000A485800002000000B4842
:100AE0005900002080E200E070B505460E46002463
:100AF00004E0295D1DA000F0F5F8641CB442F8D3B1
:100B00001CA000F0EFF870BD70B505460E4600243D
:100B100005E055F8241018A000F0E4F8641CB44275
:100B2000F7D314A000F0DEF870BD00BF0100A0F103
:100B30000100FBD1704701460A78CB780B70CA7070
:100B40004A788B784B708A70704730B502460B46F6
:100B50001046D518691E05E004780D7800F8015B91
:100B600001F801498142F7D830BD0000252E3278C6
:100B7000200000000A000000252E38782000000028
:100B8000FFF7E4FD4FF4E1310020FFF792FE00F0A3
:100B900054F800BFFEE700002E48006840F008004F
:100BA0002C4908602CA000F09DF80BE00820294992
:100BB000C8606420FFF7B9FF0820264988606420D8
:100BC000FFF7B3FFF2E72348006820F0080021494F
:100BD000086026A000F086F80AE01E484069C0F3CD
:100BE000C00127A000F07EF84CF25030FFF79DFFC7
:100BF000F3E727A000F076F81648006820F0080018
:100C0000144908600846806940F008008861084679
:100C1000C06920F00800C8610846006A20F008009A
:100C2000086209E021480078012805D100201F4909
:100C300008701FA000F056F8F4E7FFF727FF2248DE
:100C4000C06A20F0C0002049C86220A000F04AF825
:100C5000FFF7A2FF00000A486770696F206F757484
:100C60007075742074657374210A00006770696F71
:100C700020696E7075742074657374210A00000019
:100C80004750494F332069732030782578210A0076
:100C90006770696F206564676520696E742074658C
:100CA0007374207374617274210D0A00580000205F
:100CB0006770696F615F696E742069732068617025
:100CC00070656E6564210A00000006486770696FF0
:100CD0002074657374206973207374617274210ABF
:100CE000000000000FB4044910B503AA029800F0F8
:100CF00055F910BC5DF814FB500000202DE9F041BF
:100D00000646002410687529314616A511D0AFF3A8
:100D10000080002803DAC0F1000013A507E0316865
:100D20008A0701D511A502E0490704D510A50124C1
:100D300001E0AFF3008000210A2306F1240707E059
:100D4000B0FBF3F203FB1200303078541046491C1C
:100D50000028F5D123462A463046BDE8F04100F090
:100D6000C1B80000000000002D0000002B000000B2
:100D70002000000070B504460D4621461068AFF310
:100D800000802188090502D5104A7A4402E00F4A02
:100D90007A440E32002104F1240307E000F00F062C
:100DA0004FEA1010965D5E5401F101010028F5D163
:100DB00003462078000704D5702D02D009B1113206
:100DC00002232046BDE8704000F08CB8E602000027
:100DD0002DE9F0474FF0000A89460446C0F820A0EC
:100DE0002046E1688847002876D0252806D0D4E937
:100DF00001219047206A401C2062F1E7E16820460B
:100E000000258847C4F81CA006460027C4F818A08F
:100E10002A2E09D0304600F026F938B304EB8708B3
:100E2000303EC8F8186019E059F8041B204604EB5E
:100E300087029161E1688847012F064618D1E06971
:100E4000002820DA25F020051DE0D8F8180000EB76
:100E5000800006EB40003038C8F818002046E168F2
:100E60008847064600F0FFF80028EED1012F0AD08F
:100E70002E2E08D12046E16888477F1C0646022FA7
:100E800045F02005C4DBA069002803DA404245F0A4
:100E90000105A061E80701D025F01005B6B1A6F163
:100EA0004100192802D8203645F400654A463146EB
:100EB000204625604D46FFF73DF958B1012806D080
:100EC000ED1D25F0070000F1080989E704E005F1B0
:100ED000040985E730468AE7206ABDE8F087704755
:100EE000704770472DE9F0470D46994692460446F3
:100EF00000F124080168880604D5E06921F010019A
:100F0000216000E00120A84202DDA0EB050700E01F
:100F10000027A16907EB050202EB0900A1EB000025
:100F2000A0612078C00602D42046AFF300800026DE
:100F300008E0D4E901211AF806009047206A401C15
:100F4000761C20624E45F4DB2078C0060AD5204688
:100F5000AFF3008006E0D4E9012130209047206AF9
:100F6000401C2062381EA7F10107F4DC07E0D4E939
:100F7000012118F805009047206A401C2062281EB5
:100F8000A5F10105F3DC2046AFF3008020780006D0
:100F900002D50220BDE8F0870120FBE7074B70B5C2
:100FA0000D467B4400F011F80446284600F020F876
:100FB00010B14FF0FF3070BD204670BD25FAFFFF25
:100FC00001694A1C02610878704700B58FB0CDE90D
:100FD00001310021059105497944CDE903101146FD
:100FE0006846FFF7F5FE0FB000BD0000E5FFFFFF0C
:100FF000007B00F080007047754600F029F8AE468F
:1010000005006946534620F00700854618B020B514
:10101000FFF7B8F8BDE820404FF000064FF000079A
:101020004FF000084FF0000B21F00701AC46ACE890
:10103000C009ACE8C009ACE8C009ACE8C0098D46FD
:1010400070470446AFF300802046FFF788F80000A1
:10105000004870477C00002001491820ABBEFEE725
:1010600026000200704730380A2801D2012070475C
:101070000020704730313233343536373839414209
:1010800043444546403058003031323334353637EA
:10109000383961626364656640307800BC100000D6
:1010A000400000201C000000FC000000D8100000E0
:1010B0005C0000208408000018010000000000000F
:1010C0000000000000000000000000000000000020
:0810D000000000000000000018
:04000005000000C136
:00000001FF
