:020000040000FA
:1000000018E80120390200003D0200003F02000014
:100010004102000043020000450200000000000011
:100020000000000000000000000000004702000087
:1000300049020000000000004B0200009F08000081
:100040004F0200004F02000000000000E90800001D
:10005000252E0000432E00004F0200004F0200003A
:10006000000000004F0200004F0200004F0200009D
:100070004F020000000000004F0200004F0200008D
:100080004F0200004F0200004F0200004F0200002C
:100090004F020000470900004F0200004F0200001D
:1000A0004F020000000000004F0200004F0200005D
:1000B0000000000000000000000000004F020000EF
:1000C00000F002F800F08AF80AA090E8000C8244E0
:1000D0008344AAF10107DA4501D100F07FF8AFF2BD
:1000E000090EBAE80F0013F0010F18BFFB1A43F016
:1000F0000103184760C0020080C002000A444FF0AC
:10010000000C10F8013B13F0070408BF10F8014B76
:100110001D1108BF10F8015B641E05D010F8016BBB
:10012000641E01F8016BF9D113F0080F1EBF10F81F
:10013000014BAD1C0C1B09D16D1E58BF01F801CB42
:10014000FAD505E014F8016B01F8016B6D1EF9D5C5
:100150009142D6D3704700000023002400250026DA
:10016000103A28BF78C1FBD8520728BF30C148BF1A
:100170000B6070476E2924F06182702924F0AA82F6
:10018000662927F05586652927F05286642924F0D0
:100190001982752924F01682782924F08E82732919
:1001A00025F0BB81002070471FB527F0FEFD9DE8BC
:1001B000030024F0CDFE24F038FC25F04DFA0400B5
:1001C0000020002126F072FF401C6060002000210A
:1001D00026F082FFE0601FBD10B510BD25F026FDA2
:1001E0001146FFF7E1FF01F0EEFA25F044FD03B4FC
:1001F000FFF7F2FF03BC25F071FD000080F30888D3
:10020000704700000B49D1F800C04A685CF8043B15
:100210001068184442F8040B8C4528BFA1F1DC0C8F
:100220008A4228BFA1F1DC02C1F800C04A6020F078
:1002300000407047AC6F002008480047FEE7FEE72B
:10024000FEE7FEE7FEE7FEE7FEE7FEE7FEE7FEE786
:1002500003480449044A054B70470000C1000000F0
:100260001870002018E8012018120120181201202F
:10027000F84910F4001F05D0F74A526822F00042F6
:10028000F54B5A6010F4801F05D0F34A526822F0F3
:100290000052F14B5A6010F4004F05D0EE4A5268FC
:1002A00022F04002EC4B5A6010F4807F05D0EA4AFD
:1002B000526822F02002E84B5A6010F0010F05D07E
:1002C000E54A526822F00402E34B5A6010F4804F72
:1002D00005D0E14A526822F01002DF4B5A6010F458
:1002E000007F05D0DC4A526822F00302DA4B5A60E4
:1002F000D94A1268C3430B431A40D74B1A60704760
:10030000D44910F4001F05D0D34A526842F000428D
:10031000D14B5A6010F4801F05D0CF4A526842F08A
:100320000052CD4B5A6010F4004F05D0CA4A5268B3
:1003300042F04002C84B5A6010F4807F05D0C64A94
:10034000526842F02002C44B5A6010F0010F05D0F1
:10035000C14A526842F00402BF4B5A6010F4804F09
:1003600005D0BD4A526842F01002BB4B5A6010F4EF
:10037000007F05D0B84A526842F00302B64B5A607B
:10038000B54A126820EA01031A43B34B1A6070475A
:10039000F0B500240025002600220C281FD80C27C9
:1003A000B7FBF0FC00FB1C7707B1F0BDAA4F7F68DC
:1003B000DFF8A8C207EA0C0747F08047DFF898C2C9
:1003C000CCF804700C27B7FBF0F14F1E47F4887788
:1003D00047F4405747F40017CCF8087084E05028E1
:1003E0002AD00CDC32281BD004DC1E2810D0302888
:1003F00036D111E03C2817D0462831D118E05A28D0
:100400001ED0642820D06E2822D0782828D123E05E
:1004100028240225032624E040240225032620E088
:100420003224032502261CE03C240325022618E082
:1004300046240325022614E050240325022610E05A
:100440005A24032502260CE032240325012608E065
:1004500037240325012604E03C240325012600E07F
:10046000A3E700BF4FF480173F6827F4F85747F41D
:1004700000674FF4801CCCF80070774F7F68DFF87E
:10048000DCC107EA0C07DFF8D0C1CCF80470B70470
:1004900047EA8537274347F0C057CCF80C706746CA
:1004A000FF6827F00047CCF80C706746FF6847F4F8
:1004B0008007CCF80C7000BF674FFF6817F0804FC3
:1004C000FAD0674FDFF890C1CCF8087067467F68B4
:1004D000DFF888C107EA0C07DFF888C147EA0C0794
:1004E000DFF874C1CCF804705B4F7F68DFF878C127
:1004F00007EA0C07A0F1010C47EA4C37DFF858C1B6
:10050000CCF80470594F4743DFF864C1CCF8007051
:10051000514FBF6807F00F07791C67463F684F438C
:10052000DFF850C1CCF800704B4FBF68C7F303171A
:10053000791C4F4F3F68B7FBF1F7DFF83CC1CCF8AF
:1005400000704B4F3F68DFF824C1B7FBFCF3342742
:100550005F434FF47A7CB7FBFCF7FAB24FF4801795
:100560003F6827F4F85747EA02274FF4801CCCF87D
:10057000007000BF19E72DE9F04100250026002793
:1005800000230C2825D84FF00C0CBCFBF0F800FB26
:1005900018CCBCF1000F01D0BDE8F081DFF8B8C085
:1005A000DCF804C0DFF8B4800CEA080CDFF8A8809F
:1005B000C8F804C04FF0300CBCFBF0F2A2F1010C03
:1005C0004CF4887C4CF4405C4CF4001CC8F808C027
:1005D000A3E050282AD00CDC32281BD004DC1E28D3
:1005E00010D030284AD111E03C2817D0462845D1F8
:1005F00018E05A281ED0642820D06E2822D07828EF
:100600003CD123E028250226032738E04025022696
:10061000032734E032250326022730E03C25032659
:1006200002272CE046250326022728E05025032632
:10063000022724E05A250326022720E0322503263C
:1006400001271CE037250326012718E03C25032657
:10065000012714E00181300000000648FFE6FFBFDB
:100660001031200000010040FF1F00E040420F0059
:100670004000002044000020480000208CE700BF1C
:100680004FF4801CDCF800C02CF4F85C4CF4006CD7
:100690004FF48018C8F800C0DFF810C2DCF804C0BE
:1006A000DFF80C820CEA080CDFF80082C8F804C0FE
:1006B0004FEA874C4CEA863C4CEA050C4CF0C05C97
:1006C000C8F80CC0C446DCF80CC04CF0004CC8F8AC
:1006D0000CC0C446DCF80CC04CF4800CC8F80CC04C
:1006E00000BFDFF8C8C1DCF80CC01CF0804FF8D0A8
:1006F000DFF8C0C1DFF8B481C8F808C0C446DCF830
:1007000004C0DFF8AC810CEA080CDFF8AC814CEADD
:10071000080CDFF89881C8F804C0DFF890C1DCF855
:1007200004C0DFF898810CEA080CA0F101084CEA3B
:10073000483CDFF87881C8F804C04FF4002CDCF89E
:100740002C1240F6F63C61450ED240F6BE2C6145B7
:100750000AD94FF47A7C01FB0CFC0CFB00FC4FF037
:100760000308BCFBF8F103E0DFF854C100FB0CF117
:10077000DFF850C1CCF80010DFF830C1DCF808C059
:100780000CF00F0C0CF10102DFF838C1DCF800C0EE
:100790000CFB02FCDFF83081C8F800C0DFF80CC1A8
:1007A000DCF808C0CCF3031C0CF10102DFF814C123
:1007B000DCF800C0BCFBF2FCDFF81081C8F800C018
:1007C000DFF800C1DCF800C0DFF8F480BCFBF8F40F
:1007D0004FF0340C04FB0CFC4FF47A78BCFBF8FCB3
:1007E0000CF0FF034FF4801CDCF800C02CF4F85C24
:1007F0004CEA032C4FF48018C8F800C000BFCBE6C9
:1008000010B504462046FFF7C3FD10BD0320304954
:100810000860704700202E490860704770B52D4869
:10082000224908610846406940F0010048610A20F9
:1008300000F017FA00201D4908610846406920F0C1
:10084000010048614FF0FF30FFF712FD6E20FFF707
:10085000D7FF2149481EB0F1807F00D31BE0481E1E
:100860004FF0E022506150170722002807DA5307A3
:100870001D0E1A4B00F00F04241F1D5503E05307F3
:100880001C0E174B1C5400BF00204FF0E02290615B
:100890000720106100BFFFF7B9FF70BD7047114816
:1008A0000068401C0F4908607047000000000648BF
:1008B000FFE6FFBF1031200000010040FF1F00E0F5
:1008C00040420F004000002044000020480000206B
:1008D00000D008407462966CB0AD010018ED00E0E5
:1008E00000E400E04C00002070B59548C56B15F0A1
:1008F000100F16D00EE092480068C4B29148924999
:1009000009784454204601F018FB8F480078401CB9
:100910008D4908708A48806900F010001028EAD1DB
:1009200010E015F0200F09D08548806900F08000A4
:10093000802807D101208549087003E040F6FF7048
:100940007F49486470BD38B58148C46B14F0100FFE
:1009500018D010E07E480068C0B200907D4801F0D9
:100960001BFA002804DD012269467A4801F0C5FA25
:100970000120794908707648806900F0100010283D
:10098000E8D110E014F0200F09D07148806900F020
:100990008000802807D101206C49087003E040F6F0
:1009A000FF706B49486438BD2DE9F04103461001E2
:1009B000B1FBF0F5B1FBF0F700FB1716F701B7FB41
:1009C000F0F7781C440805EB941703EB430CDFF8B1
:1009D000708108EB8C4CCCF8247004F03F0703EBDB
:1009E000430C08EB8C4CCCF82870BDE8F08170B556
:1009F00004460E467CB9594805685948C06A20F03B
:100A00000F00401D5649C862032000F08FF80320F4
:100A100000F080F816E052488068C0F30360401C84
:100A200050490968B1FBF0F54D48406B20F4701057
:100A300040F4A0104A494863152000F077F81520CB
:100A400000F068F80020414908704349087004EB41
:100A500044003B4901EB8040006B20F0010004EBB7
:100A60004401374A02EB8141086332462946204659
:100A7000FFF79AFF602004EB4401314A02EB814109
:100A8000C86240F2013004EB440102EB814108638B
:100A9000102004EB440102EB8141886340F6FF70B3
:100AA00004EB440102EB8141486470BD00EB40025D
:100AB000234B03EB8242116000BF00EB4002204B4E
:100AC00003EB8242926912F0080FF6D17047F0B53D
:100AD00007460C461546002606E014F8011B38466A
:100AE000FFF7E4FF701CC6B2AE42F6D3F0BD30B5DE
:100AF00004460D46E1B20020FFF7D8FF204630BD86
:100B00000F49086000BF0E49896911F0080FFAD13A
:100B10007047704700F01F020121914042094FF0D9
:100B2000E02303EB8202C2F80011704700F01F02BD
:100B3000012191400C4A430942F8231070470000FC
:100B400000000148740200205200002050000020E4
:100B500000000D48D414002051000020480000205F
:100B6000000006484400002080E200E040480068A1
:100B700020F000603E4908603E48806820F0010097
:100B80003C4988601E2088600846006D20F0070000
:100B90000865704710B5384B1A68364B9B6823F0D0
:100BA0000103344CA3604FF47A73B2FBF3F1414379
:100BB0004B1E236023469B6843F00103A36000BFE4
:100BC0002C4BDB68002BFBD0FF232A4C236110BD8C
:100BD00010B5294B1A68274B9B6823F00103254C5D
:100BE000A360264BB2FBF3F141434B1E2360234627
:100BF0009B6843F00103A36000BF1E4BDB68002B22
:100C0000FBD0FF231B4C236110BD1A48806820F0E5
:100C1000010018498860322008600846806840F06A
:100C20000100886000BF1348C0680028FBD0FF2087
:100C30001049086170470F48806820F001000D4995
:100C40008860AF2008600846806840F00100886036
:100C500000BF0848C0680028FBD0FF200549086194
:100C6000704700BF0100A0F10100FBD170470000F8
:100C700000000648000003484800002040420F00E2
:100C800070B505460C466FF308050AE028464C4946
:100C90008847B4F5007F00D270BD05F50075A4F556
:100CA0000074002CF2D100BFF6E72DE9F0410746B1
:100CB0000E4615466FF30807B6F5007F02D94FF4CC
:100CC000007602E0042E00D2042600241CE000205E
:100CD00000EB8400285C012101EB8401695C00EBDE
:100CE0000120022101EB8401695C00EB014003213A
:100CF00001EB8401695C00EB016807EB840041466D
:100D00002F4A323A9047641CB4EB960FDFD3BDE80C
:100D1000F08110B503466FF30803B1F5007F02D9E7
:100D20004FF4007102E0042900D20421002004E005
:100D300053F820401460121D401CB0EB910FF7D304
:100D400010BD2DE9F04706460F4615463946304698
:100D5000FFF796FF6FF30806B7F5007F02D94FF44F
:100D6000007702E0042F00D20427002423E00020B3
:100D700000EB8400285C012101EB8401695C00EB3D
:100D80000120022101EB8401695C00EB0140032199
:100D900001EB8401695C00EB016806EB84004146CD
:100DA000074A323A904756F82490C84502D00120AD
:100DB000BDE8F087641CB4EB970FD8D30020F7E7A9
:100DC0006B1C00121448006B20F47F40124908632A
:100DD0001248006820F47000104908600846406915
:100DE00040F470004861704770B500BF0B4840691F
:100DF00000F470040120FFF7CDFE0848406900F4BC
:100E00007005B4F5700FF1D0B5F5700FEED0AC42AF
:100E1000ECD1204670BD00000000064800000A48E2
:100E2000FE48406B20F07070FC494863FC48006845
:100E300040F4C050FA490860F848406B20F00300C5
:100E4000F6494863F648006840F00100F44908603C
:100E50000846C06840F40060C8600846806840F4F6
:100E6000805088600846C06840F00100C860704744
:100E700070B504460E46EA48C06840F00100E849F3
:100E8000C8600A20FFF7EDFEE548806840F00100E9
:100E9000E349886004F0FE040846006840F480508E
:100EA00008600A20FFF7DDFE002524E014F0010FA2
:100EB00006D0DB48806840F48050D949886005E05E
:100EC000D748C06840F48050D549C860D44880688D
:100ED00040F40060D24988600A20FFF7C2FED04883
:100EE000C06840F40060CE49C8600A20FFF7B9FE30
:100EF0006410681CC5B2082DD8DB002524E016F06C
:100F0000010F06D0C648806840F48050C44988600C
:100F100005E0C348C06840F48050C149C860C0487B
:100F2000806840F40060BE4988600A20FFF799FE9F
:100F3000BB48C06840F40060B949C8600A20FFF7A8
:100F400090FE7610681CC5B2082DD8DBB448C06886
:100F500040F00100B249C86070BD70B5044600257C
:100F6000AF48C06840F00100AD49C8600A20FFF7F3
:100F700078FEAB48806840F00100A949886044F0E1
:100F800001040846006840F4805008600A20FFF71A
:100F900068FE002624E014F0010F06D0A048806807
:100FA00040F480509E49886005E09D48C06840F448
:100FB00080509B49C8609A48806840F40060984916
:100FC00088600A20FFF74DFE9548C06840F4006035
:100FD0009349C8600A20FFF744FE6410701CC6B233
:100FE000082ED8DB8E48006820F480508C490860B9
:100FF0000A20FFF736FE00261EE06D108848406983
:1010000010F4805F02D045F0800501E005F07F0517
:101010008348806840F40060814988600A20FFF7B7
:1010200020FE7F48C06840F400607D49C8600A2007
:10103000FFF717FE701CC6B2082EDEDB7848C068CA
:1010400040F001007649C860284670BD10B50446DE
:1010500000218E20FFF70CFF80210846FFF708FFD4
:1010600061788C20FFF704FFA1788820FFF700FF4C
:10107000E1788620FFF7FCFE21798420FFF7F8FE57
:1010800061798220FFF7F4FEA1798020FFF7F0FE5E
:10109000E1798A20FFF7ECFE80218E20FFF7E8FE41
:1010A00010BD10B504468C20FFF757FF60708820F4
:1010B000FFF753FFA0708620FFF74FFFE0708420FA
:1010C000FFF74BFF20718220FFF747FF6071802000
:1010D000FFF743FF00F07F00A0718A20FFF73DFF7C
:1010E000E07110BD1CB504466846FFF7DAFF9DF8B5
:1010F0000100001100EB80004FF4FA6101EB4000A9
:101100009DF8011001F00F010844A0809DF8020035
:1011100000F00F009DF80210091101EB810100EBB6
:101120004100A0719DF8030000F00F009DF803102E
:10113000091101EB810100EB4100E0719DF8040011
:1011400000F00F009DF80410091101EB810100EB84
:10115000410020709DF8050000F00F009DF805107B
:10116000091101EB810100EB410060709DF8060060
:1011700000F00F009DF80610091101EB810100EB52
:101180004100A0709DF8070000F0070020721CBD10
:101190000146002203E0521CA1F10A00C1B20A2953
:1011A000F9D2100741EA10607047014600BF0809F4
:1011B00000EB8000420001F00F001044C0B2704705
:1011C0000146CA1701EB92729210B1EB820212D162
:1011D000642091FBF0F200FB121050B94FF4C8707C
:1011E00091FBF0F200FB121008B9012070470020BB
:1011F000FCE70120FAE70020F8E7F0B503460C46CB
:101200001546642093FBF0F0C6B2642093FBF0F720
:1012100000FB1730C1B2132E07DD03E000000648C3
:1012200000000B4801F16400C1B20846CF1701EB82
:10123000977701EBA702072092FBF0F700FB17203E
:1012400082B25719601EDFF8B0C11CF800003844A4
:1012500082B2CF1701EB9777BF10B1EB870703D1AD
:10126000032C01DA501E82B2072092FBF0F700FB3C
:101270001720C0B2F0BD2DE9F04104460D464FF0F5
:10128000000637465D4A4FF000032046294623F00A
:101290005FF806465A480088B0423CD058490E8054
:1012A00040F2B27710E03846FFF78AFF40B1B6F55A
:1012B000B77F02D3A6F5B77604E0781C87B206E0C4
:1012C000A6F26D16781C87B2B6F5B67FEBD800BFD4
:1012D0004C488780002716E04A498888FFF770FF4E
:1012E00030B1012F04D11D2E01D31D3E09E00CE0C9
:1012F0004548C05DB04203D84348C05D361A00E09F
:1013000003E0781C87B21C2EE6D200BF781C3D4952
:101310008871701CC871394A00232046294623F081
:1013200017F816464FF46160B6FBF0F035490870C7
:101330004FF46160B6FBF0F100FB11603C21B0FBA3
:10134000F1F0304948704FF46160B6FBF0F100FBFA
:1013500011603C21B0FBF1F201FB120029498870B9
:101360000B46DA7999799888FFF747FF2549087283
:1013700008468088642190FBF1F0C3B21846FFF75D
:1013800007FF224908701F488088642190FBF1F212
:1013900001FB1200C3B21846FFF7FAFE1B49487062
:1013A00018498879FFF7F4FE184988701549C879FB
:1013B000FFF7EEFE1549C870124909780831C8B226
:1013C000FFF7E6FE114908710E494878FFF7E0FE85
:1013D0000E4948710B498878FFF7DAFE0B4988718E
:1013E0000849087AFFF7D4FE0849C8710846FFF794
:1013F0002DFE0020BDE8F081247F02008051010015
:101400006400002074120020307F02005C00002085
:101410002DE9FE4F06460F4692469B46C1A103C9E1
:10142000CDE90101C1A00068009040220021C04820
:1014300000F096F9002405E001A8005DBC490855BC
:10144000601CC4B2052CF7DBB0464646642098FB0E
:10145000F0F03030C2B22046611CCCB2B4490A541C
:10146000642098FBF0F100FB11600A2190FBF1F081
:101470003030C2B22046611CCCB2AD490A540A20B9
:1014800098FBF0F100FB11603030C2B22046611CC5
:10149000CCB2A7490A542C222046611CCCB2A449E4
:1014A0000A54B9464F46642099FBF0F03030C2B27E
:1014B0002046611CCCB29E490A54642099FBF0F18D
:1014C00000FB11700A2190FBF1F03030C2B22046CF
:1014D000611CCCB296490A540A2099FBF0F100FB3A
:1014E00011703030C2B22046611CCCB290490A540F
:1014F0002C222046611CCCB28D490A54272220465A
:10150000611CCCB28A490A54002506E01AF805008D
:101510006119874A5054681CC5B21AF805000028A2
:10152000F4D16019C4B227222046611CCCB2804994
:101530000A542C222046611CCCB27D490A540A2050
:101540009BFBF0F03030C2B22046611CCCB278492F
:101550000A540A209BFBF0F100FB11B03030C2B2FC
:101560002046611CCCB272490A54002506E01DF8E1
:10157000050061196E4A5054681CC5B2042DF6DB93
:101580006019C4B26A48BDE8FE8F2DE9FF4F83B0F1
:1015900006460F469246DDF840B062A103C9CDE988
:1015A000010162A00068009040220021604800F024
:1015B000D7F8002405E001A8005D5D490855601CCE
:1015C000C4B2052CF7DBB0464646642098FBF0F029
:1015D0003030C2B22046611CCCB255490A54642056
:1015E00098FBF0F100FB11600A2190FBF1F0303024
:1015F000C2B22046611CCCB24D490A540A2098FB65
:10160000F0F100FB11603030C2B22046611CCCB258
:1016100047490A542C222046611CCCB244490A5442
:10162000B9464F46642099FBF0F03030C2B22046F4
:10163000611CCCB23E490A54642099FBF0F100FBD6
:1016400011700A2190FBF1F03030C2B22046611CCB
:10165000CCB237490A540A2099FBF0F100FB117013
:101660003030C2B22046611CCCB231490A542C221F
:101670002046611CCCB22E490A5427222046611C08
:10168000CCB22B490A54002506E01AF8050061196E
:10169000274A5054681CC5B206988542F5D3601994
:1016A000C4B227222046611CCCB221490A542C2204
:1016B0002046611CCCB21E490A540A209BFBF0F064
:1016C0003030C2B22046611CCCB219490A540A20FB
:1016D0009BFBF0F100FB11B03030C2B22046611C20
:1016E000CCB213490A54002506E01DF80500611923
:1016F0000F4A5054681CC5B2042DF6DB6019C4B201
:101700000B4807B0BDE8F08F10B504462046FFF740
:1017100000FA10BD10B507A0FFF7F6FF08A0FFF70D
:10172000F3FF10BD4443313628000000293B0D0A69
:1017300092120020434C522830293B0D0A00000031
:101740004449522831293B0D0A00000010B50346D8
:10175000002002E00C5C1C54401C9042FAD310BDE7
:1017600010B50346002001E01954401C9042FBD301
:1017700010BD30B503460C46002106E0585C655CA0
:10178000A84201D0012030BD491C9142F6D300206F
:10179000F9E701460A78CB780B70CA704A788B78E3
:1017A0004B708A70704730B502460B461046D5180C
:1017B000691E05E004780D7800F8015B01F8014925
:1017C0008142F7D830BDFFF729F84FF4E13100200E
:1017D000FFF70DF94FF461210120FFF708F901F03F
:1017E000E9F8FFF7C3F901F0E5F805F06FF8FFF746
:1017F000E9FA00F031F822F024FA01E001F05DF896
:10180000FCE7000010B502460B464FF6FF7109E0F9
:1018100010784840C0B20F4C34F8100080EA212103
:101820005B1E521C002BF3D1C84380B210BD10B513
:10183000034609E008785840C0B2064C34F810005E
:1018400080EA2323521E491C002AF3D1D84380B2D8
:1018500010BD00003C7F020030B5ADF5017D21F0E8
:10186000C9F94FF4007200215D4801F004F901AAA2
:101870004FF400715A4800F00CFA4FF4007201A9BD
:10188000574823F0BDF94FF4FF715548FFF7BAFFF1
:101890000546534890F8FF01514991F8FE1100EBBD
:1018A000012084B221F07AF905F0C1FB00F09CF828
:1018B00001F02BF80DF5017D30BD70B503254948C9
:1018C0000078012803D121F0BAF91C2070BD08E08E
:1018D0002800A5F10101CDB203D121F095F917201F
:1018E000F4E705F015FB0028F2D105F015FC05F032
:1018F0006CFC044624B1204621F0C2F92046E5E7FD
:10190000002021F08EFFB0F5500F01D11820DDE747
:1019100005F03AFE04460F2C04D0204621F0DCF9F5
:101920002046D3E705F080F80446162C04D0204664
:1019300021F0FEF92046C9E7002021F0E5FC204611
:10194000C4E770B5032427480078012803D121F0AB
:1019500076F91C2070BD08E02000A4F10101CCB292
:1019600003D121F051F91720F4E705F0D1FA00284E
:10197000F2D105F08DFD054605F0AAFA2846E9E703
:1019800010B50446204621F0EFF821F01BF910BDF8
:1019900010B505F032FB012803D121F035F91720ED
:1019A00010BD00200F49087000BFF9E710B50220F4
:1019B00021F037FFB0F5500F01D1182010BD0948B4
:1019C0000078012803D121F03AF91C20F6E705F050
:1019D000DEF90446204621F0C1FC2046EEE7000077
:1019E000D21200206600002000B589B004226DA14B
:1019F00001A823F01AFA6C4800789DF80410884278
:101A000019D16948401C00789DF80510884212D110
:101A10006548801C00789DF8061088420BD14FF471
:101A20003F30624908606048614908605E48203084
:101A30006049086006E060485C4908605C490860ED
:101A40005C49086009B000BD59480068704710B58E
:101A50000446272259A1204623F0D2F80020206412
:101A600042F2B320A4F8440010BD70B504464F48BC
:101A7000006823F04FF8451C2A464C480168204670
:101A800023F0D3F94A48006823F044F8451C2A465D
:101A90004748016804F1200023F0C7F94548006871
:101AA00023F038F8451C2A464248016804F14000FA
:101AB00023F0BBF970BD10B504464021204623F049
:101AC0006BF9402104F1400023F066F9502104F144
:101AD000800023F061F910BD30B591B004460025B7
:101AE000402101A823F07AF912223EA1204623F0DA
:101AF00087F800BF17E0402101A823F06FF93E48A6
:101B000000EB85112A4803682848026801A822F0E2
:101B1000D5FC04F1400101EB8510402201A923F01E
:101B20006FF8681CC5B2042DE5DB002084F8400185
:101B30004FF47A70A4F84201012084F8410140F684
:101B4000640104F6461023F027F940F66400A4F877
:101B500044014FF4006104F5A37023F01DF911B0A6
:101B600030BD70B590B005460C464021684623F064
:101B700035F9A4B10E4803680C482146026868464E
:101B800022F09CFC4021284623F006F9684622F00A
:101B9000C1FF064632466946284623F031F810B0A8
:101BA00070BD0000534C590020FC0200680000206A
:101BB0006C00002070000020740000204730433784
:101BC0004A305A33424F2E696F74636C6F75642EBE
:101BD00074656E63656E74646576696365732E63A0
:101BE0006F6D0000246F74612F7265706F72742FB7
:101BF00025732F25730000003C8102002DE9F0477A
:101C0000C6B006460C4617464FF00008C2462046AE
:101C1000E11704EB11710911A4EB0111C1F1100AD4
:101C2000BAF1100F03D0012046B0BDE8F08720467E
:101C3000E11704EB11714FEA211968460AF02CFFF5
:101C40008022394968460AF03CFF8046B8F1000F0F
:101C500004D068460AF02AFF0220E5E7002511E0DB
:101C600007EB051306EB0512012168460BF02DFE6C
:101C70008046B8F1000F04D068460AF017FF032031
:101C8000D2E76D1C4D45EBD368460AF00FFFE0B27A
:101C9000CAE72DE9F047C6B006460C4617464FF096
:101CA0000008C2462046E11704EB11710911A4EBAC
:101CB0000111C1F1100ABAF1100F03D0012046B092
:101CC000BDE8F0872046E11704EB11714FEA2119B6
:101CD00068460AF0E1FE8022134968460AF0F0FFE8
:101CE0008046B8F1000F04D068460AF0DFFE0220FB
:101CF000E5E7002511E007EB051306EB05120021CF
:101D000068460BF0E2FD8046B8F1000F04D068464B
:101D10000AF0CCFE0420D2E76D1C4D45EBD368469B
:101D20000AF0C4FEE0B2CAE77A00002000B97047AA
:101D30000260C160C3684360C368836000BFF6E7A8
:101D400000B970470021C16041608160016000BF3F
:101D5000F7E7014611B96FF0320070470868FCE7F9
:101D600000B5024612B96FF01E0000BDD2E90101B4
:101D7000884201D10020F8E7D2E90101884203D26C
:101D8000D2E90110401AF0E71046FFF7E2FFD2E96E
:101D90000113C91A401AE8E730B5044614B96FF0C8
:101DA000280030BD2046FFF7D4FF05462046FFF748
:101DB000D7FF281AF5E72DE9F04104460F461646ED
:101DC00000251CB96FF01400BDE8F08117B96FF061
:101DD0001500F9E7D4E90101884214D22046FFF743
:101DE000BFFFB04201D9304602E02046FFF7B8FFFE
:101DF00005462A463846616822F002FF606828449A
:101E000060602846E0E72046FFF7A3FFE2686168CC
:101E1000891A401AB0420AD935462A4638466168BE
:101E200022F0EEFE6068284460602846CCE7204639
:101E3000FFF78FFFE2686168891A451A2A4638461B
:101E4000616822F0DDFEE0686060721B791920464F
:101E5000FFF7B1FF05442846B6E72DE9F0410446F7
:101E60000F46154600261CB96FF00A00BDE8F08148
:101E700017B96FF00B00F9E72046FFF78DFFA84276
:101E800002D86FF00C00F1E7D4E9010188422AD8AA
:101E90002046FFF75EFFD4E90212891A461AB542BE
:101EA00013D82A463946A06822F0AAFEA068284422
:101EB000A0602046FFF74DFFE1680844A168884212
:101EC00001D1E068A0602846D0E732463946A068D4
:101ED00022F096FEE068A060AA1BB9192046FFF721
:101EE000BCFF3044C2E72A463946A06822F088FE8B
:101EF000A0682844A0602846B8E72DE9F0410746CD
:101F00000C461546002614B9701EBDE8F0812A461D
:101F100021463846FFF7A1FF0646AE4202D06FF0D9
:101F20000100F2E73046F0E7002041494880088090
:101F30004049086040490880704701463C4B1B8877
:101F4000581CC31700EBD3535B12A0EB43239AB288
:101F500037484088904205D035480388001DC15459
:101F6000001F02807047014631484088304A12887D
:101F700090420FD02E484288001D805C08702C4A89
:101F80005288501CC21700EBD2525212A0EB4222D0
:101F9000274B5A8070472648008800F50070244A75
:101FA0005288811AC81701EBD0504012A1EB402093
:101FB00080B27047F8B504460D461646002700204B
:101FC00000902FE06846FFF7CEFF1B48008820B93D
:101FD0009DF80000B04200D024E017480088A842D5
:101FE00008DA9DF80010144802880088401C124B43
:101FF0001880A1549DF800000E49096840EA0120AC
:102000000C4908600846006800F54031491C08D1B9
:1020100009480788002007490860074908803846B2
:10202000F8BD00BFFFF7B7FF0028CBDC0020F7E7C3
:10203000E43C00208C0000209000002010B50446F5
:102040002046FEF75DFD10BD10B504462012FEF7D8
:1020500057FDE0B2FEF754FD10BD10B50446200C4C
:10206000FFF7F2FFA0B2FFF7EFFF10BD10B5044677
:102070002046FEF745FD10BD10B504462012FFF7BF
:10208000F5FFE0B2FFF7F2FF10BD10B50446200CDB
:10209000FFF7F2FFA0B2FFF7EFFF10BD10B5044647
:1020A00003E02078FFF7E2FF641C20780028F8D1D5
:1020B00010BD70B505460E46002404E0285DFFF70C
:1020C000D5FF601C84B2B442F8DB70BD70B5054624
:1020D0000E46002405E035F81400FFF7CDFF601C24
:1020E00084B2B442F7DB70BD10B5EE20FEF708FDF8
:1020F0000420FFF7BBFF6FF44030FFF7C6FF10BDB1
:1021000010B5EE20FEF7FCFC5520FFF7AFFF6FF493
:102110004030FFF7BAFF10BD70B505460C46EE2003
:10212000FEF7EEFC0520FFF7A1FF2846FFF7A4FF0E
:102130002046FFF7A1FF6FF44030FFF7A6FF70BD08
:1021400010B5EE20FEF7DCFC0620FFF78FFF6FF4E2
:102150004030FFF79AFF10BD10B50446EE20FEF7A1
:10216000CFFC0720FFF782FF2046FFF785FF6FF4C3
:102170004030FFF78AFF10BD10B5EE20FEF7C0FC1F
:102180000820FFF773FF6FF44030FFF77EFF10BDAC
:1021900010B50446EE20FEF7B3FC0920FFF766FFFA
:1021A0002046FFF769FF6FF44030FFF76EFF10BD68
:1021B0002DE9F04107460C4615461E46EE20FEF777
:1021C0009FFC0B20FFF752FF3846FFF755FF2046D4
:1021D000FFF752FF2846FFF74FFF3046FFF74CFF4F
:1021E0006FF44030FFF751FFBDE8F08110B5EE20ED
:1021F000FEF786FC0C20FFF739FF6FF44030FFF745
:1022000044FF10BD10B50446EE20FEF779FC0F2008
:10221000FFF72CFF2046FFF72FFF6FF44030FFF74A
:1022200034FF10BD70B505460C46EE20FEF768FC85
:102230001020FFF71BFF2846FFF71EFF2046FFF781
:102240001BFF6FF44030FFF720FF70BD10B5EE208C
:10225000FEF756FC1120FFF709FF6FF44030FFF73F
:1022600014FF10BD10B50446EE20FEF749FC122005
:10227000FFF7FCFE2046FFF7FFFE6FF44030FFF74C
:1022800004FF10BD10B5EE20FEF73AFC1320FFF757
:10229000EDFE6FF44030FFF7F8FE10BD70B5054657
:1022A0000C46EE20FEF72CFC1420FFF7DFFE28463C
:1022B000FFF7E2FE2046FFF7E8FE6FF44030FFF73D
:1022C000E4FE70BD10B50446EE20FEF719FC1520A3
:1022D000FFF7CCFE2046FFF7CFFE6FF44030FFF74C
:1022E000D4FE10BD10B50446EE20FEF709FC172001
:1022F000FFF7BCFE2046FFF7BFFE6FF44030FFF74C
:10230000C4FE10BD70B505460C46EE20FEF7F8FB86
:102310008120FFF7ABFE0120FFF7A8FE2846FFF75C
:10232000ABFE2046FFF7A8FE6FF44030FFF7ADFE8E
:1023300070BD70B505460C46EE20FEF7E1FB81202E
:10234000FFF794FE0220FFF791FE2846FFF794FE68
:102350002046FFF791FE6FF44030FFF796FE70BD08
:1023600070B505460C46EE20FEF7CAFB8120FFF74C
:102370007DFE0320FFF77AFE2846FFF77DFE20460C
:10238000FFF77AFE6FF44030FFF77FFE70BD70B547
:1023900005460C46EE20FEF7B3FB8120FFF766FEF4
:1023A0000420FFF763FE2846FFF766FE2046FFF78E
:1023B00063FE6FF44030FFF768FE70BD70B50646EF
:1023C0000C461546EE20FEF79BFB8120FFF74EFEE4
:1023D0000520FFF74BFE3046FFF74EFE294620460C
:1023E000FFF767FE6FF44030FFF74FFE70BD70B52A
:1023F00006460C461546EE20FEF782FB8120FFF7CD
:1024000035FE0620FFF732FE3046FFF735FE204648
:10241000FFF732FE2846FFF738FE6FF44030FFF733
:1024200034FE70BD70B506460C461546EE20FEF72C
:1024300067FB8120FFF71AFE0720FFF717FE3046E3
:10244000FFF71AFE2046FFF717FE2846FFF71DFE8E
:102450006FF44030FFF719FE70BD70B505460C46AD
:10246000EE20FEF74DFB8120FFF700FE0820FFF76E
:10247000FDFD2846FFF700FE2046FFF706FE6FF43D
:102480004030FFF702FE70BD70B505460C46EE20E9
:10249000FEF736FB8120FFF7E9FD0920FFF7E6FD97
:1024A0002846FFF7E9FD2046FFF7E6FD6FF44030D0
:1024B000FFF7EBFD70BD70B506460C461546EE20E5
:1024C000FEF71EFB8120FFF7D1FD0A20FFF7CEFDAE
:1024D0003046FFF7D1FD2046FFF7CEFD2846FFF737
:1024E000D4FD6FF44030FFF7D0FD70BD10B5044649
:1024F000EE20FEF705FB8220FFF7B8FD0120FFF775
:10250000B5FD2046FFF7B8FD6FF44030FFF7BDFD85
:1025100010BD10B50446EE20FEF7F2FA8220FFF758
:10252000A5FD0220FFF7A2FD2046FFF7A5FD6FF4F1
:102530004030FFF7AAFD10BD10B50446EE20FEF7AF
:10254000DFFA8220FFF792FD0320FFF78FFD204680
:10255000FFF792FD6FF44030FFF797FD10BD10B507
:102560000446EE20FEF7CCFA8220FFF77FFD042020
:10257000FFF77CFD2046FFF77FFD6FF44030FFF74B
:1025800084FD10BD10B50446EE20FEF7B9FA822096
:10259000FFF76CFD0520FFF769FD2046FFF76CFD96
:1025A0006FF44030FFF771FD10BD70B505460C4665
:1025B000EE20FEF7A5FA8220FFF758FD0620FFF770
:1025C00055FD2846FFF758FD2046FFF755FD6FF4EF
:1025D0004030FFF75AFD70BD70B505460C46EE2041
:1025E000FEF78EFA8220FFF741FD0720FFF73EFD40
:1025F0002846FFF741FD2046FFF73EFD6FF44030CF
:10260000FFF743FD70BD10B50446EE20FEF778FAE3
:102610008220FFF72BFD0820FFF728FD2046FFF75B
:102620002BFD6FF44030FFF730FD10BD10B50446B0
:10263000EE20FEF765FA8220FFF718FD0920FFF76C
:1026400015FD2046FFF718FD6FF44030FFF71DFD24
:1026500010BD0000FEB5BDA7E0CF8DE8E0001C4630
:1026600000BF0A2591FBF5F605FB16151DF8056060
:10267000651EEDB22C4646550A2591FBF5F5A9B22B
:102680009442EED0FEBDF0B50446002006E00F5C9B
:102690001546561CF2B26755451CE8B29842F6DB67
:1026A000F0BD10B5AC49AD480078801C095CAA4A61
:1026B000AA480078401C105C41EA00240423002250
:1026C000A7A1A948FFF7DFFF062305222146A64858
:1026D000FFF7C0FF0622A4491020FFF76FFE10BDD0
:1026E00070B504460E469C499C480078401C085C26
:1026F0009E490870984999480078C01C095C964A20
:1027000096480078801C105C41EA002098490880B7
:10271000651C92480078C01C05449648007806283D
:1027200002D082281DD102E0FFF7BBFF1AE08F48DC
:102730000078052812D18E480088012802D002288E
:102740000AD104E029468C4822F0C0F904E0294669
:102750008A4822F0BBF900BF00BF00E000BF00BF05
:1027600000E000BF00BFCC208549087070BD70B587
:1027700005460E46784979480078801C095C764AFF
:1027800076480078401C105C41EA00207D490880B2
:10279000114672480078001D095C70480078C01C22
:1027A000105C41EA00207249088011466B480078AD
:1027B0000A30095C694800780930105C41EA002061
:1027C000714908806B480078052872D0062871D1BD
:1027D0006C48008898B966480088012806D002280D
:1027E00007D0032808D0042808D106E0FFF765F8D1
:1027F00004E0FFF7DBF801E000E000BF00BF614844
:102800000088012825D15A480088022802D00428CF
:102810001ED117E000205D49087019225C49012093
:10282000FFF7CCFDFFF7B4F804462CB9162259493E
:102830000120FFF7C3FD04E0132257490120FFF7F1
:10284000BDFD05E0012051490870FFF7A1F800BF68
:1028500000BF4C480088032806D10220FFF792FEF3
:10286000EE204749087026E04648008805281DD11B
:102870003F480088022818D10020444908701922D6
:1028800043490120FFF79AFDFFF75BF804461D2C32
:1028900005D1132241490120FFF790FD04E02522D4
:1028A0003F490120FFF78AFD00BF00BF03E000E0C1
:1028B00000E0D2E700BF00BF70BD10B50024304873
:1028C0000278C8212448FFF775FB0446002C1BDD65
:1028D00021480078334908701F4820490978405C36
:1028E000244908702F480078CC2802D0EE280AD15D
:1028F00004E021461848FFF73AFF04E02146164855
:10290000FFF7EEFE00BF00BF10BD10B5002106208E
:10291000FFF702FC0A20FEF73DF9FFF795F80446A1
:10292000042221460620FFF749FD0A20FEF732F96E
:1029300005221DA10720FFF741FD0A20FEF72AF915
:1029400004221B490820FFF739FD10BD3031323316
:1029500034353637383900005A3F00202401002032
:102960005061676500000000E83E00201C01002067
:10297000200100201B0100201A3F00203A3F0020C8
:10298000190100201E010020220100202501002045
:1029900092000020CB000020B8000020E1000020C1
:1029A000F40000201A01002056315F3100000000C1
:1029B0002F13002010B50021084600F051FAFE4800
:1029C000C06A20F44050FC49C862FC48006840F0EE
:1029D0004000FA4908600846C06840F04000C860FE
:1029E000F548C06A20F0C000F349C862F3480068A7
:1029F00040F00800F14908600846806840F008008F
:102A00008860ED48C06A20F44040EB49C862EB485A
:102A1000006840F08000E94908600846806840F09E
:102A20008000886010BD08B5E448C06840F0080028
:102A3000E249C8600846C06840F00800C8609020BD
:102A4000DF490870002048708870C870042200F0C8
:102A5000C6FA02226946002000F065FAD74880686D
:102A600040F00800D54988609DF801009DF80010ED
:102A700040EA012008BD2DE9F04107460D46164603
:102A8000CE48C06840F00800CC49C8600320CC495B
:102A90000870280C4870280A8870CD700422002025
:102AA00000F09DFA4FEA1628002408E007EB042105
:102AB0004FF48072002000F036FA601C84B2444566
:102AC000F4D316F0FF0F05D0F2B207EB042100207B
:102AD00000F029FAB948806840F00800B7498860DA
:102AE000BDE8F08110B5B548C06840F00800B349B2
:102AF000C8600620B24908700122002000F06FFA79
:102B0000AE48806840F00800AC49886010BD10B540
:102B1000AA48C06840F00800A849C8600420A84935
:102B200008700122002000F05AFAA448806840F0A2
:102B30000800A249886010BD10B5A048C06840F0E8
:102B400008009E49C86005209D49087001220020A8
:102B500000F045FA01229A49002000F0E4F9974874
:102B6000806840F00800954988609548007810BD5D
:102B700010B54FF4FA7409E00120FEF70BF8FFF7E7
:102B8000DBFF10F0010F01D1002010BD2000A4F1E7
:102B900001018CB2F0D10120F7E710B504462403FF
:102BA000FFF7A0FFFFF7E4FF08B1012010BD834845
:102BB000C06840F008008149C86020208049087042
:102BC000200C4870200A8870CC700422002000F08D
:102BD00006FA7A48806840F0080078498860FFF774
:102BE000C7FF08B10120E1E70020DFE710B5044688
:102BF0002404FFF777FFFFF7BBFF08B1012010BDEA
:102C00006E48C06840F008006C49C860D8206C4924
:102C10000870200C4870200A8870CC7004220020B4
:102C200000F0DDF96548806840F00800634988607D
:102C3000FFF79EFF08B10120E1E70020DFE710B5B4
:102C4000FFF750FFFFF794FF08B1012010BD5B486C
:102C5000C06840F008005949C860C720584908704A
:102C60000122002000F0BBF95448806840F00800C1
:102C700052498860FFF77CFF08B10120E6E7002099
:102C8000E4E770B505460C461646FFF72BFF4B48A8
:102C9000C06840F008004949C860022048490870EF
:102CA000200C4870200A8870CC700422002000F0AC
:102CB00096F932462946002000F091F93F48806895
:102CC00040F008003D498860FFF752FF08B101203D
:102CD00070BD0020FCE72DE9F04107460E46144682
:102CE000F0B2C0F58075AC4200DC254616E02A46FD
:102CF00031463846FFF7C5FF10B10120BDE8F0812D
:102D0000AC4200D10BE02F442E44601B84B2B4F5DA
:102D1000807F02DD4FF4807500E02546E7E700BFC5
:102D20000020EBE72DE9F05F814688461646DFF884
:102D300094B04FEA1837C8F30B0ACAF58054A6427C
:102D400000DC34466AE039034FF480525846FFF7FE
:102D500092FE002508E00AEB05001BF80000FF28A2
:102D600000D003E0681C85B2A542F4DB00BFA54299
:102D700033DA3846FFF711FF40B1FFF71BFE384644
:102D8000FFF70BFF10B10120BDE8F09F002507E021
:102D900019F8050005EB0A010BF80100681C85B263
:102DA000A542F5DB39034FF480525846FFF793FFF5
:102DB00018B3FFF7FFFD07E00000064800000A48CF
:102DC000224000203240002039034FF48052584600
:102DD000FFF781FF88B10120D6E7224641464846E9
:102DE000FFF779FF48B1FFF7E5FD22464146484627
:102DF000FFF771FF08B10120C6E7A64200D10EE03F
:102E00007F1C4FF0000AA144A044301B86B2B6F5E7
:102E1000805F02DD4FF4805400E0344693E700BF4A
:102E20000020B1E7F048806910F0020F08D00120BF
:102E3000EE490870EC48806940F00200EA49886178
:102E40007047EB48806910F0020F08D00120E94973
:102E50000870E748806940F00200E54988617047E2
:102E600070B504460D4684B9042000F0B3F904207F
:102E700000F0A4F9E048C06A4FF6F071884345F2CB
:102E800010510844DC49C86214E0052000F0A2F9A2
:102E9000052000F093F9D848C06A20F0704040F057
:102EA000A040D549C8620846006B20F0FF0040F002
:102EB00055000863A800CC494FF4803202FB04118E
:102EC0008860012C06D140F20220C74902FB0411A0
:102ED000486007E040F20220C3494FF4803202FB11
:102EE000041148600120C049020402FB04118862F9
:102EF000BD48114601FB0400806840F00100BA495A
:102F000002FB0411886070BD0021B74A4FF4803382
:102F100003FB0022516270470121B34A0B0403FBFB
:102F200000225162704770B5C2F30902AE4C4FF4F3
:102F3000803505FB0044A46944F00204AA4D4FF417
:102F4000803606FB0055AC61A74C354605FB0044B6
:102F50002262A54C05FB0044246944F00104A24D03
:102F600006FB00552C6101249F4D06FB00556C6249
:102F7000002310E000BF9C4C4FF4803505FB00445B
:102F8000A46914F0100FF6D1974C05FB0044247887
:102F90000C70491C5B1C9342ECD300BF924C4FF465
:102FA000803505FB0044A46914F0020FF6D08E4C66
:102FB00005FB0044A46944F002048B4D4FF48036B5
:102FC00006FB0055AC61884C354605FB004424697E
:102FD00024F00104844D06FB00552C6170BD70B5D2
:102FE000C2F30902804C4FF4803505FB0044A4690C
:102FF00044F002047C4D4FF4803606FB0055AC6172
:10300000794C354605FB00442262774C05FB0044B1
:10301000E46844F00104744D06FB0055EC600124A3
:10302000714D06FB00556C62002312E000BF6E4C30
:103030004FF4803505FB0044A46914F0080FF6D165
:103040000C78694D4FF4803606FB00552C70491CF6
:103050005B1C9342EAD300BF634C4FF4803505FB01
:103060000044A46914F0020FF6D05F4C05FB004445
:10307000A46944F002045C4D4FF4803606FB005511
:10308000AC61594C354605FB0044E46824F001046A
:10309000554D06FB0055EC6070BDF0B50024524D57
:1030A0004FF4803606FB0055AD6945F002054E4EE3
:1030B0004FF4803707FB0066B5614B4D3E4606FB7B
:1030C00000552B62484D06FB0055ED6845F00105A3
:1030D000454E07FB0066F560434D3E4606FB005536
:1030E0002D6945F00105404E07FB0066356101255D
:1030F0003D4E07FB0066756222E09C4211D23A4DBC
:103100004FF4803606FB0055AD6915F0080F08D165
:103110000D78354E4FF4803707FB00663570491C3B
:10312000641C314D4FF4803606FB0055AD6915F037
:10313000100F05D12C4D06FB00552D781570521C33
:10314000294D4FF4803606FB0055AD6915F0020F8E
:10315000D3D007E0244D4FF4803606FB00552D7880
:103160001570521C204D4FF4803606FB0055AD699A
:1031700015F0100FEED01C4D06FB0055AD6945F063
:103180000205194E4FF4803707FB0066B561164DF6
:103190003E4606FB0055ED6825F00105124E07FB83
:1031A0000066F560104D3E4606FB00552D6925F082
:1031B00001050D4E07FB00663561F0BD00F01F02F2
:1031C0000121914042094FF0E02303EB8202C2F853
:1031D0000011704700F01F0201219140074A430986
:1031E00042F823107047000000000640260100202E
:1031F00000000740270100200000064880E200E0B0
:1032000010B5044600BF082C02DD4FF0FF3010BDA2
:1032100000BFA100491C4FF4807202EBC1001021D5
:1032200000F0E3FF00BFA100491C4FF4807202EBE5
:10323000C10000F0B7FF0028F5D1A100491C4FF4F0
:10324000007202EBC1001F2100F0CFFF0120A0405F
:10325000FB4909888143FA4801800020F94921F897
:103260001400F949085500BFA100491C4FF44072F1
:1032700002EBC10000F096FF0028F5D10120C6E75F
:103280002DE9F04104460E4617461D4600BF082CA6
:1032900003DD4FF0FF30BDE8F08100BF012E04D008
:1032A000022E03D0042E03D101E000BF00BF02E0D4
:1032B0006FF00400EFE700BF15F0060F02D06FF0CB
:1032C0000500E8E705B3012E02D0022E1AD106E070
:1032D00015F0210F02D16FF00500DCE713E015F0C7
:1032E000200F05D015F0800F02D16FF00500D2E756
:1032F00015F0100F05D015F0800F02D16FF005000A
:10330000C9E700E000BF00BF2046FFF779FF05F0E6
:10331000F00242EA0601A200521C002303EBC200A5
:1033200000F063FF7FB9C94807880088401CC7497F
:10333000088008460088A0F57F41F03903D14FF49A
:103340004040C24908803912A200521C4FF48063E9
:1033500003EBC20000F049FFA100491C4FF480625A
:1033600002EBC10101F58070F9B200F03EFFA1004F
:10337000491C4FF4807202EBC100012100F035FFBF
:1033800000BFA100491C4FF4807202EBC10000F0A5
:1033900009FF0028F5D105F00100A040AC490988DB
:1033A0000843AB4908800120A040A5490988814312
:1033B000A34801800020A34921F81400A249085520
:1033C00000BFA100491C4FF4407202EBC10000F0A5
:1033D000E9FE0028F5D060B25DE710B5044600BFF5
:1033E000082C02DD4FF0FF3010BD00BF00BFA10070
:1033F000491C002202EBC10000F0D4FE00F00F00D7
:10340000012802D06FF00400EEE700BF00BFA1006A
:10341000491C4FF4407202EBC10000F0C3FE1328B8
:1034200002D06FF00200DFE700BFA100491C4FF49B
:10343000807202EBC100022100F0D7FE00BFA100A4
:10344000491C4FF4807202EBC10000F0ABFE002873
:10345000F5D10EE0A100491C4FF4807202EBC100CF
:1034600000F0A0FE28B92046FFF7CAFE6FF0030067
:10347000BAE7A100491C4FF4407202EBC10000F012
:1034800091FE1428E6D10120AEE770B504460D4642
:10349000164600BF082C02DD4FF0FF3070BD00BFA4
:1034A00000BFA100491C002202EBC10000F07AFE1F
:1034B00000F00F00012802D06FF00400EEE700BF1B
:1034C00000BFA100491C4FF4407202EBC10000F0A4
:1034D00069FE132802D06FF00200DFE700BF2978F1
:1034E000687861F31F200146A87861F31F20014628
:1034F000287861F31F200146481C00D011B96FF0F5
:103500000B00CBE716B96FF00A00C7E7A100491C12
:103510004FF4406202EBC1000422294600F0B6FEDF
:103520003112A200521C4FF4805303EBC20000F092
:103530005CFEA100491C4FF4805202EBC10101F571
:103540008070F1B200F051FEA100491C4FF480726E
:1035500002EBC100042100F048FE00BFA100491C9D
:103560004FF4807202EBC10000F01CFE0028F5D180
:103570000120A04036490988084201D000208DE78B
:1035800016E0A100491C4FF4007202EBC10000F0EC
:1035900009FE10F0080F0BD0A100491C4FF4007277
:1035A00002EBC100082100F020FE6FF00C0075E76F
:1035B000A100491C4FF4407202EBC10000F0F2FD83
:1035C0001728DED1012069E710B5044600BF082C9A
:1035D00002DD4FF0FF3010BD00BF00BFA100491C4D
:1035E000002202EBC10000F0DDFD00F00F00012819
:1035F00002D06FF00400EEE700BFA100491C4FF4B9
:10360000807202EBC100082100F0EFFD00BFA100B5
:10361000491C4FF4807202EBC10000F0C3FD00288A
:10362000F5D10120A0400649098881430448018062
:103630000120A0400649098808420BD00020CAE7B3
:103640002C010020325000202E01002028010020F3
:103650002A01002010E0A100491C4FF4007202EB87
:10366000C10000F09FFD10F0080F05D02046FFF7C5
:10367000C7FD6FF00C00AEE7A100491C4FF440728B
:1036800002EBC10000F08EFD0028E4D10120A2E78A
:103690002DE9F0410446884615460026002700BF64
:1036A000082C02DD701EBDE8F08100BF00BFA10044
:1036B000491C002202EBC10000F074FD00F00F0075
:1036C000012802D06FF00400EDE700BF00BF15B97C
:1036D0006FF00D00E7E700BFA100491C4FF44072F6
:1036E00002EBC10000F05EFD0646172E04D01C2E32
:1036F00002D06FF00600D6E70120A040F749098804
:10370000084228D0A100491C4FF4007202EBC1000E
:1037100000F048FD00F01F0616F0100F10D0A100B9
:10372000491C4FF4007202EBC100102100F05DFD56
:103730000120A040E94909888143E84801800AE066
:1037400016F0080F05D02046FFF75AFD6FF00C0069
:10375000A9E70020A7E7A100491C4FF4F85202EBAB
:10376000C10000F01FFD8006070CBD4200DD3D4694
:1037700023E0204600F0B8FD0746A100491C4FF4A5
:10378000407202EBC10000F00DFD0646172E07D077
:103790001C2E05D02046FFF733FD6FF0060082E7B0
:1037A0000120A040CE490988084203D0BD4201DD76
:1037B000002078E7BD4200DC00E0DAE700BF2A46DF
:1037C0004146204600F0FCFDA100491C4FF48072E8
:1037D00002EBC100202100F008FD00BFA100491C40
:1037E0004FF4807202EBC10000F0DCFC0028F5D140
:1037F0000120A040B94909880843B84908802846F3
:1038000051E72DE9F0470446884616460027002573
:1038100000BF082C02DD681EBDE8F08700BF00BFB6
:10382000A100491C002202EBC10000F0BBFC00F02B
:103830000F00012802D06FF00400EDE700BF00BFC9
:1038400016B96FF00D00E7E700BFA100491C4FF467
:10385000F05202EBC10000F0A5FC8006050CB54259
:1038600000DA2E4638E0204600F074FD0546A1003F
:10387000491C4FF4407202EBC10000F093FC074674
:10388000172F1ED01C2F16D105B126E0204600F0C0
:103890002BFD8146A100491C4FF4F85202EBC100F8
:1038A00000F080FCB9EB802F0BD12046FFF7A8FC7D
:1038B0006FF00600B0E72046FFF7A2FC6FF00600AD
:1038C000AAE70120A04086490988084202D00DB924
:1038D0000020A1E705B100E0C5E700BFB54200DA6E
:1038E0002E4632464146204600F0ACFDA100491C60
:1038F0004FF4807202EBC100402100F076FC00BF63
:10390000A100491C4FF4807202EBC10000F04AFC98
:103910000028F5D130467FE72DE9F04704468A4676
:1039200016461D46DDF820900027B84600BF082C3B
:1039300002DD781EBDE8F08700BFA100491C00220F
:1039400002EBC10000F02EFC00F00F00022802D0B4
:10395000042802D100E000BF02E06FF00400E9E7B4
:1039600000BF00BF16B96FF00D00E3E700BF287875
:10397000697860F31F210846A97860F31F21084683
:10398000E97860F31F210846286810B96FF00B0032
:10399000D0E7B9F1000F02D16FF00A00CAE7A10029
:1039A000491C4FF4407202EBC10000F0FBFB0746DC
:1039B000422F04D0222F02D06FF00600BAE7A100F8
:1039C000491C4FF4406202EBC1000422294600F07A
:1039D0005DFC4FEA2921A200521C4FF4805303EBF7
:1039E000C20000F002FCA100491C4FF4805202EB1F
:1039F000C10101F5807009F0FF0100F0F6FBA100A4
:103A0000491C4FF4F85202EBC10000F0CBFB8006DA
:103A10004FEA1048464500DD46461CE0204600F0CF
:103A200063FC8046A100491C4FF4407202EBC100C8
:103A300000F0B8FB10B96FF003007BE70120A04055
:103A400027490988084203D0464501DD002071E777
:103A5000464500DC00E0E1E700BF32465146204623
:103A600000F0AEFCA100491C4FF4807202EBC100D3
:103A7000202100F0BAFB00BFA100491C4FF4807266
:103A800002EBC10000F08EFB0028F5D12AE0A10076
:103A9000491C4FF4007202EBC10000F083FB00F000
:103AA0001F0717F0100F09D0A100491C4FF4007236
:103AB00002EBC100102100F098FB14E017F0080F92
:103AC00010D0A100491C4FF4007202EBC100082184
:103AD00000F08BFB6FF00C002CE700002C010020A5
:103AE0002A010020D3E700BF304623E72DE9FC4739
:103AF00004468A4616461F46DDF82880002500BF8A
:103B0000082C02DD681EBDE8FC8700BFA100491C2F
:103B1000002202EBC10000F045FB814600F00F00DF
:103B2000022802D0042802D100E000BF02E06FF0BA
:103B30000400E8E700BF00BF16B96FF00D00E2E730
:103B400000BFF84830F81400E8B91AE0204600F049
:103B500001FC0546A100491C4FF4407202EBC10074
:103B600000F020FB10B96FF00300CCE70120A0406B
:103B7000ED490988084202D00DB90020C3E705B11C
:103B800000E0E3E700BF0020E849085509F007001E
:103B9000022802D004287DD157E0E24830F8140012
:103BA000E8BB08226946204600F04CFCA100491CF5
:103BB0004FF4807202EBC100402100F016FB00BF01
:103BC000A100491C4FF4807202EBC10000F0EAFA38
:103BD0000028F5D19DF8000038709DF8010078703C
:103BE0009DF80200B8709DF80300F8709DF804007D
:103BF000A8F800009DF80500B8F8001000EB0120BF
:103C0000A8F800009DF80600C64921F814009DF8A8
:103C1000070031F8141000EB0120C24900E004E075
:103C200021F814008020C1490855BE4830F814001E
:103C3000B04201DD354602E0BA4830F814502A4659
:103C40005146204600F0FEFB55E0B64830F814001F
:103C5000A8BB02226946204600F0F4FBA100491CE3
:103C60004FF4807202EBC100402100F0BEFA00BFA9
:103C7000A100491C4FF4807202EBC10000F092FADF
:103C80000028F5D19DF80000A64921F814009DF800
:103C9000010000E027E031F8141000EB0120A149F9
:103CA00021F81400084630F8140040F2EA51884226
:103CB00006DD2046FFF7A4FA6FF47A7023E702E0EE
:103CC00080209A490855974830F81400B04201DD29
:103CD000354602E0934830F814502A4651462046B3
:103CE00000F0B0FB07E02946204600F0EDFB8D48D0
:103CF00020F8145000BF00BFA100491C4FF480728F
:103D000002EBC100402100F070FA00BFA100491C85
:103D10004FF4807202EBC10000F044FA0028F5D1A4
:103D2000804830F81400401B7E4921F814000846F2
:103D300030F8140028B17D48005D40F001007B4957
:103D400008552846DFE62DE9F04104460E461546A3
:103D5000002700BF082C02DD781EBDE8F08100BFFF
:103D6000082E78D2DFE806F0041C232F3B4D596B58
:103D70002F78012F07D10120A0406B490988084303
:103D8000694908800BE03FB90120A04066490988D5
:103D900081436548018002E06FF00900DDE75DE0E6
:103DA00061480088204100F00100287056E0A10021
:103DB000491C4FF4F85202EBC10000F0F3F9800601
:103DC000000C28804AE0A100491C4FF4F05202EB9D
:103DD000C10000F0E7F98006000C28803EE028785A
:103DE0001F2802DD6FF00900B7E72A7802F01F01F3
:103DF000A200521C4FF4007303EBC20000F0F5F96F
:103E00002CE0A100491C4FF4007202EBC10000F04D
:103E1000C9F900F01F00287020E028781F2802DD73
:103E20006FF0090099E72A7802F01F01A200521CE6
:103E30004FF4305303EBC20000F0D7F90EE0A100BD
:103E4000491C4FF4305202EBC10000F0ABF900F016
:103E50001F00287000BF6FF009007EE700BF01203F
:103E60007BE770B504460E46154600BF082C02DD00
:103E70004FF0FF3070BD00BF082E75D2DFE806F0AE
:103E8000BB040E182F3A58A12978A200521C4FF4F7
:103E9000B05303EBC20000F0A8F9AFE02978A2000C
:103EA000521C4FF4A85303EBC20000F09EF9A5E0AA
:103EB0002A881112A200521C4FF4905303EBC20047
:103EC00000F093F92A88D1B2A200521C4FF490530B
:103ED00003EBC20202F5807000F087F98EE0A100CA
:103EE000491C4FF4406202EBC1000422294600F055
:103EF000CDF983E02A881112A200521C4FF480539E
:103F000003EBC20000F071F92A88D1B2A200521C62
:103F10004FF4805303EBC20202F5807000F065F9A4
:103F20006CE00000325000202A0100202E01002009
:103F300000BFA100491C002202EBC10000F032F9D1
:103F400000F00F00012802D06FF0040092E700BFDC
:103F5000A100491C4FF43C5202EBC10000F022F9D1
:103F600018B16FF0010085E745E0A100491C4FF44E
:103F7000807202EBC100222100F037F916E0A100A7
:103F8000491C4FF4007202EBC10000F00BF910F075
:103F9000080F0BD0A100491C4FF4007202EBC100C6
:103FA000082100F022F96FF00C0063E7A100491C22
:103FB0004FF4807202EBC10000F0F4F80028DED16B
:103FC0001CE000BFA100491C002202EBC10000F070
:103FD000E9F800F00F00012802D06FF0040049E773
:103FE00000BF2978A200521C4FF43C5303EBC200DF
:103FF00000F0FBF802E06FF009003BE700BF012092
:1040000038E72DE9F04104460E46154600BF082C5E
:1040100003DD4FF0FF30BDE8F08100BF0D2E6FD201
:10402000DFE806F007121C263D48B55F7A7F848ED4
:10403000A100A100491C002202EBC10000F0B2F86F
:1040400000F0F0002870A5E0A100491C4FF4B05228
:1040500002EBC10000F0A6F828709BE0A100491C0B
:104060004FF4A85202EBC10000F09CF8287091E0D8
:10407000A100491C4FF4905202EBC10101F5807080
:1040800000F090F80746A100491C4FF4905202EB53
:10409000C10000F087F807EB0020287000BFA100E6
:1040A000491C4FF4406202EBC1000422294600F093
:1040B000C0F86FE0A100491C4FF4805202EBC1012F
:1040C00001F5807000F06EF80746A100491C4FF41E
:1040D000805202EBC10000F065F807EB0020288059
:1040E00058E000BFA100491C002202EBC10000F013
:1040F00059F800F00F00012803D06FF004008AE7A0
:1041000045E000BFA100491C4FF43C5202EBC10046
:1041100000F048F828803DE0204600F0E5F82880CF
:1041200000BF204600F016F9288000BFA100491CFE
:104130004FF4407202EBC10000F034F8287029E01F
:10414000A100491C002202EBC10000F02BF801285D
:1041500004D1204600F0FEF8288003E00F4830F834
:104160001400288016E000BFA100491C002202EBC9
:10417000C10000F017F800F00F00012802D06FF026
:10418000040048E700BF0648005D287002E06FF0B9
:10419000010040E700BF01203DE700003250002051
:1041A0002E01002070B50446E14988688047E04947
:1041B0000869804700BFDE48C169C4F307408847EB
:1041C000DB48C169C4F307208847E0B2D84AD16907
:1041D0008847D749886980470546D5494869804757
:1041E000D349C8688047284670BD70B504460D465F
:1041F000CF4988688047CE490869804744F0040465
:10420000CB48C169C4F307408847C948C169C4F3B2
:1042100007208847E0B2C64AD1698847C448C169C7
:1042200028468847C24948698047C149C8688047CD
:1042300070BD2DE9F04104460E4617460025BC49E5
:1042400088688047BA490869804700BFB848C16993
:10425000C4F307408847B648C169C4F307208847BC
:10426000E0B2B34AD169884700BF05E0B049886928
:1042700080477055681C85B2BD42F7DBAC49486980
:104280008047AB49C8688047BDE8F0812DE9F0411F
:1042900004460E4617460025A54988688047A4496C
:1042A0000869804744F00404A148C169C4F3074089
:1042B00088479F48C169C4F307208847E0B29C4AF9
:1042C000D169884700BF05E0705D994AD169884788
:1042D000681C85B2BD42F7DB95494869804794491F
:1042E000C8688047BDE8F08170B504460025002607
:1042F00000BFA100491C4FF4005202EBC100FFF7C0
:1043000051FF0646A100491C4FF4005202EBC101C7
:1043100001F58070FFF746FF00EB062086B2AEB1D4
:10432000A100491C4FF4005202EBC100FFF73AFF15
:104330000546A100491C4FF4005202EBC10101F5F2
:104340008070FFF72FFF00EB052085B2B542D0D17A
:10435000284670BD70B504460025002600BFA100A8
:10436000491C4FF4185202EBC100FFF71BFF064631
:10437000A100491C4FF4185202EBC10101F58070F5
:10438000FFF710FF00EB062086B2AEB1A100491C7A
:104390004FF4185202EBC100FFF704FF0546A100DD
:1043A000491C4FF4185202EBC10101F58070FFF770
:1043B000F9FE00EB052085B2B542D0D1284670BD8C
:1043C0002DE9F04704460F4616460025A8460EB9CB
:1043D000BDE8F087A100491C4FF4105202EBC10167
:1043E00001F58070FFF7DEFE8146A100491C4FF405
:1043F000105202EBC100FFF7D5FE09EB002085B299
:104400002902A000801C01EBC00832463946404614
:10441000FFF73CFFA81985B22912A200521C4FF4E5
:10442000105303EBC200FFF7E0FEA100491C4FF45C
:10443000105202EBC10101F58070E9B2FFF7D5FE21
:1044400000BFC5E72DE9F04704460F461646002594
:10445000A8460EB9BDE8F087A100491C4FF42052D0
:1044600002EBC10101F58070FFF79CFE8146A100BF
:10447000491C4FF4205202EBC100FFF793FE09EBF9
:10448000002085B22902A000C01C01EBC008324602
:1044900039464046FFF7CDFEA81985B22912A20081
:1044A000521C4FF4205303EBC200FFF79EFEA10005
:1044B000491C4FF4205202EBC10101F58070E9B2B2
:1044C000FFF793FE00BFC5E72DE9F04104460E4615
:1044D0000025A100491C4FF4205202EBC10101F557
:1044E0008070FFF75FFE0746A100491C4FF4205281
:1044F00002EBC100FFF756FE07EB002085B2A819BA
:1045000085B22912A200521C4FF4205303EBC200C3
:10451000FFF76BFEA100491C4FF4205202EBC101D2
:1045200001F58070E9B2FFF760FEBDE8F0810000A0
:10453000380100207047704770477047014608787F
:1045400070470170704700207047704700B141B953
:10455000AFF21F02F94B9A60AFF22503F74AD3601E
:1045600002E0F64A9060D160704700B141B9AFF205
:104570003702F24B1A61AFF23D03F04A536102E099
:10458000EE4A10615161704700BFEC4A128812F484
:10459000807FFAD000B141B9AFF25F02E74B9A6178
:1045A000AFF26103E54AD36102E0E44A9061D16170
:1045B000704700BFE14A128812F4007FFAD000B1C0
:1045C00041B9AFF27D02DD4B9A61AFF28103DB4A64
:1045D000D36102E0D94A9061D161704710B54FF4C0
:1045E0003850FFF7DFFD10F0010F01D0012400E08B
:1045F0000024204610BD10B500244FF43850FFF7BA
:10460000D1FD10F0300F01D0012400E0002420463D
:1046100010BD10B54FF43850FFF7C4FD044624F028
:10462000800421464FF43850FFF7DFFD4FF4385037
:10463000FFF7B8FD044644F0800421464FF438509B
:10464000FFF7D3FD10BD70B5054600244FF4385078
:10465000FFF7A8FD044614F0400F02D14FF0FF30E1
:1046600070BD24F03804012D02D144F0300401E083
:1046700044F0380421464FF43850FFF7B6FDFFF7F9
:10468000C8FF4FF43850FFF78DFD0446012D04D1CB
:1046900014F0300F06D00020E2E714F0380F01D0FC
:1046A0000020DDE74FF0FF30DAE770B50446002563
:1046B0004FF43850FFF776FD0546C5F380102070A3
:1046C00005F03800202802D0382803D100BF01208F
:1046D000607002E00020607000BF00BF05F038008D
:1046E000102805D0182802D0202804D100BF00BF10
:1046F0000120A07002E00020A07000BF00BF05F004
:104700003800082805D0182802D0202804D100BF7E
:1047100000BF0120E07002E00020E07000BF00BF99
:1047200070BD70B5054600242878012802D144F0F8
:10473000400401E024F040046878012802D144F0EC
:10474000380412E0E878012808D1A878012802D1BD
:1047500044F0180409E044F0080406E0A8780128B1
:1047600002D144F0100400E000BF21464FF438505D
:10477000FFF73BFDFFF74DFF70BD70B5002600242D
:1047800000254FF4B050FFF70DFD06464FF4C05022
:10479000FFF708FD0446254606EB052085B22846AE
:1047A00070BD70B50446E5B2261229464FF4B050EC
:1047B000FFF71BFD31464FF4C050FFF716FD70BDEB
:1047C00070B50026002400254FF4A850FFF7EAFC3E
:1047D00000F0F0064FF4B850FFF7E4FC044625461D
:1047E00006EB052085B2284670BD70B50446E5B2DB
:1047F000261205F0F0014FF4A850FFF7F6FC314601
:104800004FF4B850FFF7F1FC70BD00B585B006223B
:1048100069464FF41060FFF70CFD042204A99001D3
:10482000FFF707FD042203A94FF4A060FFF701FD85
:10483000042202A94FF47060FFF7FBFC80210020E6
:10484000FFF7D3FC0020FFF7ADFC062269464FF4CA
:104850001060FFF71BFD042204A99001FFF716FD6D
:10486000042203A94FF4A060FFF710FD042202A95F
:104870004FF47060FFF70AFD05B000BD2DE9F0416F
:1048800005460E460027FFF7C0FFF5B100BF002424
:1048900004E0285D384447B2601C44B2082CF8DBC1
:1048A000102F03DD4FF0FF30BDE8F08100240AE057
:1048B000295DA200521C4FF4F85303EBC200FFF72E
:1048C00094FC601C44B2082CF2DBEEB100270024FB
:1048D00004E0305D384447B2601C44B2082CF8DB79
:1048E000102F02DD4FF0FF30DEE700240AE0315DDB
:1048F000A200521C4FF4F05303EBC200FFF775FC0B
:10490000601C44B2082CF2DB0020CDE72DE9FC410D
:1049100006460C460025002000900190102E7BD208
:10492000DFE806F0080E1D19212529364355585C8D
:1049300060616570FFF769FF71E0000038010020D9
:104940001CB10094009808300190DDE90001FFF7E8
:1049500095FFBDE8FC812088FFF747FF5FE0FFF788
:104960002FFF20805BE02088FFF71BFF57E0FFF759
:1049700004FF208053E0208801124FF49850FFF785
:1049800034FC2088C1B24FF4A050FFF72EFC46E063
:104990004FF4A050FFF706FC07464FF49850FFF77E
:1049A00001FC07EB0020208039E0824880782070ED
:1049B0008048C07860707F480079A0707D48407959
:1049C000E0707C48807920710020607127E0FFF75B
:1049D00020FE24E02046FFF7A4FE20E02046FFF75B
:1049E00064FE1CE01BE02078FFF72DFEB1E7FFF727
:1049F00002FEC5B268B2401C02D1401EA9E70BE01E
:104A000025700CE0FFF7EAFDC5B268B2401C01D189
:104A1000401E9EE7257002E04FF0FF3099E700BF8F
:104A2000002096E770B504464FF4D850FFF7BAFB64
:104A300020704FF4D050FFF7B5FB05464FF4C85037
:104A4000FFF7B0FB05EB0020608070BD10B5044699
:104A500021784FF4D850FFF7C8FB608801124FF45B
:104A6000C850FFF7C2FB6088C1B24FF4D050FFF7C7
:104A7000BCFB10BD10B50020FFF794FB10BD70B556
:104A80000446002534F03A0001D0681E70BD0020B5
:104A9000FFF788FB0546254329460020FFF7A5FBC5
:104AA0000020F3E710B50446062221464FF41060BB
:104AB000FFF7BFFB042204F10E019001FFF7B9FBE1
:104AC000042204F10A014FF4A060FFF7B2FB0422B4
:104AD000A11D4FF47060FFF7ACFB37480078A0745D
:104AE00035484178E17481782175C1786175334822
:104AF0000078A07510BD10B50446062221464FF47B
:104B00001060FFF7C3FB042204F10E019001FFF7D0
:104B1000BDFB042204F10A014FF4A060FFF7B6FBCD
:104B20000422A11D4FF47060FFF7B0FBA07C224966
:104B30000870E07C4870207D8870607DC870A07D22
:104B40001E49087010BD70B505460C46062D1CD2D6
:104B5000DFE805F003070B0F13172046FFF7CBFF25
:104B600016E02046FFF79EFF12E02078FFF787FF50
:104B700070BDFFF77FFF20700AE02046FFF766FF59
:104B800006E02046FFF74EFF02E04FF0FF30EFE770
:104B900000BF0020ECE770B504464FF43850FFF733
:104BA00001FB0546C5F38000E070C5F34000A0702E
:104BB00070BD000038010020580100205C01002079
:104BC00010B50422F9494FF47060FFF75FFB04222F
:104BD000F7494FF4A060FFF759FB0422F549900113
:104BE000FFF754FB10BD10B580210020FFF7FDFA40
:104BF0000020FFF7D7FAFFF7E3FF0622EE494FF454
:104C00001060FFF743FB10BD10B580210020FFF7B7
:104C1000ECFA0020FFF7C6FA0622E7494FF41060CD
:104C2000FFF734FB10BD10B5AFF26B03E34C23600C
:104C3000AFF24D03E24C2360AFF23303E14C23604B
:104C400008B1DE4B186009B1DD4B19600AB1DD4BCC
:104C50001A6010BD7CB5062269464FF41060FFF75C
:104C6000E8FA0120D84909680870D74909684870EE
:104C70000620D549096888700020D3490968C870A2
:104C8000D1480068051DD1480068000E2870CF4843
:104C90000068000C6870CD480068000AA870CB4816
:104CA0000068E8700020C84909680881C6480068A3
:104CB00000F10A058020287000206870C249096848
:104CC00008730021C04800684173BF4800688173C1
:104CD000BD480068C1730020BB4909680874002101
:104CE000B94800684174B84800688174B6480068E3
:104CF000C1740020B449096808750021B2480068F1
:104D00004175B14800688175AF480068C1750020E1
:104D1000AD49096808760021AB4800684176AA4889
:104D200000688176A8480068C176A3480078A64943
:104D300009680877A0484178A348006841779E48F1
:104D40008178A148006881779B48C1789E480068B7
:104D5000C177994801799C48006880F820109648EE
:104D600041799948006880F82110062406E0002166
:104D7000954800681C300155601CC4B2102CF6DB4D
:104D8000002406E00021904800682C300155601C8A
:104D9000C4B2402CF6DB002406E000218A480068FB
:104DA0006C300155601CC4B2802CF6DB6320864950
:104DB000096881F8EC0082218348006880F8ED10D2
:104DC00053218148006880F8EE1063217E48006816
:104DD00080F8EF107CBD7CB50024FFF73BFF042476
:104DE00035222146641C78480068EC304254012288
:104DF0002146641C74480068EC3042542146641C0F
:104E000071480068EC3042543D222146641C6E48D3
:104E10000068EC30425407222146641C6A4800684E
:104E2000EC30425401222146641C67480068EC3093
:104E30004254614802782146641C63480068EC30A3
:104E400042545D4842782146641C5F480068EC305B
:104E50004254594882782146641C5B480068EC3013
:104E600042545548C2782146641C57480068EC30CB
:104E70004254514802792146641C53480068EC3082
:104E800042544D4842792146641C4F480068EC303A
:104E900042540C222146641C4B480068EC304254BA
:104EA00000222046611C8CB247490968EC310A5443
:104EB00000250AE04648425D2046611C8CB242490A
:104EC0000968EC310A54681C85B24148405D0028ED
:104ED000F0D13948C2782046611C8CB23A49096841
:104EE000EC310A54344802792046611C8CB23649B0
:104EF0000968EC310A54304842792046611C8CB272
:104F000031490968EC310A54E81CC1B2281D221A43
:104F10002D480068EC30815437222046611C8CB249
:104F200029490968EC310A5406222046611C8CB2DA
:104F300025490968EC310A5401222046611C8CB2D3
:104F400021490968EC310A5403222046611C8CB2C5
:104F50001D490968EC310A5406222046611C8CB2B6
:104F600019490968EC310A540F222046611C8CB2A1
:104F700015490968EC310A543A222046611C8CB26A
:104F800011490968EC310A543B222046611C8CB25D
:104F90000D490968EC310A54FF222046611C8CB28D
:104FA00009490968EC310A5425461AE064010020D9
:104FB0006C01002068010020A80100208C01002065
:104FC0009001002094010020A4010020A0010020F5
:104FD000840100200021FE480068EC304155681C27
:104FE00085B2B5F59C7FF5DBFF208DF804008DF8C8
:104FF00005008DF806008DF80700432001AB4FF443
:1050000009720090F2480168F2480078FEF784FCCB
:105010007CBD7CB50024FFF71DFEEF480078032817
:1050200003D0ED48007804282CD10020E849096815
:1050300088720021E6480068C172E8480078E449B7
:1050400009680873E5484178E14800684173E3481E
:105050008178DF4800688173E048C178DC480068E7
:10506000C173DF4800788DF80400DD4840788DF882
:105070000500DB4880788DF80600D948C0788DF8A7
:10508000070008E0FF208DF804008DF805008DF87A
:1050900006008DF80700042435222146641CCC4804
:1050A0000068EC30425401222146641CC848006864
:1050B000EC30425403222146641CC5480068EC30A1
:1050C00042543D222146641CC1480068EC304254E1
:1050D00007222146641CBE480068EC30425401227D
:1050E0002146641CBA480068EC304254BD4802783E
:1050F0002146641CB6480068EC304254B9484278F6
:105100002146641CB2480068EC304254B5488278AD
:105110002146641CAE480068EC304254B148C27865
:105120002146641CAA480068EC304254AD4802791C
:105130002146641CA6480068EC304254A9484279D4
:105140002146641CA2480068EC3042549DF80700D8
:10515000FF2867D132222046611C8CB29C49096825
:10516000EC310A5404222046611C8CB2984909682B
:10517000EC310A54994802782046611C8CB294495B
:105180000968EC310A54954842782046611C8CB27B
:105190008F490968EC310A54904882782046611C96
:1051A0008CB28B490968EC310A548C48C27820468D
:1051B000611C8CB286490968EC310A5436222046BB
:1051C000611C8CB282490968EC310A5404222046E1
:1051D000611C8CB27E490968EC310A54804802781F
:1051E0002046611C8CB27A490968EC310A547C482B
:1051F00042782046611C8CB275490968EC310A542A
:10520000774882782046611C8CB271490968EC317C
:105210000A547348C2782046611C8CB26C490968F4
:10522000EC310A540C222046611C8CB26849096892
:10523000EC310A5400222046611C8CB26449096892
:10524000EC310A54002509E06748425D2046611CA4
:105250008CB25F490968EC310A546D1C6248405DAC
:105260000028F1D15F48C2782046611C8CB25849B1
:105270000968EC310A545B4802792046611C8CB203
:1052800053490968EC310A54564842792046611C5A
:105290008CB24F490968EC310A54E81CC1B2281D90
:1052A000221A4B480068EC30815437222046611C9A
:1052B0008CB247490968EC310A5408222046611C27
:1052C0008CB243490968EC310A5401222046611C22
:1052D0008CB23F490968EC310A5403222046611C14
:1052E0008CB23B490968EC310A5406222046611C05
:1052F0008CB237490968EC310A540F222046611CF0
:105300008CB233490968EC310A543A222046611CB8
:105310008CB22F490968EC310A543B222046611CAB
:105320008CB22B490968EC310A541F222046611CBB
:105330008CB227490968EC310A5421222046611CAD
:105340008CB223490968EC310A54FF222046611CC3
:105350008CB21F490968EC310A54254605E000214A
:105360001B480068EC3041556D1CB5F59C7FF6DBA1
:10537000432001AB4FF409720090154801681548AD
:105380000078FEF7C9FA7CBD7CB50024FFF762FC0B
:10539000042400200E490968887200210C48006826
:1053A000C17235222146641C09480068EC30425421
:1053B00001222146641C06480068EC304254042255
:1053C0002146641C02480068EC3042543D220DE046
:1053D000A401002098010020740100206401002035
:1053E00099010020A8010020840100202146641CAE
:1053F000F7480068EC30425407222146641CF44808
:105400000068EC30425401222146641CF0480068D8
:10541000EC304254EF4802782146641CEC480068A6
:10542000EC304254EB4842782146641CE84800685E
:10543000EC304254E74882782146641CE448006816
:10544000EC304254E348C2782146641CE0480068CE
:10545000EC304254DF4802792146641CDC48006885
:10546000EC304254DB4842792146641CD84800683D
:10547000EC30425432222146641CD5480068EC309E
:10548000425404222046611C8CB2D1490968EC3197
:105490000A54D14802782046611C8CB2CC49096874
:1054A000EC310A54CC4842782046611C8CB2C84981
:1054B0000968EC310A54C84882782046611C8CB2D5
:1054C000C3490968EC310A54C348C2782046611CBC
:1054D0008CB2BF490968EC310A5436222046611C5F
:1054E0008CB2BB490968EC310A5404222046611C85
:1054F0008CB2B7490968EC310A54B84802782046A2
:10550000611C8CB2B2490968EC310A54B348427844
:105510002046611C8CB2AE490968EC310A54AF4890
:1055200082782046611C8CB2A9490968EC310A5482
:10553000AA48C2782046611C8CB2A5490968EC31A2
:105540000A54FF222046611C8CB2A1490968EC3143
:105550000A54254605E000219D480068EC3041557D
:105560006D1CB5F59C7FF6DBFF208DF804008DF8EF
:1055700005008DF806008DF80700432001AB4FF4BD
:10558000097200909248016895480078FEF7C4F9C6
:105590007CBD2DE9FF4192480078FEF7DBFE071E37
:1055A0000BDD01A802AB3A460090894801688C489F
:1055B0000078FEF79BFA87B203E0002004B0BDE854
:1055C000F081BDF80400432874D181480068007F51
:1055D00080490978884224D17D480068407F7D4910
:1055E000497888421DD17A480068807F7949897856
:1055F000884216D176480068C07F7649C9788842CB
:105600000FD17348006890F82000724909798842E8
:1056100007D16F48006890F821006E4949798842A7
:1056200001D00020CAE74FF0000869480468F03450
:10563000A7F1F000051989E0207833284ED007DC67
:1056400070B1012813D0032821D0062878D132E088
:10565000352807D0362861D0FF2871D12C4674E058
:10566000641C72E0641C641C14F8018B6DE0641C03
:10567000641C14F8010B5B49087014F8010B4870A6
:1056800014F8010B887014F8010BC8705DE0641CFD
:1056900014F8016B14F8010B5349087014F8010B4E
:1056A000487014F8010B887014F8010BC870301F93
:1056B00004444AE04DE0641C14F8016B14F8010B3B
:1056C0004A49087014F8010B487014F8010B8870EF
:1056D00014F8010BC870301F044436E0641C14F841
:1056E000016B14F8010B4249086014F8011B404893
:1056F000006801EB00203E49086014F8011B3C489B
:10570000006801EB00203A49086014F8011B384892
:10571000006801EB00203649086016E0641C14F8AC
:10572000016B14F8010B2D49087014F8010B487037
:1057300014F8010B887014F8010BC87005E0FFE73E
:10574000641C14F8016B344400BF00BFAC42FFF48A
:1057500073AF4FFA88F031E70020264908600A202D
:1057600025490860002025490870704710B50124BC
:10577000224890F90000022844DA1F4800681D49B9
:105780000968884258D21E4890F90000012804D0C8
:10579000022805D0042809D105E0FFF71CFB06E02C
:1057A000FFF737FC03E0FFF734FC00E000BF00BF69
:1057B000002010490860084600680A300E49086059
:1057C0000E480078401C40B20C49087034E00000DC
:1057D000A4010020A80100206401002099010020FC
:1057E000980100206C010020680100207001002059
:1057F000780100207C01002080010020750100203C
:1058000074010020D44890F90000012804D0022837
:1058100007D004280CD105E00020CF4908700024EF
:1058200007E000BFFFF7D7FA0120CB49087000E07E
:1058300000BF00BFFFF790FF204610BD38B54FF402
:10584000D850FEF7AFFC054603214FF4D850FEF7C1
:10585000CCFC41F28830C14B1122C1A10090C54857
:105860000078FEF759F8044629464FF4D850FEF761
:10587000BCFC14F10D0001D1012038BDFFF784FDFF
:10588000BD48046840F24C40FBF784F90020F4E77F
:1058900070B5B1480078062801D1052070BDB54922
:1058A00009788900491C4FF4407202EBC100FEF7F1
:1058B00079FC222806D0002344220221AD4800783A
:1058C000FDF7DEFC0125FFF764FEC4B2A24890F9A3
:1058D0000000052877D2DFE800F0030F2C4F770097
:1058E00000209E49087048708870C870FFF773FAEE
:1058F0000120994908709CE0022C16D19F4800684D
:10590000007C964908709D480068407C48709B4820
:105910000068807C887099480068C07CC870FFF778
:1059200078FB02208C49087002E0FFF71FFF054654
:105930007FE0052C14D1FFF781FF40B1904800684B
:105940008047FFF709FF03208349087013E0FFF742
:1059500003FF8C480068804700207F4908700AE0F8
:10596000062C05D1FFF7F8FE01207B49087002E004
:10597000FFF7FCFE05465CE0042583480068401CF8
:1059800020D07D48006880490968B0EB510F19D9D3
:105990000024724800787D4908707048407848704B
:1059A0006E48807888706D48C078C8707848006804
:1059B000401C77490860FFF72CFBFFF7CDFE042061
:1059C0006549087035E033E00425052C24D100201A
:1059D000704908706D48007860490978884211D193
:1059E0006A4840785D49497888420BD16748807899
:1059F0005A498978884205D16448C0785749C9789E
:105A0000884203D00325644800688047FFF7A4FE5E
:105A10000320514908700AE0062C05D1FFF79CFECF
:105A200001204D49087002E0FFF7A0FE054600E0A6
:105A300000BF00BF284631E710B54E480078FDF79B
:105A4000DFFB06204449087010BD38B504460D46FA
:105A500000200090062251494FF41060FEF7E9FB48
:105A60004E4800784D49497808434C4989780843A5
:105A70004A49C97808434949097908434749497956
:105A800008430ED14549087008204870DC20887012
:105A90000020C8700871487106224FF41060FEF7AC
:105AA000F5FB34480470354805603D4838490860C6
:105AB000042269464FF47060FEF7E8FB0422694651
:105AC0004FF47060FEF7E2FB042269469001FEF796
:105AD000DDFBFFF741FE00201F49087038BD264856
