:020000040800F2
:1000000058D300201102000881140008610C000878
:10001000CD0F0008050400085D2E00080000000058
:100020000000000000000000000000002D1F00087C
:10003000390600080000000019180008B52700085C
:100040002B0200082B0200082B0200080D1D0008DF
:100050002B0200082B0200082B0200082B020008CC
:100060002B0200082B0200082B0200082B020008BC
:100070002B0200082B0200082B0200082B020008AC
:100080002B0200082B0200082B0200082B0200089C
:100090002B0200082B0200082B0200082B0200088C
:1000A0002B0200082B0200082B0200082B0200087C
:1000B0002B0200082B0200082B0200082B0200086C
:1000C0002B0200082B0200082B0200082B0200085C
:1000D0002B020008ED2B00082B0200082B02000861
:1000E0002B0200082B0200082B0200082B0200083C
:1000F0002B0200082B0200082B0200082B0200082C
:100100002B0200082B0200082B0200082B0200081B
:100110002B0200082B0200082B0200082B0200080B
:100120002B0200082B0200082B0200082B020008FB
:1001300000F002F800F05CF80AA090E8000C82449D
:100140008344AAF10107DA4501D100F051F8AFF27A
:10015000090EBAE80F0013F0010F18BFFB1A43F0A5
:10016000010318475CA300007CA300000A444FF081
:10017000000C10F8013B13F0070408BF10F8014B06
:100180001D1108BF10F8015B641E05D010F8016B4B
:10019000641E01F8016BF9D113F0080F1EBF10F8AF
:1001A000014BAD1C0C1B09D16D1E58BF01F801CBD2
:1001B000FAD505E014F8016B01F8016B6D1EF9D555
:1001C0009142D6D37047000000230024002500266A
:1001D000103A28BF78C1FBD8520728BF30C148BFAA
:1001E0000B6070471FB509F0B1F81FBD10B510BD09
:1001F00000F08EF81146FFF7F5FF09F077F800F0F0
:10020000ACF803B4FFF7F2FF03BC00F0B1F8000054
:100210000948804709480047FEE7FEE7FEE7FEE79A
:10022000FEE7FEE7FEE7FEE7FEE7FEE704480549D6
:10023000054A064B704700007D2800083101000880
:100240005883002058D30020589300205893002052
:1002500010B5203AC0F00B80B1E81850203AA0E861
:100260001850B1E81850A0E81850BFF4F5AF5FEA95
:10027000027C24BFB1E81850A0E8185044BF18C948
:1002800018C0BDE810405FEA827C24BF51F8043BEF
:1002900040F8043B08BF7047D20728BF31F8023B43
:1002A00048BF11F8012B28BF20F8023B48BF00F8D7
:1002B000012B70474FF0000200B513469446964656
:1002C000203922BFA0E80C50A0E80C50B1F1200169
:1002D000BFF4F7AF090728BFA0E80C5048BF0CC017
:1002E0005DF804EB890028BF40F8042B08BF704775
:1002F00048BF20F8022B11F0804F18BF00F8012BE7
:10030000704770477047704700487047F882002078
:100310007546FFF7F9FFAE4605006946534620F0E3
:100320000700854618B020B5FFF780FFBDE82040E4
:100330004FF000064FF000074FF000084FF0000BA1
:1003400021F00701AC46ACE8C009ACE8C009ACE854
:10035000C009ACE8C0098D4670470446AFF3008081
:100360002046FFF74EFF000000487047FC82002047
:1003700001491820ABBEFEE72600020070470000CE
:1003800010B51D48007802280ED11C480068D8B965
:10039000052008F085FF19480068A8B90120164912
:1003A00008704FF4D05010BD1348007801280BD1CD
:1003B0001248006840B1052008F072FF0F4800683D
:1003C00010B102200C4908700D4800F07DFA00F4CD
:1003D000D850B0F5D85F0CD0052008F061FF084870
:1003E00000F072FA00F4D854B4F5D85F01D020467A
:1003F000D9E70020D7E700008C3F0020348122425B
:100400000014014000BFFEE7002000BF104909783A
:10041000C02910D10F4909784F290CD10D494978CD
:100420004B2908D100210B4A11705170084A1170F4
:10043000094A11700AE00146401C084A9142E5D37E
:100440000021034A1170044A117000BF00BF7047B9
:10045000503F0020523F0020513F002000350C004B
:10046000FFB583B01D46DDE90C6701F0B7FD18E06C
:100470000024FFF785FF0446B4F5D05F0DD101F0ED
:100480007DFCC82008F00CFF00202B46CDE9006061
:1004900003A807C800F0E0FE03E0B4F5C85F00D190
:1004A00000E0E5E700BF07B0F0BD000008B54FF47D
:1004B0009070ADF8000010208DF8030069460648E2
:1004C00000F079F92021044800F002FA4FF480711D
:1004D000014800F0FFF908BD000C014070B504466A
:1004E00025A002F0A5FCFFF78FFF0F2325A22821EE
:1004F000232002F08BFA054602F09AFCFFF784FFF6
:100500000B2322466421084602F080FA054602F0D9
:100510008FFCFFF779FF21A002F08AFCFFF774FF40
:1005200025A002F085FCFFF76FFF042329A2AE216E
:10053000642002F06BFA054602F07AFCFFF764FFD4
:1005400026A002F075FCFFF75FFF04232AA24FF4F8
:100550008471642002F05AFA054602F069FCFFF744
:1005600053FF27A002F064FCFFF74EFF2BA002F020
:100570005FFCFFF749FF70BD434C522830293B0D0B
:100580000A000000C7EBC8B7C8CFC4E3D1A1D4F1BB
:10059000B5C4B2D9D7F7D6B8C1EE0000424F58461D
:1005A000283232302C3231352C3236302C3235353F
:1005B0002C34293B0D0A0000424F58462831373071
:1005C0002C3137302C3231302C3231302C34293B25
:1005D0000D0A0000B7B5BBD800000000424F5846D6
:1005E000283237302C3137302C3331302C32313007
:1005F0002C34293B0D0A0000C8B7C8CF000000000A
:10060000424F5846283137302C3236302C32313078
:100610002C3330302C34293B0D0A0000424F584611
:10062000283237302C3236302C3331302C333030C6
:100630002C34293B0D0A0000704700000149C860B6
:10064000704700000020024030B5044604254FF4F6
:10065000302000F09DF80546042D17D10C480069A4
:1006600040F002000A49086108464461006940F010
:10067000400008614FF4302000F08AF80546044835
:10068000006941F6FD71084001490861284630BD06
:100690000020024004200C49C96801F00101012931
:1006A00001D101200EE00849C96811F0040F01D002
:1006B000022007E00449C96811F0100F01D003209F
:1006C00000E0042070470000002002400348006959
:1006D00040F080000149086170470000002002409E
:1006E0000549096821F01001034A116011460968A3
:1006F000014311607047000000200240F0B504463D
:100700000D4604260027F00200F042F80646042EAB
:1007100022D11248006940F001001049086125808B
:10072000F00200F035F80646042E0ED1A71C280C66
:100730003880F00200F02CF806460848006941F6BF
:10074000FE7108400549086106E00448006941F669
:10075000FE710840014908613046F0BD00200240AA
:1007600001460020034A106800F03800084310607A
:1007700070470000002002400248034948600348D7
:10078000486070472301674500200240AB89EFCDE8
:1007900000B502460423FFF77DFF034603E0FFF7A1
:1007A00079FF0346521E012B01D1002AF7D102B96D
:1007B0000523184600BD2DE9F0410246002500261C
:1007C000002000230024002791F803C00CF00F053F
:1007D00091F803C01CF0100F03D091F802C04CEA4E
:1007E0000505B1F800C01CF0FF0F31D014680020DF
:1007F0002BE04FF0010C0CFA00F3B1F800C00CEA4A
:1008000003069E4220D183004FF00F0C0CFA03F731
:10081000BC4305FA03FC4CEA040491F803C0BCF1A4
:10082000280F06D14FF0010C0CFA00FCC2F814C0DE
:100830000AE091F803C0BCF1480F05D14FF0010C5C
:100840000CFA00FCC2F810C0401C0828D1D3146078
:10085000B1F800C0BCF1FF0F34DD546800202EE079
:1008600000F1080C4FF0010808FA0CF3B1F800C0D1
:100870000CEA03069E4221D183004FF00F0C0CFAC4
:1008800003F7BC4305FA03FC4CEA040491F803C0E7
:10089000BCF1280F05D100F1080C08FA0CF8C2F8D9
:1008A000148091F803C0BCF1480F07D100F1080C87
:1008B0004FF0010808FA0CF8C2F81080401C082814
:1008C000CED35460BDE8F0810146886880B270479D
:1008D000416170470161704710B502460B464FF603
:1008E000FF7109E010784840C0B2064C34F810009F
:1008F00080EA21215B1E521C002BF3D1C84380B239
:1009000010BD00006C93000870B586B004460D461B
:10091000142101A8FFF7CEFC122240F2167101A8A3
:1009200008F04CFB042301AA2946204602F06EF889
:10093000064602F07DFAFFF767FD06B070BD0000C5
:1009400070B598B00546002408E00026334615AA85
:100950001349204601F0EBFA601CC4B2322CF4DBE0
:10096000002418E01E2200210DA808F0DEFC0DA9CD
:10097000204600F075FA0DF804001DF8040030B9A7
:100980009DF835001A2802D10020285501E00120E9
:100990002855601CC4B2322CE4DB18B070BD0000D6
:1009A000020D5FA02DE9F043ADF29C4D81460F464C
:1009B000142264490DF59160FFF74AFC34210DF2D1
:1009C0005440FFF777FCFF2640F23E3105A8FFF7C1
:1009D00071FC14225B4914316846FFF739FC002092
:1009E0008DF8540300251BE04FF000084346D5AABC
:1009F0005549284601F09BFA052002F08FF805EBD7
:100A000005116A4688181022002108F08EFC05EBBB
:100A100005106A468118284600F022FA681CC5B203
:100A2000322DE1DB002547E0002440E005EB051016
:100A300069460144601C085C302837DB05EB051073
:100A400069460144601C085C39282FDC0DF5916073
:100A5000015D05EB05106A460244601C105C814292
:100A600000DD26E00DF59160015D05EB05106A469D
:100A70000244601C105C814218DA05EB05106946DF
:100A80000144601C085C0DF5916108552E46002458
:100A900009E006EB061069460144601C085C0DF590
:100AA00091610855641C102CF3DB02E0641C082CD7
:100AB000BCDB00BF681CC5B2322DB5DBFF2E0DD0EC
:100AC000002409E006EB061069460144601C085C3E
:100AD0000DF591610855641C102CF3DB002519E01D
:100AE00000200DF25441485500240FE00DF59160AF
:100AF000015D05EB05106A460244601C105C8142F2
:100B000003D001200DF254414855641C102CEDDB3C
:100B1000681CC5B2322DE3DB10220DF59161484609
:100B200008F0EEFB10220DF59161084808F0E8FB93
:100B300032220DF25441384608F0E2FB0DF29C4D92
:100B4000BDE8F08388950008030D5FA0F04D0020FC
:100B500010B508A002F06CF9FFF756FC0F2308A2AD
:100B60008C21602001F052FF044602F061F9FFF78A
:100B70004BFC10BD434C522830293B0D0A000000AD
:100B8000D5FDD4DABBF1C8A1B0E6B1BED0C5CFA2C5
:100B90002E2E2E002DE9FF471E46DDF8308000F096
:100BA0003BF89DF807009DF8061000EB01259DF825
:100BB000020001069DF8030001EB00419DF80400CE
:100BC00001EB00219DF8050001EB0009B6FBF5F0F3
:100BD00005FB1067CDB1002415E0C7EB071202EB4F
:100BE000072202EB0901C4EB041202EB0422094BB9
:100BF000D01840F20F1208F0E1F9781C0746A8421D
:100C000000D30027641C4445E7DB002004B0BDE8A6
:100C1000F08700000A4E002030B5ADF5717D4FF42D
:100C20007072002101A808F0C9F9002411E0002524
:100C30000CE004EB440005EB800001A9085C0749C7
:100C4000294404EB440201F822006D1C0C2DF0DB5A
:100C5000641C502CEBDB0DF5717D30BD6040002035
:100C600000BFFEE70EB54720ADF800001020ADF83C
:100C700002000120ADF804000020ADF8060069462E
:100C80004FF0804001F070FE0121880701F05AFE0C
:100C90006FF0040001F07AFD074800680749B0FBD7
:100CA000F1F007490870084600784FF47A7148431C
:100CB000044908800EBD00001400002000127A00D4
:100CC000883F00208A3F00200146CA1701EB92723C
:100CD0009210B1EB820212D1642091FBF0F200FB82
:100CE000121050B94FF4C87091FBF0F200FB1210D3
:100CF00008B9012070470020FCE70120FAE7002036
:100D0000F8E7000000B587B0012144F2050000F0CB
:100D1000CDFD4FF40070ADF8180003208DF81A00D7
:100D200018208DF81B0006A92348FFF744FD4FF457
:100D30008060ADF8180004208DF81B0006A91E483D
:100D4000FFF739FD25208DF8040003208DF80500FC
:100D50008DF8060001208DF8070001A800F098FB2F
:100D60004FF4E13002900020ADF80C00ADF80E0019
:100D7000ADF81000ADF814000C20ADF8120002A977
:100D80000E4801F0DFFF012240F225510B4801F02F
:100D9000B4FF0121094801F06DFF4FF47A7001F0B2
:100DA000BDFE07A002F044F8FFF72EFB4FF4FA70E7
:100DB00001F0B4FE07B000BD00080140003801405A
:100DC0004449522831293B0D0A00000008B54FF470
:100DD0007F40ADF8000004208DF8030003208DF85B
:100DE000020069460348FFF7E6FC4FF47A7001F011
:100DF000A1FE08BD0018014008B54FF47F40ADF8D2
:100E0000000010208DF8030003208DF802006946D1
:100E10000348FFF7D0FC4FF47A7001F08BFE08BD59
:100E20000018014070B5044602200B4908600720F5
:100E300001F080FE0948006885B2280A207002206F
:100E40000549091D0860072001F074FE0348006889
:100E500085B2280A607070BD100C0140081801406E
:100E60002DE9F047C0B080460F464FF0FF0900243F
:100E70004FF480716846FFF71DFAA246FFF7A6FF00
:100E8000404601F021F9002500BF0DEB0500FFF7FA
:100E9000C9FFAD1C9DF80000801CA84203DD9DF831
:100EA0000000FF28F1D19DF8004021466846FFF779
:100EB00013FD0646601C1DF800001DF8041000EB31
:100EC00001201FFA80FA564508D13CB1A21C6946A0
:100ED000384608F015FA4FF0000903E040F6B83044
:100EE00001F028FE01F00AFCFFF786FF484640B0FB
:100EF000BDE8F08770B5044625786678104800682C
:100F0000C0B20F4908600846006840EA0520086042
:100F100002200C490860052001F00CFE084800681A
:100F2000C0B2074908600846006840EA0620086029
:100F300002200449091D0860052001F0FBFD70BD79
:100F40000C180140100C014008B50121542000F09C
:100F5000ADFC4FF47F40ADF8000010208DF8030089
:100F600003208DF8020069461448FFF724FC4FF473
:100F70007F401249143108600320ADF80000694633
:100F80000F48FFF718FC03200D49143108603F207B
:100F9000ADF8000069460B48FFF70DFC3F200949FA
:100FA000103108604020ADF8000069460648FFF7A0
:100FB00002FC40200449086108BD000000180140FF
:100FC000000C0140000801400010014000BFFEE796
:100FD0002DE9FF47C2B01D464EAF97E880030024BD
:100FE000A2467C4800687C4908603220009079481D
:100FF000036842A807C8FFF7CDFD00262BE00024B8
:101000004FF48072002102A808F08FF973497148EB
:10101000006808F093F902A9081904226F4908F042
:101020006FF9241D28128DF80C00E8B28DF80D0020
:1010300002A908190422694908F062F9A41C234690
:1010400002AA3946F0B200F072FF62480068401C04
:1010500060490860761C322ED1DB322200216048C4
:1010600008F063F95C4800685A4908605D49781ADD
:101070008F4273D030DC10F10E0F67D020DC10F1FE
:10108000150F4BD014DC10F1220F40D009DC10F109
:10109000B80F35D010F14D0F33D010F1230F76D1AA
:1010A00034E010F1170F37D010F1160FF7D134E0FC
:1010B000143006287CD2DFE800F0323B3C3D3E3F56
:1010C0000D300D2874D2DFE800F0424A50515253DF
:1010D00054555663646566004248C04338441A2834
:1010E00066D2DFE800F05A1D1E1F202A2B2C2D2E61
:1010F00035363D494A4B4C4D4E4F5B5C5D5E5F6003
:1011000000BF0321092007F081FF56E000BF012145
:10111000042007F07BFF50E000BF00BF00BF00BF0E
:1011200000BF00BF00BF0321092007F06FFF44E0AC
:1011300000BF00BF00BF00BF00BF00BF00BF00BFB7
:1011400000BF04210C2007F061FF36E000BF00BFA4
:1011500000BF03210A2007F059FF2EE01CE000BF6A
:1011600004210D2007F052FF27E000BF00BF00BFA1
:1011700000BF00BF00BF00BF00BF00BF00BF00BF77
:1011800000BF00BF0521102007F040FF15E00FE071
:1011900000BF00BF00BF00BF00BF00BF00BF00BF57
:1011A00000BF00BF00BF0221052007F02FFF04E0B1
:1011B0000121032007F02AFF00BF00BF0548006897
:1011C0003230044908600122500408F043F846B068
:1011D000BDE8F087803F002030000020280000207C
:1011E000903F0020FE000DA22DE9FF4383B01F4673
:1011F0000EAC94E8300300F0E3FE28E00026FFF791
:10120000BFF80646B6F5D05F1DD100F0D9FE00F05C
:10121000B5FDC82008F044F83B468DE8300103A82E
:1012200007C8FFF7D5FE00F0D9FE00F0A7FD0520A6
:1012300008F036F804F57F03CDE9005903A807C884
:1012400000F00AF803E0B6F5C85F00D100E0D5E78A
:1012500000BF07B0BDE8F0832DE9F043ADF2346D77
:101260001D46DDF85086DDF854464FF001098DF833
:1012700034808DF83590002607E002273B460DAA02
:101280002946F0B200F053FE761C322EF5DB7B4986
:10129000681A8D4272D030DC10F10E0F6FD020DC56
:1012A00010F1150F59D014DC10F1220F47D009DCD2
:1012B00010F1B80F35D010F14D0F33D010F1230FCE
:1012C00073D13BE010F1170F45D010F1160FF7D195
:1012D00042E01430062868D2DFE800F04052535450
:1012E00055560D300D28F6D2DFE800F0616F7C7D99
:1012F0007E7F80818295969798006048C0432844FD
:101300001A28E8D2DFE800F08C2B2C2D2E41424326
:10131000444554556275767778797A7B8D8E8F90B7
:10132000919200BF012C04D10021032007F06EFE32
:1013300003E00021032007F0FDFE8FE000BF012C39
:1013400004D10021012007F061FE03E0002101200B
:1013500007F0F0FE82E000BF00BF00BF00BF00BF8B
:1013600000BF00BF012C04D10021032007F04EFE76
:1013700003E00021032007F0DDFE6FE04FE015E001
:1013800000BF00BF00BF00BF00BF00BF00BF00BF65
:1013900000BF012C04D10021042007F037FE03E038
:1013A0000021042007F0C6FE58E04BE000BF00BF5C
:1013B00000BF012C04D10021032007F027FE03E029
:1013C0000021032007F0B6FE48E000BF012C04D145
:1013D0000021042007F01AFE03E00021042007F09A
:1013E000A9FE3BE000BF00BF00BF00BF00BF00BFC1
:1013F00000BF00BF00BF00BF00BF00BF00BF012C87
:1014000004D10021052007F001FE03E000210520A2
:1014100007F090FE22E000BF00BF00BF00BF00BF8A
:1014200000BF00BF00BF00BF00BF00BF012C04D140
:101430000021022007F0EAFD03E00021022007F06E
:1014400079FE0BE0012C04D10021012007F0DEFD24
:1014500003E00021012007F06DFE00BF00BF322233
:101460000021684607F061FF6846FFF769FA6846A1
:1014700000F06AFF0DF2346DBDE8F083FE000DA3AD
:10148000704710B500214FF0006000F03BF810BD30
:1014900070B5002100230F22C4780CB3164C2468C9
:1014A00004F4E064C4F5E064210AC1F10403CA4015
:1014B000447804FA03F184781440214309010F4C65
:1014C0000678A155047804F01F050124AC40057886
:1014D0006D114FF0E02606EB8505C5F8004109E0E7
:1014E000047804F01F050124AC40054D0678761100
:1014F00045F8264070BD00000CED00E000E400E07F
:1015000080E100E0024A0A400243024B1A60704741
:1015100080FFFF1F08ED00E010B5002400F098F9EF
:101520000446B4F5306F7BD0B4F5985F7BD0B4F54A
:10153000C85F3DD0B4F5D05F74D10120A6490870D2
:10154000A6480078C0EBC000A549096801EB8000FF
:101550008068A449884202D101F082FC27E09F48BC
:101560000078C0EBC0009E49096801EB80008068EC
:101570009C4988421BD0994800789B4908709B4839
:1015800000789B4908709B4800789B4908709348F5
:101590000078C0EBC0009249096801EB80008068C8
:1015A0008F49086000208D4908709049087058E004
:1015B0000120894908708A480068C06889498842C2
:1015C0002DD087480068C0688C4988420AD1844879
:1015D0000068C0688249086000208049087083491B
:1015E00008701CE07E480068C0688549884205D0C4
:1015F0007B480068C0688349884210D178480068F9
:10160000C06877490860784800787449087078485D
:10161000007876490870784800787649087020E0AC
:101620000FE000E01CE06D480078401E6B49087038
:1016300008460078FF2803D173480078401E0870E0
:101640000FE066480078401C64490870084600783E
:101650006D490978884202D100206049087000E095
:1016600000BF00BF5D48007850BB6048007838BBC1
:1016700066480078022806D15748007818B900203B
:101680006349087002E00120614908700020574951
:1016900008705348006800785B4908700846007875
:1016A000062190FBF1F018B106205249087003E0C2
:1016B000554800784F4908700120564908707EE06F
:1016C0004648007849490978884211DB4348007848
:1016D0004849097888420BDA00204D4908703F4894
:1016E000007842490978401A401C4A49087066E06F
:1016F0003A4800783D490978884231DA0120444966
:1017000008703648007806281CDC3448007818B980
:1017100001204049087003E0344800783D490870D2
:1017200000203249087038480078062190FBF1F01B
:1017300018B106202F49087041E0334800782D4940
:1017400008703CE029480078801F28490870084646
:101750000078801D2749087006202E4908702EE069
:101760001E48007823490978884228DB012028494F
:1017700008702548007819490978401A062811DAB6
:1017800016480078C01D20490978401A2149087080
:101790001D480078801F154908701B4800781549BE
:1017A00008700CE011480078801D10490870084648
:1017B0000078801D0F4908700120164908700648FE
:1017C0000078012801D11249087000F08FFC6420D4
:1017D00007F066FD10BD00007A3F0020663F002044
:1017E000603F0020444000207C3F0020643F0020F8
:1017F0007D3F0020653F00207E3F00203400002018
:10180000C00000204C010020783F00207B3F0020DA
:101810007F3F0020793F00207047000008B54FF45B
:10182000D850ADF8000004208DF803006946074841
:10183000FEF7C1FF4FF40050ADF8000048208DF8CE
:10184000030069460148FEF7B6FF08BD00140140D9
:1018500070B500BF0C48FFF737F800F4D8540F20DC
:1018600007F01EFD0848FFF72FF800F4D855B4F52F
:10187000D85FEFD0B5F5D85FECD0AC42EAD10F20FD
:1018800007F00EFD204670BD0014014029B1064A44
:10189000D2690243044BDA6104E0034AD26982430D
:1018A000014BDA61704700000010024029B1064A7E
:1018B00092690243044B9A6104E0034A92698243AD
:1018C000014B9A6170470000001002400F48006809
:1018D00040F001000D490860084640680C49084086
:1018E0000A494860084600680A49084007490860F4
:1018F0000846006820F4802008600846406820F40C
:10190000FE0048604FF41F008860704700100240DE
:101910000000FFF8FFFFF6FE30B500210022002492
:1019200000232D4D6D6805F00C0121B1042905D06F
:10193000082923D105E0294D056022E0274D0560E7
:101940001FE0254D6D6805F47012234D6D6805F498
:101950008034022505EB92421CB9214D55430560A8
:101960000BE01D4D6D6815F4003F03D01C4D554331
:10197000056002E0194D5543056002E0174D056012
:1019800000BF00BF144D6D6805F0F0010909154D49
:101990006B5C0568DD4045600F4D6D6805F4E061E6
:1019A000090A104D6B5C4568DD4085600A4D6D6825
:1019B00005F46051C90A0B4D6B5C4568DD40C5609C
:1019C000054D6D6805F44041890B074D6B5CC5689A
:1019D000B5FBF3F5056130BD0010024000127A003E
:1019E00000093D00000000201000002010B5014655
:1019F0000022002300204A11012A02D1094C236849
:101A000006E0022A02D1074C236A01E0054C636A12
:101A100001F01F02012494401C4201D0012000E08B
:101A2000002010BD001002400248406800F00C0089
:101A3000704700000010024001460020034A506831
:101A400020F0F00008435060704700000010024092
:101A50001149096821F480310F4A11601146096863
:101A600021F480211160B0F5803F03D0B0F5802FC4
:101A70000ED106E00849096841F48031064A116038
:101A800007E00549096841F4A021034A116000E01C
:101A900000BF00BF70470000001002400149C8713C
:101AA000704700000010024001460020034A5068C1
:101AB00020F4E060084350607047000000100240CE
:101AC00001460020034A506820F4605040EAC100FB
:101AD00050607047001002400149086670470000DE
:101AE0000000424202460020044B586820F47C105B
:101AF00042EA01031843014B58607047001002404E
:101B000001460020034A506820F00300084350605B
:101B1000704700000010024070B500240025002628
:101B200000BF3120FFF762FF0646641CB4F5A06FCA
:101B300001D0002EF5D03120FFF758FF08B1012564
:101B400000E00025284670BD03490988C24392B2CF
:101B50001140014A11807047042800402DE9F047E8
:101B60004FF000090024A046002500F077F88146D8
:101B70003648B9FBF0F436480088A04237D03449E3
:101B80000C8040F2B27810E04046FFF79DF830B18B
:101B9000B4F5B77F02D3A4F5B77402E008E0A4F26D
:101BA0006D1408F101001FFA80F8B4F5B67FEBD888
:101BB00000BF2848A0F80480012527480678A7B26E
:101BC0000FE0B81B87B2681C85B2681E22490E5C04
:101BD000022D06D11F498888FFF776F808B1701CDE
:101BE00086B2B742EDDA1B498D71781CC87117486F
:101BF000B9FBF0F100FB11944FF46160B4FBF0F01D
:101C0000144908704FF46160B4FBF0F100FB11401F
:101C10003C21B0FBF1F00F4948704FF46160B4FB18
:101C2000F0F100FB11403C21B0FBF1F201FB12008E
:101C3000084988700B46DA799979988800F02AF873
:101C4000044908720020BDE8F087000080510100BF
:101C5000863F0020004E0020BC950008002103486C
:101C60000188001F008841EA004070471C2800409E
:101C700001460020064A12880A40D0B2044A121FC8
:101C800012880A4202D008B1012000E0002070470B
:101C900004280040F0B503460C461546642093FB2B
:101CA000F0F0C6B2642093FBF0F700FB1730C1B22E
:101CB000132E02DD01F16400C1B20846CF1701EB1B
:101CC000977701EBA702072092FBF0F700FB1720A4
:101CD00082B25719601EDFF830C01CF8000038448B
:101CE00082B2CF1701EB9777BF10B1EB870703D113
:101CF000032C01DA501E82B2072092FBF0F700FBA2
:101D00001720C0B2F0BD0000B095000810B501204A
:101D1000FFF7AEFF08B1FFF721FF0220FFF7A8FF92
:101D200020B10220FFF710FFFFF718FF0520FFF793
:101D30000BFF00F001F810BD00BF0348008810F051
:101D4000200FFAD0704700000428004008B5094869
:101D5000006800904FF400300068401C04D101225C
:101D60006946500407F076FA4FF4003000680249E3
:101D7000086008BD70950008803F002010B5012064
:101D80000A490860142000F0D5FE01200749091F08
:101D9000086000F0B3FC502000F0C0FE01200349B1
:101DA0000860C82000F0BAFE10BD0000140C01400D
:101DB00000B587B001210820FFF778FD01218803D5
:101DC000FFF764FD4FF46040ADF8180018208DF85F
:101DD0001B0003208DF81A0006A91748FEF7EBFC3C
:101DE0004FF460411448FEF775FD0020ADF8040083
:101DF0004FF48270ADF806000020ADF80800022014
:101E0000ADF80A000120ADF80C004002ADF80E005C
:101E10003820ADF810000020ADF812000720ADF812
:101E2000140001A9054800F063F80121034800F0FF
:101E300045F807B000BD0000000C0140003800402C
:101E400070B50546002405E0601CC4B2C82C01DD55
:101E5000002070BD02210E4800F03CF80028F3D0AD
:101E600029460B4800F042F8002405E0601CC4B28B
:101E7000C82C01DD0020ECE70121054800F02AF81C
:101E80000028F3D0024800F02EF8C0B2E1E70000CD
:101E90000038004010B50446074800884FF6C77167
:101EA0000840054908800846008820430880012131
:101EB000014800F003F810BD0038004021B102884D
:101EC00042F04002028004E002884FF6BF731A40DD
:101ED000028070470246002013890B4201D0012086
:101EE00000E0002070470146888970478181704773
:101EF00010B50022028802F441520B884C8823431B
:101F00008C882343CC8823430C8923434C89234367
:101F10008C892343CC8923431A430280838B4FF25D
:101F2000FF74234083830B8A038210BD70472DE921
:101F3000F043C5B081460E4690461C464FF4887269
:101F4000002101A807F0F1F9300E8DF80400300CE3
:101F50008DF80500300A8DF80600F0B28DF8070004
:101F6000A01D84B2200A8DF80800E0B28DF80900A7
:101F7000002505E018F8051001AAA81D11546D1CD4
:101F8000A542F7DB214601A8FEF7A6FC0746380A62
:101F900001A9085501AA601C1754A01C84B2484628
:101FA00000F092F8002504E001A94819FEF7A2FF0D
:101FB000AD1CA542F8DB00F0A1FB45B0BDE8F08305
:101FC00010B520210448FEF783FC4FF480710248CD
:101FD000FEF780FC10BD0000000C014010B54FF46E
:101FE00080710448FEF774FC20210248FEF772FC61
:101FF00010BD0000000C014010B500F001F810BD4C
:10200000002100202E4A126842F480322C4B1A60C4
:1020100000BF2B4A126802F40030491C10B9B1F518
:10202000A06FF6D1264A126812F4003F01D00120B9
:1020300000E00020012842D1224A126842F010023A
:10204000204B1A601A46126822F003021A601A46E0
:10205000126842F002021A60194A5268184B5A601C
:102060001A4652685A601A46526842F480625A60B0
:102070001A46526822F47C125A601A46526842F498
:10208000E8125A601A46126842F080721A6000BF65
:102090000B4A126812F0007FFAD0094A526822F007
:1020A0000302074B5A601A46526842F002025A6015
:1020B00000BF034A526802F00C02082AF9D17047A7
:1020C000001002400020024070B504460648006837
:1020D0004FF6C071214300EA0105034805604FF443
:1020E000FA6000F027FD70BD0C0801402DE9F047B3
:1020F00000276648006800786549087065480078E0
:10210000654908706548007800284DD064A000F04B
:102110008FFEFEF779F95D480068C0686349884220
:1021200005D163A000F084FEFEF76EF910E0574879
:102130000068C0686949884205D169A000F078FE4E
:10214000FEF762F904E071A000F072FEFEF75CF9A0
:1021500000275048067822E0781C774909788842A1
:1021600002D14FF0060801E04FF00408C6EBC600AC
:10217000464B1B6803EB8000426807EBC700552302
:1021800003EB80014346412000F040FC814600F013
:102190004FFEFEF739F9781CC7B2701CC6B267480B
:1021A00000788642D8DB67E065480078401EC4B2FC
:1021B000384800782044C0EBC000344B1B6803EB68
:1021C0008000426804EBC400552303EB8001002328
:1021D000412000F01BFC814600F02AFEFEF714F9B6
:1021E0002C4800782044C0EBC000284B1B6803EB50
:1021F0008000426804EBC400552303EB80010423F4
:10220000412000F003FC814600F012FEFEF7FCF8CE
:1022100049480078401EC5B21E4800782844C0EBEB
:10222000C0001A4B1B6803EB8000426805EBC50039
:10223000552303EB80010023412000F0E7FB81469A
:1022400000F0F6FDFEF7E0F8124800782844C0EBF5
:10225000C0000E4B1B6803EB8000426805EBC50015
:10226000552303EB80010623412000F0CFFB81467C
:1022700000F0DEFDFEF7C8F80020324908702E4855
:1022800000782F490870BDE8F0870000603F00200B
:10229000783F0020643F0020673F00207F3F002000
:1022A000434C522830293B0D0A000000C00000209A
:1022B000444333322833352C34302C27C7EBD1A19B
:1022C000D4F1D0E8D2AAC9D5C2BCB5C4D0CDBAC564
:1022D000272C3135293B0D0A000000004C0100205D
:1022E000444333322833352C34302C27C7EBD1A16B
:1022F000D4F1D0E8D2AABCECB2E2B5C4D0CDBAC514
:10230000272C3135293B0D0A0000000044433332AD
:102310002833352C34302C27C7EBD1A1D4F1D0E8A9
:10232000D2AAD6B4D0D0B5C4C3FCC1EE272C313567
:10233000293B0D0A00000000793F0020653F002086
:102340007B3F00207A3F00202DE9F04F93B00646F6
:1023500000244FF06E094FF0230AA0464FF00A0BFD
:1023600000251E2012902D20119001200E90022099
:102370000D900F200C900027242256A102A8FDF7F3
:1023800067FF5DA000F054FDFEF73EF85D48007861
:10239000C0EBC0005C49096801EB800005231421F3
:1023A00042685A2000F032FB019000F041FDFEF738
:1023B0002BF800BF20E000208DF8410004F131002F
:1023C000C0B28DF84000092C05D131208DF84000B5
:1023D00030208DF84100C4EB041101EB41011E31A6
:1023E00088B210AA46210C9B00F010FB019000F06F
:1023F0001FFDFEF709F8641C0A2CDCDB0024A04654
:1024000040E03AE000208DF82D0005F13100C0B227
:102410008DF82C00092D05D131208DF82C003020AD
:102420008DF82D00305D012804D10E980F90781C96
:10243000C7B201E00D980F9005FB0A9291B2DDE959
:10244000113208FB032290B20BAA0F9B00F0DEFAB8
:10245000019000F0EDFCFDF7D7FF305D40103055E6
:10246000641C322C00DD0AE0042D01D1002506E0B9
:10247000092D01D1002502E06D1C052DC2DB00BF36
:1024800008F10108D845BCDB67B917231FA24FF438
:102490008C71B02000F0BAFA019000F0C9FCFDF791
:1024A000B3FF14E00A2097FBF0F03030C0B28DF893
:1024B0001A000A2097FBF0F100FB11703030C0B217
:1024C0008DF81B0002A800F0B3FCFDF79DFF13B0D0
:1024D000BDE8F08F44433332283134342C32383065
:1024E0002C27B4E6D4DA2020B8F6B4EDCEF3272CAE
:1024F00031293B0D0A000000434C522830293B0D86
:102500000A000000663F0020603F0020C8ABB2BF59
:10251000CDA8B9FD0000000010B500F081F805E07D
:102520000024FFF795F9044604B100E0F8E700BF86
:1025300005E00024FFF78CF9044604B100E0F8E759
:1025400000BF00F0CBF910BD2DE9FF4F87B01E464C
:1025500000274FF487784FF01E0900254FF0050A39
:1025600000244FF03C0B282006900120049002200C
:102570000390002002900190042307A807C800F0F0
:1025800045FA009000F054FCFDF73EFF42E005F1F3
:102590004100C0B2029009FB158081B20F2302AA4C
:1025A000142000F033FA009000F042FCFDF72CFFFD
:1025B0002CE000208DF8050004F13100C0B28DF848
:1025C0000400092C05D131208DF8040030208DF84D
:1025D0000500F05D10B10498059001E003980590A6
:1025E0007F1C09FB158291B2069A04FB02B290B2DD
:1025F00001AA059B00F00AFA009000F019FCFDF713
:1026000003FF092C01D1002402E0641C0A2CD0DB5A
:1026100000BF6D1C5545BADB0BB0BDE8F08F000064
:1026200010B592B0FFF7AAFB01A90EA8FEF7BAF900
:1026300023A000F0FDFBFDF7E7FE0F2323A20A21F4
:10264000642000F0E3F9044600F0F2FBFDF7DCFE45
:102650000F2323A23221192000F0D8F9044600F0FC
:10266000E7FBFDF7D1FE3221AA20FEF74DF90F233B
:102670001DA25021162000F0C9F9044600F0D8FB35
:10268000FDF7C2FE04231A4A5021AA2000F0BEF929
:10269000044600F0CDFBFDF7B7FE0F2315A26E2117
:1026A000162000F0B3F9044600F0C2FBFDF7ACFEC3
:1026B00001AB0EAA6E21AA20FFF746FF12B010BD93
:1026C000434C522830293B0D0A000000B8F7C4A340
:1026D000BFE9C8EDBCFEB0E6B1BED0C5CFA20000D8
:1026E000466C617368203A00D6F7B0E520203A00C6
:1026F0005A930008B9A6C4DCB0E53A0010B5074803
:10270000006880B240F03F04044800682043034959
:1027100008604FF47A7000F00DFA10BD0C0801400B
:1027200008B501212020FFF7C1F82020ADF80000F6
:1027300010208DF8030003208DF80200694602483E
:10274000FEF739F808BD00000014014010B508A0DC
:1027500000F06EFBFDF758FE0F2308A28C217020BD
:1027600000F054F9044600F063FBFDF74DFE10BD88
:10277000434C522830293B0D0A000000CFB5CDB3A1
:10278000D5FDD4DAC6F4B6AF2E2E2E00042808D11B
:102790004FF0E021096941F004014FF0E02211619E
:1027A00007E04FF0E021096921F004014FF0E02239
:1027B000116170477047000010B5FFF787F84FF4BC
:1027C0008030FFF745F9FFF7A7F91C490870084664
:1027D0000078012829D11020FDF782FF0220FDF7A3
:1027E000BFFF0020FFF728F90020FFF769F94FF439
:1027F0008060FFF759F94FF4E0114FF48030FFF794
:1028000071F90120FFF768F90420FFF747F900BFCD
:102810003920FFF7EBF80028FAD00220FFF770F913
:1028200000BFFFF701F90828FBD101217C20FFF749
:102830003DF801210248FFF729F810BD8D3F002027
:102840000100600010B5FFF7B7FFFEF70BFAFEF7C7
:1028500018FEFEF7E3FFFEF777FB06F089FBFEF7B5
:1028600051FAFFF75DFFFDF721FE10BD10B5FFF730
:102870006DFAFEF7D1F9FFF769FF10BD10B51348E7
:10288000006840F00100114908600846406810499E
:1028900008400E494860084600680E4908400B4948
:1028A00008600846006820F48020086008464068F8
:1028B00020F4FE0048604FF41F008860FFF79CFB87
:1028C0004FF000600449086010BD00000010024095
:1028D0000000FFF8FFFFF6FE08ED00E010B511481C
:1028E00011490860002011490870114908700E480C
:1028F000006800780F49087008460078062190FBB0
:10290000F1F018B106200C49087003E0094800787E
:102910000949087001200949087009490870FFF742
:10292000E5FB10BD34000020603F0020663F002022
:10293000643F0020783F0020653F00207F3F00205B
:10294000793F002021B1028842F00102028004E0B8
:1029500002884FF6FE731A40028070470146888C49
:102960007047818470470000002202881D4B984206
:102970000ED01D4B98420BD0B0F1804F08D01B4BAE
:10298000984205D01A4B984202D01A4B984204D173
:102990004FF68F731A404B881A43174B984207D053
:1029A000164B984204D04FF6FF431A40CB881A4387
:1029B00002808B8883850B8803850A4B98420BD055
:1029C000094B984208D00E4B984205D00D4B9842C7
:1029D00002D00D4B984201D10B7A038601238382EA
:1029E00070470000002C014000340140000400400A
:1029F00000080040000C004000100040001400409F
:102A00000040014000440140004801402DE9FE4FD4
:102A100005460E461746984600243CA103C9CDE959
:102A200001013CA0006800900023052201A93A485A
:102A300006F070FCA946642099FBF0F0303036496E
:102A40004871642099FBF0F100FB11900A2190FB82
:102A5000F1F03030304988710A2099FBF0F100FB29
:102A6000119030302C49C8712C200872B246642075
:102A70009AFBF0F03030487264209AFBF0F100FBD2
:102A800011A00A2190FBF1F03030234988720A200E
:102A90009AFBF0F100FB11A030301F49C8722C20C6
:102AA00008732720487305E0395D1B4A04F10E00C6
:102AB0001154641C385D0028F6D12721164A04F110
:102AC0000E0011542C21401C11540A2098FBF0F0E8
:102AD0003030C1B204F1100011540A2098FBF0F11B
:102AE00000FB11803030C1B204F111001154431CBD
:102AF00004226946084806F00DFC0021064A04F14C
:102B0000160011541046BDE8FE8F000044433332D6
:102B100028000000293B0D0A8C4D002070B50446AA
:102B2000002504E04FF47A7000F004F86D1CA54213
:102B3000F8D370BD10B5044621464FF08040FFF732
:102B400010FF00BF4FF08040FFF708FF0028F9D1C9
:102B500010BD000010B5234A1168234AB1FBF2F200
:102B6000303202701F4A12681F4BB2FBF3F403FBB2
:102B7000142142F21072B1FBF2F230324270194A63
:102B8000126842F21073B2FBF3F403FB14214FF40A
:102B90007A72B1FBF2F230328270124A12684FF44C
:102BA0007A73B2FBF3F403FB14216422B1FBF2F25B
:102BB0003032C2700B4A12686423B2FBF3F403FB99
:102BC00014210A22B1FBF2F230320271054A126876
:102BD0000A23B2FBF3F403FB142101F1300242712A
:102BE00010BD0000803F0020A086010010B5012428
:102BF00040F225511B4800F056F8F8B1194800F092
:102C00000DF9C4B218480078C02829D016480078B9
:102C100010F0400F13D00A2C0BD11348007840F06D
:102C200080001149087000201049114A1278885418
:102C300016E000200C4908700D49087010E00D2CBA
:102C400008D00B4801780078401C094A10700748EA
:102C5000445405E00448007840F040000249087000
:102C600010BD000000380140503F0020523F0020BE
:102C7000513F002021B1828942F40052828104E058
:102C800082894DF6FF731A40828170470246002008
:102C9000B1F5007F00D100BF13880B4201D00120A5
:102CA00000E00020704770B5024600240023002594
:102CB0000020A1F510666A3E00D100BFC1F34215A5
:102CC00001F01F03012606FA03F3012D02D19689B4
:102CD000334006E0022D02D1168A334001E0968A85
:102CE00033400C12012606FA04F41688344013B15E
:102CF0000CB1012000E0002070BDF0B503460024B7
:102D0000002600250020A1F510676A3F00D100BF12
:102D10001846C1F3421401F01F06012707FA06F511
:102D2000012C01D10C3004E0022C01D1103000E064
:102D300014301AB107682F43076002E00768AF43F9
:102D40000760F0BD2DE9F04786B005460E46002429
:102D5000A24600BFA1460027B08900B100BF2F46A0
:102D60002C8A4CF6FF700440F08804432C82AC8916
:102D70004EF6F3100440B088318908437189084346
:102D80000443AC81AC8A4FF6FF400440B089044351
:102D9000AC8201A8FEF7C0FD1F48874202D1DDF8D2
:102DA00010A001E0DDF80CA0A88910F4004F08D0B5
:102DB0000AEBCA0000EB0A1031684900B0FBF1F8D9
:102DC00007E00AEBCA0000EB0A1031688900B0FB8B
:102DD000F1F86420B8FBF0F004012009642101FB44
:102DE0001089A88910F4004F08D0322000EBC900E8
:102DF000B0FBF1F000F00700044308E0322000EBE4
:102E000009106421B0FBF1F000F00F0004432C81A5
:102E100006B0BDE8F0870000003801400146888810
:102E2000C0F308007047C1F30802828070470000B9
:102E300010B504460FE0207860B121780648FFF70E
:102E4000F2FF00BF80210448FFF720FF0028F9D0DF
:102E5000641C00E010BDEEE70038014000BFFEE753
:102E600000B589B0B3480078C0EBC000B24909682A
:102E700001EB800040680790FDF730FB06F064B876
:102E800000200890FDF77CFA08900898B0F5D05F14
:102E900046F03580A7480078C0EBC000A649096815
:102EA00001EB8000008BA0F50070323804D1FDF7F3
:102EB0004FFEFFF7B5FB00BF00BF9E480078C0EB98
:102EC000C0009D49096801EB8000008B40F2191297
:102ED000811A904203F09D8407DC8C2802F07D80EB
:102EE00004DC8C2886F00A8001E045E21CE18100C8
:102EF000794449688F440000100900003A09000035
:102F0000640900008E090000B8090000E209000011
:102F10000C0A0000360A0000600A00008A0A00005D
:102F2000B40A0000E00A00000C0B0000380B00009F
:102F3000640B0000900B0000BC0B0000E80B0000CD
:102F4000140C0000400C00006C0C0000980C0000F9
:102F5000C80C0000000D0000280D0000520D0000FC
:102F60007C0D0000A60D0000D00D0000FA0D000041
:102F7000240E00004E0E0000780E0000A40E00008B
:102F8000D00E0000FC0E0000280F0000540F0000BF
:102F9000800F0000AC0F0000D80F000004100000EC
:102FA000301000005E10000088100000B210000019
:102FB000DC100000141100003C110000661100003C
:102FC00090110000BA110000E41100000E12000080
:102FD0003C1200006812000094120000C0120000B1
:102FE000EC120000181300004413000070130000DE
:102FF0009C130000C8130000F41300001E1400000E
:1030000048140000721400009C140000C614000054
:10301000F014000028150000501500007A1500007B
:10302000A4150000D0150000FC15000028160000B3
:103030005416000080160000AC160000D8160000E0
:1030400004170000301700005C170000881700000C
:10305000B8170000E21700000C1800003618000036
:10306000601800008A180000B4180000DE18000084
:1030700008190000401900006819000094190000A8
:10308000C0190000EC190000181A0000441A0000D2
:10309000701A00009C1A0000C81A0000F41A000000
:1030A000201B00004E1B0000781B0000A21B00002C
:1030B000CC1B0000F61B0000201C00004A1C000076
:1030C000741C00009E1C0000C81C0000F21C0000C4
:1030D000201D00005A1D0000821D0000AC1D0000D4
:1030E000D61D0000001E00002A1E0000541E000015
:1030F0007E1E0000A81E0000D21E0000FE1E000062
:103100002A1F0000561F0000821F0000AE1F000093
:10311000DA1F000006200000322000005E200000C0
:103120008A200000B82000008D388C2885F0E686C3
:1031300004E00000663F0020603F0020810000BFE7
:10314000794449688F440000BC1E0000E61E000060
:103150001E1F0000461F0000701F00009A1F000085
:10316000C41F0000EE1F00001820000046200000D1
:10317000722000009E200000CA200000F6200000FF
:10318000222100004E2100007A210000A62100002B
:10319000D2210000FE21000028220000522200005F
:1031A0007C220000A6220000D0220000FA220000AB
:1031B000322300005A23000084230000AE230000C5
:1031C000DA23000006240000322400005E24000000
:1031D0008A240000B6240000E22400000E2500002E
:1031E0003A2500006625000092250000C225000057
:1031F000EC25000016260000402600006A2600008C
:1032000094260000BE260000E826000020270000CB
:1032100048270000722700009E270000CA270000F0
:10322000F6270000222800004E2800007A2800001F
:10323000A6280000D2280000FE2800002A2900004D
:103240005829000082290000AC290000D62900007E
:10325000002A00002A2A0000542A00007E2A0000CA
:10326000A82A0000D22A0000FC2A0000382B000007
:10327000602B00008A2B0000B42B0000DE2B000026
:10328000082C0000322C00005C2C0000862C000072
:10329000B02C0000DA2C0000062D0000322D0000BA
:1032A0005E2D00008A2D0000B62D0000E22D0000EA
:1032B0000E2E00003A2E0000662E0000922E000016
:1032C000C02E0000EA2E0000142F00004C2F00003A
:1032D000742F00009E2F0000C82F0000F22F000066
:1032E0001C30000046300000703000009E300000AE
:1032F000CA300000F6300000223100004E310000DC
:103300007A310000A6310000D2310000FE31000009
:103310002A3200005632000082320000AE32000035
:10332000DA32000006330000403300006A33000048
:1033300096330000C2330000EE3300001A34000060
:103340004834000076340000A4340000D234000079
:10335000003500002E3500005C3500008A35000085
:10336000B8350000E635000014360000463600008F
:10337000723600009E3600008D2904F00E8403DCB6
:103380008D2985F0BB8500E01EE188007844406807
:1033900087440000685B00009E340000C0340000D9
:1033A000F8340000183500003A3500005C350000A4
:1033B0007E350000A0350000C2350000E435000075
:1033C000083600002C36000050360000743600002D
:1033D00098360000BC360000E036000004370000DC
:1033E000283700004C370000703700009837000085
:1033F000BA370000DC370000FE370000203800003C
:10340000423800006438000086380000A838000008
:10341000CA380000F8380000183900003A390000B6
:103420005C3900007E390000A0390000C23900007C
:10343000E4390000063A0000283A00004A3A000049
:103440006E3A0000923A0000B63A0000DA3A000004
:10345000FE3A0000223B0000463B00006A3B0000B1
:103460008E3B0000B23B0000D63B0000FE3B00005C
:10347000203C0000423C0000643C0000863C000010
:10348000A83C0000CA3C0000F83C0000183D0000C9
:103490003A3D00005C3D0000803D0000A43D00007E
:1034A000C83D0000EC3D0000103E0000343E00002E
:1034B000583E00007C3E0000A03E0000C43E0000DC
:1034C000EA3E00000C3F00002E3F0000503F00008D
:1034D000723F0000943F0000B63F0000D83F00005C
:1034E000FA3F00001C4000003E4000006440000025
:1034F00088400000AC400000D040000000410000C7
:10350000204100004241000064410000864100006B
:10351000A8410000CA410000EE4100001242000034
:10352000364200005A4200007E420000A2420000E3
:10353000C6420000EA4200000E4300003243000091
:10354000584300007A4300009C430000BE43000043
:10355000E043000002440000244400004644000010
:10356000684400008A440000AC440000D2440000DB
:103570000445000024450000464500006845000061
:103580008A450000AC450000CE450000F045000033
:103590001246000034460000584600007C460000F9
:1035A000A0460000C4460000E84600000C470000AA
:1035B0003047000054470000784700009C47000057
:1035C000C2470000E44700008E398B2985F09684BD
:1035D000880000BF7844406887440000E045000050
:1035E00002460000244600004646000068460000EF
:1035F0008A460000B8460000D8460000FE4600009B
:1036000022470000464700006A4700008E4700003E
:10361000B2470000D6470000FA4700001E480000ED
:10362000424800006648000088480000AA480000A0
:10363000CC480000EE48000010490000324900006C
:10364000544900007649000098490000BA4900003A
:10365000DE490000024A0000264A00004A4A0000F3
:103660006E4A0000924A0000C44A0000E44A00008A
:10367000064B0000284B00004A4B0000704B000036
:10368000944B0000B84B0000DC4B0000004C0000E5
:10369000244C0000484C00006C4C0000904C000092
:1036A000B44C0000D84C0000FA4C00001C4D000047
:1036B0003E4D0000604D0000824D0000A44D000012
:1036C000C64D0000E84D00000A4E00002C4E0000E0
:1036D000504E0000744E0000984E0000C84E00008E
:1036E000E84E00000A4F00002C4F00004E4F000033
:1036F000704F0000924F0000B44F0000DA4F0000FE
:10370000FE4F000022500000465000006A500000AA
:103710008E500000B2500000D6500000FA50000059
:103720001E5100004251000064510000865100000B
:10373000A8510000CA510000EC5100000E520000D8
:1037400030520000525200007452000096520000A5
:10375000C8520000E85200000A5300002C53000039
:103760004E5300007053000092530000B453000009
:10377000D6530000F85300001A54000040540000D3
:103780006454000088540000AC540000D054000081
:10379000F4540000185500003C550000605500002E
:1037A00084550000A8550000CA550000EC550000E3
:1037B0000E560000305600005256000074560000AD
:1037C00096560000C4560000E4560000065700005C
:1037D0002A5700004E57000072570000965700000D
:1037E000BA570000DE5700000258000026580000BB
:1037F0004A5800006E58000092580000BA58000065
:10380000DC580000FE58000001200021F74BCDE9F4
:103810000031CDE90210F648016805914168069132
:1038200080680023024607900598FDF7DDFC05F04F
:1038300065BB01200021ED4B5B1CCDE90031CDE9DA
:103840000210EB48C16805910169069140690123A6
:10385000024607900598FDF7C7FCE8E70120002124
:10386000E24B9B1CCDE90031CDE90210E0488169B3
:103870000591C1690691006A0223024607900598E6
:10388000FDF7B2FCD3E701200021D84BDB1CCDE9CA
:103890000031CDE90210D648416A0591816A06914E
:1038A000C06A0323024607900598FDF79DFCBEE71A
:1038B00001200021CD4B1B1DCDE90031CDE90210C7
:1038C000CB48016B0591416B0691806B0423024646
:1038D00007900598FDF788FCA9E701200021C34B5C
:1038E0005B1DCDE90031CDE90210C148C16B0591E6
:1038F000016C0691406C0523024607900598FDF780
:1039000073FC94E701200021B84B9B1DCDE90031E9
:10391000CDE90210B648816C0591C16C0691006D2D
:103920000623024607900598FDF75EFC7FE701201D
:103930000021AE4BDB1DCDE90031CDE90210AC48D2
:10394000416D0591816D0691C06D07230246079078
:103950000598FDF749FC6AE701200021A34B0833D5
:10396000CDE90031CDE90210A148016E0591416E0B
:103970000691806E0823024607900598FDF734FCF7
:1039800055E701200021994B0933CDE90031CDE9FC
:1039900002109748C16E0591016F0691406F09238F
:1039A000024607900598FDF71FFC40E70120002123
:1039B0008E4B0A33CDE90031CDE902108C48816F7E
:1039C0000591C16F0691D0F880000A230246079046
:1039D0000598FDF709FC2AE701200021834B0B33F2
:1039E000CDE90031CDE90210814880304168059170
:1039F00081680691C0680B23024607900598FDF781
:103A0000F3FB14E701200021784B0C33CDE90031A2
:103A1000CDE902107648803001690591416906912F
:103A200080690C23024607900598FDF7DDFBFEE652
:103A3000012000216D4B0D33CDE90031CDE902109D
:103A40006B488030C1690591016A0691406A0D2377
:103A5000024607900598FDF7C7FBE8E60120002124
:103A6000624B0E33CDE90031CDE902106048803061
:103A7000816A0591C16A0691006B0E230246079088
:103A80000598FDF7B1FBD2E601200021574B0F331B
:103A9000CDE90031CDE9021055488030416B0591E8
:103AA000816B0691C06B0F23024607900598FDF7C6
:103AB0009BFBBCE6012000214C4B1033CDE90031CB
:103AC000CDE902104A488030016C0591416C0691A5
:103AD000806C1023024607900598FDF785FBA6E64B
:103AE00001200021414B1133CDE90031CDE9021015
:103AF0003F488030C16C0591016D0691406D1123E6
:103B0000024607900598FDF76FFB90E60120002123
:103B1000364B1233CDE90031CDE902103448803004
:103B2000816D0591C16D0691006E122302460790CA
:103B30000598FDF759FB7AE6012000212B4B133342
:103B4000CDE90031CDE9021029488030416E059160
:103B5000816E0691C06E1323024607900598FDF70B
:103B600043FB64E601200021204B1433CDE90031F2
:103B7000CDE902101E488030016F0591416F06911A
:103B8000806F1423024607900598FDF72DFB4EE643
:103B900001200021154B1533CDE90031CDE902108C
:103BA00013488030C16F0591D0F880100691D0F88D
:103BB00084001523024607900598FDF715FB36E6AD
:103BC00001200021094B1633CDE90031CDE9021067
:103BD000084881680591C16806910069162302466C
:103BE00007900598FDF700FB21E6000000000DA2FC
:103BF000604000206041002001200021FE4BCDE903
:103C00000031CDE90210FD484169059181690691B5
:103C1000C0691723024607900598FDF7E5FA06E606
:103C200001200021F44B5B1CCDE90031CDE90210ED
:103C3000F248016A0591416A0691806A182302469A
:103C400007900598FDF7D0FAF1E501200021EA4B35
:103C50009B1CCDE90031CDE90210E848C16A05910D
:103C6000016B0691406B1923024607900598FDF7FA
:103C7000BBFADCE501200021DF4BDB1CCDE9003184
:103C8000CDE90210DD48816B0591C16B0691006C96
:103C90001A23024607900598FDF7A6FAC7E501200A
:103CA0000021D54B1B1DCDE90031CDE90210D348D1
:103CB000416C0591816C0691C06C1B2302460790F4
:103CC0000598FDF791FAB2E501200021CA4B5B1D72
:103CD000CDE90031CDE90210C848016D0591416D73
:103CE0000691806D1C23024607900598FDF77CFA2B
:103CF0009DE501200021C04B9B1DCDE90031CDE9A0
:103D00000210BE48C16D0591016E0691406E1D23E3
:103D1000024607900598FDF767FA88E50120002123
:103D2000B54BDB1DCDE90031CDE90210B348816E02
:103D30000591C16E0691006F1E23024607900598FB
:103D4000FDF752FA73E501200021AB4B0833CDE9B2
:103D50000031CDE90210A948416F0591816F0691AC
:103D6000C06F1F23024607900598FDF73DFA5EE5F8
:103D700001200021A04B0933CDE90031CDE902102B
:103D80009E48803001680591416806918068202333
:103D9000024607900598FDF727FA48E50120002123
:103DA000954B0A33CDE90031CDE9021093488030BC
:103DB000C168059101690691406921230246079077
:103DC0000598FDF711FA32E5012000218A4B0B33EB
:103DD000CDE90031CDE90210884880308169059134
:103DE000C1690691006A2223024607900598FDF7F3
:103DF000FBF91CE5012000217F4B0C33CDE900319C
:103E0000CDE902107D488030416A0591816A0691B2
:103E1000C06A2323024607900598FDF7E5F906E5F9
:103E200001200021744B0D33CDE90031CDE90210A2
:103E300072488030016B0591416B0691806B2423A1
:103E4000024607900598FDF7CFF9F0E40120002124
:103E5000694B0E33CDE90031CDE90210674880305F
:103E6000C16B0591016C0691406C252302460790B9
:103E70000598FDF7B9F9DAE4012000215E4B0F3314
:103E8000CDE90031CDE902105C488030816C0591AC
:103E9000C16C0691006D2623024607900598FDF738
:103EA000A3F9C4E401200021534B1033CDE90031C4
:103EB000CDE9021051488030416D0591816D069128
:103EC000C06D2723024607900598FDF78DF9AEE4F3
:103ED00001200021484B1133CDE90031CDE902101A
:103EE00046488030016E0591416E0691806E282310
:103EF000024607900598FDF777F998E40120002124
:103F00003D4B1233CDE90031CDE902103B48803002
:103F1000C16E0591016F0691406F292302460790FB
:103F20000598FDF761F982E401200021324B13333B
:103F3000CDE90031CDE9021030488030816F059124
:103F4000C16F0691D0F880002A2302460790059899
:103F5000FDF74AF96BE401200021274B1433CDE92A
:103F60000031CDE90210264841680591816806912B
:103F7000C0682B23024607900598FDF735F956E4F3
:103F8000012000211C4B1533CDE90031CDE9021091
:103F90001B48016905914169069180692C230246FD
:103FA00007900598FDF720F941E401200021124B0C
:103FB0001633CDE90031CDE902101148C1690591F0
:103FC000016A0691406A2D23024607900598FDF785
:103FD0000BF92CE401200021074B1733CDE9003108
:103FE000CDE902100648816A0591C16A0691006B0D
:103FF0002E230246079005E017000DA26041002025
:10400000604200200598FDF7EFF810E40120002140
:10401000FE4BCDE90031CDE90210FD48416B059121
:10402000816B0691C06B2F23024607900598FDF720
:10403000DBF812E401200021F44B5B1CCDE90031D8
:10404000CDE90210F248016C0591416C0691806C3B
:104050003023024607900598FDF7C6F812E40120C8
:104060000021EA4B9B1CCDE90031CDE90210E84864
:10407000C16C0591016D0691406D31230246079098
:104080000598FDF7B1F812E401200021DF4BDB1C9D
:10409000CDE90031CDE90210DD48816D0591C16D9A
:1040A0000691006E3223024607900598FDF79CF8B2
:1040B00012E401200021D54B1B1DCDE90031CDE9D3
:1040C0000210D348416E0591816E0691C06E332374
:1040D000024607900598FDF787F812E401200021B9
:1040E000CA4B5B1DCDE90031CDE90210C848016F14
:1040F0000591416F0691806F342302460790059821
:10410000FDF772F812E401200021C04B9B1DCDE9A0
:104110000031CDE90210BE48C16F0591D0F8801082
:104120000691D0F884003523024607900598FDF7E4
:104130005BF810E401200021B44BDB1DCDE9003118
:10414000CDE90210B248803081680591C1680691BE
:1041500000693623024607900598FDF745F80FE4FD
:1041600001200021A94B0833CDE90031CDE902102F
:10417000A74880304169059181690691C06937235C
:10418000024607900598FDF72FF80EE40120002164
:104190009E4B0933CDE90031CDE902109C488030B7
:1041A000016A0591416A0691806A382302460790A8
:1041B0000598FDF719F80EE401200021934B0A330E
:1041C000CDE90031CDE9021091488030C16A0591F6
:1041D000016B0691406B3923024607900598FDF765
:1041E00003F80EE401200021884B0B33CDE90031A8
:1041F000CDE9021086488030816B0591C16B069134
:10420000006C3A23024607900598FCF7EDFF0EE498
:10421000012000217D4B0C33CDE90031CDE90210A6
:104220007B488030416C0591816C0691C06C3B23CA
:10423000024607900598FCF7D7FF0EE40120002105
:10424000724B0D33CDE90031CDE90210704880305A
:10425000016D0591416D0691806D3C2302460790EA
:104260000598FCF7C1FF0EE401200021674B0E33D7
:10427000CDE90031CDE9021065488030C16D05916E
:10428000016E0691406E3D23024607900598FCF7AB
:10429000ABFF0EE4012000215C4B0F33CDE9003170
:1042A000CDE902105A488030816E0591C16E0691A9
:1042B000006F3E23024607900598FCF795FF0EE439
:1042C00001200021514B1033CDE90031CDE902101E
:1042D0004F488030416F0591816F0691C06F3F2339
:1042E000024607900598FCF77FFF0EE401200021AD
:1042F000464B1133CDE90031CDE902104548016844
:104300000591416806918068402302460790059810
:10431000FCF76AFF0FE4012000213C4B1233CDE98A
:104320000031CDE902103B48C16805910169069151
:1043300040694123024607900598FCF755FF10E4B9
:1043400001200021314B1333CDE90031CDE90210BA
:10435000304881690591C1690691006A422302468D
:1043600007900598FCF740FF11E401200021274B3E
:104370001433CDE90031CDE902102648416A059198
:10438000816A0691C06A4323024607900598FCF7AC
:104390002BFF14E4012000211C4B1533CDE9003123
:1043A000CDE902101B48016B0591416B0691806BB2
:1043B0004423024607900598FCF716FF14E40120F9
:1043C0000021124B1633CDE90031CDE9021011481E
:1043D000C16B0591016C0691406C45230246079024
:1043E0000598FCF701FF1AE401200021074B173361
:1043F000CDE90031CDE902100648816C0591C16C10
:104400000691006D46230246079005E02F000DA29D
:1044100060420020604300200598FCF7E5FE13E4AD
:1044200001200021FE4BCDE90031CDE90210FD480D
:10443000416D0591816D0691C06D4723024607903D
:104440000598FCF7D1FE14E401200021F44B5B1C1D
:10445000CDE90031CDE90210F248016E0591416EBF
:104460000691806E4823024607900598FCF7BCFE33
:1044700014E401200021EA4B9B1CCDE90031CDE979
:104480000210E848C16E0591016F0691406F492303
:10449000024607900598FCF7A7FE14E401200021CE
:1044A000DF4BDB1CCDE90031CDE90210DD48816F27
:1044B0000591C16F0691D0F880004A23024607900B
:1044C0000598FCF791FE13E401200021D44B1B1D3D
:1044D000CDE90031CDE90210D24880304168059124
:1044E00081680691C0684B23024607900598FCF747
:1044F0007BFE12E401200021C94B5B1DCDE9003198
:10450000CDE90210C74880300169059141690691E3
:1045100080694C23024607900598FCF765FE11E47C
:1045200001200021BE4B9B1DCDE90031CDE90210D9
:10453000BC488030C1690591016A0691406A4D23EB
:10454000024607900598FCF74FFE10E40120002179
:10455000B34BDB1DCDE90031CDE90210B14880300D
:10456000816A0591C16A0691006B4E23024607904D
:104570000598FCF739FE10E401200021A84B083310
:10458000CDE90031CDE90210A6488030416B05919C
:10459000816B0691C06B4F23024607900598FCF78C
:1045A00023FE10E4012000219D4B0933CDE90031A9
:1045B000CDE902109B488030016C0591416C069159
:1045C000806C5023024607900598FCF70DFE10E41E
:1045D00001200021924B0A33CDE90031CDE90210D0
:1045E00090488030C16C0591016D0691406D51235A
:1045F000024607900598FCF7F7FD10E40120002122
:10460000874B0B33CDE90031CDE90210854880306E
:10461000816D0591C16D0691006E5223024607908F
:104620000598FCF7E1FD10E4012000217C4B0C33E0
:10463000CDE90031CDE902107A488030416E059114
:10464000816E0691C06E5323024607900598FCF7D1
:10465000CBFD10E401200021714B0D33CDE9003179
:10466000CDE902106F488030016F0591416F0691CE
:10467000806F5423024607900598FCF7B5FD10E4BF
:1046800001200021664B0E33CDE90031CDE9021047
:1046900064488030C16F0591D0F880100691D0F841
:1046A00084005523024607900598FCF79DFD0EE413
:1046B000012000215A4B0F33CDE90031CDE9021022
:1046C000594881680591C1680691006956230246E0
:1046D00007900598FCF788FD0FE401200021504B5E
:1046E0001033CDE90031CDE902104F484169059101
:1046F00081690691C0695723024607900598FCF727
:1047000073FD10E401200021454B1133CDE9003148
:10471000CDE902104448016A0591416A0691806A18
:104720005823024607900598FCF75EFD12E401202D
:1047300000213B4B1233CDE90031CDE902103A485C
:10474000C16A0591016B0691406B5923024607909F
:104750000598FCF749FD12E401200021304B13338A
:10476000CDE90031CDE902102F48816B0591C16B75
:104770000691006C5A23024607900598FCF734FD19
:1047800012E401200021264B1433CDE90031CDE99C
:1047900002102548416C0591816C0691C06C5B2329
:1047A000024607900598FCF71FFD12E40120002146
:1047B0001B4B1533CDE90031CDE902101A48016DCC
:1047C0000591416D0691806D5C2302460790059826
:1047D000FCF70AFD19E401200021114B1633CDE945
:1047E0000031CDE902101048C16D0591016E0691AE
:1047F000406E5D23024607900598FCF7F5FC04E443
:1048000001200021064B1733CDE90031CDE902101C
:104810000548816E0591C16E0691006F5E2305E02B
:1048200047000DA26043002060440020024607902C
:104830000598FCF7D9FC11E401200021FE4BCDE9DD
:104840000031CDE90210FD48416F0591816F06915D
:10485000C06F5F23024607900598FCF7C5FC12E481
:1048600001200021F44B5B1CCDE90031CDE90210A1
:10487000F2488030016805914168069180686023A4
:10488000024607900598FCF7AFFC11E401200021D7
:10489000E94B9B1CCDE90031CDE90210E74880309F
:1048A000C16805910169069140696123024607903C
:1048B0000598FCF799FC10E401200021DE4BDB1C7D
:1048C000CDE90031CDE90210DC48803081690591E5
:1048D000C1690691006A6223024607900598FCF7B9
:1048E00083FC0FE401200021D34B1B1DCDE90031D7
:1048F000CDE90210D1488030416A0591816A069164
:10490000C06A6323024607900598FCF76DFC10E42B
:1049100001200021C84B5B1DCDE90031CDE902101B
:10492000C6488030016B0591416B0691806B642312
:10493000024607900598FCF757FC10E4012000217F
:10494000BD4B9B1DCDE90031CDE90210BB48803045
:10495000C16B0591016C0691406C6523024607907E
:104960000598FCF741FC10E401200021B24BDB1D4F
:10497000CDE90031CDE90210B0488030816C05915D
:10498000C16C0691006D6623024607900598FCF7FE
:104990002BFC10E401200021A74B0833CDE90031A6
:1049A000CDE90210A5488030416D0591816D0691D9
:1049B000C06D6723024607900598FCF715FC10E4CC
:1049C000012000219C4B0933CDE90031CDE90210D3
:1049D0009A488030016E0591416E0691806E682381
:1049E000024607900598FCF7FFFB10E40120002128
:1049F000914B0A33CDE90031CDE902108F48803068
:104A0000C16E0591016F0691406F692302460790C0
:104A10000598FCF7E9FB10E401200021864B0B33DD
:104A2000CDE90031CDE9021084488030816F0591D5
:104A3000C16F0691D0F880006A230246079005985E
:104A4000FCF7D2FB0FE4012000217B4B0C33CDE9B6
:104A50000031CDE902107A484168059181680691DC
:104A6000C0686B23024607900598FCF7BDFB10E475
:104A700001200021704B0D33CDE90031CDE902104A
:104A80006F48016905914169069180696C2302466E
:104A900007900598FCF7A8FB11E401200021664B64
:104AA0000E33CDE90031CDE902106548C1690591A9
:104AB000016A0691406A6D23024607900598FCF74B
:104AC00093FB12E4012000215B4B0F33CDE9003151
:104AD000CDE902105A48816A0591C16A0691006BBE
:104AE0006E23024607900598FCF77EFB12E4012036
:104AF0000021514B1033CDE90031CDE9021050486F
:104B0000416B0591816B0691C06B6F230246079044
:104B10000598FCF769FB12E401200021464B113394
:104B2000CDE90031CDE902104548016C0591416C99
:104B30000691806C7023024607900598FCF754FBA1
:104B400012E4012000213C4B1233CDE90031CDE9C4
:104B500002103B48C16C0591016D0691406D7123B7
:104B6000024607900598FCF73FFB12E40120002164
:104B7000314B1333CDE90031CDE902103048816D5E
:104B80000591C16D0691006E72230246079005984B
:104B9000FCF72AFB12E401200021274B1433CDE956
:104BA0000031CDE902102648416E0591816E0691D3
:104BB000C06E7323024607900598FCF715FB12E4BC
:104BC000012000211C4B1533CDE90031CDE9021045
:104BD0001B48016F0591416F0691806F7423024657
:104BE00007900598FCF700FB19E401200021124B07
:104BF0001633CDE90031CDE902101148C16F05919E
:104C0000D0F880100691D0F88400752302460790F2
:104C10000598FCF7E9FA16E401200021064B17334A
:104C2000CDE90031CDE90210054880308168059159
:104C3000C1680691006905E05F000DA26044002094
:104C4000604500207623024607900598FCF7CCFAD1
:104C50000EE401200021FE4BCDE90031CDE9021028
:104C6000FC484169059181690691C0697723024634
:104C700007900598FCF7B8FA0FE401200021F44BE7
:104C80005B1CCDE90031CDE90210F248016A0591C3
:104C9000416A0691806A7823024607900598FCF7DE
:104CA000A3FA10E401200021E94B9B1CCDE900315F
:104CB000CDE90210E748C16A0591016B0691406B8E
:104CC0007923024607900598FCF78EFA11E401203B
:104CD0000021DF4BDB1CCDE90031CDE90210DD48BE
:104CE000816B0591C16B0691006C7A230246079097
:104CF0000598FCF779FA12E401200021D44B1B1D22
:104D0000CDE90031CDE90210D248416C0591816CAA
:104D10000691C06C7B23024607900598FCF764FA65
:104D200013E401200021CA4B5B1DCDE90031CDE920
:104D30000210C848016D0591416D0691806D7C237C
:104D4000024607900598FCF74FFA14E40120002171
:104D5000BF4B9B1DCDE90031CDE90210BD48C16DAF
:104D60000591016E0691406E7D23024607900598DD
:104D7000FCF73AFA15E401200021B54BDB1DCDE923
:104D80000031CDE90210B348816E0591C16E0691E4
:104D9000006F7E23024607900598FCF725FA16E47B
:104DA00001200021AA4B0833CDE90031CDE90210E2
:104DB000A848416F0591816F0691C06F7F2302461D
:104DC00007900598FCF710FA17E401200021A04B8A
:104DD0000933CDE90031CDE902109E4880300168E9
:104DE00005914168069180688023024607900598E6
:104DF000FCF7FAF917E401200021954B0A33CDE9BD
:104E00000031CDE9021093488030C16805910169F5
:104E1000069140698123024607900598FCF7E4F962
:104E200017E4012000218A4B0B33CDE90031CDE995
:104E300002108848803081690591C1690691006A35
:104E40008223024607900598FCF7CEF917E401206B
:104E500000217F4B0C33CDE90031CDE902107D48B4
:104E60008030416A0591816A0691C06A83230246B7
:104E700007900598FCF7B8F919E401200021744B5C
:104E80000D33CDE90031CDE9021072488030016B5D
:104E90000591416B0691806B84230246079005982B
:104EA000FCF7A2F918E401200021694B0E33CDE98B
:104EB0000031CDE9021067488030C16B0591016C6B
:104EC0000691406C8523024607900598FCF78CF903
:104ED00017E4012000215E4B0F33CDE90031CDE90D
:104EE00002105C488030816C0591C16C0691006DA8
:104EF0008623024607900598FCF776F916E4012010
:104F00000021534B1033CDE90031CDE90210514857
:104F10008030416D0591816D0691C06D87230246F9
:104F200007900598FCF760F915E401200021484B33
:104F30001133CDE90031CDE9021046488030016ED1
:104F40000591416E0691806E882302460790059870
:104F5000FCF74AF914E4012000213D4B1233CDE95E
:104F60000031CDE902103B488030C16E0591016FE0
:104F70000691406F8923024607900598FCF734F9A3
:104F800013E401200021324B1333CDE90031CDE988
:104F9000021030488030816F0591C16F0691D0F8C2
:104FA00080008A23024607900598FCF71DF911E45A
:104FB00001200021264B1433CDE90031CDE9021048
:104FC00025484168059181680691C0688B23024697
:104FD00007900598FCF708F911E4012000211C4B0B
:104FE0001533CDE90031CDE902101B480169059167
:104FF0004169069180698C23024607900598FCF769
:10500000F3F818E401200021114B1633CDE90031EB
:10501000CDE902101048C1690591016A0691406A04
:105020008D23024607900598FCF7DEF817E401206F
:105030000021074B1733CDE90031CDE902100648B6
:10504000816A0591C16A0691006B8E23024605E0D4
:1050500077000DA2E0450020E0460020079005986B
:10506000FCF7C2F811E401200021FE4BCDE900312C
:10507000CDE90210FC48416B0591816B0691C06B34
:105080008F23024607900598FCF7AEF813E4012041
:105090000021F44B5B1CCDE90031CDE90210F24850
:1050A000016C0591416C0691806C9023024607903B
:1050B0000598FCF799F814E401200021E94B9B1CAA
:1050C000CDE90031CDE90210E748C16C0591016DD1
:1050D0000691406D9123024607900598FCF784F8ED
:1050E00015E401200021DF4BDB1CCDE90031CDE9C7
:1050F0000210DD48816D0591C16D0691006E92230D
:10510000024607900598FCF76FF816E4012000218D
:10511000D44B1B1DCDE90031CDE90210D248416EC0
:105120000591816E0691C06E932302460790059803
:10513000FCF75AF817E401200021CA4B5B1DCDE9AA
:105140000031CDE90210C848016F0591416F069109
:10515000806F9423024607900598FCF745F818E401
:1051600001200021BF4B9B1DCDE90031CDE902108C
:10517000BD48C16F0591D0F880100691D0F8840029
:105180009523024607900598FCF72EF817E40120B6
:105190000021B44BDB1DCDE90031CDE90210B2484E
:1051A000803081680591C1680691006996230246A6
:1051B00007900598FCF718F817E401200021A94B87
:1051C0000833CDE90031CDE90210A74880304169AC
:1051D000059181690691C069972302460790059859
:1051E000FCF702F817E4012000219E4B0933CDE9BA
:1051F0000031CDE902109C488030016A0591416A76
:105200000691806A9823024607900598FBF7ECFF09
:1052100018E401200021934B0A33CDE90031CDE998
:10522000021091488030C16A0591016B0691406B74
:105230009923024607900598FBF7D6FF17E4012053
:105240000021884B0B33CDE90031CDE902108648AF
:105250008030816B0591C16B0691006C9A230246E8
:1052600007900598FBF7C0FF16E4012000217D4B55
:105270000C33CDE90031CDE902107B488030416C20
:105280000591816C0691C06C9B230246079005989E
:10529000FBF7AAFF15E401200021724B0D33CDE985
:1052A0000031CDE9021070488030016D0591416DEB
:1052B0000691806D9C23024607900598FBF794FFAA
:1052C00014E401200021674B0E33CDE90031CDE914
:1052D000021065488030C16D0591016E0691406EE7
:1052E0009D23024607900598FBF77EFF13E40120FB
:1052F00000215C4B0F33CDE90031CDE902105A4853
:105300008030816E0591C16E0691006F9E2302462A
:1053100007900598FBF768FF12E401200021514B2C
:105320001033CDE90031CDE902104F488030416F94
:105330000591816F0691C06F9F23024607900598E3
:10534000FBF752FF11E401200021464B1133CDE958
:105350000031CDE902104548016805914168069188
:105360008068A023024607900598FBF73DFF11E4F3
:10537000012000213B4B1233CDE90031CDE9021071
:105380003A48C1680591016906914069A123024626
:1053900007900598FBF728FF11E401200021314B0D
:1053A0001333CDE90031CDE9021030488169059110
:1053B000C1690691006AA223024607900598FBF78F
:1053C00013FF11E401200021264B1433CDE90031F5
:1053D000CDE902102548416A0591816A0691C06AAB
:1053E000A323024607900598FBF7FEFE13E4012075
:1053F00000211C4B1533CDE90031CDE902101B48CB
:10540000016B0591416B0691806BA42302460790C6
:105410000598FBF7E9FE1BE401200021114B163330
:10542000CDE90031CDE902101048C16B0591016C46
:105430000691406CA523024607900598FBF7D4FE21
:1054400006E401200021074B1733CDE90031CDE9F7
:1054500002100648816C0591C16C0691006DA6236F
:10546000024605E08F000DA2E0460020E047002044
:1054700007900598FBF7B8FE13E401200021F74BD5
:10548000CDE90031CDE90210F548416D0591816DFE
:105490000691C06DA723024607900598FBF7A4FE6E
:1054A00014E401200021ED4B5B1CCDE90031CDE976
:1054B0000210EB48016E0591416E0691806EA823A3
:1054C000024607900598FBF78FFE14E401200021A7
:1054D000E24B9B1CCDE90031CDE90210E048C16EE2
:1054E0000591016F0691406FA92302460790059828
:1054F000FBF77AFE14E401200021D84BDB1CCDE938
:105500000031CDE90210D648816F0591C16F069137
:10551000D0F88000AA23024607900598FBF764FEA6
:1055200013E401200021CD4B1B1DCDE90031CDE955
:105530000210CB4880304168059181680691C068AF
:10554000AB23024607900598FBF74EFE12E40120BC
:105550000021C24B5B1DCDE90031CDE90210C048EE
:10556000803001690591416906918069AC2302464A
:1055700007900598FBF738FE11E401200021B74B96
:105580009B1DCDE90031CDE90210B5488030C169DD
:105590000591016A0691406AAD230246079005987D
:1055A000FBF722FE10E401200021AC4BDB1DCDE90E
:1055B0000031CDE90210AA488030816A0591C16AA4
:1055C0000691006BAE23024607900598FBF70CFE90
:1055D00010E401200021A14B0833CDE90031CDE9D1
:1055E00002109F488030416B0591816B0691C06B22
:1055F000AF23024607900598FBF7F6FD10E4012063
:105600000021964B0933CDE90031CDE902109448D1
:105610008030016C0591416C0691806CB02302468C
:1056200007900598FBF7E0FD10E4012000218B4B6B
:105630000A33CDE90031CDE9021089488030C16CD0
:105640000591016D0691406DB123024607900598C2
:10565000FBF7CAFD10E401200021804B0B33CDE99C
:105660000031CDE902107E488030816D0591C16D19
:105670000691006EB223024607900598FBF7B4FD31
:1056800010E401200021754B0C33CDE90031CDE948
:10569000021073488030416E0591816E0691C06E94
:1056A000B323024607900598FBF79EFD10E4012006
:1056B00000216A4B0D33CDE90031CDE90210684875
:1056C0008030016F0591416F0691806FB4230246CF
:1056D00007900598FBF788FD10E4012000215F4B3F
:1056E0000E33CDE90031CDE902105D488030C16F45
:1056F0000591D0F880100691D0F88400B5230246B9
:1057000007900598FBF770FD0EE401200021534B34
:105710000F33CDE90031CDE902105248816805917F
:10572000C16806910069B623024607900598FBF709
:105730005BFD0FE401200021484B1033CDE900311F
:10574000CDE9021047484169059181690691C06918
:10575000B723024607900598FBF746FD10E40120A9
:1057600000213E4B1133CDE90031CDE902103D4817
:10577000016A0591416A0691806AB8230246079042
:105780000598FBF731FD12E401200021334B123361
:10579000CDE90031CDE902103248C16A0591016BB3
:1057A0000691406BB923024607900598FBF71CFD54
:1057B00012E401200021294B1333CDE90031CDE95A
:1057C00002102848816B0591C16B0691006CBA23C9
:1057D000024607900598FBF707FD12E4012000211F
:1057E0001E4B1433CDE90031CDE902101D48416C48
:1057F0000591816C0691C06CBB2302460790059809
:10580000FBF7F2FC12E401200021144B1533CDE923
:105810000031CDE902101348016D0591416D0691EB
:10582000806DBC23024607900598FBF7DDFC19E468
:1058300001200021094B1633CDE90031CDE90210DA
:105840000848C16D0591016E0691406EBD23024668
:1058500007900598FBF7C8FC04E40000A7000DA220
:10586000E0470020E048002001200021FE4BCDE968
:105870000031CDE90210FD48816E0591C16E06919F
:10588000006FBE23024607900598FBF7ADFC12E4BB
:1058900001200021F44B5B1CCDE90031CDE9021061
:1058A000F248416F0591816F0691C06FBF23024698
:1058B00007900598FBF798FC12E401200021EA4BC1
:1058C0009B1CCDE90031CDE90210E8488030016829
:1058D0000591416806918068C023024607900598AB
:1058E000FBF782FC11E401200021DF4BDB1CCDE93A
:1058F0000031CDE90210DD488030C16805910169B1
:1059000006914069C123024607900598FBF76CFC9D
:1059100010E401200021D44B1B1DCDE90031CDE95D
:105920000210D248803081690591C1690691006AF0
:10593000C223024607900598FBF756FC0FE40120AE
:105940000021C94B5B1DCDE90031CDE90210C748EC
:105950008030416A0591816A0691C06AC32302467C
:1059600007900598FBF740FC10E401200021BE4B96
:105970009B1DCDE90031CDE90210BC488030016BA0
:105980000591416B0691806BC423024607900598F0
:10599000FBF72AFC10E401200021B34BDB1DCDE90D
:1059A0000031CDE90210B1488030C16B0591016C26
:1059B0000691406CC523024607900598FBF714FC3E
:1059C00010E401200021A84B0833CDE90031CDE9D6
:1059D0000210A6488030816C0591C16C0691006D63
:1059E000C623024607900598FBF7FEFB10E4012052
:1059F00000219D4B0933CDE90031CDE902109B48D0
:105A00008030416D0591816D0691C06DC7230246BE
:105A100007900598FBF7E8FB10E401200021924B6A
:105A20000A33CDE90031CDE9021090488030016E93
:105A30000591416E0691806EC82302460790059835
:105A4000FBF7D2FB10E401200021874B0B33CDE99B
:105A50000031CDE9021085488030C16E0591016F9B
:105A60000691406FC923024607900598FBF7BCFBDF
:105A700010E4012000217C4B0C33CDE90031CDE94D
:105A800002107A488030816F0591C16F0691D0F87D
:105A90008000CA23024607900598FBF7A5FB0FE498
:105AA00001200021704B0D33CDE90031CDE902100A
:105AB0006F484168059181680691C068CB23024612
:105AC00007900598FBF790FB10E401200021664B3E
:105AD0000E33CDE90031CDE9021065480169059129
