:020000040800F2
:10000000A0AA002019020008DD0B00081D08000846
:10001000D90B0008A1040008F11D00080000000031
:10002000000000000000000000000000C5160008ED
:100030002105000800000000750C000849180008A0
:100040003302000833020008330200082D110008B3
:1000500033020008330200083302000833020008AC
:10006000330200083302000833020008330200089C
:10007000330200083302000833020008330200088C
:10008000330200083302000833020008330200087C
:10009000330200083302000833020008330200086C
:1000A000330200083302000833020008330200085C
:1000B000330200083302000833020008330200084C
:1000C000330200083302000833020008330200083C
:1000D00033020008811B00083302000833020008C5
:1000E000330200083302000833020008330200081C
:1000F000330200083302000833020008330200080C
:1001000033020008330200083302000833020008FB
:1001100033020008330200083302000833020008EB
:1001200033020008330200083302000833020008DB
:1001300000F002F800F060F80AA090E8000C824499
:100140008344AAF10107DA4501D100F055F8AFF276
:10015000090EBAE80F0013F0010F18BFFB1A43F0A5
:1001600001031847382F0000582F000010F8013BFA
:100170000A4413F0030408BF10F8014B1D1108BF17
:1001800010F8015B641E05D010F8016B641E01F8C5
:10019000016BF9D1002D15D010F8014B03F00C03C1
:1001A0000C2BA1EB04040ABF10F8013BA4EB831451
:1001B000A4EB032405F1010314F8016B5B1E01F8A5
:1001C000016BF9D5914238BF10F8013BD1D370478C
:1001D0000023002400250026103A28BF78C1FBD850
:1001E000520728BF30C148BF0B6070471FB501F0F0
:1001F00085FE1FBD10B510BD00F05CF81146FFF77D
:10020000F5FF01F05DFE00F07AF803B4FFF7F2FFAE
:1002100003BC00F07FF80000094880470948004708
:10022000FEE7FEE7FEE7FEE7FEE7FEE7FEE7FEE7A6
:10023000FEE7FEE704480549054A064B7047000003
:100240001119000831010008A05A0020A0AA0020BE
:10025000A06A0020A06A00204FF0000200B51346FB
:1002600094469646203922BFA0E80C50A0E80C50D6
:10027000B1F12001BFF4F7AF090728BFA0E80C5087
:1002800048BF0CC05DF804EB890028BF40F8042B80
:1002900008BF704748BF20F8022B11F0804F18BFED
:1002A00000F8012B7047704770477047004870474F
:1002B0003C5A00207546FFF7F9FFAE460500694637
:1002C000534620F00700854618B020B5FFF7B2FF6F
:1002D000BDE820404FF000064FF000074FF0000847
:1002E0004FF0000B21F00701AC46ACE8C009ACE8C8
:1002F000C009ACE8C009ACE8C0098D4670470446A7
:10030000AFF300802046FFF780FF000000487047F1
:10031000405A002001491820ABBEFEE7260002002B
:10032000704700002DE9F04FB9B081460F461646E0
:100330009A46DDF808B116B116F00F0F02D039B0A9
:10034000BDE8F08F3248007808B901F08BFD0DA9A7
:10035000504600F049FB002405E01BF8040005A905
:100360000855601CC4B2102CF7DB00254BE00024BC
:1003700009E02819385C09A908552819385C01A931
:100380000855601CC4B2102CF3DB35A909A800F095
:100390005BF84FF0090810E009A800F0DFFA09A89F
:1003A00000F0F6FA0DAA02EB081109A800F04CF8CB
:1003B00009A800F067FAA8F10108B8F1000FEBD125
:1003C00009A800F0CBFA09A800F0E2FA0DA909A8E3
:1003D00000F03AF8002409E009A8005D05A9095DCC
:1003E0004840291909F80100601CC4B2102CF3DB45
:1003F000002405E001A8005D05A90855601CC4B2F1
:10040000102CF7DB1035B542B1D300BF97E70000E1
:10041000443F002008B500F093FF02220021064867
:1004200000F0CCFF0548064B4FF480620249009073
:100430000448FFF777FF08BD844000201A1F00081A
:100440000A1F00088444002030B502460B460020F5
:1004500023E053F8201012F8204084EA116502F8D6
:1004600020508400641C145DC1F307456C40850076
:100470006D1C54558400A41C145DC1F307256C4009
:100480008500AD1C54558400E41C155DCCB265405C
:100490008400E41C1555411CC8B20428D9DB30BDCA
:1004A00000BFFEE7002000BF10490978C02910D125
:1004B0000F4909784F290CD10D4949784B2908D1AA
:1004C00000210B4A11705170084A1170094A1170CD
:1004D0000AE00146401C084A9142E5D30021034A44
:1004E0001170044A117000BF00BF7047453F0020E3
:1004F000473F0020463F002000350C0008B54FF470
:100500009070ADF8000010208DF803006946034894
:1005100000F0C5F801F0D8F808BD0000000C01405B
:10052000704700000149C860704700000020024089
:1005300030B5044604254FF4302000F09DF8054600
:10054000042D17D10C48006940F002000A490861E7
:1005500008464461006940F0400008614FF43020D3
:1005600000F08AF805460448006941F6FD7108402C
:1005700001490861284630BD0020024004200C4992
:10058000C96801F00101012901D101200EE00849EB
:10059000C96811F0040F01D0022007E00449C968BE
:1005A00011F0100F01D0032000E00420704700007C
:1005B000002002400348006940F0800001490861C2
:1005C00070470000002002400549096821F0100131
:1005D000034A116011460968014311607047000029
:1005E00000200240F0B504460D4604260027F00224
:1005F00000F042F80646042E22D11248006940F06D
:100600000100104908612580F00200F035F8064627
:10061000042E0ED1A71C280C3880F00200F02CF814
:1006200006460848006941F6FE7108400549086120
:1006300006E00448006941F6FE710840014908617E
:100640003046F0BD0020024001460020034A1068F9
:1006500000F038000843106070470000002002409E
:1006600002480349486003484860704723016745D2
:1006700000200240AB89EFCD00B502460423FFF70E
:100680007DFF034603E0FFF779FF0346521E012B6F
:1006900001D1002AF7D102B90523184600BD2DE982
:1006A000F0410246002500260020002300240027F8
:1006B00091F803C00CF00F0591F803C01CF0100F67
:1006C00003D091F802C04CEA0505B1F800C01CF057
:1006D000FF0F31D0146800202BE04FF0010C0CFA12
:1006E00000F3B1F800C00CEA03069E4220D183005B
:1006F0004FF00F0C0CFA03F7BC4305FA03FC4CEA6D
:10070000040491F803C0BCF1280F06D14FF0010C8E
:100710000CFA00FCC2F814C00AE091F803C0BCF166
:10072000480F05D14FF0010C0CFA00FCC2F810C0C4
:10073000401C0828D1D31460B1F800C0BCF1FF0FF1
:1007400034DD546800202EE000F1080C4FF0010861
:1007500008FA0CF3B1F800C00CEA03069E4221D15E
:1007600083004FF00F0C0CFA03F7BC4305FA03FCAF
:100770004CEA040491F803C0BCF1280F05D100F144
:10078000080C08FA0CF8C2F8148091F803C0BCF108
:10079000480F07D100F1080C4FF0010808FA0CF8D7
:1007A000C2F81080401C0828CED35460BDE8F08108
:1007B0000246002093680B4201D0012000E0002097
:1007C00070474161704701617047000030B5ADF579
:1007D000717D4FF4707101A8FFF73EFD02220021E8
:1007E00001A800F0EBFD002411E000250CE004EB73
:1007F000440005EB800001A9085C0749294404EB8B
:10080000440201F822006D1C0C2DF0DB641C502CFE
:10081000EBDB0DF5717D30BDA048002000BFFEE789
:100820000EB54720ADF800001020ADF80200012001
:10083000ADF804000020ADF8060069464FF0804096
:1008400001F0A8F80121880701F092F86FF0040088
:1008500000F0E6FF074800680749B0FBF1F00749E0
:100860000870084600784FF47A71484304490880BC
:100870000EBD00001400002000127A007C3F002012
:100880007E3F0020F0B5064600255CE0042707FB0C
:100890000560017842788378C4782C4F7F5CDFF85C
:1008A000B0C01CF802C087EA0C07DFF8A8C01CF82B
:1008B00003C087EA0C07DFF8A0C01CF804C087EA71
:1008C0000C070770244F7F5CDFF880C01CF802C063
:1008D00087EA0C07DFF878C01CF803C087EA0C072A
:1008E000DFF870C01CF804C087EA0C074770194F86
:1008F0007F5CDFF864C01CF802C087EA0C07DFF8F1
:100900004CC01CF803C087EA0C07DFF844C01CF891
:1009100004C087EA0C0787700D4F7F5CDFF834C096
:100920001CF802C087EA0C07DFF82CC01CF803C0D3
:1009300087EA0C07DFF814C01CF804C087EA0C072C
:10094000C770681CC5B2042DA0DBF0BDCC580020D8
:10095000CC560020CC570020CC550020417B427A59
:100960004273427942724278427141708178827A50
:10097000827081728179827B82718173C178C27940
:10098000C270C27AC271C27BC272C173704700006A
:100990000146002005E00A5C034B9A5C0A54421CA5
:1009A000D0B21028F7DB70475B2000080146CA1759
:1009B00001EB92729210B1EB820212D1642091FB92
:1009C000F0F200FB121050B94FF4C87091FBF0F236
:1009D00000FB121008B9012070470020FCE701203D
:1009E000FAE70020F8E70000F0B502460B460124C4
:1009F000002013E012F820502E0685006D1C555D76
:100A000046EA05468500AD1C555D46EA052586008B
:100A1000F61C965D354343F82050401C0428E9D36A
:100A200004202EE0451E53F8251010F0030F21D1AD
:100A30000D0245EA11610D0E134E755D2D06C1F3D1
:100A40000747F65D45EA06450F4EC1F30727F65DF9
:100A500045EA0625CEB20C4FBE5D45EA060181EAA5
:100A6000046114F0800F01D01B2500E0002585EA09
:100A70004405ECB2051F53F825504D4043F8205073
:100A8000401C2C28CED3F0BD5B1F000800B587B0FA
:100A9000012144F2050000F019F94FF40070ADF89F
:100AA000180003208DF81A0018208DF81B0006A9E5
:100AB0002348FFF7F4FD4FF48060ADF818000420E0
:100AC0008DF81B0006A91E48FFF7E9FD25208DF8CB
:100AD000040003208DF805008DF8060001208DF834
:100AE000070001A800F082F84FF4E13002900020E6
:100AF000ADF80C00ADF80E00ADF81000ADF8140024
:100B00000C20ADF8120002A90E4801F0E5F8012210
:100B100040F225510B4801F0BAF80121094801F0D3
:100B200073F84FF47A7001F00FF807A001F04AF95A
:100B3000FFF7B8FC4FF4FA7001F006F807B000BDFB
:100B400000080140003801404449522831293B0D3A
:100B50000A00000008B50121542000F0B7F84FF456
:100B60007F40ADF8000010208DF8030003208DF8C1
:100B7000020069461448FFF792FD4FF47F40124986
:100B8000143108600320ADF8000069460F48FFF7F4
:100B900086FD03200D49143108603F20ADF80000A8
:100BA00069460B48FFF77BFD3F200949103108607B
:100BB0004020ADF8000069460648FFF770FD402070
:100BC0000449086108BD000000180140000C014004
:100BD000000801400010014000BFFEE7704710B55B
:100BE00000214FF0006000F03BF810BD70B500210F
:100BF00000230F22C4780CB3164C246804F4E0647C
:100C0000C4F5E064210AC1F10403CA40447804FA3F
:100C100003F184781440214309010F4C0678A15553
:100C2000047804F01F050124AC4005786D114FF0E5
:100C3000E02606EB8505C5F8004109E0047804F0DC
:100C40001F050124AC40054D0678761145F8264075
:100C500070BD00000CED00E000E400E080E100E089
:100C6000024A0A400243024B1A60704780FFFF1F8E
:100C700008ED00E07047000008B54FF4D850ADF81B
:100C8000000004208DF8030069460748FFF707FDC0
:100C90004FF40050ADF8000048208DF8030069467D
:100CA0000148FFF7FCFC08BD0014014029B1064AC9
:100CB000D2690243044BDA6104E0034AD2698243F9
:100CC000014BDA61704700000010024029B1064A6A
:100CD00092690243044B9A6104E0034A9269824399
:100CE000014B9A6170470000001002400F480068F5
:100CF00040F001000D490860084640680C49084072
:100D00000A494860084600680A49084007490860DF
:100D10000846006820F4802008600846406820F4F7
:100D2000FE0048604FF41F008860704700100240CA
:100D30000000FFF8FFFFF6FE30B50021002200247E
:100D400000232D4D6D6805F00C0121B1042905D05B
:100D5000082923D105E0294D056022E0274D0560D3
:100D60001FE0254D6D6805F47012234D6D6805F484
:100D70008034022505EB92421CB9214D5543056094
:100D80000BE01D4D6D6815F4003F03D01C4D55431D
:100D9000056002E0194D5543056002E0174D0560FE
:100DA00000BF00BF144D6D6805F0F0010909154D35
:100DB0006B5C0568DD4045600F4D6D6805F4E061D2
:100DC000090A104D6B5C4568DD4085600A4D6D6811
:100DD00005F46051C90A0B4D6B5C4568DD40C56088
:100DE000054D6D6805F44041890B074D6B5CC56886
:100DF000B5FBF3F5056130BD0010024000127A002A
:100E000000093D00000000201000002010B5014640
:100E10000022002300204A11012A02D1094C236834
:100E200006E0022A02D1074C236A01E0054C636AFE
:100E300001F01F02012494401C4201D0012000E077
:100E4000002010BD001002400248406800F00C0075
:100E5000704700000010024001460020034A50681D
:100E600020F0F0000843506070470000001002407E
:100E70001149096821F480310F4A1160114609684F
:100E800021F480211160B0F5803F03D0B0F5802FB0
:100E90000ED106E00849096841F48031064A116024
:100EA00007E00549096841F4A021034A116000E008
:100EB00000BF00BF70470000001002400149C87128
:100EC000704700000010024001460020034A5068AD
:100ED00020F4E060084350607047000000100240BA
:100EE00001460020034A506820F4605040EAC100E7
:100EF00050607047001002400149086670470000CA
:100F00000000424202460020044B586820F47C1046
:100F100042EA01031843014B586070470010024039
:100F200001460020034A506820F003000843506047
:100F3000704700000010024070B500240025002614
:100F400000BF3120FFF762FF0646641CB4F5A06FB6
:100F500001D0002EF5D03120FFF758FF08B1012550
:100F600000E00025284670BD03490988C24392B2BB
:100F70001140014A11807047042800402DE9F047D4
:100F80004FF000090024A046002500F077F88146C4
:100F90003648B9FBF0F436480088A04237D03449CF
:100FA0000C8040F2B27810E04046FFF7FFFC30B111
:100FB000B4F5B77F02D3A4F5B77402E008E0A4F259
:100FC0006D1408F101001FFA80F8B4F5B67FEBD874
:100FD00000BF2848A0F80480012527480678A7B25A
:100FE0000FE0B81B87B2681C85B2681E22490E5CF0
:100FF000022D06D11F498888FFF7D8FC08B1701C64
:1010000086B2B742EDDA1B498D71781CC87117485A
:10101000B9FBF0F100FB11944FF46160B4FBF0F008
:10102000144908704FF46160B4FBF0F100FB11400B
:101030003C21B0FBF1F00F4948704FF46160B4FB04
:10104000F0F100FB11403C21B0FBF1F201FB12007A
:10105000084988700B46DA799979988800F02AF85F
:10106000044908720020BDE8F087000080510100AB
:101070007A3F0020305A00209821000800210348C0
:101080000188001F008841EA004070471C2800408A
:1010900001460020064A12880A40D0B2044A121FB4
:1010A00012880A4202D008B1012000E000207047F7
:1010B00004280040F0B503460C461546642093FB17
:1010C000F0F0C6B2642093FBF0F700FB1730C1B21A
:1010D000132E02DD01F16400C1B20846CF1701EB07
:1010E000977701EBA702072092FBF0F700FB172090
:1010F00082B25719601EDFF830C01CF80000384477
:1011000082B2CF1701EB9777BF10B1EB870703D1FE
:10111000032C01DA501E82B2072092FBF0F700FB8D
:101120001720C0B2F0BD00008C21000810B50120CE
:10113000FFF7AEFF08B1FFF721FF0220FFF7A8FF7E
:1011400020B10220FFF710FFFFF718FF0520FFF77F
:101150000BFF00F001F810BD00BF0348008810F03D
:10116000200FFAD0704700000428004008B5094855
:10117000006800904FF400300068401C04D1012248
:101180006946500400F036FE4FF400300068024912
:10119000086008BD60210008743F002010B50120E0
:1011A000034908604FF0FF0000F080F910BD000017
:1011B000B0812142F8B5002440F6FF750026FFF704
:1011C000EDFF00F079F987224FF4D571082000F087
:1011D00083F900BFFF2000F0AAF9064616F0800F41
:1011E00003D02800A5F10105F4D10DB9FF20F8BD09
:1011F000052E12D100BFFFF7D1FF00F05DF9FF22ED
:101200000021012000F068F9002000F06DF80028AE
:10121000F1D101203349087060E0012E5ED1002435
:1012200004E000F0C3F80DF80400641C042CF8D3AB
:10123000FFF7B4FF00F040F99DF8020001284DD1FE
:101240009DF80300AA2849D1C82500BFFF2200212C
:10125000372000F041F9002000F046F808B9FF20DF
:10126000C5E7FF224FF08041292000F035F9280022
:10127000A5F1010501D1FF20B9E7002000F034F805
:101280000028E3D1C82500BFFFF788FF00F014F95C
:10129000FF2200213A2000F01FF9002000F024F87E
:1012A0000028F1D12800A5F10105EDD00DB9FF20EE
:1012B0009DE7002404E000F079F80DF80400641CB8
:1012C000042CF8D39DF8000010F0400F03D0042048
:1012D0000449087002E0022002490870FFF75EFF2F
:1012E000002084E7813F002070B5054640F6FF747A
:1012F00001E0601E84B2FF2000F0D8F8A84201D0BF
:10130000002CF6D10CB9FF2070BD0020FCE710B511
:10131000032400F0D1F895220021084600F0DCF803
:1013200002E00CB9FF2010BD0120FFF7DDFF20B166
:101330002000A4F10101CCB2F3D10020F3E70000BA
:1013400070B50024002500F043F94FF48051154892
:10135000FFF739FA00BF03E0FF2000F0A7F8641C94
:101360000A2CF9D30A2400BFFFF7D1FF05460CB9B8
:10137000FF2070BDFF2D03D12000A4F10104F3D1A3
:101380000A2400BFFFF716FF0748007818B92000AD
:10139000A4F10104F6D10448007808B9FF20E8E779
:1013A0000020E6E7000C0140813F002010B5FF203F
:1013B00000F04CF90446204610BD00002DE9F0472E
:1013C00006460F461446FF25B0464FF0030928484D
:1013D0000078042800D07F0241E000F06DF8012C75
:1013E0000FD101223946112000F076F80020FFF7D6
:1013F0007BFF20BB62024146FE2000F03BF8054621
:101400001DE001223946122000F066F80020FFF7A7
:101410006BFFA0B900BF4FF400724146FE2000F000
:1014200029F8054608F50078601EC0B2040001D016
:10143000052DF0D0012200210C2000F04DF8FFF71F
:10144000ADFE052D09D0FFF77BFF40B1A9F10100EA
:1014500000F0FF092846BDE8F0872846FBE75FEA71
:101460000900A9F1010101F0FF09B6D12846F2E710
:10147000813F00202DE9F04107460C461546002625
:101480003846FFF731FF78B900BF04E0FFF78EFF61
:101490002070641C761CAE42F8D3FFF787FFFFF77D
:1014A00085FF0520BDE8F081FF20FBE710B504466D
:1014B000204600F043F810BD10B500200549086033
:1014C00000F024F808B9002010BD0120014908608F
:1014D00000BFF9E7B081214270B505460C461646BB
:1014E00045F04000FFF7E2FF200EFFF7DFFFC4F3F7
:1014F0000740FFF7DBFFC4F30720FFF7D7FFE0B299
:10150000FFF7D4FF3046FFF7D1FF70BD10B50024C0
:1015100000BFFF20FFF7CAFFFF2801D1002010BD48
:10152000641C6FF07F408442F3D30120F7E710B5CD
:101530000446204600F08AF810BD000070B504464D
:101540000026002500BF2EE04FF400511848FFF799
:1015500038F9012000F02EF814F0800F05D04FF478
:1015600000411348FFF72FF904E04FF40041104801
:10157000FFF727F96006040E012000F01BF84FF476
:1015800000510B48FFF71FF96806050E4FF4804124
:101590000748FFF70DF908B145F00105012000F0FB
:1015A00009F8701CC6B2082ECEDB284670BD0000BC
:1015B000000C014010B5002107E0052200BF130018
:1015C000A2F10104E2B2FAD1491C8142F5D310BD67
:1015D00008B54FF48050ADF8000010208DF80300DE
:1015E00003208DF8020069461748FFF758F84FF4BA
:1015F0000050ADF8000069461348FFF750F84FF46B
:101600008040ADF8000048208DF8030003208DF8DD
:10161000020069460C48FFF742F84FF40040ADF86D
:10162000000010208DF8030069460748FFF737F8DF
:101630004FF480510448FFF7C6F84FF400510248B8
:10164000FFF7C1F808BD0000000C014070B504466A
:101650000026002500BF2EE04FF400511848FFF788
:10166000B0F80120FFF7A6FF14F0800F05D04FF46B
:1016700000411348FFF7A7F804E04FF40041104879
:10168000FFF79FF86006040E0120FFF793FF4FF469
:1016900000510B48FFF797F86806050E4FF480419C
:1016A0000748FFF785F808B145F001050120FFF76D
:1016B00081FF701CC6B2082ECEDB284670BD00002C
:1016C000000C01407047000010B520210448FFF7CE
:1016D00078F84FF480710248FFF775F810BD0000EC
:1016E000000C014010B500F001F810BD00210020F1
:1016F0002E4A126842F480322C4B1A6000BF2B4AEB
:10170000126802F40030491C10B9B1F5A06FF6D18F
:10171000264A126812F4003F01D0012000E00020A8
:10172000012842D1224A126842F01002204B1A606E
:101730001A46126822F003021A601A46126842F032
:1017400002021A60194A5268184B5A601A465268C7
:101750005A601A46526842F480625A601A465268C9
:1017600022F47C125A601A46526842F4E8125A6017
:101770001A46126842F080721A6000BF0B4A126863
:1017800012F0007FFAD0094A526822F00302074B98
:101790005A601A46526842F002025A6000BF034A79
:1017A000526802F00C02082AF9D17047001002407A
:1017B0000020024008B501212020FFF787FA2020F1
:1017C000ADF8000010208DF8030003208DF8020012
:1017D00069460248FEF763FF08BD0000001401409F
:1017E00010B508A000F0EEFAFEF75CFE0F2308A289
:1017F0008C21702000F020F9044600F0E3FAFEF797
:1018000051FE10BD434C522830293B0D0A00000008
:10181000CFB5CDB3D5FDD4DAC6F4B6AF2E2E2E009B
:10182000042808D14FF0E021096941F004014FF08C
:10183000E022116107E04FF0E021096921F0040185
:101840004FF0E022116170477047000010B5FFF7BC
:101850004DFA4FF48030FFF70BFBFFF76DFB1C498F
:10186000087008460078012829D11020FEF7ACFE48
:101870000220FEF7E9FE0020FFF7EEFA0020FFF756
:101880002FFB4FF48060FFF71FFB4FF4E0114FF484
:101890008030FFF737FB0120FFF72EFB0420FFF716
:1018A0000DFB00BF3920FFF7B1FA0028FAD0022063
:1018B000FFF736FB00BFFFF7C7FA0828FBD101216D
:1018C0007C20FFF703FA01210248FFF7EFF910BD72
:1018D000803F00200100600010B5FFF7B7FFFEF762
:1018E0009FFFFFF77CF9FFF7C7F9FFF733F9FFF721
:1018F00027FDFFF7CBF8FFF75DFFFEF7FFFD10BDFB
:1019000010B5FFF733FCFEF761FFFFF769FF10BD6D
:1019100010B51348006840F00100114908600846FE
:101920004068104908400E494860084600680E4962
:1019300008400B4908600846006820F480200860D1
:101940000846406820F4FE0048604FF41F0088609D
:10195000FFF7C8FE4FF000600449086010BD0000AA
:10196000001002400000FFF8FFFFF6FE08ED00E067
:1019700021B1028842F00102028004E002884FF6A1
:10198000FE731A40028070470146888C704781843C
:1019900070470000002202881D4B98420ED01D4B5C
:1019A00098420BD0B0F1804F08D01B4B984205D025
:1019B0001A4B984202D01A4B984204D14FF68F73BB
:1019C0001A404B881A43174B984207D0164B98423F
:1019D00004D04FF6FF431A40CB881A4302808B880D
:1019E00083850B8803850A4B98420BD0094B98429C
:1019F00008D00E4B984205D00D4B984202D00D4BAB
:101A0000984201D10B7A038601238382704700003C
:101A1000002C014000340140000400400008004058
:101A2000000C004000100040001400400040014045
:101A300000440140004801402DE9FE4F05460E4696
:101A40001746984600243CA103C9CDE901013CA0FA
:101A5000006800900023052201A93A4800F038FAF6
:101A6000A946642099FBF0F0303036494871642073
:101A700099FBF0F100FB11900A2190FBF1F030305E
:101A8000304988710A2099FBF0F100FB1190303049
:101A90002C49C8712C200872B24664209AFBF0F0E1
:101AA0003030487264209AFBF0F100FB11A00A214B
:101AB00090FBF1F03030234988720A209AFBF0F154
:101AC00000FB11A030301F49C8722C20087327205A
:101AD000487305E0395D1B4A04F10E001154641C83
:101AE000385D0028F6D12721164A04F10E00115462
:101AF0002C21401C11540A2098FBF0F03030C1B268
:101B000004F1100011540A2098FBF0F100FB118041
:101B10003030C1B204F111001154431C0422694653
:101B2000084800F0D5F90021064A04F116001154C6
:101B30001046BDE8FE8F0000444333322800000009
:101B4000293B0D0ACC59002070B50446002504E05D
:101B50004FF47A7000F004F86D1CA542F8D370BD04
:101B600010B5044621464FF08040FFF710FF00BF3C
:101B70004FF08040FFF708FF0028F9D110BD0000AA
:101B800010B5012440F225511B4800F056F8F8B179
:101B9000194800F00DF9C4B218480078C02829D0BF
:101BA0001648007810F0400F13D00A2C0BD11348C0
:101BB000007840F080001149087000201049114A57
:101BC0001278885416E000200C4908700D490870FE
:101BD00010E00D2C08D00B4801780078401C094A11
:101BE00010700748445405E00448007840F0400075
:101BF0000249087010BD000000380140453F002038
:101C0000473F0020463F002021B1828942F4005224
:101C1000828104E082894DF6FF731A408281704709
:101C200002460020B1F5007F00D100BF13880B42AF
:101C300001D0012000E00020704770B5024600246A
:101C4000002300250020A1F510666A3E00D100BFE8
:101C5000C1F3421501F01F03012606FA03F3012D1B
:101C600002D19689334006E0022D02D1168A334014
:101C700001E0968A33400C12012606FA04F4168815
:101C8000344013B10CB1012000E0002070BDF0B56C
:101C900003460024002600250020A1F510676A3FB6
:101CA00000D100BF1846C1F3421401F01F060127FE
:101CB00007FA06F5012C01D10C3004E0022C01D109
:101CC000103000E014301AB107682F43076002E0BB
:101CD0000768AF430760F0BD2DE9F04786B00546C1
:101CE0000E460024A24600BFA1460027B08900B1DD
:101CF00000BF2F462C8A4CF6FF700440F088044346
:101D00002C82AC894EF6F3100440B0883189084328
:101D1000718908430443AC81AC8A4FF6FF4004400C
:101D2000B0890443AC8201A8FFF706F81F48874238
:101D300002D1DDF810A001E0DDF80CA0A88910F4B4
:101D4000004F08D00AEBCA0000EB0A1031684900C6
:101D5000B0FBF1F807E00AEBCA0000EB0A103168AB
:101D60008900B0FBF1F86420B8FBF0F00401200911
:101D7000642101FB1089A88910F4004F08D032209B
:101D800000EBC900B0FBF1F000F00700044308E0ED
:101D9000322000EB09106421B0FBF1F000F00F00DD
:101DA00004432C8106B0BDE8F087000000380140F4
:101DB00001468888C0F308007047C1F3080282809A
:101DC0007047000010B504460FE0207860B121781C
:101DD0000648FFF7F2FF00BF80210448FFF720FF0D
:101DE0000028F9D0641C00E010BDEEE70038014087
:101DF00000BFFEE72DE9F04105460E461746FEF707
:101E00002FFC3520FEF78EFB2846FEF791FB0B4991
:101E1000087000240CE009480078042807D156F81F
:101E2000241005EB8400FEF7DDFB04490870641CF8
:101E3000BC42F0D3FEF7BEFBBDE8F081783F002046
:101E400070B505460C46002608E014F0010F00D0DE
:101E50006E40284600F047F805466410002CF4D187
:101E6000304670BD70B5002419E0E5B2092128465E
:101E7000FFF7E6FF0D4908550B212846FFF7E0FF65
:101E80000B4908550D212846FFF7DAFF0949085587
:101E90000E212846FFF7D4FF07490855641CFF2C84
:101EA000E3D901200549087070BD0000CC55002021
:101EB000CC560020CC570020CC580020443F0020B6
:101EC000FFF70AFDFEF7A6FA01E0FFF719FDFCE7B0
:101ED00070B50446002003E00D5CC618A555401CF3
:101EE0009042F9DB70BD014611F0800F01D01B203C
:101EF00000E0002080EA4100C0B2704710B5FEF754
:101F000005FA4FF00001016010BD4255524E3230CB
:101F100032364B455940303132333031323334353B
:101F20003637383941424344454632343132313014
:101F30003039353548503338384D004255524E32DD
:101F40003032364B45594030313233303132333410
:101F50003536373839414243444546637C777BF216
:101F60006B6FC53001672BFED7AB76CA82C97DFA8D
:101F70005947F0ADD4A2AF9CA472C0B7FD932636EA
:101F80003FF7CC34A5E5F171D8311504C723C31848
:101F900096059A071280E2EB27B27509832C1A1B6B
:101FA0006E5AA0523BD6B329E32F8453D100ED20C3
:101FB000FCB15B6ACBBE394A4C58CFD0EFAAFB4389
:101FC0004D338545F9027F503C9FA851A3408F9225
:101FD0009D38F5BCB6DA2110FFF3D2CD0C13EC5FBF
:101FE000974417C4A77E3D645D197360814FDC225E
:101FF0002A908846EEB814DE5E0BDBE0323A0A49DE
:1020000006245CC2D3AC629195E479E7C8376D8D44
:10201000D54EA96C56F4EA657AAE08BA78252E1C1E
:10202000A6B4C6E8DD741F4BBD8B8A703EB566480A
:1020300003F60E613557B986C11D9EE1F898116906
:10204000D98E949B1E87E9CE5528DF8CA1890DBFC0
:10205000E6426841992D0FB054BB1652096AD5303B
:1020600036A538BF40A39E81F3D7FB7CE339829B22
:102070002FFF87348E4344C4DEE9CB547B9432A6D1
:10208000C2233DEE4C950B42FAC34E082EA16628A2
:10209000D924B2765BA2496D8BD12572F8F664869D
:1020A000689816D4A45CCC5D65B6926C704850FDFF
:1020B000EDB9DA5E154657A78D9D8490D8AB008C9C
:1020C000BCD30AF7E45805B8B34506D02C1E8FCA16
:1020D0003F0F02C1AFBD0301138A6B3A9111414F0B
:1020E00067DCEA97F2CFCEF0B4E67396AC7422E7E1
:1020F000AD3585E2F937E81C75DF6E47F11A711DC1
:1021000029C5896FB7620EAA18BE1BFC563E4BC686
:10211000D279209ADBC0FE78CD5AF41FDDA833882F
:1021200007C731B11210592780EC5F60517FA919A0
:10213000B54A0D2DE57A9F93C99CEFA0E03B4DAECB
:102140002AF5B0C8EBBB3C83539961172B047EBAC8
:1021500077D626E169146355210C7D000600000046
:1021600064000000303030303030303030303030CB
:102170003030303000000000323031373132323907
:102180004850323532423030000000000003030670
:1021900001040602050003051F1C1F1E1F1E1F1F32
:1021A0001E1F1E1F31372E43303333370037312E79
:1021B00048303338380034302E4830323739003820
:1021C0002E4330313230410034312E4830323830F5
:1021D000410037322E4830333930410034332E48F5
:1021E00030323831410031332E4330333234410004
:1021F00036342E4830333634410039302E483035AD
:102200003035410031352E433033323541003838D6
:102210002E4830343335410032372E483032353590
:10222000410034352E4830323835410038392E4897
:1022300030343336410031362E43303332384100AA
:1022400033392E4830323738410037362E48303453
:10225000303143410031362E483032313143410074
:1022600034372E483033313143410038322E483034
:10227000343131434100322E48304533323143410D
:1022800000372E48304633323143410031302E483A
:102290003030333143410035332E4830333331430E
:1022A000410039342E483035333143410035372E23
:1022B00048303334314341003130312E48303534E9
:1022C000314341003130352E4830373431434100FD
:1022D00032342E483032353143410036312E4830C9
:1022E00033353143410033312E48303236314341AA
:1022F0000033362E483032373143410036382E48CD
:102300003033383143410037342E48303430304B8D
:10231000410031332E48303231304B410034362EBB
:1023200048303331304B410037392E48303431306A
:102330004B4100312E4830453332304B4100352E71
:102340004830463332304B410039322E4830353335
:10235000304B410035362E48303334304B4100315C
:1023600030302E48303534304B41003130342E4837
:10237000303734304B410032322E48303235304B1A
:10238000410036302E48303335304B410032392E43
:1023900048303236304B410033352E4830323730FA
:1023A0004B410036362E48303338304B4100313304
:1023B0002E4830343030555F4B4100352E48303296
:1023C0003530555F4B4100312E4330313331555F4D
:1023D0004B410037382E48303430334D41003230D5
:1023E0002E48303231334D410034392E48303331AC
:1023F000334D410038362E48303431334D410034AE
:102400002E4830453332334D4100392E4830463363
:1024100032334D410031322E48303033334D41009C
:1024200035352E48303333334D410039382E48305E
:102430003533334D410035392E48303334334D4137
:10244000003130332E48303534334D410031303790
:102450002E48303734334D410032362E4830323535
:10246000334D410036332E48303335334D41003340
:10247000332E48303236334D410033382E48303217
:1024800037334D410037302E48303338334D41001B
:1024900032302E483035303555410031382E4830F5
:1024A00034333655410037372E48303430325941B5
:1024B0000031382E483032313259410034382E48FC
:1024C0003033313259410038342E483034313259AA
:1024D0004100332E483045333232594100382E48BE
:1024E000304633323259410031312E4830303332A8
:1024F00059410035342E4830333332594100393692
:102500002E483035333259410035382E4830333477
:10251000325941003130322E483035343259410081
:102520003130362E483037343259410032352E485A
:102530003032353259410036322E48303335325937
:10254000410033322E483032363259410033372E73
:10255000483032373259410036392E48303338321C
:1025600059410031352E4830343031555F43003900
:102570002E4330313331555F430032332E483035EE
:102580003431555F4300372E4830323531555F4383
:1025900000322E4330313138555F430035302E48FC
:1025A00030333134440032322E4830353430555FC8
:1025B0004B00332E4330313138555F4B0031372ECD
:1025C000483032313143584C0038332E48303431A2
:1025D0003143584C0039352E483035333143584C4F
:1025E0000031352E48303231304B584C0038312EC6
:1025F00048303431304B584C0039332E4830353365
:10260000304B584C0032312E48303231334D584C1B
:102610000038372E48303431334D584C0039392E7C
:1026200048303533334D584C0031392E4830323133
:102630003259584C0038352E483034313259584CC4
:102640000039372E483035333259584C0031312E4D
:102650004330313331555F4D0031372E48303430FF
:1026600033555F4D0032352E4830353433555F4D8C
:1026700000392E4830323533555F4D00342E43300B
:10268000313138555F4D00312E48305452432D338F
:10269000354E00322E483054524B2D33354E0033D8
:1026A0002E483054524D2D33354E00342E48305480
:1026B00052592D33354E0037312E48303338385F7C
:1026C0004E4F4E0034302E48303237395F4E4F4E29
:1026D0000034312E4830323830415F4E4F4E003793
:1026E000322E4830333930415F4E4F4E0034332E56
:1026F0004830323831415F4E4F4E0036342E48302C
:10270000333634415F4E4F4E0039302E483035302D
:1027100035415F4E4F4E0038382E48303433354106
:102720005F4E4F4E0032372E4830323535415F4EC6
:102730004F4E0034352E4830323835415F4E4F4EC3
:102740000038392E4830343336415F4E4F4E003317
:10275000392E4830323738415F4E4F4E0037362ED3
:10276000483034303143415F4E4F4E0031362E48B1
:102770003032313143415F4E4F4E0034372E4830B6
:1027800033313143415F4E4F4E0038322E483034A2
:10279000313143415F4E4F4E00322E483045333287
:1027A0003143415F4E4F4E00372E48304633323171
:1027B00043415F4E4F4E0031302E4830303331436D
:1027C000415F4E4F4E0035332E4830333331434155
:1027D0005F4E4F4E0039342E483035333143415F20
:1027E0004E4F4E0035372E483033343143415F4E23
:1027F0004F4E003130312E483035343143415F4E39
:102800004F4E003130352E483037343143415F4E22
:102810004F4E0032342E483032353143415F4E4FF7
:102820004E0036312E483033353143415F4E4F4EE6
:102830000033312E483032363143415F4E4F4E0027
:1028400033362E483032373143415F4E4F4E0036DB
:10285000382E483033383143415F4E4F4E003734C5
:102860002E48303430304B415F4E4F4E0031332EC6
:1028700048303231304B415F4E4F4E0034362E4897
:10288000303331304B415F4E4F4E0037392E483098
:102890003431304B415F4E4F4E00312E483045337E
:1028A00032304B415F4E4F4E00352E48304633326A
:1028B000304B415F4E4F4E0039322E483035333069
:1028C0004B415F4E4F4E0035362E48303334304B3F
:1028D000415F4E4F4E003130302E48303534304B52
:1028E000415F4E4F4E003130342E48303734304B3C
:1028F000415F4E4F4E0032322E48303235304B4120
:102900005F4E4F4E0036302E48303335304B415FEE
:102910004E4F4E0032392E48303236304B415F4EEA
:102920004F4E0033352E48303237304B415F4E4FDB
:102930004E0036362E48303338304B415F4E4F4EC6
:102940000031332E4830343030555F4B415F4E4FAD
:102950004E00352E4830323530555F4B415F4E4F7B
:102960004E0037382E48303430334D415F4E4F4E95
:102970000032302E48303231334D415F4E4F4E00E1
:1029800034392E48303331334D415F4E4F4E00388D
:10299000362E48303431334D415F4E4F4E00342E89
:1029A0004830453332334D415F4E4F4E00392E484B
:1029B00030463332334D415F4E4F4E0031322E4858
:1029C000303033334D415F4E4F4E0035352E483059
:1029D0003333334D415F4E4F4E0039382E4830353A
:1029E00033334D415F4E4F4E0035392E483033342E
:1029F000334D415F4E4F4E003130332E4830353429
:102A0000334D415F4E4F4E003130372E4830373412
:102A1000334D415F4E4F4E0032362E483032353303
:102A20004D415F4E4F4E0036332E48303335334DD7
:102A3000415F4E4F4E0033332E48303236334D41D6
:102A40005F4E4F4E0033382E48303237334D415FA2
:102A50004E4F4E0037302E48303338334D415F4EA5
:102A60004F4E0032302E483035303555415F4E4F95
:102A70004E0031382E483034333655415F4E4F4E7C
:102A80000037372E483034303259415F4E4F4E00B8
:102A900031382E483032313259415F4E4F4E00347A
:102AA000382E483033313259415F4E4F4E00383462
:102AB0002E483034313259415F4E4F4E00332E484C
:102AC000304533323259415F4E4F4E00382E483038
:102AD0004633323259415F4E4F4E0031312E48302D
:102AE00030333259415F4E4F4E0035342E4830332B
:102AF000333259415F4E4F4E0039362E4830353310
:102B00003259415F4E4F4E0035382E483033343203
:102B100059415F4E4F4E003130322E4830353432FD
:102B200059415F4E4F4E003130362E4830373432E7
:102B300059415F4E4F4E0032352E483032353259B2
:102B4000415F4E4F4E0036322E48303335325941B8
:102B50005F4E4F4E0033322E483032363259415F8D
:102B60004E4F4E0033372E483032373259415F4E88
:102B70004F4E0036392E483033383259415F4E4F70
:102B80004E0031352E4830343031555F435F4E4F63
:102B90004E0032332E4830353431555F435F4E4F4F
:102BA0004E00372E4830323531555F435F4E4F4E21
:102BB0000035302E4830333134445F4E4F4E0032B2
:102BC000322E4830353430555F4B5F4E4F4E00311A
:102BD000372E483032313143584C5F4E4F4E00381B
:102BE000332E483034313143584C5F4E4F4E00390C
:102BF000352E483035333143584C5F4E4F4E0031FF
:102C0000352E48303231304B584C5F4E4F4E0038E5
:102C1000312E48303431304B584C5F4E4F4E0039D6
:102C2000332E48303533304B584C5F4E4F4E0032C8
:102C3000312E48303231334D584C5F4E4F4E0038B4
:102C4000372E48303431334D584C5F4E4F4E00399B
:102C5000392E48303533334D584C5F4E4F4E00318E
:102C6000392E483032313259584C5F4E4F4E003871
:102C7000352E483034313259584C5F4E4F4E003962
:102C8000372E483035333259584C5F4E4F4E003155
:102C9000372E4830343033555F4D5F4E4F4E003243
:102CA000352E4830353433555F4D5F4E4F4E003929
:102CB0002E4830323533555F4D5F4E4F4E00312E2A
:102CC00048305452432D33354E5F4E4F4E00322E16
:102CD000483054524B2D33354E5F4E4F4E00332EFD
:102CE000483054524D2D33354E5F4E4F4E00342EEA
:102CF00048305452592D33354E5F4E4F4E003132CD
:102D00002E4830333838555F4E4F4E0031302E4804
:102D10003032383341555F4E4F4E0031312E4830FE
:102D200032383358555F4E4F4E0034322E483032D1
:102D30003830585F4E4F4E0037332E4830333930DD
:102D4000585F4E4F4E0034342E4830323831585F81
:102D50004E4F4E0036352E4830333634585F4E4F86
:102D60004E0039312E4830353035585F4E4F4E00C9
:102D700035312E4830333235585F4E4F4E003238A1
:102D80002E4830323535585F4E4F4E0037352E487D
:102D9000303430304B585F4E4F4E0031342E483077
:102DA0003231304B585F4E4F4E0038302E48303461
:102DB00031304B585F4E4F4E00362E48304633323E
:102DC000304B585F4E4F4E0035322E483033333043
:102DD0004B585F4E4F4E0032332E48303235304B19
:102DE000585F4E4F4E0033302E48303236304B58FD
:102DF0005F4E4F4E0036372E48303338304B585FD9
:102E00004E4F4E0033342E48303236344B585F4EDE
:102E10004F4E0031342E4830343030555F4B585FC0
:102E20004E4F4E00362E4830323530555F4B585F8E
:102E30004E4F4E0032312E483035303555585F4EAA
:102E40004F4E0031392E483034333655585F4E4F8F
:102E50004E0031362E4830343032555F595F4E4F78
:102E60004E0032342E4830353432555F595F4E4F64
:102E70004E00382E4830323532555F595F4E4F4E36
:102E80000031322E4830333838550031302E48303A
:102E9000323833415500362E4330313139415500F7
:102EA00031312E4830323833585500372E433031C7
:102EB000313958550034322E4830323830580037C6
:102EC000332E4830333930580034342E48303238BD
:102ED00031580031342E4330333234580036352ED9
:102EE0004830333634580039312E48303530355873
:102EF0000035312E4830333235580032382E4830C4
:102F0000323535580037352E48303430304B580084
:102F100031342E48303231304B580038302E483062
:102F20003431304B5800362E4830463332304B580F
:102F30000035322E48303333304B580032332E4870
:102F4000303235304B580033302E48303236304B2B
:102F5000580036372E48303338304B580033342E33
:102F600048303236344B580031342E48303430300B
:102F7000555F4B5800362E4830323530555F4B5830
:102F80000031302E4330313331555F4B58003231F0
:102F90002E483035303555580031392E48303433CD
:102FA0003655580031322E4330313331555F590098
:102FB00031362E4830343032555F590032342E4885
:102FC00030353432555F5900382E4830323532555D
:102FD0005F5900352E4330313138555F590030315B
:102FE0002E485033383820C9D5C2BC00332E434157
:102FF0004E4F4E20C9D5C2BC00342E55204F454DF2
:1030000020485020C9D5C2BC00312E4F454D204824
:103010005020C9D5C2BC00352E55204E4F4E2048F9
:103020005020C9D5C2BC00322E4E6F6E20485020B1
:10303000C9D5C2BC0030332ECFD4CABEC9E8B1B89E
:10304000B0E6B1BE0030322E485033383820BCECE8
:10305000B2E200332E43414E4F4E20BCECB2E200B0
:10306000342E55204F454D20485020BCECB2E20094
:10307000312E4F454D20485020BCECB2E200352E99
:1030800055204E4F4E20485020BCECB2E200322E6C
:103090004E6F6E20485020BCECB2E200BC300008FD
:1030A00000000020843F00006C010008A8410008D7
:1030B000843F00201C6B0000D0010008120001209A
:1030C000050102030404500E06070809020406085D
:1030D00000A24A040001611812030C100EDE2F003A
:1030E00008B400002084480020FF1012FF012005D2
:1030F000330200001C0007144530000840011C1278
:10310000351C2118A11C000437320200011205549D
:1031100012095412CC70C328008C211C1227700392
:1031200014800D1C12ECC4031434191C12F91C0376
:1031300014101B5422177002141D5412708C0314A7
:10314000882070168E1803143C2C38125354031424
:10315000F0375422607002143954227E7002103C01
:10316000C4166B6C4733236C25A856016C2534219B
:103170001C031076221C52011C0310D2241C520284
:103180001C0211FF5452035402113E1C52041C0332
:1031900010262F1C5205700211818C5206700211EC
:1031A000DD8C52075402110A1C5208C402118C54BF
:1031B0005209C40211E838520AA80211151C520B18
:1031C0001C021112E0520C1C021110E0520D70038F
:1031D00010E1251C560E88021155A8560F880211C1
:1031E000BD3852101C0211B1A856118803102926AF
:1031F0001C52128C0211DEC45613500211053856AF
:1032000014A4021177385615F802113CFC5A164CDA
:103210000211D0E052173802112CE05A18A0021106
:1032200059E05A194C021118545A1AA00310FB2ED7
:103230001C561B3402118DC4561C88021147C45AF7
:103240001D300211E670521E38021142C45E1F6426
:103250000302116FC452201C02115D705621DC0262
:103260001198A85222E00211F18C5A234C02114D00
:103270008C5E24640302117A8C5225C402114054DE
:103280005A26840310B6211C5627DC0211C81C5292
:1032900028380611B5885E29D4030211DC385A2A71
:1032A000300211C9385E2B4404021122A8522C1C92
:1032B00006111D34562D88021160385E2E640306F7
:1032C00011BC18562F6C0211E9545E3080030611B0
:1032D0009C6C6631A40111C45E322C03061131F8D6
:1032E0005633F8021197A85A34D80211F3A856356C
:1032F000180211201C5E366004021154C45E37446B
:10330000040211AD705E385C05021109E05E39F00F
:1033100003021136705E3A780502118270563BF84E
:103320000211DB705E3C4404021137705E3D4803BD
:10333000021164705E3E10030A11F04C6E3F3C06B1
:103340000511885240FC0211A3A8564134061152BF
:10335000A45E4200070211FCC45E43B4040211588B
:10336000C45E449006021185C466458891C4520427
:103370001C6E468C070111E05E4780030211BFE01E
:103380005648C0021107E06E49E8050111E05E4AA7
:10339000440402114AE0524BA80211A6C4564CDC68
:1033A0000211D3705E4D90060211281C5E4EB803C8
:1033B00002111B8C564FDC0611ED505E505C05026D
:1033C000116BA86E5144040111385E52B40402110D
:1033D000C7C45A53D80E113500075E54580602115F
:1033E000F4C45E551808021111385E56180802110F
:1033F0000EA86E57000701111C5E58C8060611FA88
:10340000F85E59C0080611E7F8565AC0021149A8DB
:10341000525B540611F9185E5C10030211A28C5E17
:103420005DB8030211D5385E5E100A0611FE505ECB
:103430005F1C07061141185260FC02112B386E61A7
:10344000CC050111385E62CC0502115FE05E63CCF1
:10345000050211B8C45E64D809021114C46265A8DB
:1034600001118C6A66680111705A674C0211C470B0
:103470006E6894050111706E69A8070111705E6A8B
:10348000580603109A281C526B1C031099271C6EB7
:103490006C2C0A02102A1C566DDC03109E291C5E3F
:1034A0006E7C040211A9705E6F1C070310B92D1CFD
:1034B0005270380211A88C5E71F4090211CC8C6E26
:1034C00072740601118C5673C00211B7546E743CAD
:1034D000060111546E75C4070111545E7684090209
:1034E000116DE05E77C40702119BE06E78E80C0274
:1034F000102B1C52795402116CA85E7AF00A02114A
:10350000CF385E7BE007021190C46A7CD802102C91
:103510001C5E7DAC0D021171E05E7E500802112F21
:10352000385E7FF0030211F6FC5E808C070211D733
:10353000FC5E812C03021113386E82A8070111E092
:103540006E83980B0111E05E84000E061125345E37
:1035500085000E02117E8C6E86B8030111FC6E8709
:10356000980B0111386E8868090111C46E89740DB9
:103570000111C46E8ADC080111C45E8B200D0E118E
:10358000047805528CE0021123A86E8D600B0111A6
:103590008C6E8EDC0801118C5E8F940C0211458CB0
:1035A0005E90A40806114F506E9198040D114005CD
:1035B0005E9250080211D11C5E93940506112A50A8
:1035C0006E948C070111385E953C0D021146385EF1
:1035D000965407021133A85697F806117C18529892
:1035E0001C02117B385E99AC0606119F185E9A4C3E
:1035F00010061180886E9B340F05116C5E9C64036D
:10360000021170C46E9DE80C01111C5E9E500802F0
:1036100011C6A85E9FC0080211EAA85EA024050298
:1036200011CBA86EA1A4080511185EA28C0E021180
:10363000E4705EA3B40B021108E06EA4CC0C01117F
:10364000706EA5100A01111C6EA6740D01118C6616
:10365000A7F80111705EA8F409021127FC6EA9A455
:103660000F09114C6EAAB00C05116C5AAB4C02112B
:1036700032A85EACEC040211F5386EAD2C030111DA
:10368000C45EAE0813021173C462AF8C0111C46E24
:10369000B0AC060E1026B40B5EB1F0110211DFE0E3
:1036A0005EB22C11021138A85EB3DC0802115EA8CC
:1036B0006EB4D0120111386EB54C100911146EB6EB
:1036C0005C130111C45EB7580D061162505EB8401C
:1036D0001302118B8C5EB9B00C0211AA8C5EBA0871
:1036E000130E110F900652BB5402118AA866BC3407
:1036F0000511885EBDEC120211AEC46EBE641101EC
:1037000011705EBF700702118FE05EC0F4100211ED
:103710003F385EC16012021117A86EC2D40A0111AF
:103720001C6EC3340F01111C66C46C0511346EC5C8
:10373000B80A05116C5EC6DC0F02111FA86EC7988F
:103740000B0111705EC8180F0611EF506EC9080CFE
:103750000511505ECA400502117F705ECBC00F0696
:1037600011DA506ECC64030111385ECD6C08021181
:10377000D6E06ECED8100111C466CF880111C45EA8
:10378000D0CC0C0211F88C6ED118080111705ED2E9
:10379000C4070211031C6ED3B4040111706ED45C13
:1037A000050511342ED5FC0D2D540E0D11240C528F
:1037B000D61C0E1191080C52D7380211B21C52D8E7
:1037C000380E117C440452D9700E11D3340F52DAE2
:1037D000549E96A40852021C52DB700211AB1C527C
:1037E000DCC40E11BF700E52DD8C02116FA852DEC8
:1037F000E00211818C52DF3802114DC452E08C027C
:1038000011A43852E1E00211E68C62E2FC0D118451
:103810000952E3700E1104900D52E48C0211361C13
:1038200062E58C0111701EE69C102D70169E87E8D3
:103830000552031C52E71C0211931C52E81C021192
:103840009F1C52E91C0211AB1C52EA1C9ABB4C5241
:10385000051C52EB8C0310752F1C52ECA80310862C
:10386000251C52ED540211C83852EE540310712633
:103870001C52EFE00F108B2EE40652F0C40211A090
:103880001C52F18C92811C52061C52F2E092AEE066
:1038900052071C52F38C0310682F1C52F41C0310A7
:1038A00063251C56F5340211B03852F6380310590E
:1038B000261C56F7A403109B241C52F81C021199D5
:1038C0005456F9F80F109024480352FA1C03108E36
:1038D0002F1C56FBF80310A6251C56FC3402117A47
:1038E0001C56FDC00211BC5456FE34031065261C44
:1038F00056FFF80B10BE2CBC4B0001140211CE1C5D
:1039000052011C0211DE1C52021C0211EE1C520359
:10391000540B105229BC52041C0B10242ED85205F3
:103920008C0B10A22BF452061C021172385207C4E1
:103930000F10AF2C2C035208700F100C2D54155281
:10394000098C02111B1C520AE00B10FE2CBC520BFE
:10395000E00B104129BC520C540B10132ED8520D01
:10396000E00B10822BF4660E34011138560F180F3D
:10397000108F2C2C036610180E102A48035611883D
:10398000021143545212380F10632A20065213E0DA
:103990000E11343C065A14300F10BF2B5806561522
:1039A000C00211921C5216700E116290065617F842
:1039B0000F109F2CAC06CF1801BC1E2D48207D0097
:1039C0001CCE01BC1EA11CCF1A01BC1EA11CCF1B0A
:1039D00001BC1EA11CCF1C01BC1EA11CCF1D01BC23
:1039E0001EA11CCF1E01BC1EA11CCF1F01BC1EA10D
:1039F0001CCF2001BC1EA11CCF2101BC1EA11CCFCD
:103A00002201BC1EA11CCF2301BC1EA11CCF24017E
:103A1000BC1EA11CCF2501BC1EA11CCF2601BC1EB3
:103A2000A11CCF2701BC1EA11CCF2801BC1EA11CBC
:103A3000CF2901BC1EA11CCF2A01BC1EA11CCF2B6B
:103A400001BC1EA11CCF2C01BC1EA11CCF2D01BC92
:103A50001EA11CCF2E01BC1EA11CCF2F01BC1EA17C
:103A60001CCF3001BC1EA11CCF3101BC1EA11CCF3C
:103A70003201BC1EA11CCF3301BC1EA11CCF3401DE
:103A8000BC1EA11CCF3501BC1EA11CCF3601BC1E23
:103A9000A11CCF3701BC1EA11CCF3801BC1EA11C2C
:103AA000CF3901BC1EA11CCF3A01BC1EA11CCF3BCB
:103AB00001BC1EA11CCF3C01BC1EA11CCF3D01BC02
:103AC0001EA11CCF3E01BC1EA11CCF3F01BC1EA1EC
:103AD0001CCF4001BC1EA11CCF4101BC1EA11CCFAC
:103AE0004201BC1EA11CCF4301BC1EA11CCF44013E
:103AF000BC1EA11CCF4501BC1EA11CCF4601BC1E93
:103B0000A11CCF4701BC1EA11CCF4801BC1EA11C9B
:103B1000CF4901BC1EA11CCF4A01BC1EA11CCF4B2A
:103B200001BC1EA11CCF4C01BC1EA11CCF4D01BC71
:103B30001EA11CCF4E01BC1EA11CCF4F01BC1EA15B
:103B40001CCF5001BC1EA11CCF5101BC1EA11CCF1B
:103B50005201BC1EA11CCF5301BC1EA11CCF54019D
:103B6000BC1EA11CCF5501BC1EA11CCF5601BC1E02
:103B7000A11CCF5701BC1EA11CCF5801BC1EA11C0B
:103B8000CF5901BC1EA11CCF5A01BC1EA11CCF5B8A
:103B900001BC1EA11CCF5C01BC1EA11CCF5D01BCE1
:103BA0001EA11CCF5E01BC1E2DF0276D0813CF5F38
:103BB00001BC1EA138CF6001BC1EA11CCF6101BC9D
:103BC0001EA11CCF6201BC1EA11CCF6301BC1EA1A3
:103BD0001CCF6401BC1EA11CCF6501BC1EA11CCF63
:103BE0006601BC1EA11CCF6701BC1EA11CCF6801D1
:103BF000BC1EA11CCF6901BC1EA11CCF6A01BC1E4A
:103C0000A11CCF6B01BC1EA11CCF6C01BC1EA11C52
:103C1000CF6D01BC1EA11CCF6E01BC1EA11CCF6FBD
:103C200001BC1EA11CCF7001BC1EA11CCF7101BC28
:103C30001EA11CCF7201BC1EA11CCF7301BC1EA112
:103C40001CCF7401BC1EA11CCF7501BC1EA11CCFD2
:103C50007601BC1EA11CCF7701BC1EA11CCF780130
:103C6000BC1EA11CCF7901BC1EA11CCF7A01BC1EB9
:103C7000A11CCF7B01BC1EA11CCF7C01BC1EA11CC2
:103C8000CF7D01BC1EA11CCF7E01BC1EA11CCF7F1D
:103C900001BC1EA11CCF8001BC1EA11CCF8101BC98
:103CA0001EA11CCF8201BC1EA11CCF8301BC1EA182
:103CB0001CCF8401BC1EA11CCF8501BC1EA11CCF42
:103CC0008601BC1EA11CCF8701BC1EA11CCF880190
:103CD000BC1EA11CCF8901BC1EA11CCF8A01BC1E29
:103CE000A11CCF8B01BC1EA11CCF8C01BC1EA11C32
:103CF000CF8D01BC1EA11CCF8E01BC1EA11CCF8F7D
:103D000001BC1EA11CCF9001BC1EA11CCF9101BC07
:103D10001EA11CCF9201BC1EA11CCF9301BC1EA1F1
:103D20001CCF9401BC1EA11CCF9501BC1EA11CCFB1
:103D30009601BC1EA11CCF9701BC1EA11CCF9801EF
:103D4000BC1EA11CCF9901BC1EA11CCF9A01BC1E98
:103D5000A11CCF9B01BC1EA11CCF9C01BC1EA11CA1
:103D6000CF9D01BC1EA11CCF9E01BC1EA11CCF9FDC
:103D700001BC1EA11CCFA001BC1EA11CCFA101BC77
:103D80001EA11CCFA201BC1EA11CCFA301BC1EA161
:103D90001CCFA401BC1EA11CCFA501BC1EA11CCF21
:103DA000A601BC1EA11CCFA701BC1EA11CCFA8014F
:103DB000BC1EA11CCFA901BC1EA11CCFAA01BC1E08
:103DC000A11CCFAB01BC1EA11CCFAC01BC1EA11C11
:103DD000CFAD01BC1EA11CCFAE01BC1EA11CCFAF3C
:103DE00001BC1EA11CCFB001BC1EA11CCFB101BCE7
:103DF0001EA11CCFB201BC1EA11CCFB301BC1EA1D1
:103E00001CCFB401BC1EA11CCFB501BC1EA11CCF90
:103E1000B601BC1EA11CCFB701BC1EA11CCFB801AE
:103E2000BC1EA11CCFB901BC1EA11CCFBA01BC1E77
:103E3000A11CCFBB01BC1EA11CCFBC01BC1EA11C80
:103E4000CFBD01BC1EA11CCFBE01BC1EA11CCFBF9B
:103E500001BC1EA11CCFC001BC1EA11CCFC101BC56
:103E60001EA11CCFC201BC1EA11CCFC301BC1EA140
:103E70001CCFC401BC1EA11CCFC501BC1EA11CCF00
:103E8000C601BC1EA11CCFC701BC1EA11CCFC8010E
:103E9000BC1EA11CCFC901BC1EADB40BCFCA01BC56
:103EA0001EA138CFCB01BC1EA11CCFCC01BC1EA1D2
:103EB0001CCFCD01BC1EA11CCFCE01BC1EA11CCFAE
:103EC000CF01BC1EA11CCFD001BC1EA11CCFD101B3
:103ED000BC1EA11CCFD201BC1EA11CCFD301BC1E95
:103EE000A11CCFD401BC1EA11CCFD501BC1EA11C9E
:103EF000CFD601BC1EA11CCFD701BC1EA11CCFD8A0
:103F000001BC1EA11CCFD901BC1EA11CCFDA01BC73
:103F10001EA11CCFDB01BC1EA11CCFDC01BC1EA15D
:103F20001CCFDD01BC1EA11CCFDE01BC1EA11CCF1D
:103F3000DF01BC1EA11CCFE001BC1EA11CCFE10112
:103F4000BC1EA11CCFE201BC1EA11CCFE301BC1E04
:103F5000A11CCFE401BC1EA11CCFE501BC1EA11C0D
:103F6000CFE601BC1EA11CCFE701BC1EA11CCFE8FF
:103F700001BC1EA11CCFE901BC1EA11CCFEA01BCE3
:103F80001EA11CCFEB01BC1EA11CCFEC01BC1EA1CD
:103F90001CCFED01BC1EA11CCFEE01BC1EA11CCF8D
:103FA000EF01BC1EA11CCFF001BC1EA11CCFF10172
:103FB000BC1EA11CCFF201BC1EA11CCFF301BC1E74
:103FC0002D4C106D581BCFF401BC1EA11CCFF50168
:103FD000BC1EA154CFF601BC1EA11CCFF701BC1E14
:103FE000A11CCFF801BC1EA11CCFF901BC1EA11C55
:103FF000CFFA01BC1EA11CCFFB01BC1EA11CCFFC33
:1040000001BC1EA11CCFFD01BC1EA11CCFFE01BC2A
:104010001EA11CCFFF01BC1E2D9C117D001CCE02D9
:10402000BC1EA11CCF0102BC1EA11CCF0202BC1EE3
:10403000A11CCF0302BC1E2DFC397D001CCE02BC8E
:104040001EA11CCF0502BC1EA11CCF0602BC1EA1D6
:104050001CCF0702BC1EA11CCF0802BC1EAD9812CB
:10406000CF0902BC1EADB412CF0A02BC1E2DC03A4D
:104070007D001CCE02BC1E2DDC3A7D001CCE02BC95
:104080001EA11CCF0D02BC1EA11CCF0E02BC1EA186
:104090001CCF0F02BC1EA11CCF1002BC1EA11CCF46
:1040A0001102BC1EA11CCF1202BC1EAD6403CF13B3
:1040B00002BC1EAD8003CF1402BC1EAD9C03CF1505
:1040C00002BC1EADB803CF1602BC1EADD403CF1781
:1040D00002BC1EADF003CF1802BC1EA968CF1902A6
:1040E000BC1EA11CCF1A02BC1EA11CCF1B02BC1EF1
:1040F000A11CCF1C02BC1EA94CCF1D02BC1EA11CC2
:10410000CF1E02BC1EA11CCF1F02BC1EA11CCF20B3
:1041100002BC1EA11CCF2102BC1EAD5415CF220231
:10412000BC1EAD7015CF2302BC1EA9BCCF2402BC9F
:104130001EA914CF2502BC1EA11CCF2602BC1EA1A5
:104140001CCF2702BC1EA11CCF2802BC1EA11CCF65
:104150002902BC1EA11CCF2A02BC1EA11CCF2B020F
:10416000BC1EAD2006CF2C02BC1EAD3C06CF2D02DE
:10417000BC1EAD5806CF2E02BC1EAD7406CF2F025A
:10418000BC1EAD9006CF3002BC1EADAC069E31C841
:104190003E2D852121042D403E2D743DD23001ADB0
:0841A000C43E9E04FF3E000036
:0400000508000131BD
:00000001FF
