:020000040000FA
:10000000181900206D01000071010000730100004B
:100010007501000077010000790100000000000078
:100020000000000000000000000000007B01000054
:100030007D010000000000007F0100008101000040
:100040008301000083010000000000006906000039
:100050008301000083010000830100008301000090
:100060000000000083010000830100008301000004
:1000700083010000000000008301000083010000F4
:100080008301000083010000830100008301000060
:1000900083010000C306000083010000830100000B
:1000A00083010000000000008301000083010000C4
:1000B00000000000000000000000000083010000BC
:1000C00000F002F800F042F80AA090E8000C824428
:1000D0008344AAF10107DA4501D100F037F8AFF205
:1000E000090EBAE80F0013F0010F18BFFB1A43F016
:1000F000010318473C5200005C520000103A24BF34
:1001000078C878C1FAD8520724BF30C830C144BF7C
:1001100004680C60704700000023002400250026BE
:10012000103A28BF78C1FBD8520728BF30C148BF5A
:100130000B607047642904F0D786782904F0108793
:10014000002070471FB51FBD10B510BD05F09EF80B
:100150001146FFF7F7FF03F0B3FF05F0BCF803B457
:10016000FFF7F2FF03BC05F0C1F8000008480047A4
:10017000FEE7FEE7FEE7FEE7FEE7FEE7FEE7FEE757
:10018000FEE7FEE703480449024A044B70470000BB
:10019000C1000000181100201819002018110020BB
:1001A000FE4910F4001F05D0FD4A526822F00042BB
:1001B000FB4B5A6010F4801F05D0F94A526822F0B8
:1001C0000052F74B5A6010F4004F05D0F44A5268C1
:1001D00022F04002F24B5A6010F4807F05D0F04AC2
:1001E000526822F02002EE4B5A6010F0010F05D049
:1001F000EB4A526822F00402E94B5A6010F4804F37
:1002000005D0E74A526822F01002E54B5A6010F41C
:10021000007F05D0E24A526822F00302E04B5A60A8
:10022000DF4A1268C3430B431A40DD4B1A60704724
:10023000DA4910F4001F05D0D94A526842F0004252
:10024000D74B5A6010F4801F05D0D54A526842F04F
:100250000052D34B5A6010F4004F05D0D04A526878
:1002600042F04002CE4B5A6010F4807F05D0CC4A59
:10027000526842F02002CA4B5A6010F0010F05D0BC
:10028000C74A526842F00402C54B5A6010F4804FCE
:1002900005D0C34A526842F01002C14B5A6010F4B4
:1002A000007F05D0BE4A526842F00302BC4B5A6040
:1002B000BB4A126820EA01031A43B94B1A6070471F
:1002C000F0B501460024002500260C291BD80C207F
:1002D000B0FBF1F701FB170008B10020F0BDB048FA
:1002E0004068B04F384040F08040AD4F78600C20FF
:1002F000B0FBF1F2501E40F4887040F4405040F0E2
:100300008460B86075E050292AD00CDC32291BD0FB
:1003100004DC1E2910D0302936D111E03C2917D039
:10032000462931D118E05A291ED0642920D06E29DF
:1003300022D0782928D123E028240225032625E08D
:1003400040240225032621E03224032502261DE055
:100350003C240325022619E046240325022615E045
:1003600050240325022611E05A24032502260DE01D
:1003700032240325012609E037240325012605E060
:100380003C240325012601E00020A7E700BF4FF42D
:100390008010006820F4F85040F400604FF480179B
:1003A00038607F4840687F4F38407D4F7860B004A8
:1003B00040EA8530204340F0C050F8603846C068BD
:1003C00020F00040F8603846C06840F48000F860D3
:1003D00000BF7348C06810F0804FFAD07248704F69
:1003E000B860384640686F4F3840704F38436C4FA4
:1003F00078606B4840686E4F38404F1E40EA473087
:10040000674F78606B4801FB00F3184666E7F0B56C
:100410000146002400250026302919D83020B0FBE1
:10042000F1F701FB170008B10020F0BD5C484068FF
:100430005C4F38405A4F78603020B0FBF1F3581EC3
:1004400040F4887040F4405040F08460B86067E049
:100450005A2920D008DC32290DD03C290FD046295A
:1004600011D0502927D112E0642918D06E291AD052
:10047000782920D11BE03224032502261DE03C24EC
:100480000325022619E046240325022615E0502400
:100490000325022611E05A24032502260DE032240A
:1004A0000325012609E037240325012605E03C2425
:1004B0000325012601E00020B7E700BF4FF48010BC
:1004C000006820F4F85040F400604FF48017386062
:1004D00033484068334F3840314F7860B00440EAC9
:1004E0008530204340F0C050F8603846C06840F086
:1004F0000040F8603846C06840F48000F86000BFF3
:100500002748C06810F0804FFAD02748244FB860C1
:1005100038464068234F3840244F3843204F786096
:100520001F484068224F38404F1E40EA47301C4F5A
:1005300078602148026840F6F63082420BD240F6DD
:10054000BE20824207D94FF47A7702FB07F0484376
:100550000327B0FBF7F2104667E7F0B5054600BF8A
:100560004FF48010006820F4F85040F400604FF41D
:10057000801108602846FFF7A3FE1049086008486C
:10058000806800F00F00441C0846006860430C4976
:10059000086003488068C0F3031013E00181300055
:1005A00000000648FFE6FFBF1031200400010040B4
:1005B000FF1F00E040420F002C0208004000002016
:1005C00044000020441C22480068B0FBF4F021499C
:1005D00008601F4800682049B0FBF1F734207843D9
:1005E0004FF47A71B0FBF1F0C6B24FF4801000689E
:1005F00020F4F85040EA06204FF480110860F0BD66
:1006000003201649086070470020144908607047AD
:1006100010B51348134908610846406940F00100CD
:1006200048610A2000F09BF900200E490861084645
:10063000406920F0010048614FF0FF30FFF7B0FD46
:100640006E20FFF78AFFFFF7DBFF10BD7047000049
:10065000400000204800002040420F0000D0084029
:100660007462966C000006489349C86B10F0100F36
:1006700015D00DE090490968904A914B1B78D154F0
:100680008F490978491C8E4A117001218D4A1170D9
:100690008949896901F010011029EBD110E010F0AF
:1006A000200F09D08449896901F08001802907D190
:1006B0000121854A117003E040F6FF717E4A5164C2
:1006C00070478249C86B10F0100F15D00DE07F49BC
:1006D00009687A4A7A4B1B78D15479490978491CC0
:1006E000774A11700121774A11707849896901F0C0
:1006F00010011029EBD110E010F0200F09D0734940
:10070000896901F08001802907D101216E4A1170A9
:1007100003E040F6FF716D4A516470472DE9F041E6
:1007200003461001B1FBF0F5B1FBF0F700FB171623
:10073000F701B7FBF0F7781C440805EB941703EBBF
:10074000430CDFF8748108EB8C4CCCF8247004F077
:100750003F0703EB430C08EB8C4CCCF82870BDE84A
:10076000F08170B504460E467CB959480568594871
:10077000C06A20F00F00401D5649C862032000F0F7
:1007800091F8032000F082F816E052488068C0F328
:100790000360401C50490968B1FBF0F54D48406BBF
:1007A00020F4701040F4A0104A494863152000F06E
:1007B00079F8152000F06AF8002043490870414993
:1007C000087004EB44003C4901EB8040006B20F0D2
:1007D000010004EB4401384A02EB814108633246D0
:1007E00029462046FFF79AFF602004EB4401324A75
:1007F00002EB8141C86240F2013004EB440102EB9C
:1008000081410863102004EB440102EB81418863BD
:1008100040F6FF7004EB440102EB814148642F482D
:1008200001682FA004F054FB294802682A48016897
:1008300031A004F04DFB70BD00EB40021E4B03EBFA
:100840008242116000BF00EB40021B4B03EB82426F
:10085000926912F0080FF6D17047F0B507460C46C2
:100860001546002606E014F8011B3846FFF7E4FFA2
:10087000701CC6B2AE42F6D3F0BD30B504460D468C
:10088000E1B20020FFF7D8FF204630BD00F01F0284
:100890000121914042094FF0E02303EB8202C2F8AC
:1008A0000011704700F01F02012191401A4A4309CC
:1008B00042F8231070470000000001489800002013
:1008C0004E0000204D0000204C00002000000D488C
:1008D000480000200000064844000020400000209E
:1008E0004143483531322072756E20617420256491
:1008F00020487A0D0A000000535243436C6F636B2B
:100900003D20256420487A2C2050436C6F636B3D5A
:1009100020256420487A0A0080E200E070B5054690
:100920000E46002404E0295D1DA004F0D1FA641CE9
:10093000B442F8D31CA004F0CBFA70BD70B50546E4
:100940000E46002405E055F8241018A004F0C0FA63
:10095000641CB442F7D314A004F0BAFA70BD00BF0F
:100960000100A0F10100FBD1704701460A78CB7865
:100970000B70CA704A788B784B708A70704730B5AC
:1009800002460B461046D518691E05E004780D781E
:1009900000F8015B01F801498142F7D830BD000041
:1009A000252E3278200000000A000000252E38781D
:1009B0002000000070B504460E46701E54F820104A
:1009C000FBA004F085FAB51E3BE054F82500B0F119
:1009D000805F02D2F8A004F07BFA54F82500B0F151
:1009E000807F02D2F4A004F073FA54F82500B0F529
:1009F000801F02D2F0A004F06BFA54F82500B0F585
:100A0000803F02D2ECA004F063FA54F82500B0F560
:100A1000805F02D2E8A004F05BFA54F82500FF28BA
:100A200002D8E5A004F054FA54F825000F2802D8A3
:100A3000E1A004F04DFA54F82510E0A004F048FAC3
:100A40006D1E002DC1DADEA004F042FA70BD29B19E
:100A500000BF002204C04A1E1100FAD17047C9200D
:100A6000D849096808600020D64909684860D54916
:100A700009688860D3490968C860D2490968086173
:100A80000820D04909684861CF48D0490968086002
:100A9000CF48CE4909684860CE48CC49096888608B
:100AA000CD48CA490968C860CC48C8490968086186
:100AB0000720C64909684861C948CA4909680860E9
:100AC000C948C84909684860C848C6490968886073
:100AD000C748C4490968C860C648C249096808616E
:100AE0000720C0490968486140F20310C2490968FB
:100AF00008600020C04909684860BF4909688860EB
:100B0000BD490968C860BC4909680861BA490968F3
:100B10004861BA48BA4909680860BA48B8490968DA
:100B20004860B948B64909688860B848B449096856
:100B3000C860B748B249096808610320B04909682C
:100B40004861B448B44909680860B448B2490968C2
:100B50004860B348B04909688860B248AE4909683E
:100B6000C860B148AC49096808610020AA49096811
:100B70004861AE48AE4909680860AE48AC490968AA
:100B80004860AD48AA4909688860AC48A849096826
:100B9000C860AB48A649096808610020A4490968F3
:100BA0004861A848A84909680860A848A649096892
:100BB0004860A748A44909688860A648A24909680E
:100BC000C860A548A0490968086107209E490968CE
:100BD0004861704710B58CB0A0A004F079F90024EA
:100BE000FFF73DFF0620A6490860A6480068A64911
:100BF0000968A64A12687B4B1B68CDE90032CDE933
:100C00000210724803686F4802689D48016805A891
:100C100003F059FE06219E480068FFF718FF0621E1
:100C20009C480068FFF713FF9A48006898490968D4
:100C3000CDE9001078480368714802686E48016881
:100C400005A803F056FB20B193A004F041F90CB0C5
:100C500010BD8B48006882008D48016874480068A8
:100C600004F033FAC4B286480068820089480168FB
:100C70007548006804F029FA2043C4B21CB18DA065
:100C800004F026F9E3E792A004F022F997A004F01B
:100C90001FF900BFDBE79F486549096808609E4867
:100CA0006349096848609D486149096888609C48B3
:100CB0005F490968C8609B485D490968086104206C
:100CC0005B490968486198485F4909680860974826
:100CD0005D490968486096485B490968886095489D
:100CE00059490968C8609448574909680861022051
:100CF000554909684861704710B58CB08FA004F061
:100D0000E7F80024FFF7ABFEFFF7C5FF06205C49BC
:100D100008605C4800685C4909685C4A1268314BAD
:100D20001B68CDE90032CDE9021028480368254848
:100D300002685348016805A803F0C5FD50480168E2
:100D400053480068FFF783FE4D480168514800682A
:100D5000FFF77DFE4F48006800904D4803682E481D
:100D600002682748016805A803F013FC20B17CA0A5
:100D700004F0AEF80CB010BD414800688200444851
:100D800001682B48006804F0A0F9C4B23C48006830
:100D90008200404801682C48006804F096F920431E
:100DA000C4B21CB16EA004F093F8E3E7E6E00000E3
:100DB0003078257800000000300000002578000021
:100DC0000A00000058000020E22A78D25C000020CF
:100DD00046E288BD2884FF54954FA8EFAA2C88B618
:100DE000D9AF58F9600000203AF791CA29DA6B941C
:100DF000AB0AB4DCCD2D61138000002054A67678B8
:100E0000700000207A787F5689675689778943ABCE
:100E10009796976983F81FF4740000208809C8E347
:100E2000FCFE519D98B2AFEF42DB5E434584D4E6B1
:100E30008400002079E732827DF298B3A35F8A3A7A
:100E40002AF1D042031AC409880000203270651BC1
:100E5000D3D78738645AD038915888F02D2D2D2D4E
:100E60002D2D2D2D2D42494E4152592045434320D1
:100E7000504D20746573742D2D2D2D2D2D2D0A00B0
:100E8000940000206C000020680000206400002016
:100E90008C0000209000002042494E4152592045CC
:100EA000434320504D2074657374206661696C2043
:100EB00031200A0042494E415259204543432050B7
:100EC0004D202074657374206661696C20320A00BD
:100ED00042494E4152592045434320504D202074F1
:100EE0006573742070617373200A00002D2D2D2D01
:100EF0002D2D2D2D2D42494E415259204543432041
:100F0000504D207465737420656E642D2D2D2D2D2C
:100F10002D2D0A00B47236FCD6F6BC876A00E36257
:100F200088A656ADFE6F45E1A828E587A7484F760D
:100F30002336901DE5D464B18ADDF5232D2D2D2DAA
:100F40002D2D2D2D2D42494E4152592045434320F0
:100F5000504420746573742D2D2D2D2D2D2D0A00D8
:100F600042494E4152592045434320504420746524
:100F70007374206661696C200A000000F0A003F021
:100F8000A7FFF6A003F0A4FF00BFF3E6FD48FE496B
:100F900009680860FD48FC4909684860FC48FA494E
:100FA00009688860FB48F8490968C860FA48F6494A
:100FB000096808610420F44909684861F748F8495C
:100FC00009680860F748F64909684860F648F44936
:100FD00009688860F548F2490968C860F448F04932
:100FE000096808610620EE4909684861F148F2493C
:100FF00009680860F148F04909684860F048EE491E
:1010000009688860EF48EC490968C860EE48EA4919
:10101000096808610620E84909684861EB48EC491D
:1010200009680860EB48EA4909684860EA48E84905
:1010300009688860E948E6490968C860E848E44901
:10104000096808610720E24909684861704710B5DE
:101050008CB0E4A003F03CFF0024FFF700FDFFF795
:1010600095FF0620E8490860E8480068E8490968F3
:10107000E84A1268E84B1B68CDE90032CDE902105E
:10108000E6480368E6480268DF48016805A803F0FF
:101090001AFCDD480168E3480068FFF7D8FCDA482D
:1010A0000168E1480068FFF7D2FCDF480068DD49CD
:1010B0000A68BB490968B44B1B68CDE90031CDE92A
:1010C0000220DA480368DA486421026805A803F0C0
:1010D000C9F920B1D7A003F0FBFE0CB010BDCA487F
:1010E00000688200CF480168B348006803F0EDFF54
:1010F000C4B2C54800688200CB480168B4480068A3
:1011000003F0E3FF2043C4B21CB1CAA003F0E0FE29
:10111000E3E7CFA003F0DCFED4A003F0D9FE00BFCC
:10112000DBE7DC48A44909680860DB48A249096894
:101130004860DA48A04909688860D9489E4909682A
:10114000C860D8489C490968086104209A49096820
:101150004861D5489E4909680860D4489C49096897
:101160004860D3489A4909688860D2489849096814
:10117000C860D14896490968086102209449096805
:101180004861704710B58CB0CCA003F0A1FE0024DC
:10119000FFF765FCFFF7FAFEFFF7C3FF06209A4949
:1011A00008609A4800689A4909689A4A12689A4BF6
:1011B0001B68CDE90032CDE90210984803689848D1
:1011C00002689148016805A803F07DFB8E4801681C
:1011D00094480068FFF73BFC8B4801689248006820
:1011E000FFF735FC904800688E490A686C49096829
:1011F000654B1B68CDE90031CDE902208B480368BF
:101200008B486821026805A803F02CF920B1B4A02E
:1012100003F05EFE0CB010BD7B4800688200814880
:1012200001686548006803F050FFC4B27648006862
:1012300082007D4801686648006803F046FF20434D
:10124000C4B21CB1A6A003F043FEE3E7ABA003F0D9
:101250003FFEB1A003F03CFE00BFDBE700B58BB062
:10126000B7A003F035FEFFF7FAFB062066490860D9
:101270006648006866490968664A1268664B1B68DA
:10128000CDE90032CDE90210644803686448026881
:101290005D48016804A803F016FB644802686448CE
:1012A000016804A803F01AFA18B9AEA003F010FE02
:1012B00004E0B3A003F00CFE0BB000BDB7A003F038
:1012C00007FE00BFF8E7C9205549096808600020FB
:1012D000534909684860524909688860504909685B
:1012E000C8604F490968086108204D49096848618C
:1012F000B4484A4909680860B348484909684860E1
:10130000B248464909688860B14844490968C860DC
:10131000B0484249096808610320404909684861AA
:1013200000203D49096808603B49096848603A491E
:101330000968886038490968C860374909684BE11D
:1013400042494E4152592045434320504420746540
:1013500073742070617373200A0000002D2D2D2DF1
:101360002D2D2D2D2D42494E4152592045434320CC
:101370005044207465737420656E642D2D2D2D2DC1
:101380002D2D0A00D187AA1578000020671C3893FC
:10139000EE8CA93E02FB3DD5898A0A8A12D4E5BAB1
:1013A0007C00002037E25FDB4D5525FF2EACD91ABB
:1013B000DA6054BE57008F44840000200D32D9C239
:1013C000F28B7C7F53129923EE740F58C9CC8D4257
:1013D000880000203CD627162AC2DA0949B6C60979
:1013E0007CD341E62D2D2D2D2D2D2D2D2D42494E19
:1013F0004152592045434320504120746573742D58
:101400002D2D2D2D2D2D0A00940000206C00002084
:101410006800002064000020600000205C000020C4
:10142000580000208C000020900000207400002054
:101430007000002042494E415259204543432050FC
:10144000412074657374206661696C200A00000095
:1014500042494E4152592045434320504120746532
:1014600073742070617373200A0000002D2D2D2DE0
:101470002D2D2D2D2D42494E4152592045434320BB
:101480005041207465737420656E642D2D2D2D2DB3
:101490002D2D0A00B47236FCD6F6BC876A00E362D2
:1014A00088A656ADFE6F45E1A828E587A7484F7688
:1014B0002336901DE5D464B18ADDF5232D2D2D2D25
:1014C0002D2D2D2D2D42494E41525920454343206B
:1014D000505320746573742D2D2D2D2D2D2D0A0044
:1014E00042494E4152592045434320505320746590
:1014F0007374206661696C200A00000042494E4105
:101500005259204543432050532074657374207012
:10151000617373200A0000002D2D2D2D2D2D2D2DF2
:101520002D42494E41525920454343205053207487
:1015300065737420656E642D2D2D2D2D2D2D0A00C3
:101540002D2D2D2D2D2D2D2D2D42494E4152592021
:1015500045434320504A20746573742D2D2D2D2D45
:101560002D2D0A0042494E415259204543432050F7
:101570004A20746573742070617373200A00000040
:1015800042494E4152592045434320504A207465F8
:101590007374206661696C200A0000002D2D2D2DCA
:1015A0002D2D2D2D2D42494E41525920454343208A
:1015B000504A207465737420656E642D2D2D2D2D79
:1015C0002D2D0A00877FC8A2CA238EDE9406A6515D
:1015D000BC6D54475EF4EF8D08610820FB49096833
:1015E0004861FB48FB4909680860FB48F9490968FC
:1015F0004860FA48F74909688860F948F549096878
:10160000C860F848F349096808610320F14909688E
:101610004861704710B586B0F3A003F059FC002470
:10162000FFF751FE0620FA49086008460168F948AC
:101630000068FFF70CFA702105AAF6480368F44821
:101640000078CDE9023204910190F34800680090DF
:10165000EF4803780178DD480268F048006802F03E
:1016600050FDEB4800688200EA480168D9480068EC
:1016700003F02BFDC4B224B1E9A003F029FC06B0AD
:1016800010BDEFA003F024FCF5A003F021FC00BF87
:10169000F5E7FE48CD4909680860FD48CB4909686F
:1016A0004860FC48C94909688860FB48C74909681F
:1016B000C860FA48C549096808610620C349096835
:1016C0004861F748C34909680860F648C149096894
:1016D0004860F548BF4909688860F448BD49096811
:1016E000C860F348BB49096808610620B949096820
:1016F0004861704710B586B0EEA003F0E9FB002406
:10170000FFF7E1FDFFF7C5FF0620C1490860084665
:101710000168C0480068FFF79AF9412105AABD4851
:101720000368BB480078CDE9023204910190BA48C1
:1017300000680090B64803780178A4480268B7486A
:10174000006802F0DEFCB24800688200B14801681F
:10175000A048006803F0B9FCC4B224B1DFA003F0D4
:10176000B7FB06B010BDE5A003F0B2FBEBA003F0A1
:10177000AFFB00BFF5E7F448964909680860F348F5
:10178000944909684860F248924909688860F148BC
:1017900090490968C860F0488E49096808610720C7
:1017A0008C490968486170473EB5ECA003F090FB96
:1017B0000024FFF788FDFFF7DEFF0620944908604C
:1017C0000846016893480068FFF741F902A891496B
:1017D0000968CDE900108E48037801788E480268C8
:1017E0008E48006802F0FDFC894800688200894844
:1017F00001687848006803F068FCC4B21CB1E1A03D
:1018000003F066FB3EBDE7A003F062FBEDA003F032
:101810005FFB00BFF6E7F6486E4909680860F548C7
:101820006C4909684860F4486A4909688860F34867
:1018300068490968C860F248664909680861052076
:10184000644909684861704710B586B0EDA003F09F
:101850003FFB0024FFF737FDFFF71BFFFFF7DBFF20
:1018600006206B490860084601686A480068FFF76F
:10187000EEF805A96748026865480078664B1B6862
:10188000CDE90030CDE902216148037801784F4865
:1018900002686248006802F0D6FC5D480068820079
:1018A0005C4801684B48006803F00FFCC4B224B1E7
:1018B000DEA003F00DFB06B010BDE4A003F008FBB2
:1018C000EAA003F005FB00BFF5E7F34852490860C2
:1018D00048305249086048303C4908604830EF4978
:1018E00008604830EE4908604830EE4908604830EA
:1018F000ED4908604830ED4908604830EC4908601F
:101900004830EC4908604830EB49086048303149BC
:1019100008604830E949086048303E49086048306E
:10192000E7490860704710B5E648FEF739FCFFF755
:10193000CCFFE5A003F0CCFAFFF74CF9FFF7DCF998
:10194000FFF785FBFFF71EFCFFF788FCFFF762FE41
:10195000FFF7D0FEFFF728FFFFF776FFE3A003F0C5
:10196000B7FA10BDEB482C4909680860EA482A49D3
:1019700009684860E948284909688860E8482649B4
:101980000968C860E748244909680861E148C01E41
:10199000224909680860E048204909684860DF4832
:1019A0001E4909688860DE481C490968C860DD482E
:1019B0001A4909680861DC48BF4909680860DB48C2
:1019C000BD4909684860DA48BB49B3E160000020BE
:1019D000877FC8A284000020CA238EDE9406A65109
:1019E000BC6D54475EF4EF8D2D2D2D2D2D2D2D2DFD
:1019F0002D42494E41525920454343204D4F444DBD
:101A00004520746573742D2D2D2D2D2D2D0A00006C
:101A1000940000208C000020580000205C00002072
:101A200042494E41525920454343204D4F444D4574
:101A30002074657374206661696C200A00000000E0
:101A400042494E41525920454343204D4F444D4554
:101A500020746573742070617373200A00000000A5
:101A60002D2D2D2D2D2D2D2D2D42494E41525920FC
:101A7000454343204D4F444D4520746573742065A4
:101A80006E642D2D2D2D2D2D2D0A0000F5315B0FAF
:101A9000FF4690AEC2620B16CF00EC2106A8FC20D8
:101AA000A60793626EDED6AF8FCD7C0CBF5EC607F5
:101AB000E68003472D2D2D2D2D2D2D2D2D42494E08
:101AC00041525920454343204D4F444D554C2074BD
:101AD0006573742D2D2D2D2D2D2D0A0042494E415B
:101AE000525920454343204D4F444D554C20746579
:101AF0007374206661696C200A00000042494E41FF
:101B0000525920454343204D4F444D554C20746558
:101B100073742070617373200A0000002D2D2D2D29
:101B20002D2D2D2D2D42494E415259204543432004
:101B30004D4F444D554C207465737420656E642D73
:101B40002D2D2D2D2D2D0A0030496A9E3B4241B589
:101B5000F77AEB17CBCC675730D8D0EF2D2D2D2D42
:101B60002D2D2D2D2D42494E4152592045434320C4
:101B70004D4F4453515220746573742D2D2D2D2DCE
:101B80002D2D0A0042494E41525920454343204DD4
:101B90004F445351522074657374206661696C2000
:101BA0000A00000042494E41525920454343204D0E
:101BB0004F445351522074657374207061737320C5
:101BC0000A0000002D2D2D2D2D2D2D2D2D42494E9D
:101BD00041525920454343204D4F445351522074A4
:101BE00065737420656E642D2D2D2D2D2D2D0A000D
:101BF000724E93AD35651E705664AD47736DB86611
:101C0000585C13AD2D2D2D2D2D2D2D2D2D42494EF2
:101C100041525920454343204D4F444D4120746566
:101C200073742D2D2D2D2D2D2D0A000042494E416E
:101C3000525920454343204D4F444D412074657314
:101C400074206661696C200A0000000042494E4120
:101C5000525920454343204D4F444D4120746573F4
:101C6000742070617373200A000000002D2D2D2D4B
:101C70002D2D2D2D2D42494E4152592045434320B3
:101C80004D4F444D41207465737420656E642D2D55
:101C90002D2D2D2D2D0A0000B800002064000020FD
:101CA000680000206C0000207000002074000020FC
:101CB000780000207C0000208000002088000020A8
:101CC00090000020000102002D2D2D2D2D2D2D2DF9
:101CD0002D42494E41525920454343207465737447
:101CE0002D2D2D2D2D2D2D0A000000002D2D2D2DFB
:101CF0002D2D2D2D2D42494E415259204543432033
:101D00007465737420656E642D2D2D2D2D2D2D0A77
:101D1000000000004FF93F9F6B49D03AB5537688D9
:101D200029DDC8184D4E41BFD886F08812F858A852
:101D30004D05894009688860FD48FE490968C8600A
:101D4000FD48FC4909680861FC48FD4909680860CC
:101D5000FC48FB4909684860FB48F9490968886004
:101D6000FA48F7490968C860F948F54909680861FF
:101D7000F848F94909680860F848F749096848606F
:101D8000F748F54909688860F648F3490968C8606A
:101D9000F548F14909680861F448F549096808609F
:101DA000F448F34909684860F348F14909688860D4
:101DB000F248EF490968C860F148ED4909680861CF
:101DC000F048F14909680860F048EF49096848603F
:101DD000EF48ED4909688860EE48EB490968C8603A
:101DE000ED48E94909680861704710B58CB0EBA06F
:101DF00003F06EF80024FFF7B5FD0520EF490860F9
:101E0000EF480068EF490968EF4A1268EF4B1B681A
:101E1000CDE90032CDE90210ED480368ED480268D3
:101E2000E648016805A802F04EFD0621EA48006870
:101E3000FEF70DFE0621E9480068FEF708FEE748B8
:101E40000068E5490968CDE90010C3480368BC484B
:101E50000268B848016805A802F03EFD20B1E0A084
:101E600003F036F80CB010BDD44800688200DA48A0
:101E70000168BF48006803F028F9C4B2CF48006881
:101E80008200D6480168C048006803F01EF920436C
:101E9000C4B21CB1D8A003F01BF8E3E7DCA003F048
:101EA00017F8E0A003F014F800BFDBE74FF0FF30B5
:101EB000C84909680860C74909684860C549096890
:101EC00088600020C3490968C860C2490968086180
:101ED000C049096848610120BE4909688861801EBF
:101EE000BC490968C8618000B94909680860801068
:101EF000B74909684860B649096888600020B44954
:101F00000968C860B24909680861B149096848614F
:101F10000120AF4909688861801EAD490968C86120
:101F2000C948874909680860C84885490968486000
:101F3000C748834909688860C64881490968C860FC
:101F4000C5487F4909680861C4487D4909684861F6
:101F5000C3487B4909688861C24879490968C861F2
:101F6000C1487D4909680860C0487B4909684860E4
:101F7000BF48794909688860BE4877490968C860E0
:101F8000BD48754909680861BC48734909684861DA
:101F9000BB48714909688861BA486F490968C861D6
:101FA000B948734909680860B848714909684860C8
:101FB000B7486F4909688860B6486D490968C860C4
:101FC000B5486B4909680861B448694909684861BE
:101FD000B348674909688861B24865490968C861BA
:101FE000B148694909680860B048674909684860AC
:101FF000AF48654909688860AE4863490968C860A8
:10200000AD48614909680861AC485F4909684861A1
:10201000AB485D4909688861AA485B490968C8619D
:10202000704710B58CB0A8A002F052FF0024FFF753
:102030003DFF0820614908606148006861490968FE
:10204000614A1268614B1B68CDE90032CDE902108C
:102050005F4803685F4802685848016805A802F0B5
:1020600032FC564801685C480068FEF7F0FC5348B3
:1020700001685A480068FEF7EAFC5848006800907A
:1020800055480368344802682D48016805A802F0E5
:10209000F0FC20B194A002F01BFF0CB010BD47482B
:1020A000006882004C4801683148006803F00DF870
:1020B000C4B242480068820048480168324800685B
:1020C00003F003F82043C4B21CB187A002F000FF64
:1020D000E3E78AA002F0FCFE8DA002F0F9FE00BF4B
:1020E000DBE74FF0FF303B49096808603949096870
:1020F000486038490968886036490968C8603549C8
:10210000096808613349096848613249096888618A
:1021100030490968C8612F49096808622D49096872
:1021200048622C49096888622A490968C86201E145
:102130007CA4743E800000203AD92A7C20301C9078
:1021400070000020127DB87F581DF723BFF400D522
:10215000CAA9778E07584D9F74000020FE43C362C2
:10216000498C7FADEC5393EBA4C9925D533E4E6016
:102170008400002095567194CCB1E496FBE3FC8B6F
:10218000C118EFBD1B6D671088000020A7A67EC593
:1021900063F90E0FDD714D8AB5DA46272D2D2D2DF1
:1021A0002D2D2D2D2D45434320504D2074657374E6
:1021B0002D2D2D2D2D2D2D0A000000009400002026
:1021C0006C000020680000206400002060000020F7
:1021D0005C000020580000208C00002090000020AF
:1021E00045434320504D2074657374206661696CCB
:1021F0002031200A0000000045434320504D20209C
:1022000074657374206661696C20320A00000000F6
:1022100045434320504D20207465737420706173D2
:1022200073200A002D2D2D2D2D2D2D2D2D454343B1
:1022300020504D207465737420656E642D2D2D2DF6
:102240002D2D2D0A00000000AAAD9A210335F0F1D2
:102250000675192835310C30D1BF7C253CBEB1073D
:10226000F1FF81040677F4B41F0DA6FCA89D7DED57
:102270009213B67311EDFF0C93B4832570272E9043
:10228000F43FE906DC96C5AB2C3CC042C42CCC071D
:1022900001B36117E04CAD48114F7E9EDA574131D2
:1022A000C91DB4F7391B539E5B047C1D49596A3222
:1022B00003912CE057A868DC194C988E6F9BAD9861
:1022C000BAF4C2808F6FBDF42D2D2D2D2D2D2D2D07
:1022D0002D45434320504420746573742D2D2D2DBE
:1022E0002D2D2D0A0000000045434320504420209E
:1022F00074657374206661696C200A00454343204D
:1023000050442020746573742070617373200A0038
:102310002D2D2D2D2D2D2D2D2D4543432050442089
:102320007465737420656E642D2D2D2D2D2D2D0A51
:1023300000000000FE4909680863FD490968486318
:10234000FB4909688863FA490968C863C00DF84900
:10235000096808646FF00300F64909680860801096
:10236000F44909684860F34909688860F1490968D7
:10237000C860F04909680861EE4909684861ED499B
:1023800009688861EB490968C861EA490968086217
:10239000E84909684862E74909688862E5490968C7
:1023A000C862E44909680863E24909684863E14989
:1023B00009688863DF490968C863C00DDD49096899
:1023C0000864DD48DD4909680860DD48DB490968C3
:1023D0004860DC48D94909688860DB48D749096802
:1023E000C860DA48D54909680861D948D3490968FD
:1023F0004861D848D14909688861D748CF490968F8
:10240000C861D648CD4909680862D548CB490968F2
:102410004862D448C94909688862D348C7490968ED
:10242000C862D248C54909680863D148C3490968E8
:102430004863D048C14909688863CF48BF490968E3
:10244000C8631F20BD4909680864CC48CC490968A5
:102450000860CC48CA4909684860CB48C84909683F
:102460008860CA48C6490968C860C948C44909683B
:102470000861C848C24909684861C748C049096835
:102480008861C648BE490968C861C548BC49096831
:102490000862C448BA4909684862C348B84909682B
:1024A0008862C248B6490968C862C148B449096827
:1024B0000863C048B24909684863BF48B049096821
:1024C0008863BE48AE490968C8634FF4F970AC49E7
:1024D00009680864BA48BB4909680860BA48B9493C
:1024E00009684860B948B74909688860B848B5497B
:1024F0000968C860B748B34909680861B648B14976
:1025000009684861B548AF4909688861B448AD4970
:102510000968C861B348AB4909680862B248A9496B
:1025200009684862B148A74909688862B048A54966
:102530000968C862AF48A34909680863AE48A14961
:1025400009684863AD489F4909688863AC489D495C
:102550000968C8631A209B4909680864A948AA4900
:1025600009680860A948A84909684860A848A649B8
:1025700009688860A748A4490968C860A648A249B4
:1025800009680861A548A04909684861A4489E49AE
:1025900009688861A3489C490968C861A2489A49AA
:1025A00009680862A148984909684862A0489649A4
:1025B000096888629F4894490968C8629E489249A0
:1025C000096808639D489049096848639C488E499A
:1025D000096888639B488C490968C863D4208A4984
:1025E00009680864984899490968086098489749B3
:1025F00009684860974895490968886096489349F2
:102600000968C860954891490968086194488F49EC
:102610000968486193488D490968886192488B49E7
:102620000968C861914889490968086290488749E2
:10263000096848628F488549096888628E488349DD
:102640000968C8628D488149096808638C487F49D8
:10265000096848638B487D49096888638A487B49D3
:102660000968C86340F221107849096808648748FE
:10267000874909680860874885490968486086482D
:10268000834909688860854881490968C860844829
:102690007F490968086183487D4909684861824823
:1026A0007B4909688861814879490968C86180481F
:1026B0007749096808627F487549096848627E4819
:1026C0007349096888627D4871490968C8627C4815
:1026D0006F49096808637B486D49096848637A480F
:1026E0006B4909688863794869490968C863CE20DD
:1026F000674909680864704710B58CB074A002F08F
:10270000E7FB0024FFF7EDFC1120794908607948C8
:10271000006879490968794A1268794B1B68CDE9E4
:102720000032CDE902100348036801480268E9E07D
:10273000580000205C00002004AC7BE77000002003
:10274000C92EEFD9A6259D65DE761B05537806B800
:10275000BD6DC6FD993D01922B3B13682C37286E49
:102760003AB4B046DE1CC0993BCE3C0AB41DE6E745
:1027700007D797B31E81CC9D83FC7982EDE284DE7E
:10278000740000202F559AD8AC7B5B82A23681E37F
:102790008F0748A0B718D6214C46424A2890FADD48
:1027A00018B339D7497B0E8ABD705A8746D2D237C3
:1027B000BA87B51CC5F094281D68440DE948A56387
:1027C0009F851A58780000208D2BF0E6DD0624A5A1
:1027D000087C3AA996EA9EB0BCC56529DD78E3D8A5
:1027E00064040F5B18137D8FA9B79E0AA6FE79714A
:1027F000A641C6DFE49FF00C3E14BBFD4E44C13A37
:10280000ACD56114B378F02F7C00002001F81D9D39
:102810001AD26C54D7BDB5D13C3A44ED6DA2022614
:10282000088562AE2D364AEA9E3F20F6BB6E5DEC0F
:10283000C6BD49E6E12A3A5F59949B78C4EA482C20
:1028400083354BD77868C50605771B348400002094
:10285000AF03AEA2C0F9C740398DCCFF3E273F9FE2
:1028600033BF43127E51B0FB4165F5BC601F38E3B6
:102870009CB2586A18A6CE32750888C61910E0B006
:10288000C3A68CE543105119736A82B22AF69EA939
:10289000880000205AE3EB57A54D1AA0612C4F2F5A
:1028A0008EECE2F9D48636A1113E72162EF252FB5E
:1028B0004C8207008EDC8B2236085664D2C2C8C018
:1028C000CB31F6A4327848FA549D1CD62DDC37C0A3
:1028D0002D2D2D2D2D2D2D2D2D45434320504120C7
:1028E000746573742D2D2D2D2D2D2D0A00000000E3
:1028F000940000206C00002068000020640000208C
:1029000060000020FE48016805A801F0DCFFFC48DB
:102910000168FC480068FEF79AF8F9480168FA482F
:102920000068FEF794F8F8480068F6490A68F74925
:102930000968F74B1B68CDE90031CDE90220F54865
:102940000368F5482421026805A802F028F820B1A0
:10295000F2A002F0BDFA0CB010BDE9480068820098
:10296000E8480168F248006802F0AFFBC4B2E448EE
:1029700000688200E4480168EE48006802F0A5FBA8
:102980002043C4B21CB1E5A002F0A2FAE3E7EAA03A
:1029900002F09EFAEDA002F09BFA00BFDBE74FF0D9
:1029A000FF30F34909680860F14909684860F04957
:1029B000096888600020EE490968C860EC49096828
:1029C0000861EB49096848610120E94909688861A3
:1029D000801EE7490968C8618000E6490968086007
:1029E0008010E44909684860E2490968886000206D
:1029F000E0490968C860DF4909680861DD4909687C
:102A000048610120DB4909688861801ED94909684D
:102A1000C861D948BE4909680860D848BC490968F6
:102A20004860D748BA4909688860D648B8490968F3
:102A3000C860D548B64909680861D448B4490968EE
:102A40004861D348B24909688861D248B0490968E9
:102A5000C861D148AD4909680860D048AB490968E8
:102A60004860CF48A94909688860CE48A7490968E5
:102A7000C860CD48A54909680861CC48A3490968E0
:102A80004861CB48A14909688861CA489F490968DB
:102A9000C861C948A04909680860C8489E490968D2
:102AA0004860C7489C4909688860C6489A490968CF
:102AB000C860C548984909680861C44896490968CA
:102AC0004861C348944909688861C24892490968C5
:102AD000C861C1488F4909680860C0488D490968C4
:102AE0004860BF488B4909688860BE4889490968C1
:102AF000C860BD48874909680861BC4885490968BC
:102B00004861BB48834909688861BA4881490968B6
:102B1000C861B948864909680860B84884490968A5
:102B20004860B748824909688860B64880490968A2
:102B3000C860B5487E4909680861B4487C4909689D
:102B40004861B3487A4909688861B2487849096898
:102B5000C861B148774909680860B0487549096893
:102B60004860AF48734909688860AE487149096890
:102B7000C860AD486F4909680861AC486D4909688B
:102B80004861AB486B4909688861AA486949096886
:102B9000C861704710B58CB0A7A002F099F9002465
:102BA000FFF7FDFE082056490860AB480068AB49B6
:102BB0000968AB4A1268AB4B1B68CDE90032CDE91E
:102BC00002106C4803686A4802684D48016805A80D
:102BD00001F079FE4A4801684A480068FDF737FF6E
:102BE0004748016848480068FDF731FF46480068DB
:102BF00044490A6845490968454B1B68CDE90031DD
:102C0000CDE902204348036843482821026805A80B
:102C100001F0C5FE20B194A002F05AF90CB010BD2D
:102C2000374800688200374801684148006802F070
:102C30004CFAC4B2324800688200334801683D480B
:102C4000006802F042FA2043C4B21CB186A002F030
:102C50003FF9E3E789A002F03BF98DA002F038F9D3
:102C600000BFDBE793484249096808609248404941
:102C70000968486091483E490968886090483C4925
:102C80000968C8608F483A49096808618948C01EC8
:102C900038490968086088483649096848608748A3
:102CA000344909688860864832490968C86085489F
:102CB00030490968086184486A490968086083489E
:102CC000684909684860824866490968886081489F
:102CD00064490968C86080486249096808617F489A
:102CE0000D49096808607E480B49096848607D48BD
:102CF0000949096888607C4807490968C860F5E0A7
:102D0000940000208C000020900000207C00002017
:102D1000780000207400002070000020454343200C
:102D20005041202074657374206661696C200A002C
:102D3000840000208800002045434320504120208B
:102D4000746573742070617373200A002D2D2D2D0E
:102D50002D2D2D2D2D454343205041207465737436
:102D600020656E642D2D2D2D2D2D2D0A00000000C7
:102D7000580000205C0000202F1D37906C10064F7B
:102D8000F8A81A275C9663737E0869F2D1E636319B
:102D900004781ACEF3A17DBDC5B015A05CF2A344A2
:102DA000556E24FCC23C4E4DDFDB2D60A353C9029F
:102DB00075B551C5FB39118672D0022B2FC760B58E
:102DC000B43C5A9553A31B2DF4AF269500E0CC03D9
:102DD0006F87810140F06055A17159D470B554CF0F
:102DE000F3BEFCE1050279C37346303B354BF75A1D
:102DF0001293098D3D70EA8515073FE9AC0D049EDD
:102E0000C1C53CFE37418F7999361F99D4F2260A05
:102E1000D2438569F6E714182696917815D22E804C
:102E2000600B9AAAAFED09EE7D470B9ECB69A11509
:102E30003ECBCE7D6DBFCDB62D2D2D2D2D2D2D2D27
:102E40002D45434320505320746573742D2D2D2D33
:102E50002D2D2D0A000000006C00002068000020CD
:102E60006400002060000020454343205053202090
:102E700074657374206661696C200A0045434320C1
:102E800050532020746573742070617373200A009E
:102E90002D2D2D2D2D2D2D2D2D45434320505320EF
:102EA0007465737420656E642D2D2D2D2D2D2D0AC6
:102EB000000000004FF93F9F6B49D03AB553768828
:102EC00029DDC8184D4E41BF63288795D1DE3EC726
:102ED000C3EF2010E584053C1F5E246C20301C905D
:102EE000127DB87F581DF723BFF400D5FB48FC497D
:102EF00009680861FB48FC4909680860FB48FA4911
:102F000009684860FA48F84909688860F948F6494C
:102F10000968C860F848F44909680861704700B555
:102F20008BB0F6A001F0D4FFFFF79CFE0520FB4913
:102F30000860FB480068FB490968FB4A1268FB4BC4
:102F40001B68CDE90032CDE90210F9480368F94861
:102F50000268F248016804A801F0B5FCE248026882
:102F6000DF48016804A801F0E0FD18B9F2A001F003
:102F7000AFFF04E0F5A001F0ABFF0BB000BDF8A07F
:102F800001F0A6FF00BFF8E7FE48EA4909680860BB
:102F9000FD48E84909684860FC48E64909688860D6
:102FA000FB48E4490968C860FA48E24909680861D1
:102FB000F948E04909684861F848DE4909688861CC
:102FC000F748DC490968C861F648D94909680860CA
:102FD000F548D74909684860F448D54909688860C8
:102FE000F348D3490968C860F248D14909680861C3
:102FF000F148CF4909684861F048CD4909688861BE
:10300000EF48CB490968C861EE48C84909680860BB
:10301000ED48C64909684860EC48C44909688860B9
:10302000EB48C2490968C860EA48C04909680861B4
:10303000E948BE4909684861E848BC4909688861AF
:10304000E748BA490968C861E648E749096808607D
:10305000E648E54909684860E548E3490968886049
:10306000E448E1490968C860E348DF490968086144
:10307000E248DD4909684861E148DB49096888613F
:10308000E048D9490968C861704710B586B0DEA02C
:1030900001F01EFF0024FFF777FF08209F4908601A
:1030A00008460168E0480068FDF7D1FC302105AA18
:1030B000DD48036899480078CDE902320491019017
:1030C0009C4800680090954803780178974802680A
:1030D0009748006801F08AFE904800688200D24854
:1030E0000168C148006801F0F0FFC4B224B1CFA06C
:1030F00001F0EEFE06B010BDD2A001F0E9FED7A0AF
:1031000001F0E6FE00BFF5E7DD488A49096808607E
:10311000DC48884909684860DB4886490968886056
:10312000002084490968C860824909680861D74855
:103130007F4909680860D6487D4909684860D548D4
:103140007B4909688860002079490968C860784926
:1031500009680861D048754909680860CF48734913
:1031600009684860CE4871490968886000206F4945
:103170000968C8606D4909680861CA489A490968C0
:103180000860C948984909684860C848964909686C
:103190008860002094490968C860934909680861FB
:1031A000704710B586B0C2A001F092FE0024FFF770
:1031B000ABFF052059490860084601689A48006835
:1031C000FDF745FC012105AA97480368534800789C
:1031D000CDE90232049101905648006800904F48B2
:1031E00003780178514802685148006801F0FEFDFB
:1031F0004A48006882008C4801687B48006801F0FA
:1032000064FFC4B224B1B3A001F062FE06B010BDE9
:10321000B6A001F05DFEBBA001F05AFE00BFF5E7CD
:10322000C248444909680860C14842490968486081
:10323000BE483F4909680860BD483D490968486083
:103240000020694909680860674909684860704753
:103250003EB5B8A001F03CFE0024FFF7E1FF0220DC
:103260002E490860084601686F480068FDF7EFFBCB
:1032700002A86D490968CDE9001028480378017853
:103280002C4802682A48006801F06EFA234800685A
:103290008200654801685448006801F016FFC4B216
:1032A0001CB1ADA001F014FE3EBDB1A001F010FEB6
:1032B000B5A001F00DFE00BFF6E7BD481D49096845
:1032C0000860BC481B4909684860BB48194909683F
:1032D0008860BA4817490968C86071E1CAA9778E41
:1032E0007000002007584D9F74000020FE43C36209
:1032F000498C7FADEC5393EBA4C9925D2D2D2D2D00
:103300002D2D2D2D2D45434320504A207465737477
:103310002D2D2D2D2D2D2D0A0000000094000020B4
:103320006C00002068000020640000206000002085
:103330005C0000205800002045434320504A2020D4
:10334000746573742070617373200A0045434320D1
:10335000504A202074657374206661696C200A00ED
:103360002D2D2D2D2D2D2D2D2D45434320504A2023
:103370007465737420656E642D2D2D2D2D2D2D0AF1
:10338000000000000D137F493B9812AA70A75C094A
:103390001613410AA9151E2F84A3333C67DE3BB3E5
:1033A0001F4090CC760F9D2CED130CDDE637CE46FA
:1033B00054E4A96201F7591BD1AE5956D1FBFA600A
:1033C00048067DBAA85AF3FFA7F427A6535B36C474
:1033D000AC180FFE2B31CD803DC496544C519CB59A
:1033E000D60CFC0B430A1089840000200533B8D0AA
:1033F000C3E24FC39A3C9F64272722D751C03CCADF
:1034000086B60A2F826D99352D2D2D2D2D2D2D2D22
:103410002D454343204D4F444D4520746573742D15
:103420002D2D2D2D2D2D0A008C00002045434320ED
:103430004D4F444D45202074657374206661696C5E
:10344000200A0000454343204D4F444D4520207441
:103450006573742070617373200A00002D2D2D2D6B
:103460002D2D2D2D2D454343204D4F444D4520748A
:1034700065737420656E642D2D2D2D2D2D2D0A0064
:10348000A56982A4778FF23B76F54569C8580DACE3
:10349000B3270975E7061C334290A98514D5D4BA21
:1034A00018BAAA21FD7BB402EA64252958DF3A4EF6
:1034B0002D2D2D2D2D2D2D2D2D454343204D4F44AC
:1034C0004D554C20746573742D2D2D2D2D2D2D0AE9
:1034D00000000000454343204D4F444D554C2020F3
:1034E00074657374206661696C200A00454343204B
:1034F0004D4F444D554C202074657374207061739A
:1035000073200A002D2D2D2D2D2D2D2D2D454343BE
:10351000204D4F444D554C207465737420656E6486
:103520002D2D2D2D2D2D2D0A00000000035F9269F9
:10353000F0DB42DE2D2D2D2D2D2D2D2D2D45434340
:10354000204D4F4453515220746573742D2D2D2DF1
:103550002D2D2D0A00000000454343204D4F4453BC
:103560005152202074657374206661696C200A00D2
:10357000454343204D4F445351522020746573748A
:103580002070617373200A002D2D2D2D2D2D2D2DD2
:103590002D454343204D4F4453515220746573745D
:1035A00020656E642D2D2D2D2D2D2D0A000000007F
:1035B0004FF93F9F6B49D03AB553768829DDC8183B
:1035C000F948FA4909680861F948FA490968086040
:1035D000F948F84909684860F848F6490968886078
:1035E000F748F4490968C860F648F2490968086173
:1035F000F548F64909680860F548F44909684860E3
:10360000F448F24909688860F348F0490968C860DD
:10361000F248EE490968086170473EB5F0A001F034
:1036200057FC0024FFF749FE0520F64908600846CC
:103630000168F5480068FDF70AFA02A8F24909682E
:10364000CDE90010EF4803780178D8480268D948DE
:10365000006801F0C3F8EB4800688200EA4801689E
:10366000DA48006801F031FDC4B21CB1E7A001F0F6
:103670002FFC3EBDEBA001F02BFCF0A001F028FCDC
:1036800000BFF6E70120C94909680860801EC749E4
:1036900009684860C54909688860C4490968C86004
:1036A000C24909680861C14909684861BF49096898
:1036B0008861BE490968C861EA48BE49096808606E
:1036C000E948BC4909684860E848BA49096888601F
:1036D000E748B8490968C860E648B649096808611A
:1036E000E548B44909684861E448B2490968886115
:1036F000E348B0490968C861E248E34909680860DD
:10370000E248E14909684860E148DF4909688860A2
:10371000E048DD490968C860DF48DB49096808619D
:10372000DE48D94909684861DD48D7490968886198
:10373000DC48D5490968C861DB48A44909680860C4
:10374000DA48A24909684860D948A04909688860F0
:10375000D8489E490968C860D7489C4909680861EB
:10376000D6489A4909684861D548984909688861E6
:10377000D44896490968C861704710B586B0D2A090
:1037800001F0A6FB0024FFF77DFF08209D4908609B
:10379000084601689C480068FDF759F9022105AA0E
:1037A0009948036897480078CDE902320491019066
:1037B0007E4800680090934803780178B248026818
:1037C0007C48006801F044F88E48006882008E480A
:1037D00001687E48006801F078FCC4B224B1C2A040
:1037E00001F076FB06B010BDC5A001F071FBCAA0C8
:1037F00001F06EFB00BFF5E701206C490968086025
:10380000801E6A4909684860684909688860674994
:103810000968C860654909680861644909684861C0
:1038200062490968886161490968C8618D486149D0
:10383000096808608C485F49096848608B485D49A1
:10384000096888608A485B490968C860894859499D
:103850000968086188485749096848618748554997
:1038600009688861864853490968C861854886495E
:103870000968086085488449096848608448824925
:1038800009688860834880490968C86082487E4921
:103890000968086181487C490968486180487A491B
:1038A000096888617F4878490968C861A348474921
:1038B00009680860A248454909684860A148434929
:1038C00009688860A04841490968C8609F483F4925
:1038D000096808619E483D49096848619D483B491F
:1038E000096888619C4839490968C861704710B502
:1038F00086B09AA001F0ECFA0024FFF77DFF0820C3
:1039000040490860084601683F480068FDF79FF895
:10391000042105AA3C4803683A480078CDE9023200
:10392000049101902148006800903648037801789E
:10393000554802681F48006800F08AFF3148006857
:103940008200314801682148006801F0BEFBC4B222
:1039500024B18AA001F0BCFA06B010BD8DA001F020
:10396000B7FA92A001F0B4FA00BFF5E79848114900
:103970000968086097480F490968486096480B49EC
:1039800009680860954896490968086000209449CC
:103990000968486093480D490968086000200B4990
:1039A00009684860704700004D4E41BF5800002034
:1039B000B83580385C0000205267DDF8ADED7F8FB0
:1039C0003BE2B6B12C6F3D02B6AC5DED8400002049
:1039D000DE711B2D4C2C5FACDBCAD4F360E9213EB9
:1039E0002D2D2D2D2D2D2D2D2D454343204D4F4477
:1039F000494E5620746573742D2D2D2D2D2D2D0AB5
:103A000000000000940000208C000020454343206B
:103A10004D4F44494E562020746573742066616989
:103A20006C200A00454343204D4F44494E56202008
:103A3000746573742070617373200A002D2D2D2D11
:103A40002D2D2D2D2D454343204D4F44494E5620BD
:103A50007465737420656E642D2D2D2D2D2D2D0A0A
:103A600000000000B448615D894D04DE2E9E65A40F
:103A7000E50675CB55E919F411A856558CE229D302
:103A80008112B5FB3A62499D6000002061FB3FC294
:103A90007BF1E4494E8F7C98F6AEFC197651E55BDC
:103AA0006583161ECC6B6E21EDAAAAFAEB4844A0E2
:103AB000AA8F4AEE3396F1634C98160E88F93BB103
:103AC000F16540F14D7E231D2D2D2D2D2D2D2D2DFC
:103AD0002D454343204D4F444D4120746573742D53
:103AE0002D2D2D2D2D2D0A00454343204D4F444DA6
:103AF00041202074657374206661696C200A00009F
:103B0000454343204D4F444D41202074657374203C
:103B100070617373200A00002D2D2D2D2D2D2D2D5C
:103B20002D454343204D4F444D412074657374200F
:103B3000656E642D2D2D2D2D2D2D0A007AE617C0D2
:103B40002752C41BB3AC805A9777F8325F3A1DDA1C
:103B50009B5671F9265F13B5B5A646DA2D2D2D2D8E
:103B60002D2D2D2D2D454343204D4F444D53207475
:103B70006573742D2D2D2D2D2D2D0A0045434320C9
:103B80004D4F444D53202074657374206661696CF9
:103B9000200A0000454343204D4F444D53202074DC
:103BA0006573742070617373200A00002D2D2D2D14
:103BB0002D2D2D2D2D454343204D4F444D53207425
:103BC00065737420656E642D2D2D2D2D2D2D0A000D
:103BD0005E9A78CCBB534D9E2918AED2CBBDF9214D
:103BE000880000205BD65AC010B586B0B9A001F09D
:103BF0006FF90024FFF7BAFE0220BE4908600846AC
:103C00000168BD480068FCF722FFBA480168BB485C
:103C10000068FCF71CFF05A8B749096804AAB74B60
:103C20001B68CDE90032CDE90210B2480078401E91
:103C3000C3B2B0480178B2480268B248006800F0E8
:103C4000D9FF9DF814008200AB480168AE480068B7
:103C500001F03BFAC4B29DF810008200A748016849
:103C6000AA48006801F031FA2043C4B224B1A8A0E8
:103C700001F02EF906B010BDABA001F029F9B0A0FB
:103C800001F026F900BFF5E770B506460D4614466B
:103C90003246002102E042F82140491CA942FAD3F1
:103CA00000210EE052F82100A04201D0012070BD99
:103CB00042F8213052F82100984201D00220F6E764
:103CC000491CA942EED300210EE052F8210098428F
:103CD00001D00320EBE742F8214052F82100A04236
:103CE00001D00420E3E7491CA942EED329460FE0A6
:103CF000491E52F82100A04201D00520D7E742F822
:103D0000213052F82100984201D00620CFE7491E09
:103D10000029EDD129460FE0491E52F821009842B2
:103D200001D00720C3E742F8214052F82100A04209
:103D300001D00820BBE7491E0029EDD100BF06E0F5
:103D400052F82100A04201D00920B0E7491CA94245
:103D5000F6D30020ABE770B505460E460024631E7F
:103D6000002231462846FFF78FFF04461CB104F5B8
:103D70002064204670BD7B4B1A0C31462846FFF765
:103D800083FF04461CB104F530642046F2E74FF08F
:103D9000AA335A0831462846FFF776FF04461CB17D
:103DA00004F540642046E5E74FF0CC339A083146ED
:103DB0002846FFF769FF04461CB104F5506420460D
:103DC000D8E70020D6E770B5002667A001F080F89C
:103DD00071487249086008460568294670A001F0DC
:103DE00077F86D48854203D170A001F071F870BD7D
:103DF00001F05CF8002408E04FF480616748FFF7A9
:103E0000AAFFC6B206B102E0641C012CF4DB00BFBD
:103E10001EB170A001F05CF8E9E778A001F058F855
:103E200080A001F055F800BFE1E78B4834490860F5
:103E3000483034490860483088490860483088492B
:103E40000860483087490860483087490860483032
:103E500086490860483086490860483085490860CE
:103E60004830854908604830844908604830264910
:103E7000086048302549086048301F4908604830CC
:103E80001E490860704710B57D48FCF789F9FFF7B7
:103E9000CCFF7CA001F01CF8FDF7A7FFFEF7C1F8EE
:103EA000FEF72AFCFEF776FEFFF739F8FFF7EDF88C
:103EB000FFF777F9FFF7CCF9FFF7AFFBFFF75DFCF2
:103EC000FFF715FDFFF790FEFFF77DFF74A000F0F0
:103ED000FFFF10BD2D2D2D2D2D2D2D2D2D454343B7
:103EE0002044564D20746573742D2D2D2D2D2D2DB0
:103EF0000A000000940000208C00002090000020A8
:103F0000580000205C000020840000208800002071
:103F10004543432044564D202074657374206661E8
:103F2000696C200A000000004543432044564D20A0
:103F300020746573742070617373200A00000000A0
:103F40002D2D2D2D2D2D2D2D2D4543432044564D0A
:103F5000207465737420656E642D2D2D2D2D2D2DEF
:103F60000A0000000000FFFF2D2D2D2D2D2D2D2DE1
:103F70002D454343205352414D204153204E4F5233
:103F80004D414C205352414D20746573742D2D2D9D
:103F90002D2D2D2D0A0000007856341200100140FE
:103FA00074656D702069732025780A0045434320AD
:103FB0005352414D204153204E4F524D414C2053BE
:103FC00052414D2074657374206661696C20312004
:103FD0000A000000454343205352414D20415320E5
:103FE0004E4F524D414C205352414D202074657329
:103FF00074206661696C2032200A0000454343202A
:104000005352414D204153204E4F524D414C20536D
:1040100052414D2020746573742070617373200ABF
:10402000000000002D2D2D2D2D2D2D2D2D45434330
:10403000205352414D204153204E4F524D414C2070
:104040005352414D207465737420656E642D2D2D7F
:104050002D2D2D2D0A000000B8000020600000204A
:1040600064000020680000206C0000207000002028
:1040700074000020780000207C00002080000020D8
:10408000000102002D2D2D2D2D2D2D2D2D454343CD
:1040900020746573742D2D2D2D2D2D2D0A000000FB
:1040A0002D2D2D2D2D2D2D2D2D4543432074657344
:1040B0007420656E642D2D2D2D2D2D2D0A000000F0
:1040C000FCF7A6FA4FF4E1310020FCF74AFBFFF7BA
:1040D000DAFEFDF728FC00BFFEE7000070B5FF4DDB
:1040E00003242C600246FE480B46FD49803000F058
:1040F00001FEFB48602108380163416BC907FCD011
:1041000070BD2DE9F84F80460AA89A4693460E46A0
:10411000B0E80C02DDE90D47F04903200860F04DDE
:104120003F20083D2863EE48ED49803000F0E2FD75
:1041300060202863686BC007FCD03346E84E4246D7
:1041400078362946304600F0D5FDE54953465A46B3
:10415000091F301D00F0CEFD2F632946486BC007B4
:10416000FCD0DF4A4B4638323046009400F0E0FD88
:104170002178484600F02EFE2070BDE8F88F2DE92A
:10418000F84317461E46DDE90894D44A0B4603213E
:104190001160D34D3F21083D2963DFF84483024677
:1041A00008F178082946404600F0A4FD33463A4617
:1041B000291D08F1040000F09DFD522028632946C6
:1041C000486BC007FCD0C64A4B4638324046009484
:1041D00000F0AEFD2178484600F0FCFD2070BDE8FF
:1041E000F8832DE9F8430E46DDE90885BB4907460B
:1041F00003200860BA4C3F20083C2063B848B84907
:10420000803000F077FD60202063606BC007FCD039
:104210003346B34E3A4678362146304600F06AFDC2
:10422000432020632146486BC007FCD0AC4A43467C
:1042300038323046009500F07BFD2978404600F08A
:10424000C9FD2870CBE72DE9F84F07460AA8984624
:1042500091460E46B0E80C04A04903200D9D08606D
:104260009F4C3F20083C20639D489D49803000F0D2
:1042700041FD9B4833463A462146783000F03AFDEE
:10428000974843464A46211D7C3000F033FD4220CA
:104290002063606BC007FCD0914A91499048534617
:1042A0004432091D8430009500F042FD29785046C3
:1042B00000F090FD287060E70246481E05E052F8C5
:1042C000201009B1401C7047401E0028F7DA00207A
:1042D0007047034603EB81014FF0004251F8043C64
:1042E0002020134204D15208401E0028F9DC00208F
:1042F00070472DE9FF4F8A4678490446ABB003204A
:104300009B460860482105A800F00BFF482117A82C
:1043100000F007FFA1692068FFF7CEFF0546294698
:104320002068FFF7D6FF00EB4515233D680915F01F
:104330001F014FF0010705AE4FF0004904D007FA06
:1043400001F146F8201003E006EB800040F8049CE1
:104350007022217E01A804920DF1A40817ABA0E8F9
:104360000A01206800900B463246A068FFF7C9FE9C
:10437000482105A800F0D5FEAD1C680915F01F0105
:1043800003D08F4046F8207003E006EB800040F831
:10439000049C534D3F20083D28635148237E5049DB
:1043A0008030226800F0A6FC4D494D48237E1C3128
:1043B0009C30626800F09EFC49494948237E17AA58
:1043C0002431A43000F096FC45494548237E05AAD7
:1043D0006431E43000F08EFC41494148237E52466E
:1043E0002031A03000F086FC3D4EDFF8F4900C3612
:1043F00009F18C09237E314648462D9A00F07AFC5B
:1044000006F1040A09F10407237E5A46514638464C
:1044100000F070FC61202863686BC007FCD0686BFB
:10442000400703D501202FB0BDE8F08FA16938986F
:1044300000F022FDA169399800F01EFD284ACDF850
:1044400000803C3231464846389B00F071FC2AA877
:10445000234A0090403251463846399B00F068FCB0
:104460000020E0E72DE9F04F95B00E46044698464F
:104470001746482101A8DDF880B000F052FEA1697E
:104480002068FFF719FF054629462068FFF721FF3E
:1044900000EB45102138410910F01F0001AA04D09B
:1044A0000123834042F8213005E002EB81014FF007
:1044B000004041F8040C094903200860084D3F20E2
:1044C000083D28630648237E05498030226800F0B5
:1044D00011FC0349237E1C31014803E00000014028
:1044E000080002409C30626800F004FC9C48237E77
:1044F00001AA9B49803000F0FDFB3A46984FDFF857
:1045000060A2583F0AF1280A237E3946504600F03F
:10451000F1FB424607F104080AF10409237E4146F3
:10452000484600F0E7FB237E08F1040109F104008E
:104530001E9A00F0DFFB8A498948237E4C393430CB
:104540001F9A00F0D7FB2E63686BC007FCD0686B26
:10455000400702D5012015B066E75846A16900F072
:104560008BFCA169219800F087FC13A87C4A00907D
:104570005B46283A3946504600F0DAFB14A8784AE0
:104580000090243A41464846219B00F0D1FB002090
:10459000E1E72DE9FF4F8A4672490446ABB003209C
:1045A0009B460860482105A800F0BBFD482117A8DC
:1045B00000F0B7FDA1692068FFF77EFE0546294699
:1045C0002068FFF786FE00EB4515233D680915F0CE
:1045D0001F014FF0010705AE4FF0004804D007FA65
:1045E00001F146F8201003E006EB800040F8048C4F
:1045F0007022217E01A804920DF1A40917ABA0E856
:104600000A02206800900B463246A068FFF779FD49
:10461000482105A800F085FDAD1C680915F01F01B3
:1046200003D08F4046F8207003E006EB800040F88E
:10463000048C4B4D3F206C3D286349494848237EFC
:1046400064391C30226800F055FB45494448237EFC
:1046500017AA4039403000F04DFB4148237E05AA9F
:104660003F49803000F046FB3D4E3D4F583E2837D5
:10467000237E52463146384600F03CFB06F10408E2
:1046800007F1040A237E414650462D9A00F032FB82
:1046900062202863686BC007FCD0686B400701D5B7
:1046A0000120C0E65846A16900F0E6FBA1693898F0
:1046B00000F0E2FB2A4A5B46283A31463846CDF8FC
:1046C000009000F035FB2AA8254A0090243A414684
:1046D0005046389B00F02CFB0020A4E62DE9F04169
:1046E0000E46204904460320174608601C4D3F2013
:1046F0006C3D28631A491A48237E64391C302268AD
:1047000000F0F8FA16491648237E483938306268B6
:1047100000F0F0FA12491248237E40394030A26876
:1047200000F0E8FA0E490E48237E32465839283008
:1047300000F0E0FA0A490A48237E3A4654392C3000
:1047400000F0D8FA6A202863686BC007FCD0686B59
:10475000000702D50020BDE8F0810120FBE7000042
:104760006C000240000001402DE9F8438046DDE97D
:104770000895FF4803260F460660FE4C3F20206345
:10478000FC49FC480831883000F0B4FA202020634E
:10479000606BC007FCD0606B800704D502206063AB
:1047A0000120BDE8F8833B46F24F42468037214660
:1047B000384600F09FFA26632146486BC007FCD0BC
:1047C000EC4A4B4640323846009500F0B1FA297861
:1047D000484600F0FFFA28700020E2E72DE9F84390
:1047E0000E46DDE90885E249074603200860E14CF2
:1047F0003F202063DF49DF480831883000F07AFA33
:1048000020202063606BC007FCD0606B800703D55D
:10481000022060630120C4E73346D64E3A46803614
:104820002146304600F066FA102020632146486B8E
:10483000C007FCD0CF4A434640323046009500F0D6
:1048400077FA2978404600F0C5FA28700020A8E7DA
:104850002DE9F84F07460AA8994692460E46B0E859
:104860000C08DDE90D58C24903200860C14C3F2007
:104870002063C049BF480831883000F03BFABD488A
:1048800033463A462146803000F034FAB9484B4668
:104890005246211D843000F02DFAC4F83080606B40
:1048A000C007FCD0B34AB349B2485B464C320C3126
:1048B0008C30009500F03CFA2978584600F08AFACE
:1048C0002870BDE8F88FF0B50DF1140CBCE8F000CD
:1048D000C0E905717CC0F0BD2DE9FE4F0E46DDE953
:1048E0000CABA34904460320984617460860A14D27
:1048F0003F2028639F499F48237E083188302268E3
:1049000000F0F8F99B499B48237E2431A43062686B
:1049100000F0F0F997499748237E32462831A830B5
:1049200000F0E8F93A46934FDFF84892143709F15E
:104930009409237E3946484600F0DCF9424607F1E7
:10494000040809F10406237E4146304600F0D2F9FE
:1049500021202863686BC007FCD0686B400702D534
:104960000120BDE8FE8F5046A16900F085FA584647
:10497000A16900F081FA01A87E4A009053464432B2
:104980003946484600F0D4F902A87A4A00905B46BE
:1049900048324146304600F0CBF90020E1E72DE9EE
:1049A000FE4F0E46DDE90C897149044603209B4603
:1049B000174608606F4D3F2028636E496D48237E7F
:1049C00008318830226800F095F96A496948237EE9
:1049D0002431A430626800F08DF9DFF898A16548B1
:1049E0000AF1140A237E3A465146943000F082F9C7
:1049F0005A46DFF880B10AF104070BF1980B237EC9
:104A00003946584600F076F9237E4246391D0BF1AF
:104A1000040000F06FF957495648237E4A4620317A
:104A2000A03000F067F92E63686BC007FCD0686B9C
:104A3000400701D5012094E7A1690E9800F01CFA07
:104A4000A1690F9800F018FA01A80090494A494856
:104A50004432514694300E9B00F06AF902A800904F
:104A6000444A3946483258460F9B00F061F900200D
:104A700077E72DE9FE4F0E463D4904460320DDF859
:104A800030B09A46174608603A4D3F2028633949AE
:104A90003848237E08318830226800F02BF93549E8
:104AA0003448237E2431A430626800F023F9DFF813
:104AB000C480DFF8C09008F1140809F19409237E3E
:104AC00032464146484600F015F93A4608F10406D8
:104AD00009F10407237E3146384600F00BF9222005
:104AE0002863686BC007FCD0686B400701D50120C4
:104AF00037E75046A16900F0BFF95846A16900F0B8
:104B0000BBF901A81B4A009053464432414648462F
:104B100000F00EF902A8174A00905B464832314671
:104B2000384600F005F900201BE72DE9F0410E465C
:104B30000F4904460320174608600E4D3F202863A6
:104B40000C490C48237E08318830226800F0D2F8E6
:104B500008490848237E2431A430626800F0CAF86E
:104B6000044904482C31237EAC30A26804E00000E4
:104B7000000001400000024000F0BCF85648237ECF
:104B800032465549803000F0B5F853495248237EEB
:104B90003A46091D843000F0ADF82A202863686B7E
:104BA000C007FCD0686B000702D50020BDE8F0818B
:104BB0000120FBE770B5002200EB810509E0A5EBC1
:104BC000820350F8224053F8046D40F82260521CD2
:104BD0001C60B2EB510FF2D3002208E000EB82031D
:104BE00050F822405D6840F82250921C5C608A4276
:104BF000F4D370BD2DE9F84F0F46DDE90CA4DDE9D3
:104C00000A953649804603200860334E3F20143E03
:104C10003063314930480C39743000F06BF83B4652
:104C20002D4F42466C373146384600F063F81E205F
:104C300030633146486BC007FCD0274A4B462C32C4
:104C40003846009500F074F82978484600F0C2F81C
:104C50002870214A20492048534638320839783094
:104C6000009400F065F821785046FFF7A3FF217803
:104C7000504600F0AFF820702A78BDE8F84F16498A
:104C80001548091F7C3000F045B81349124810B58B
:104C9000842214396C3000F03DF80F490E4884220C
:104CA0001039703000F036F80B490B4884220C396B
:104CB000743000F02FF8084907488422083978300A
:104CC00000F028F8044904488422091FBDE8104078
:104CD0007C3000F01FB800001400024000000140CA
:104CE000002806D0002904D001E008C908C0521EDF
:104CF000FBD2704730B500242546046004E052F82A
:104D00002400641CE4B208609C42F8D3D80700D0A9
:104D10000D6030BD10B500231C46036002E05B1C33
:104D2000DBB20C609342FAD3D00700D00C6010BD08
:104D300070B500241278049D521CD2B2046004E0C5
:104D4000086843F82400641CE4B2B4EB420FF7D3C4
:104D50005000287070BD30B55B4D03242C600246B6
:104D60005A480B4659498030FFF7C4FF5748202165
:104D700008380163416BC907FCD0416B890703D533
:104D800002214163012030BD002030BD2DE9F041FA
:104D9000904606AA9C46D0CA4B4B03221A60024694
:104DA0004A4D4A480B46083D29467830FFF7A2FF96
:104DB000464863464246291D7C30FFF79BFF434926
:104DC000424833462246091D8430FFF793FF2F6384
:104DD000BDE8F081024639B1481E52F8201009B9E9
:104DE000401EFAD2401C7047084670472DE9F8472C
:104DF000844609A8994692460F46B0E80C01DDE9C1
:104E00000C56314903200860304C3F20083C206399
:104E10002E482E498030FFF76DFF20202063606B05
:104E2000C007FCD0606B800704D5022060630120BE
:104E3000BDE8F8873B46254F62467837214638461D
:104E4000FFF758FF21494B465246091F381DFFF70F
:104E500051FF26632146486BC007FCD01B4A4346DE
:104E6000383238460095FFF763FF29784046FFF750
:104E7000B1FF28700020DBE7002903D0002204C026
:104E8000491EFCD1704770B5002200EB810509E096
:104E9000A5EB820350F8224053F8046D40F82260DD
:104EA000521C1C60B2EB510FF2D370BD0648016872
:104EB000202907D00222426120210160416989072F
:104EC000FCD542617047000000000140080002402C
:104ED0000FB4044910B503AA029800F0A9F910BC58
:104EE0005DF814FB500000202DE9F0410646002437
:104EF00010687529314616A511D0AFF3008000283F
:104F000003DAC0F1000013A507E031688A0701D574
:104F100011A502E0490704D510A5012401E0AFF373
:104F2000008000210A2306F1240707E0B0FBF3F21A
:104F300003FB1200303078541046491C0028F5D18C
:104F400023462A463046BDE8F04100F014B900007F
:104F5000000000002D0000002B00000020000000D9
:104F600070B504460D4621461068AFF300802188D5
:104F7000090502D5104A7A4402E00F4A7A440E32FB
:104F8000002104F1240307E000F00F064FEA10109F
:104F9000965D5E5401F101010028F5D103462078A9
:104FA000000704D5702D02D009B11132022320462A
:104FB000BDE8704000F0DFB88E0300002DE9F04737
:104FC0004FF0000A89460446C0F820A02046E16858
:104FD0008847002876D0252806D0D4E901219047BB
:104FE000206A401C2062F1E7E168204600258847DE
:104FF000C4F81CA006460027C4F818A02A2E09D021
:10500000304600F07AF938B304EB8708303EC8F830
:10501000186019E059F8041B204604EB87029161DF
:10502000E1688847012F064618D1E069002820DA98
:1050300025F020051DE0D8F8180000EB800006EBF5
:1050400040003038C8F818002046E1688847064616
:1050500000F053F90028EED1012F0AD02E2E08D1EE
:105060002046E16888477F1C0646022F45F0200550
:10507000C4DBA069002803DA404245F00105A061C5
:10508000E80701D025F01005B6B1A6F141001928B6
:1050900002D8203645F400654A4631462046256050
:1050A0004D46FBF747F858B1012806D0ED1D25F015
:1050B000070000F1080989E704E005F1040985E724
:1050C00030468AE7206ABDE8F08740EA010310B560
:1050D0009B070FD1042A0DD310C808C9121F9C4288
:1050E000F8D020BA19BA884201D9012010BD4FF07A
:1050F000FF3010BD1AB1D30703D0521C07E00020C7
:1051000010BD10F8013B11F8014B1B1B07D110F823
:10511000013B11F8014B1B1B01D1921EF1D1184626
:1051200010BD4FF0000200B5134694469646203954
:1051300022BFA0E80C50A0E80C50B1F12001BFF450
:10514000F7AF090728BFA0E80C5048BF0CC05DF8B6
:1051500004EB890028BF40F8042B08BF704748BF04
:1051600020F8022B11F0804F18BF00F8012B704778
:105170007047704770472DE9F0470D4699469246B3
:10518000044600F124080168880604D5E06921F08E
:105190001001216000E00120A84202DDA0EB05071C
:1051A00000E00027A16907EB050202EB0900A1EB73
:1051B0000000A0612078C00602D42046AFF3008032
:1051C000002608E0D4E901211AF806009047206A79
:1051D000401C761C20624E45F4DB2078C0060AD5C0
:1051E0002046AFF3008006E0D4E90121302090474B
:1051F000206A401C2062381EA7F10107F4DC07E09A
:10520000D4E9012118F805009047206A401C20626B
:10521000281EA5F10105F3DC2046AFF300802078BD
:10522000000602D50220BDE8F0870120FBE7000060
:10523000074B70B50D467B4400F011F80446284634
:1052400000F020F810B14FF0FF3070BD204670BD67
:1052500041B6FFFF01694A1C02610878704700B53A
:105260008FB0CDE901310021059105497944CDE99F
:10527000031011466846FFF7A1FE0FB000BD000005
:10528000E5FFFFFF007B00F080007047754600F0EF
:1052900029F8AE4605006946534620F007008546CA
:1052A00018B020B5FAF76EFFBDE820404FF00006B9
:1052B0004FF000074FF000084FF0000B21F00701FE
:1052C000AC46ACE8C009ACE8C009ACE8C009ACE841
:1052D000C0098D4670470446AFF300802046FAF7B8
:1052E0003EFF000000487047B81000200149182018
:1052F000ABBEFEE726000200704730380A2801D214
:105300000120704700207047303132333435363752
:1053100038394142434445464030580030313233F9
:1053200034353637383961626364656640307800F9
:10533000505300004000002058000000FC00000016
:10534000A8530000980000208018000018010000F9
:10535000000000000000000000000000000000004D
:10536000000000000000000000000000000000003D
:10537000000000000000000000000000000000002D
:10538000000000000000000000000000000000001D
:10539000000000000000000000000000000000000D
:0853A000000000000000000005
:04000005000000C136
:00000001FF
