:020000040000FA
:10000000C0940020F9000000010100006913000005
:1000100005010000070100000901000000000000C8
:100020000000000000000000000000000B010000C4
:100030000D010000000000000F010000F922000087
:100040001301000013010000130100001301000060
:100050001301000013010000130100001301000050
:100060001301000013010000130100001301000040
:100070001301000013010000130100001301000030
:100080001301000013010000130100001301000020
:100090001301000013010000130100001301000010
:1000A0001301000013010000130100001301000000
:1000B00013010000130100001301000013010000F0
:1000C00013010000130100001301000013010000E0
:1000D00013010000130100001301000013010000D0
:1000E00013010000DFF80CD000F08CF80048004746
:1000F000B1380000C09400200648804706480047F9
:10010000FEE7FEE7FEE7FEE7FEE7FEE7FEE7FEE7C7
:10011000FEE7FEE73D240000E50000002DE9F05F6A
:100120000546002092469B46884606468146402466
:100130001BE0284641464746224600F053F8534606
:100140005A46C01A914110D311461846224600F073
:100150003AF82D1A67EB01084F462246012000218C
:1001600000F031F817EB00094E41201EA4F1010404
:10017000DFDC484631462A464346BDE8F09F40EA68
:1001800001039B0703D009E008C9121F08C0042A15
:10019000FAD203E011F8013B00F8013B521EF9D2FC
:1001A0007047D2B201E000F8012B491EFBD2704724
:1001B0000022F6E710B513460A4604461946FFF733
:1001C000F0FF204610BD202A04DB203A00FA02F19D
:1001D000002070479140C2F1200320FA03F3194335
:1001E00090407047202A04DB203A21FA02F00021D7
:1001F000704721FA02F3D040C2F120029140084337
:1002000019467047064C074D06E0E06840F00103D0
:1002100094E8070098471034AC42F6D3FFF766FF26
:100220004842000068420000F0B587B012B30546AE
:1002300012F00F001ED10C980F4601684668C46882
:100240008068CDE90316CDE905041609184600219A
:100250000122012400F062F803A8CDE900403846ED
:1002600045F2786729463246C1F2342700230297C7
:1002700000F002F807B0F0BDB0B58CB0DDF848C0B2
:10028000DDF844E0109C1D460A90099108928DF813
:100290001F308DF81E402A20CDF814C0CDF810E094
:1002A000039502F09DF9129845F27861C1F234216C
:1002B000884219D1FFE70A980999089A9DF81F30DA
:1002C0009DF81EC0DDF844E06C46C4F804E0C4F8B4
:1002D00000C002F00BFC2A2002F06AF94DF66820FB
:1002E000CAF29A500B9016E00A980999089A9DF85C
:1002F0001F309DF81EC0DDF844E06C46C4F804E0F1
:10030000C4F800C002F078FE06902A2002F050F9EE
:1003100006980B90FFE70B980CB0B0BD80B584B089
:1003200013468C4603908DF80B108DF80A202A2076
:100330000193CDF800C002F053F90C20C4F2030081
:10034000002101609DF80A00012808D1FFE70C2078
:10035000C4F20300016841F010010160FFE79DF85D
:100360000B00012808D1FFE70C20C4F2030001684C
:1003700041F0400101600DE09DF80B00022808D11A
:10038000FFE70C20C4F20300016841F08001016026
:10039000FFE7FFE7039800680421C4F20301086047
:1003A00003980430039003980068086003980430B1
:1003B0000390039800680860039804300390039842
:1003C000006808600398043003909DF80B00012832
:1003D00010D1FFE7039800680421C4F2030108600C
:1003E0000398043003900398006808600398043071
:1003F000039021E09DF80B0002281CD1FFE7039831
:1004000000680421C4F203010860039804300390DB
:10041000039800680860039804300390039800680C
:1004200008600398043003900398006808600398FC
:1004300004300390FFE7FFE70C20C4F203000168DB
:1004400041F002010160FFE71020C4F203000068E0
:100450008007002801D4FFE7F6E71020C4F203006C
:10046000022101602A2002F0A3F804B080BD000040
:10047000AFF30080B0B541F25971CDF2B711A0FBD6
:100480000112510B232201FB02F14CF6CD4301F185
:10049000010C4DF68361C4F21B31A0FB0112910CDB
:1004A000332201FB02F2CCF6CC43A2FB032305224C
:1004B00001EBC10102EBD30349F2FF42C0F6BA22BD
:1004C000904201F1010502D94FF480613EE045F60A
:1004D0000071C0F64C11884202D94FF4607135E0CA
:1004E00043F20021C0F61B01884202D94FF440714B
:1004F0002CE040F20051C0F2EA61884202D94FF488
:10050000207123E04CF60071C0F27B51884202D981
:100510004FF400711AE042F28061C0F269418842F2
:1005200002D94FF4C07111E047F20051C0F2193105
:10053000884202D94FF4807108E044F6000EC0F200
:10054000E81E0021704588BF0121C9010C22C0F2BC
:100550001002D3624FF480131C6824F478642143A2
:100560001960C2F800C04AF24172C0F282724FF0C4
:10057000101190420D6038BFB0BD00F0EBFE40F6A8
:100580004400C4F20100016841F480710160B0BD13
:100590002DE9F04F85B0052800F2A48105460868D2
:1005A0000C460021B1EB104F40F09C8180B2002836
:1005B00000F09881606841F20101C0F201018842B7
:1005C00040F20001CEF6FF7109DCB0F5803F10DA91
:1005D000032818BF052811D041F2040106E00144A8
:1005E00005290BD341F20201C0F20101884205D076
:1005F00078E1A0F58030022880F07481052D5ED866
:100600000120A840810720D110F00C0F36D0012026
:1006100001F0E6FF40F670074FF20006C4F2010752
:10062000C4F2010607F1300007F1340207F1440C6F
:1006300007F14803032D06F5806503904AD107F1C1
:100640002800029007F12C0034E0002001F0C8FFE0
:1006500040F67000C4F20100012D4FF2000500F1D8
:10066000040200F1140C00F11803C4F20105039018
:1006700036D1A0F10801029104381BE00C2001F0F2
:10068000AFFF40F670074FF20006C4F20107C4F254
:10069000010607F1600007F1640207F1740C07F12D
:1006A0007803052D06F5006503901ED107F158006B
:1006B00002900020276801903F0427601BE0002083
:1006C0000290002001900020039000224FF0000CC7
:1006D000002310E007F12000029007F1240009E058
:1006E000A0F110010C38029104E007F150000290D3
:1006F00007F1540001902768002F00F0F3804FF0BD
:100700000108049218E0019AA7F1200110680F2750
:1007100007FA01F18843106060680528186814BF63
:1007200020EA0B0740EA0B071F60276837FA08F03A
:1007300008F1010800F0D680A8F1010A012000FAB2
:100740000AF617EA060BF0D0D4F80490B9F5803F0A
:1007500010DCB9F1030F58D041F20400814554D0A8
:10076000B9F5803F40F080802F6827EA0B072F60A3
:100770007AE000BF0020CEF6FF7009EB0007052FDE
:1007800058D22868002220EA0B002860A86929F0C6
:100790000101C1F2010291426FEA0B0E40EA0B0027
:1007A000A8610FD1E869914500EA0E00E861286A66
:1007B00000EA0E002862686A14BF00EA0E0040EAF0
:1007C0000B006862901C814507D1E86900EA0E00C1
:1007D000E861286A40EA0B0028624FF6FD70CEF609
:1007E000FE70484401283FD8E869002140EA0B0028
:1007F000C1F20101E8610331686A894514BF00EA6A
:100800000E0040EA0B0068622EE05746BAF1100F66
:1008100028BFA8F11107072F4FEA870718D8029AB7
:100820000F20166800FA07F1E06826EA0101B840D7
:10083000084318E0B9F1011F05D041F20200C0F2EF
:100840000100814510D12F6847EA0B072F600BE0AC
:10085000019AA7F1200110680F27E6688F40B8437E
:1008600006FA01F108431060A768022F08D0049926
:10087000012F0FD0BFB9039F386820EA0B000DE0AD
:100880000399086820EA0B0008600499086840EAA8
:100890000B0707E0039F386840EA0B0038600868E0
:1008A00020EA0B070F606079C006DCF8000054BF37
:1008B00020EA0B0740EA0B07CCF80070A079C007CC
:1008C0003FF42AAFBAF1100F28BFA8F1110ABAF10C
:1008D000070F4FEA8A073FF616AF029A0F211068FA
:1008E000B94017E705B0BDE8F08F000005282AD809
:1008F0000023B3EB114F26D18BB223B3012A88BF5B
:100900007047031F4FF2000C022BC4F2010C1BD3E3
:10091000831E012B98BF0CF5806C052806D8012397
:1009200003FA00F010F02A0F18BF0904012A05D1BC
:10093000DCF810000843CCF810007047DCF8100019
:100940008843CCF8100070470CF5006C0528E6D9F8
:10095000ECE7000080B584B00390029140F61C00E3
:10096000C4F20100016841F00051016000BF00BF06
:1009700040F60000C4F20300016841F0010101608B
:1009800000200190FFE701980299884222D2FFE7F8
:1009900002F042FF0399019A885440F60400C4F221
:1009A0000300016801F00F010090084602F05CFFAF
:1009B00002F032FF0399019A8B5C584088540098EA
:1009C000016801F0030002F04FFFFFE701980130DA
:1009D0000190D8E702F054FF40F61C00C4F2010079
:1009E000016821F000510160002004B080BD0000CA
:1009F00010B50446006800F13E4000F1FF704FEA78
:100A0000B020032822D8606801281FD8A0684FEAC8
:100A1000B00003281AD8E068002818BF402813D176
:100A20002069012812D8616901203F2910DC0439AE
:100A30001C295DD8012202FA01F141F21102C1F232
:100A4000000211420BD153E02028E9D0012010BD53
:100A5000402918BFFE2902D0802918BF10BD2046AA
:100A600000F048F8D4E90013084650F8082F012B8D
:100A700042F080020260026819D022F001028A600E
:100A80000A6A012363F313020A62CA6848F6040380
:100A90001A43CA60E2681AB1026842F002020260B8
:100AA000886840F480708860084650F8102F42F043
:100AB000010202608868D4E9022CD4E9043420F0F1
:100AC0001000012B08BF10308860886820F00C00EF
:100AD0001043886088684FF6FF7220F0600040EA9B
:100AE0000C008860486890432043486000204861BB
:100AF00010BD0000F0B585B00446006840F6000166
:100B0000C4F20201884201D005B0F0BD0B2001F013
:100B100067FD4FF4E05001AD01900326012702204C
:100B200029460296CDE90376FFF732FD4FF40040E7
:100B300001A9C1C10520049000202946FFF728FD26
:100B4000E068402808D14FF4407001A9C1C101A953
:100B500002200496FFF71CFD4EF20010CEF20000BA
:100B60004FF08041C0F88011016005B0F0BD000079
:100B700010B581B000294FF0010C00F09680D0F83C
:100B800000E00EF13E4404F1FF744FEAB424032C5C
:100B900000F28B800024046382620162009341684A
:100BA00000293FD0DEF8181041F40041CEF81810AB
:100BB000DEF8181041F00201CEF81810CEF820200F
:100BC000DEF8101041F00101CEF81010DEF824100C
:100BD00041F00101CEF82410816AD9B1009A016870
:100BE00052B100BF8A69D20609D5009A531E002A65
:100BF0000093F7D145E000BF8A69D206FCD40168B2
:100C0000036B026A09685C1C0463D154816A013970
:100C10008162E3D1016800BF8A691204FCD54FF0FC
:100C2000000C30E00121CEF82010DEF8101041F069
:100C30000101CEF81010816A89B900684FF0000CEC
:100C400010302EE0D1F800C0026B046A511C016321
:100C500004F802C0816A013981620093EDD0016815
:100C60008A69D206EED5009A002AF9D0009A013A94
:100C70000092009A002AF3D101F110004FF0030C0A
:100C80000FE04FF0030C0068816941F4004181617D
:100C9000816941F002018161016921F00101016175
:100CA0002430016821F001010160604601B010BDEF
:100CB00070B581B000294FF0010C18BF002A02D195
:100CC000604601B070BDD0F800E00EF13E4404F182
:100CD000FF744FEAB424032CF2D800244463C262A8
:100CE00041620093DEF8184044F48044CEF8184086
:100CF000DEF8184044F00204CEF81840DEF80C404C
:100D000044F00204CEF80C40DEF80C4024F002045B
:100D1000CEF80C40CEF82020DEF80C2042F0010284
:100D2000CEF80C204668012E06D1DEF8242042F0D1
:100D30000102CEF8242005E0DEF8102022F00102A6
:100D4000CEF81020C26ABAB936B100BFDEF818007A
:100D50004004FBD52CE000BFDEF81800C007FBD034
:100D600022E0446B013A04F1010545630D5DCEF8C4
:100D70000050C2620093E7D0DEF818402407F0D597
:100D8000009C002CF8D0009C013C0094009C002C9E
:100D9000F2D14FF0030C0DE0009828B10098013813
:100DA000009000980028F4D0DEF81800C007F3D1B6
:100DB0004FF0000CDEF81800012E40F48040CEF811
:100DC0001800DEF8180040F00200CEF81800DEF837
:100DD0000C0020F00100CEF80C007FF471AFDEF8BB
:100DE000240020F00100CEF8240069E7B0B582B0FD
:100DF0004FF0010CCDF804C0D0F800E00EF13E44F5
:100E000004F1FF744FEAB424032C05D800294FF0F5
:100E1000010C18BF002A02D1604602B0B0BD069C8A
:100E20004FF0000CC0E90821C0E90A33C0E90CCC3E
:100E30000094DEF8182042F48042CEF81820DEF844
:100E4000182042F00202CEF81820DEF80C2042F002
:100E50000102CEF80C20DEF8102042F00102CEF89C
:100E60001020DEF80C2042F00202CEF80C20DEF852
:100E70000C2022F00202CEF80C20426852B1CEF8CB
:100E80002030DEF8241041F00101CEF824100121B9
:100E9000019108E0012242630978CEF80010591E42
:100EA000C162CDF804C04FF0010E4FF0000C00BF3E
:100EB000C26A12B9816A002952D0D0E90034996916
:100EC00004B309070DD462B10199012909D1416B1D
:100ED000446A4D1C4563615C1960511EC162CDF8C6
:100EE00004C09969C9062FD4816A69B31968026B75
:100EF000036A541C04639954816A01398162CDF8F4
:100F000004E021E0C9060CD4816A51B11968026B72
:100F1000036A541C04639954816A01398162CDF8D3
:100F200004E00268916909070ED4C36A63B10199AC
:100F3000012909D1416B446A4D1C4563615C116014
:100F4000591EC162CDF804C000990029B0D00099A3
:100F50000139009100990029AAD14FF0030C06E055
:100F6000016800BF8A695204FCD54FF0000CD0E93B
:100F700000108A6942F480428A618A69012842F03D
:100F800002028A61CA6822F00102CA600A6922F07C
:100F900001020A617FF440AF486A20F00100486214
:100FA0003AE700002DE9F0470446006844F6FF31B7
:100FB000C4F2000188424FF0010508DC44F2004110
:100FC000C4F2000188420FD044F6000107E043F666
:100FD0000001C4F20101884206D044F60041C4F287
:100FE0000001884240F0A180A0684FEA70100328F9
:100FF00039D8E06840F00800082834D1206901257C
:10100000062804D805FA00F111F0450F04D186280E
:1010100018BF822840F0898060690125B0F5407FC3
:101020000DDB12D040F20031C2F2000188420CD038
:1010300040F20031C1F20001884206D075E0B0F5FF
:10104000807F02D0B0F5007F6FD1A0694FEAB03049
:10105000032808D8204600F06BF801F053FA28B1B5
:1010600001F04AFA14E00120BDE8F08740F22C209C
:10107000C0F208000068C0F3990501F03DFA44F69B
:10108000D351C1F26201A0FB0101880900FB05F008
:10109000D4E9007144F24029C0F20F09D4F8088065
:1010A0000A01B0FBF2F6D4F80CA006FB12000023F4
:1010B000A0FB09010025FFF731F889014AF220124F
:1010C00041EA9061C0F2070212EB801041F1000189
:1010D0004A460023FFF722F83F2884BF013600204C
:1010E0007E62B86220694AEA08010843F862D4E9DE
:1010F000050140F20032C2F20002904241EA0001D2
:1011000041F0010139630DD040F20031C1F200011C
:1011100088420AD140F26400C2F200000760002059
:10112000BDE8F0870220002578652846BDE8F087F5
:1011300010B584B00446006844F20041C4F20001D6
:1011400088423DD043F60001C4F20101884258D1E3
:10115000102001F045FA002001F042FA4FF4C0607F
:101160000090032001900120029002200390694624
:101170000020FFF70DFA607E000606D54FF40060F0
:10118000009069460020FFF703FA607E400606D50E
:101190004FF48050009069460020FFF7F9F94EF2B5
:1011A00000104EF21B42CEF200004FF00061CEF272
:1011B0000002C023C0F880111370016004B010BD9C
:1011C000112001F00DFA002001F00AFA0C20009025
:1011D0000320019001200290022003906946002024
:1011E000FFF7D6F94EF200104EF21B42CEF200008D
:1011F0004FF08051CEF20002C023C0F8801153702E
:10120000016004B010BD0000B0B5D0F800E044F6B5
:10121000FF34C4F20004A6454FF0010C08DC44F290
:101220000044C4F20004A6450ED044F6000407E0D2
:1012300043F60004C4F20104A64505D044F6004478
:10124000C4F20004A6453AD10024C462D0F814C008
:1012500040F20034C2F20004A44505D1DEF8544047
:1012600044F00104CEF85440E2B16FEA032CD0F808
:1012700000E0644643B100BFDEF81850ED0607D524
:101280000134F9D313E000BFDEF81840E406FBD4C4
:10129000DEF80050013A01F8015BC56A05F101056D
:1012A000C562E4D1D0F800E04FF0000C01E04FF04F
:1012B000030CDEF8540020F00100CEF85400604624
:1012C000B0BD0000B0B5D0F800E044F6FF34C4F281
:1012D0000004A6454FF0010C08DC44F20044C4F2BF
:1012E0000004A6450ED044F6000407E043F60004CF
:1012F000C4F20104A64505D044F60044C4F200043B
:10130000A64525D100240462D2B16FEA032C11F85E
:10131000014BCEF80040046A04F101040462644603
:1013200043B100BFDEF81850AD0607D50134F9D33C
:101330000CE000BFDEF81840A406FBD4013AE6D169
:10134000DEF818000007FBD40020B0BD4FF0030CFE
:101350006046B0BD07B45FF480305FF000510918FB
:101360000A6807BC70470000FEE700002DE9F04F57
:1013700083B0002040F200448DF8060001204FF4B5
:1013800080510122C4F20204FFF7B0FAFF208DF869
:1013900007000DF1070120460122002300F0AAFEFC
:1013A00001204FF480510022FFF7A0FA6FF07E4534
:1013B0002046FF2100F0D0FEFF280AD00A2001F0CD
:1013C00075F8013DF4D101204FF480510122FFF75F
:1013D0008DFA48208DF807000DF107012046012203
:1013E00000230125002600F085FE0DF107012046AF
:1013F000012200238DF8076000F07CFE0DF107014B
:101400002046012200238DF8076000F073FE0DF1E5
:1014100007012046012200238DF8075000F06AFEE4
:10142000AA208DF807000DF10701204601220023B4
:1014300000F060FE87200DF107088DF807002046B8
:1014400041460122002300F055FE40F6FF7500BF23
:101450002046FF2100F080FE8DF806009DF9060071
:10146000B0F1FF3F04DC013D681CF1D14FF0FF35C6
:10147000002D75D09DF80600052873D14FF0FF09A7
:101480000DF1070500274FF0410802E0002840F069
:10149000908001204FF480510122FFF727FA204667
:1014A0002946012200238DF8079000F023FE012039
:1014B0004FF480510022FFF719FA6FF07E4600BF0B
:1014C0002046FF2100F048FEFF280AD00A2000F045
:1014D000EDFF013EF4D101204FF480510122FFF7CE
:1014E00005FA20462946012200238DF8078000F0E6
:1014F00001FE20462946012200238DF8077000F0E6
:10150000F9FD20462946012200238DF8077000F0DE
:10151000F1FD20462946012200238DF8077000F0D6
:10152000E9FD20462946012200238DF8077000F0CE
:10153000E1FD20462946012200238DF8079000F0A6
:10154000D9FD4FF4805600BF2046FF2100F004FE75
:101550000028A6F1010099D0012E0646F4D195E7A6
:10156000FF273DE09DF80600012828D144F26419C8
:1015700044F2761A00270DF10B06C0F20009C0F202
:10158000000A06E09DF80B5008F807500137042FB9
:101590002AD0204631460122002300F09FFD00287A
:1015A000F0D04846514618220123012502F020FAC6
:1015B000EAE7012040F21801C2F2000108700120A0
:1015C0004FF480510122FFF791F9FF208DF80B00B5
:1015D0000DF10B01204601220023002700F08AFDB7
:1015E000384603B0BDE8F08F01204FF4805101224E
:1015F000FFF77CF9FF208DF80B000DF10B01204661
:101600000122002300F076FD01204FF480510022DA
:10161000FFF76CF96FF07E452046FF2100F09CFD3E
:10162000FF280AD00A2000F041FF013DF4D101203B
:101630004FF480510122FFF759F99DF80900012864
:10164000BDD19DF80A00AA28B9D1C8250DF10B0615
:101650004FF0000A4FF0FF0B4FF0400905E000BFCC
:101660000028A5F1010540F0868077208DF80B0059
:10167000204631460122002300F03CFD2046314641
:10168000012200238DF80BA000F034FD20463146E6
:10169000012200238DF80BA000F02CFD20463146DE
:1016A000012200238DF80BA000F024FD20463146D6
:1016B000012200238DF80BA000F01CFD20463146CE
:1016C000012200238DF80BB000F014FD4FF4805779
:1016D0002046FF2100F040FD0028A7F1010002D0C4
:1016E000012F0746F4D100284FF0FF077FF478AFB1
:1016F00069208DF80B00204631460122002300F0BE
:10170000F9FC20463146012200238DF80B9000F0B1
:10171000F1FC20463146012200238DF80BA000F099
:10172000E9FC20463146012200238DF80BA000F091
:10173000E1FC20463146012200238DF80BA000F089
:10174000D9FC20463146012200238DF80B7000F0B1
:10175000D1FC002D3FF444AF4FF480572046FF21C9
:1017600000F0FAFC0028A7F101003FF479AF012F47
:101770000746F3D174E74FF0FF0A0DF10B0600277F
:101780004FF07A0902E000BF002865D101204FF434
:1017900080510122FFF7AAF820463146012200239A
:1017A0008DF80BA000F0A6FC01204FF48051002220
:1017B000FFF79CF86FF07E452046FF2100F0CCFC3F
:1017C000FF280AD00A2000F071FE013DF4D101206B
:1017D0004FF480510122FFF789F82046314601225B
:1017E00000238DF80B9000F085FC20463146012245
:1017F00000238DF80B7000F07DFC2046314601225D
:1018000000238DF80B7000F075FC20463146012254
:1018100000238DF80B7000F06DFC2046314601224C
:1018200000238DF80B7000F065FC20463146012244
:1018300000238DF80BA000F05DFC4FF4805500BF35
:101840002046FF2100F088FC0028A5F101009BD074
:10185000012D0546F4D197E744F2641944F2761A53
:1018600000270DF10B06C0F20009C0F2000A06E0E5
:101870009DF80B5008F807500137042F0FD0204671
:1018800031460122002300F029FC0028F0D0484610
:10189000514618220123012502F0AAF8EAE79DF833
:1018A000070040064FF0040058BF022082E6000007
:1018B00070B582B040F2004401204FF48051002204
:1018C000C4F20204FFF712F86FF07E452046FF21B4
:1018D00000F042FCFF280AD00A2000F0E7FD013D9D
:1018E000F4D101204FF480510122FEF7FFFF402088
:1018F0008DF802000DF1020120460122002300258F
:1019000000F0F8FB0DF103012046012200238DF8C1
:10191000035000F0EFFB01A92046012200238DF8BF
:10192000045000F0E7FB0DF10501204601220023E1
:101930008DF8055000F0DEFB0DF106012046012276
:1019400000238DF8065000F0D5FB95208DF8070098
:101950000DF1070120460122002300F0CBFB0325F7
:101960004FF480562046FF2100F0F6FB0128A6F137
:10197000010002D0012E0646F4D128B9013D280607
:10198000EED1FF2002B070BD002002B070BD00009B
:1019900070B584B040F20044C4F202040025204631
:1019A00002958DF8075000F04FFB2046FE2100F015
:1019B000ADFB02950298092810D8FF260DF10F05FE
:1019C00020462946012200238DF80F6000F092FB8B
:1019D00002980130029002980A28F1D30A2002905E
:1019E000FFF766FF8DF80700029808B39DF807001F
:1019F000FF2804D10298411E00280291F0D140F244
:101A000018050A20C2F20005029000BFFFF7AEFCE5
:101A1000287820B90298411E00280291F6D1287832
:101A200030B12046082100F071FB002004B070BDE9
:101A3000FF2004B070BD00002DE9F04F85B088464E
:101A4000FF218DF8121040F21801C2F2000109784E
:101A50000646042918BF4FEA48284FEA1860039049
:101A60004FEA184040F20044154602904FEA182011
:101A70004FF0050A0DF11309C4F20204019000BFF2
:101A80005FEA0A6000F00B8101204FF480510022D0
:101A9000AAF1010AFEF72AFF6FF07E4B2046FF21D4
:101AA00000F05AFBFF280BD00A2000F0FFFCBBF12E
:101AB000010BF3D101204FF480510122FEF716FFF4
:101AC000E8B201284AD151208DF81300204649463A
:101AD0000122002300F00EFB039849468DF8130005
:101AE00020460122002300F005FB029849468DF8AC
:101AF000130020460122002300F0FCFA0198494619
:101B00008DF8130020460122002300F0F3FA20464E
:101B10004946012200238DF8138000F0EBFA0120E2
:101B20008DF81300204649460122002300F0E2FA16
:101B30004FF480572046FF2100F00EFB0028A7F14C
:101B4000010002D0012F0746F4D1002800F08F8059
:101B5000304600F0A9F88DF8120088E052208DF888
:101B60001300204649460122002300F0C3FA0398DF
:101B700049468DF8130020460122002300F0BAFAEE
:101B8000029849468DF8130020460122002300F0F8
:101B9000B1FA019849468DF813002046012200232E
:101BA00000F0A8FA20464946012200238DF8138050
:101BB00000F0A0FA01208DF81300204649460122CA
:101BC000002300F097FA4FF4805700BF2046FF2112
:101BD00000F0C2FA0028A7F1010002D0012F074649
:101BE000F4D1002843D000BF304600F05DF8013D3D
:101BF0008DF81200280606F5007604D09DF8120034
:101C00000528F1D000E000254C208DF81300204677
:101C100049460122002300F06DFA0027204649467C
:101C2000012200238DF8137000F064FA2046494623
:101C3000012200238DF8137000F05CFA204649461B
:101C4000012200238DF8137000F054FA2046494613
:101C5000012200238DF8137000F04CFA01208DF85A
:101C60001300204649460122002300F043FA0120D8
:101C70004FF480510122FEF739FEFF208DF813004A
:101C8000204649460122002300F034FA9DF8120054
:101C9000052804D0FFF77CFE00283FF4F1AE9DF844
:101CA000120005B0BDE8F08F2DE9F04782B040F298
:101CB00000440546C4F202044FF480562046FF213A
:101CC00000F04AFAFE28A6F1010002D0012E0646D5
:101CD000F4D100284FD044F2641844F2761900275A
:101CE0000DF1050AC0F20008C0F2000907E000BFCC
:101CF0009DF80560EE550137B7F5007F0FD02046FF
:101D000051460122002300F0E9F90028F0D04046B6
:101D1000494618220123012601F06AFEEAE70DF187
:101D2000060120460122002300F0D8F958B144F200
:101D3000641044F27611C0F20000C0F200011822D3
:101D4000012301F055FE0DF1070120460122002379
:101D500000F0C4F958B144F2641044F27611C0F2B4
:101D60000000C0F200011822012301F041FE05200D
:101D700002B0BDE8F087FF2002B0BDE8F0870000A8
:101D80002DE9F04F8DB040F21803C2F200031B782A
:101D9000042B18BF4902002A02911146019200F05B
:101DA0004C8140F2004544F276188146013800210A
:101DB0004FF0FF0B0DF12E0AC4F20205C0F200082D
:101DC000049000BF8DF825B0029803910844010EDD
:101DD0000791010C0890000A03260691059061E026
:101DE00028460DF131010122002300F077F958B1A6
:101DF00044F26410C0F2000041461822012301247D
:101E000001F0F6FD02E000BF9DF8314004F01F092B
:101E1000B9F1050F08D0B9F10B0F18BFB9F10D0FCB
:101E200026D0BBF1010BDBD14FF0FF0B03E000BF6D
:101E30009DF83240A4B928460DF132010122002359
:101E400000F04CF90028F3D044F26410C0F2000016
:101E5000414618220123012401F0CAFD002CEAD0DA
:101E6000B9F1050FB94600F0D180FF2004E000BFB2
:101E7000FF20B9464FF0FF0B8DF8250001204FF4ED
:101E800080510122FEF732FD28460DF13301012277
:101E900000238DF833B000F02DF99DF825000528BA
:101EA00000F0B680300600F0B38001204FF480517E
:101EB0000022013EFEF71AFD6FF07E472846FF2103
:101EC00000F04AF9FF280AD00A2000F0EFFA013F9B
:101ED000F4D101204FF480510122FEF707FD582074
:101EE0008DF8260028460DF126010122002300F07E
:101EF00001F907980DF127018DF8270028460122E6
:101F0000002300F0F7F806980AA98DF82800284663
:101F10000122002300F0EEF805980DF129018DF85B
:101F2000290028460122002300F0E4F808980DF16A
:101F30002A018DF82A0028460122002300F0DAF851
:101F400001208DF82B0028460DF12B0101220023E2
:101F500000F0D0F84FF480542846FF2100F0FCF840
:101F60000028A4F1010002D0012C0446F4D100287D
:101F70003FF484AF28460BA9012200238DF82CB032
:101F800000F0B8F8FE208DF82D0028460DF12D0147
:101F90000122002300F0AEF8B9F1000F36D0049C06
:101FA000002700BF14F8010F51468DF82E00284677
:101FB0000122002300F09EF8B7F5FF7F07F101072B
:101FC000F0D928460DF12F010122002300F086F8F8
:101FD00040B144F26410C0F20000414618220123CF
:101FE00001F006FD28460CA9012200234F4600F00F
:101FF00075F840B144F26410C0F200004146182266
:10200000012301F0F5FC4FF0410BE9E6052033E731
:102010009DF8250005281CBF9DF825100091039907
:1020200005280CD1019801318142049800F5007017
:1020300004907FF4C7AE052002E0052000E0009880
:10204000C0B20DB0BDE8F08FF0B585B040F20046EB
:10205000C4F202060446B0421AD14FF46040019027
:1020600003200290042001AD01270490012029469D
:102070000397FEF78DFA4FF4805001904FF0011056
:10208000CDE902070020049001202946FEF780FADE
:102090000020C4F20200844209D040F60000C4F2DD
:1020A0000200844205D0B44206D1132002E012207F
:1020B00000E00B2000F094FA48F67C4001210C224D
:1020C0000023C2F200004027C0E90041C0E902231A
:1020D000C0E90437FEF78CFC05B0F0BD80B548F6CA
:1020E0007C40C2F20000FEF743FD002818BF01202B
:1020F00080BD000080B548F67C40C2F20000FEF7CB
:10210000D7FD002818BF012080BD0000B0B50446EF
:102110000020C4F2020084420D460DD040F60000BB
:10212000C4F20200844209D040F20040C4F202002E
:10213000844206D1132002E0122000E00B2000F0C0
:102140004FFA48F67C40C2F2000004604561BDE8E9
:10215000B040FEF74DBC000080B582B048F67C4030
:102160008DF807104FF0000C0DF10701C2F20000CE
:102170000DF106020123CDF800C0FEF737FE9DF8F1
:10218000060002B080BD000010B582B04A1E40F6C5
:102190002C0C012AC4F2010C1CD80D224CF8042C82
:1021A0005CF8042CD20621D444F23F2EC0F20F0E6C
:1021B00000220EF1010300BF93421AD05CF8044CD8
:1021C0000132E406F8D5531E0022734538BF0122C0
:1021D0001ABB28E05CF8082C42F480724CF8082CFA
:1021E0005CF8082C9205FBD5002217E00122A2B969
:1021F00019E048F67041C2F2000100220A605CF862
:10220000081C41F480714CF8081C00BF5CF8081CE5
:102210008905FBD5002200212AB1012248F670432E
:10222000C2F200031A60DCF8002042F00102CCF890
:102230000020DCF8002022F40012CCF8002000BFBF
:10224000DCF800205200FBD543F6D86E0023C0F224
:10225000000E002206E000BF0EEB030252691433A9
:10226000782B46D08A42F7D10EEB030254688442A1
:10227000F2D1D2E9020312691B0343EAC000DCF881
:10228000003040EA02406FF3D3031843CCF800005B
:10229000DCF80020481E22F00601022838BF043175
:1022A000CCF80010DCF8001041F48001CCF80010EC
:1022B0001021009100994A1E00290092FAD100BF16
:1022C000DCF800104900FBD51021019101994A1E4C
:1022D00000290192FAD1042101284CF81C1C05D8D0
:1022E0005CF8080C40F480704CF8080C002002B038
:1022F00010BD012002B010BD48F67840C2F20000C7
:1023000001680131016070472DE9F04186B000217C
:10231000019103914FF480121368082767F3CB13E0
:1023200040F62405C4F2010513602A6804469205AC
:1023300007D4286840F00100286000BF28688005A5
:10234000FCD549F20007C0F2D037781C48F6744635
:1023500048F670488442C2F20006C2F2000845F80E
:10236000141C15D22868C00507D5286820F4807091
:10237000286000BF28688005FCD544F60000C0F244
:10238000E81084420FD130600220059001200DE05A
:1023900003992046FFF7F8FE0190012005900220E6
:1023A0000490346006E0012037600590049000201E
:1023B000C8F80000019880B10120376005900490B2
:1023C00000200290286820F480702860286880052A
:1023D000FCD50020C8F800000AE00498012801D1CB
:1023E000002004E00498022814BF05200420029075
:1023F00030680499B0FBF1F048F66C41C2F200017C
:10240000086055F8100C059A40F2FF718843511E80
:10241000029A084340EA022045F8100C55F8100CC7
:10242000B0F1FF3FFADC3068FEF722F80198B0FA0D
:1024300080F0400906B0BDE8F081000082B04EF6A1
:102440008851CEF200010868002240F47000086054
:1024500040F62400C4F2010041F8802C0168C9054F
:1024600021D550F8141CF1B94FF480110A680223E9
:1024700063F3CB120A600121009100BF00994A1E4C
:1024800000290092FAD1016821F4807101600121D4
:10249000019100BF01994A1E00290192FAD100BFA3
:1024A00001688905FCD502B07047000081B000903A
:1024B0000098411E00280091FAD101B07047000039
:1024C000BFF34F8FBFF36F8F4EF65070CEF2000008
:1024D00000210160BFF34F8FBFF36F8F4EF6145092
:1024E000CEF20000016841F400310160BFF34F8F6C
:1024F000BFF36F8F7047000048F66C40C2F20000D7
:102500000068704748F67040C2F2000000687047EB
:1025100048F67440C2F200000068704710B540F6FB
:102520000000C4F2010001684EF60C5441F4803101
:102530000160C16BCEF2000421F40001C163206888
:102540004FF6FF01084040F0BF6040F401302060CA
:1025500049F20050C0F6BA20FFF7D6FE30B3FFF7BD
:10256000AFFF48F67841C2F200010020086048F64B
:102570007441C2F20001096844F6D352C1F262020A
:10258000A1FB02124FF0FF3101EB9211B0EB116F82
:1025900018BF10BD4EF21002CEF200025160E021D1
:1025A000E17590600720106010BD00BFFEE70000DD
:1025B00040F61C010E28C4F2010108D30E38012296
:1025C0000B6802FA00F023EA00000860704701225D
:1025D0004B6802FA00F023EA0000486070470000F0
:1025E00081B040F61C010E28C4F2010107D30E3859
:1025F00001220B6802FA00F01843086005E001228E
:102600004B6802FA00F0184348600220009000BFB7
:102610000098411E00280091FAD101B070470000D7
:102620002DE9F04F93B00FF2CC3001F033FCFFF7FF
:10263000AFF918B101240FF2D030C7E10FF2DC304E
:1026400001F028FC0FF2E43001F024FC40F21C05FC
:1026500040F20408552003260027C2F200050CAC06
:10266000C2F20008ADF84800119003E0013E3006C8
:1026700000F051812846214608224FF6FF73CDE92C
:102680000C77FEF7C1FD9DF83000AA28EED19DF829
:10269000310010F0FB0FE9D19DF837105529E5D135
:1026A000B0FA80F1490988F8001080F0AA000221F0
:1026B000625C0131062980EA0200F9D19DF83610EA
:1026C0008142D3D1DDF832004FF6FF710A9148F60E
:1026D000684140F21C0B00BAC2F20001C2F2000BCA
:1026E000086011A9584606224FF6FF73FEF7EAFD6F
:1026F000DAA001F0CFFB5520ADF84800119043F669
:10270000B860C0F2000001684268C368806840F6A3
:10271000684ACDE90E0300200990002006900020B1
:102720000790002004900020C2F2000A05904FF6A6
:10273000FF70CDE90C1208905846514602224FF620
:10274000FF73FEF761FD9AF80000AA28F4D19AF809
:102750000100FF2800F0E2805846514604224FF65F
:10276000FF73FEF751FD9AF802609AF803709AF829
:10277000009047EA06209AF801501FFA80F8584660
:10278000514642464FF6FF73FEF73EFD584610A9EC
:1027900004224FF6FF73FEF737FDCDF82C9089EA3F
:1027A000050986EA090078406FF05401B8F1000F7E
:1027B00080EA010608D0AAF10100414610F8012F75
:1027C000013986EA0206F9D19DF840709DF841B0C2
:1027D0005046414601F002F89DF84210F2B28A429A
:1027E00003D14BEA0721814217D00B9840F21C0B12
:1027F0008DF8450001208DF8470089F00100C2F2F4
:10280000000B8DF846508DF84900584611A9062254
:102810004FF6FF73FEF756FD8EE70A98514680B2D9
:10282000424600F0ADFF40F20401C2F20001097817
:102830000A900029CDE9025947D044F6684BC2F20C
:10284000000B43F6C863584651464246C0F20003A7
:102850000094FDF7E9FC0AEB080050F8101C50F852
:102860000C2C50F8043C50F8080C0D92CDE90E03E6
:1028700048F66840C2F200000068049A4746861A8B
:10288000464538BF37460C914FB10898154680B27F
:1028900059463A4600F074FF3D4408900495099863
:1028A00040F21C0BDDF82C90C2F2000B98B944F6F4
:1028B00068414645C2F200010DD2C8194078C95D91
:1028C000069001200791099005E040F21C0BDDF80D
:1028D0002C90C2F2000B08F2FF1606F47E4141452F
:1028E00005D90AEB0800A1EB0801FDF761FC4FEAEE
:1028F0005628059E504631464246FFF741FA029857
:1029000046448DF8460000208DF847000398059650
:102910008DF8459077E702244AA057E040F21C006A
:10292000C2F2000010A904224FF6FF73FEF76CFC00
:10293000BDF84000079945BA0A98069AC04387B285
:102940000898C9B2D2B2C64344F2961042EA0124B2
:10295000C0F2000029463A4601F04AF8B6B244F205
:10296000C4100999C0F200003246234601F040F835
:102970009DF840009DF841109DF84220484080F0AD
:10298000550040F2040182424FF0010008BFBD42F1
:10299000C2F2000120D08DF847008DF8490040F2C6
:1029A0001C000024C2F2000011A906224FF6FF739A
:1029B000ADF84540FEF786FC44F20B20C0F2000063
:1029C00001F068FA44F2FB10C0F2000001F062FA74
:1029D000204613B0BDE8F08F087840B1A11B18BFA6
:1029E0000121099A0220002A18BF4800D3E70020DD
:1029F000D1E700BF5344204361726420636865637C
:102A00006B2E2E2E0D000000534420436172642073
:102A10006E6F7420666F756E64210D005344204301
:102A2000617264204F4B2E0D0000000057616974E5
:102A3000205541525420636F6E6E6563742E2E2EA6
:102A40000D0000005541525420636F6E6E65637433
:102A50002074696D656F7574210D000055415254E5
:102A600020636F6E6E65637465642C20737461728D
:102A700074206275726E696E672E2E2E0D00000036
:102A800082B00A4601908DF803109DF803000128DA
:102A900029D1FFE70198006840F20801C2F2000165
:102AA00008600198043001900198006840F20C0120
:102AB000C2F200010860019804300190019800689A
:102AC00040F21001C2F20001086001980430019048
:102AD0000198006840F21401C2F2000108600198F8
:102AE0000430019000E0FFE702B0704710B58AB0F3
:102AF000DDF834C0DDF830E01C46099008910792FB
:102B00008DF81B308DF81AE09DF81A00012840F06E
:102B1000C381FFE79DF81B00002840F0EE80FFE72F
:102B20000C20C4F20300016841F0040101600D981B
:102B30009DF81A10FFF7A4FF07980590FFE7059886
:102B4000002800F0D980FFE70998006800900998F4
:102B500004300990099800680190099804300990A0
:102B60000998006802900998043009900998006853
:102B7000039009980430099000980021C4F20301E1
:102B800008600198086002980860039808600C20AB
:102B9000C4F20300016841F001010160FFE7102069
:102BA000C4F203000068C007002801D1FFE7F6E780
:102BB0001020C4F203000121016040F20800C2F2BB
:102BC000000001681422C4F2030213685940049102
:102BD0009DF81310089BD970BDF81210089B9970CE
:102BE0000499090A089B59700499089B197008995F
:102BF0000431089140F20C01C2F200010B68D2F8D6
:102C000000C083EA0C0304939DF81330DDF820C064
:102C10008CF80330BDF81230DDF820C08CF802309B
:102C2000049B1B0ADDF820C08CF80130049BDDF802
:102C300020C08CF80030089B0433089340F2100346
:102C4000C2F20003D3F800C0D2F800E08CEA0E0C08
:102C5000CDF810C09DF813C0DDF820E08EF803C059
:102C6000BDF812C0DDF820E08EF802C0DDF810C01B
:102C70004FEA1C2CDDF820E08EF801C0DDF810C012
:102C8000DDF820E08EF800C0DDF820C00CF1040C67
:102C9000CDF820C040F2140CC2F2000CDCF800E0C9
:102CA000126882EA0E0204929DF81320DDF820E0FB
:102CB0008EF80320BDF81220DDF820E08EF8022007
:102CC000049A120ADDF820E08EF80120049ADDF85B
:102CD00020E08EF80020089A04320892009A0260E0
:102CE00001980860029818600398CCF80000FFE78C
:102CF00005980138059022E7CDE00C20C4F20300CE
:102D0000016821F0040101600D989DF81A10FFF789
:102D1000B7FE07980590FFE70598002800F0BA80F5
:102D2000FFE70998006840F20801C2F20001096853
:102D300048400021C4F2030108600998043009905A
:102D40000998006840F20C02C2F20002126850407A
:102D500008600998043009900998006840F2100250
:102D6000C2F20002126850400860099804300990CD
:102D70000998006840F21402C2F200021268504042
:102D800008600998043009900C20C4F2030001681F
:102D900041F001010160FFE71020C4F20300006868
:102DA000C007002801D1FFE7F6E71020C4F20300B6
:102DB000012101601420C4F20300016804919DF810
:102DC0001310089AD170BDF81210089A91700499E6
:102DD000090A089A51700499089A1170049940F2EE
:102DE0000802C2F2000211600899043108910168DA
:102DF00004919DF81310089AD170BDF81210089A2A
:102E000091700499090A089A51700499089A1170EE
:102E1000049940F20C02C2F20002116008990431D8
:102E20000891016804919DF81310089AD170BDF8BB
:102E30001210089A91700499090A089A517004991D
:102E4000089A1170049940F21002C2F20002116057
:102E5000089904310891006804909DF813000899BE
:102E6000C870BDF81200089988700498000A089983
:102E70004870049808990870049840F21401C2F24E
:102E800000010860089804300890FFE705980138B1
:102E9000059041E7FFE7A6E09DF81B00002808D158
:102EA000FFE70C20C4F20300016841F00401016057
:102EB00007E00C20C4F20300016821F00401016066
:102EC000FFE707980590FFE70598002800F08A8043
:102ED000FFE7099800680021C4F20301086009981F
:102EE0000430099009980068086009980430099036
:102EF00009980068086009980430099009980068EA
:102F000008600998043009900C20C4F2030001689D
:102F100041F001010160FFE71020C4F203000068E6
:102F2000C007002801D1FFE7F6E71020C4F2030034
:102F3000012101601420C4F20300016804919DF88E
:102F40001310089AD170BDF81210089A9170049964
:102F5000090A089A51700499089A11700899043165
:102F60000891016804919DF81310089AD170BDF87A
:102F70001210089A91700499090A089A51700499DC
:102F8000089A1170089904310891016804919DF81C
:102F90001310089AD170BDF81210089A9170049914
:102FA000090A089A51700499089A11700899043115
:102FB0000891006804909DF813000899C870BDF846
:102FC0001200089988700498000A089948700498BB
:102FD00008990870089804300890FFE705980138B0
:102FE000059071E7FFE71020C4F20300016841F08B
:102FF000040101600AB010BD10B596B0DDF864C0E0
:10300000DDF860E01C461490139112928DF8473061
:103010008DF846E09DF84700002808D1FFE70C2016
:10302000C4F20300016841F00401016007E00C20D4
:10303000C4F20300016821F004010160FFE70C20E5
:10304000C4F20300016841F480710160016821F459
:103050007E410160016841F4007101601498109094
:1030600013980F909DF8460000282AD1FFE7002012
:103070000E90FFE70E981299884221D2FFE7109830
:103080000AA91022059100F05FFB0F999DF84620D8
:10309000059800F02FFA4DF66821CAF29A5188423D
:1030A00003D0FFE70020159021E210981030109017
:1030B0000F9810300F90FFE70E9801300E90D9E76F
:1030C0000FE29DF84700012840F00181FFE71998C1
:1030D0009DF84610FFF7D4FC10980AA9102204911D
:1030E00000F032FB40F20800C2F2000000680A99CA
:1030F0004840069040F20C00C2F2000000680B99B4
:103100004840079040F21000C2F2000000680C999D
:103110004840089040F21400C2F2000000680D9987
:10312000484009909DF81B008DF82B00BDF81A004F
:103130008DF82A000698000A8DF8290006988DF867
:1031400028009DF81F008DF82F00BDF81E008DF897
:103150002E000798000A8DF82D0007988DF82C0096
:103160009DF823008DF83300BDF822008DF8320061
:103170000898000A8DF8310008988DF830009DF805
:1031800027008DF83700BDF826008DF83600099825
:10319000000A8DF8350009988DF834000F999DF8D4
:1031A0004620049800F0A6F94DF66821CAF29A511B
:1031B000884203D0FFE70020159098E1129801386B
:1031C0001290FFE71298411E129100287ED0FFE76F
:1031D0000F989DF84610FFF753FC10981030109090
:1031E0000F9810300F9010980AA91022039100F048
:1031F000ABFA40F20800C2F2000000680A994840A9
:10320000069040F20C00C2F2000000680B994840A2
:10321000079040F21000C2F2000000680C9948408C
:10322000089040F21400C2F2000000680D99484076
:1032300009909DF81B008DF82B00BDF81A008DF841
:103240002A000698000A8DF8290006988DF82800B3
:103250009DF81F008DF82F00BDF81E008DF82E0080
:103260000798000A8DF82D0007988DF82C009DF81E
:1032700023008DF83300BDF822008DF83200089845
:10328000000A8DF8310008988DF830009DF827006D
:103290008DF83700BDF826008DF836000998000A31
:1032A0008DF8350009988DF834000F999DF8462067
:1032B000039800F01FF94DF66821CAF29A5188422E
:1032C00003D0FFE70020159011E17BE708E110989B
:1032D0000AA91022029100F037FA19989DF84610B9
:1032E000FFF7CEFB0F999DF84620029800F002F9F7
:1032F0004DF66821CAF29A51884203D0FFE70020B8
:103300001590F4E040F20800C2F2000000680F9946
:1033100009684840069040F20C00C2F200000068C4
:103320000F9949684840079040F21000C2F200002F
:1033300000680F9989684840089040F21400C2F272
:10334000000000680F99C968484009909DF81B006B
:103350000F99C870BDF81A000F9988700698000A76
:103360000F99487006980F9908709DF81F000F99E3
:10337000C871BDF81E000F9988710798000A0F994F
:10338000487107980F9908719DF823000F99C8722A
:10339000BDF822000F9988720898000A0F994872A8
:1033A00008980F9908729DF827000F99C873BDF807
:1033B00026000F9988730998000A0F994873099895
:1033C0000F990873129801381290FFE71298411E66
:1033D0001291002800F08380FFE79DF846100AA8AC
:1033E0000190FFF74DFB1098103010900F9810309F
:1033F0000F9010981022019900F0A6F90F999DF8EE
:103400004620019800F076F84DF66821CAF29A51EC
:10341000884203D0FFE70020159068E040F20800E2
:10342000C2F2000000680F9909684840069040F217
:103430000C00C2F2000000680F99496848400790EC
:1034400040F21000C2F2000000680F9989684840FD
:10345000089040F21400C2F2000000680F99C96899
:10346000484009909DF81B000F99C870BDF81A00DC
:103470000F9988700698000A0F99487006980F995E
:1034800008709DF81F000F99C871BDF81E000F99B4
:1034900088710798000A0F99487107980F99087169
:1034A0009DF823000F99C872BDF822000F99887209
:1034B0000898000A0F99487208980F9908729DF8A9
:1034C00027000F99C873BDF826000F9988730998D3
:1034D000000A0F99487309980F99087376E7FFE778
:1034E000FFE74DF66820CAF29A501590FFE715984D
:1034F00016B010BD80B58CB013460A9009918DF8B6
:1035000023200A9809999DF82320029300F08EF851
:103510000DF121000121FDF71DFA9DF8211001F0A8
:103520000F018DF822109DF822100190084600F03E
:103530003DF90A989DF823200DF1110100F076F86D
:1035400000208DF81000FFE79DF810000F2829DCFF
:10355000FFE709989DF81010405C0DF11102515CD5
:10356000884218D0FFE700208DF80F00FFE79DF894
:103570000F000F280CDCFFE709989DF80F100022C0
:103580004254FFE79DF80F0001308DF80F00EEE781
:1035900000200B9047E0FFE79DF8100001308DF808
:1035A0001000D1E79DF8210000098DF822009DF858
:1035B000220000F0FBF800208DF81000FFE79DF8D6
:1035C00010000F2829DCFFE709989DF81010405CD7
:1035D0000DF11102515C884218D0FFE700208DF8F0
:1035E0000F00FFE79DF80F000F280CDCFFE709989C
:1035F0009DF80F1000224254FFE79DF80F000130A4
:103600008DF80F00EEE700200B900CE0FFE79DF82F
:10361000100001308DF81000D1E74DF66820CAF295
:103620009A500B90FFE70B980CB080BD84B0134606
:10363000039002918DF80720039800680021C4F2DE
:103640000301086003984068086003988068086078
:103650000398C06808600C20C4F20300016841F0C0
:1036600001010160FFE71020C4F203000068C007F9
:10367000002801D1FFE7F6E71020C4F20300012182
:1036800001601420C4F20300016800919DF803104A
:10369000029AD170BDF80210029A91700099090A3D
:1036A000029A51700099029A1170029904310291A4
:1036B000016800919DF80310029AD170BDF80210C4
:1036C000029A91700099090A029A51700099029A1F
:1036D0001170029904310291016800919DF8031064
:1036E000029AD170BDF80210029A91700099090AED
:1036F000029A51700099029A117002990431029154
:10370000006800909DF803000299C870BDF802009F
:10371000029988700098000A0299487000980299EE
:1037200008700298043002909DF80700012808D123
:10373000FFE71020C4F20300016841F004010160BA
:10374000FFE704B07047000084B00390029101923B
:1037500000200090FFE70098019988420DD2FFE712
:103760000398411C0391007802994A1C0292087048
:10377000FFE7009801300090EDE704B070470000CB
:1037800080B58AB143F6647C0139C0F2000C00BFF9
:1037900011F8013F1FFA80FE5840C0B23CF81000FB
:1037A000013A80EA1E20F3D180B280BD81B0009042
:1037B0000098411E00280091FAD101B07047000026
:1037C00040F26401C2F200010968002904BF002030
:1037D000704708608A691207FCD47047C9B180B588
:1037E00043F6647C01384FF6FF72C0F2000C00BF54
:1037F00010F8013F1FFA82FE5A40D2B23CF8122064
:10380000013982EA1E22F3D1D043BDE8804080B264
:103810007047002080B2704700BF00BF00BF00BFEC
:1038200000BF00BF00BF00BF00BF00BF00BF00BFA0
:1038300000BF00BF00BF00BF00BF00BF00BF00BF90
:1038400000BF00BF00BF00BF00BF00BF00BF00BF80
:1038500000BF00BF00BF00BF40F60400C4F2030079
:103860000068C0B27047000081B00090FFE7009888
:10387000411E0091002801D0FFE7F8E701B0704732
:1038800040F61C00C4F20100016841F000510160E3
:1038900000BF00BF40F60001C4F203010A6822F035
:1038A00001020A60016821F00051016070470000C8
:1038B00086B0FEF733FE40F21C0043F600034FF4DF
:1038C0006121C2F20000C4F20103C0E9003140F2FC
:1038D000003160220027C1F20001C0E90227C0E9DF
:1038E00004718761FDF75EFBFEF712FE0446FEF7EA
:1038F00003FE024644F21F20C0F20000214600F001
:1039000077F8FEF745F840F66804C2F20004204656
:1039100000210122FEF790F840F66826C2F2000668
:10392000304601210122FEF787F840F26845C2F2D5
:103930000005284621464FF40072FCF720FC05F5EF
:103940000074204631464FF40072FCF718FC43F631
:10395000B860C0F2000001684268C368806840F245
:10396000680643F6C867C2F20006C0F20007CDE958
:103970000403CDE902120DF10808304629464FF440
:1039800000723B46CDF80080FCF74EFCD5F8FC21D8
:1039900005F5F8730BCB059202AA0BC206F5007071
:1039A00021464FF400723B46CDF80080FCF73CFC0A
:1039B00005A000BF00F06EFAFEF732FE07A000F08F
:1039C00069FA00BFFEE700BF5344204361726420E0
:1039D0007772697465207374617274005344204374
:1039E000617264207772697465206F766572000079
:1039F0000FB4054B10B503A9044A029800F018F85B
:103A000010BC5DF814FB0000C1370000000000206E
:103A100002E008C8121F08C1002AFAD17047704797
:103A2000002001E001C1121F002AFBD170470000F5
:103A30002DE9FF4F8DB00F460546002606E02528EC
:103A40000BD0DDE90F1290476D1C761C28780028FA
:103A5000F5D111B03046BDE8F08F0024A246A14652
:103A60000122EC4900E0044315F8013F203B02FA33
:103A700003F00842F7D128782A2810D06FF02F02DF
:103A80002878A0F13001092914D80AEB8A0102EB49
:103A9000410144F0020400EB010A6D1CF0E701CF84
:103AA0005FEA000A03D544F40054CAF1000A44F066
:103AB00002046D1C28782E2817D115F8010F44F048
:103AC00004042A280ED06FF02F022878A0F13001CC
:103AD00009290AD809EB890102EB410100EB010930
:103AE0006D1CF2E757F8049B6D1C28786C280FD0EA
:103AF00006DC4C2817D068280DD06A2814D104E0C1
:103B0000742810D07A280FD10DE044F400140AE094
:103B100044F4801401E044F440146978814202D1F5
:103B200004F580146D1C6D1C2A786E2A1FD00CDCE5
:103B3000632A31D004DC002A8BD0582A11D1A3E0AB
:103B4000642A68D0692A0CD165E0732A2ED004DC7F
:103B50006F2A73D0702A04D19BE0752A6FD0782A1F
:103B60006ED01046DDE90F129047761C50E1C4F389
:103B70000250022806D0032809D0042801CF09D01A
:103B8000066045E101CFF117C0E9006140E101CFD6
:103B900006803DE106703BE117F8040B8DF800004C
:103BA00000208DF80100EB46012003E057F804BB2C
:103BB0004FF0FF3061074FF0000102D40DE008F133
:103BC0000101884649450FDA8045F8DB1BF80810EB
:103BD0000029F4D108E008F1010188468142FADBAE
:103BE0001BF808100029F6D1DDE90F23AAEB080025
:103BF0008146214600F036F9304400EB080604E027
:103C0000DDE90F121BF8010B9047B8F10108F7D25C
:103C100021464846F7E00A21C4F302534FF0000B57
:103C20000891022B04D001CFC117032B09D00AE061
:103C3000FF1D27F00707F7E8020108E032E01FE068
:103C400020E000B2C117042B01D140B2C117031EFE
:103C500071F1000307DA4FF0000CD0EB0C006CEBB5
:103C600001012D2302E0230504D52B238DF82430F8
:103C7000012303E0E30701D02023F7E7984658E04B
:103C80000A2110E010210EE010204FF0000B0890E8
:103C90000CE010214FF0000B44F004044FF0080931
:103CA000089103E008214FF0000B0891C4F3025380
:103CB000022B04D001CF0021032B06D006E0FF1D0C
:103CC00027F00707F7E8020103E080B2042B00D1D8
:103CD000C0B24FF0000823072BD5702A07D0DDF8BB
:103CE00020C08CF0100C5CEA0B0C05D00EE04023D9
:103CF0008DF82430012308E050EA010306D0302378
:103D00008DF824308DF8252002239846DDF820C058
:103D10008CF0080C5CEA0B0C0BD150EA010301D1CA
:103D2000630706D530238DF824304FF00108A9F140
:103D30000109582A04D038A20B9208AA0A920BE073
:103D40003AA2F9E75B46089AFCF7E8F90B9B9B5C03
:103D50000A9A521E0A92137050EA0102F2D10A988E
:103D6000ADEB000000F1200B600702D524F4803495
:103D700001E04FF00109D94502DDA9EB0B0000E09D
:103D8000002000EB0B0141440890AAEB010AE0037C
:103D900006D4DDE90F232146504600F063F80644BF
:103DA0004FF0000908E009A911F80900DDE90F1238
:103DB000904709F10109761CC145F4DBE0030CD5FD
:103DC000DDE90F232146504600F04CF8064404E09C
:103DD000DDE90F1230209047761C0899481E0890A4
:103DE0000029F5DC08E00A980A990078491C0A9134
:103DF000DDE90F129047761CBBF10001ABF1010B1E
:103E0000F1DC21465046DDE90F2300F019F80644A5
:103E10006D1C1BE60928010030313233343536374A
:103E20003839616263646566000000003031323306
:103E300034353637383941424344454600000000A6
:103E40002DE9F041044600251E461746880404D497
:103E500005E039462020B0476D1C641EF9D5284680
:103E6000BDE8F0812DE9F041044600251E4690464C
:103E7000C80301D5302700E02027880404D505E0D9
:103E800041463846B0476D1C641EF9D52846BDE84A
:103E9000F081000010B5044601E0FFF791FC14F832
:103EA000010B04490028F8D1BDE810400A20FFF7B3
:103EB00087BC000000000020303132333435363703
:103EC00038394142434445464255524E32303236EB
:103ED0004B45594030313233000000000095BA0A9A
:103EE00021000000000000000000000000000000B1
:103EF000000E270712000000000000000000000074
:103F0000010000000095BA0A210000000100000035
:103F10000000000001000000000E27071200000052
:103F20000100000000000000020000000095BA0A35
:103F3000120000000100000000000000020000006C
:103F4000000E270712000000020000000000000021
:103F5000FFFFFFFF00000000000000000000000065
:103F6000000000000000891112239B322446AD5747
:103F70003665BF74488CC19D5AAFD3BE6CCAE5DBB1
:103F80007EE9F7F88110080193331A22A5562C47D1
:103F9000B7753E64C99C408DDBBF52AEEDDA64CB91
:103FA000FFF976E802218B30100299132667AF766D
:103FB0003444BD554AADC3BC588ED19F6EEBE7FA71
:103FC0007CC8F5D983310A2091121803A7772E6691
:103FD000B5543C45CBBD42ACD99E508FEFFB66EA51
:103FE000FDD874C904428D5316619F702004A91531
:103FF0003227BB364CCEC5DF5EEDD7FC6888E19931
:104000007AABF3BA85520C4397711E60A114280550
:10401000B3373A26CDDE44CFDFFD56ECE998608910
:10402000FBBB72AA06638F7214409D512225AB34EC
:104030003006B9174EEFC7FE5CCCD5DD6AA9E3B8F0
:10404000788AF19B87730E6295501C41A3352A2410
:10405000B1163807CFFF46EEDDDC54CDEBB962A8D0
:10406000F99A708B088481951AA793B62CC2A5D3B0
:104070003EE1B7F04008C919522BDB3A644EED5FC0
:10408000766DFF7C899400859BB712A6ADD224C3C0
:10409000BFF136E0C1184809D33B5A2AE55E6C4FA0
:1040A000F77D7E6C0AA583B4188691972EE3A7F25C
:1040B0003CC0B5D14229CB38500AD91B666FEF7E80
:1040C000744CFD5D8BB502A499961087AFF326E280
:1040D000BDD034C1C3394A28D11A580BE77F6E6E60
:1040E000F55C7C4D0CC685D71EE597F42880A19120
:1040F0003AA3B3B2444ACD5B5669DF78600CE91D40
:10410000722FFB3E8DD604C79FF516E4A99020813F
:10411000BBB332A2C55A4C4BD7795E68E11C680D1F
:10412000F33F7A2E0EE787F61CC495D52AA1A3B0DB
:104130003882B193466BCF7A5448DD59622DEB3CFF
:10414000700EF91F8FF706E69DD414C5ABB122A0FF
:10415000B9923083C77B4E6AD5585C49E33D6A2CDF
:10416000F11E780F25735F25642E53445F457272EC
:104170006F723A2558002E2E2F536F757263655F4C
:10418000436F64652F4150502F6273705F73646397
:104190006172642E63000D0A5B4442475D207265C4
:1041A0006376546F74616C4372633D3078253034AC
:1041B0005820746F74616C4372633D3078253034DD
:1041C000580D0A005B4442475D20676F74496E6E6C
:1041D00065723D256420696E6E657243726341634A
:1041E000633D30782530345820657870496E6E65AF
:1041F000723D3078253034580D0A004275726E20B9
:10420000636F6D706C6574652E0D000D0A3D3D3D4C
:10421000204255524E20454E44203D3D3D0D004D1F
:1042200043552069732072756E6E696E672C204845
:10423000434C4B3D2564487A2C2050434C4B3D2544
:1042400064487A0A00000000684200000000002074
:1042500008000000103A0000704200000800002032
:10426000B8940000203A00000000000001000000A7
:04000005000000E512
:00000001FF
