:020000040000FA
:10000000D80A00206D01000071010000730100009A
:100010007501000077010000790100000000000078
:100020000000000000000000000000007B01000054
:100030007D010000000000007F0100008101000040
:10004000830100008301000000000000990500000A
:10005000F507000011080000830100008301000083
:100060000000000083010000830100008301000004
:1000700083010000000000008301000083010000F4
:100080008301000083010000830100008301000060
:1000900083010000F50500008301000083010000DA
:1000A00083010000000000008301000083010000C4
:1000B00000000000000000000000000083010000BC
:1000C00000F002F800F042F80AA090E8000C824428
:1000D0008344AAF10107DA4501D100F037F8AFF205
:1000E000090EBAE80F0013F0010F18BFFB1A43F016
:1000F000010318474C0E00006C0E0000103A24BF9C
:1001000078C878C1FAD8520724BF30C830C144BF7C
:1001100004680C60704700000023002400250026BE
:10012000103A28BF78C1FBD8520728BF30C148BF5A
:100130000B607047642900F03385782900F06C85E6
:10014000002070471FB51FBD10B510BD00F0A6FE02
:100150001146FFF7F7FF00F093FC00F0C4FE03B474
:10016000FFF7F2FF03BC00F0C9FE0000084800479B
:10017000FEE7FEE7FEE7FEE7FEE7FEE7FEE7FEE757
:10018000FEE7FEE703480449024A044B70470000BB
:10019000C1000000D8020020D80A0020D8020020A8
:1001A000F34AF44910F4001F03D04B6823F00043D6
:1001B0004B6010F4801F03D04B6823F000534B605A
:1001C00010F4004F03D04B6823F040034B6010F451
:1001D000807F03D04B6823F020034B6010F0010FA9
:1001E00003D04B6823F004034B6010F4804F03D01E
:1001F0004B6823F010034B6010F4007F03D04B6872
:1002000023F003034B600B6862EA000018400860AB
:100210007047D74AD74910F4001F03D04B6843F00A
:1002200000434B6010F4801F03D04B6843F0005331
:100230004B6010F4004F03D04B6843F040034B6019
:1002400010F4807F03D04B6843F020034B6010F024
:10025000010F03D04B6843F004034B6010F4804F50
:1002600003D04B6843F010034B6010F4007F03D0C1
:100270004B6843F003034B600B68904318430860DE
:10028000704770B4BC4CDFF8ECC20C2812D80C21BB
:10029000B1FBF0F200FB121121BBDCF8041021F4D9
:1002A000C85141F08041CCF80410511E2143CCF8D4
:1002B000081076E050282CD00CDC32281DD004DC4D
:1002C0001E2812D0302814D00CE03C2819D0462823
:1002D0001BD007E05A2820D0642822D06E2824D0D2
:1002E000782826D070BC00207047282302220321E2
:1002F00022E04023022203211EE0322303220221B6
:100300001AE03C230322022116E0462303220221A5
:1003100012E05023032202210EE05A23032202217D
:100320000AE032230322012106E0372303220121C0
:1003300002E03C23032201214FF480152E6826F4AD
:10034000F85646F400662E60DCF8045025F4C855D3
:1003500025F08045CCF80450890441EA82311943E4
:1003600041F0C051CCF80C10DCF80C1021F0004129
:10037000CCF80C10DCF80C1041F48001CCF80C1017
:10038000DCF80C1011F0804FFAD0CCF80840DCF803
:10039000041021F4C05141F4807141F08041CCF847
:1003A0000410DCF80410754A6FF35C3102EB403244
:1003B0001143CCF80410724970BC4843704730B404
:1003C000DFF8B4C16B4B302811D83021B1FBF0F20B
:1003D00000FB121100292ED1596821F4C85121F0D7
:1003E00080415960511E41EA0C01996054E05A283D
:1003F00004BF5A22022124D010DC322808BF322246
:100400001CD03C2808BF3C2218D0462808BF4622F2
:1004100014D0502808BF502210D00CE0642808BF28
:1004200032220DD06E2808BF372209D0782804BFA9
:100430003C22012105D030BC00207047022100E0A1
:1004400001214FF48014256825F4F85545F4006522
:1004500025605C6824F4C85424F080445C608904FE
:1004600041F44041114341F0C051D960D96841F095
:100470000041D960D96841F48001D960D96811F090
:10048000804FFBD0C3F808C0596821F4C05141F433
:10049000807141F0804159605968384A6FF35C318E
:1004A00002EB40321143596036490968A1F6BF2278
:1004B000B2F59B7F07D848434FF47A7148433249DD
:1004C000A1FB0010410830BC0846704710B54FF43E
:1004D0008014216821F4F85141F400612160FFF794
:1004E000D0FE2A4A234B1060996801F00F01491C85
:1004F000414351609968C1F30311491CB0FBF1F10C
:1005000091601F49B0FBF1F0342148434FF47A71F8
:10051000B0FBF1F02168C0B221F4F85141EA0020AB
:10052000206010BD1A490320086070471849002058
:100530000860704710B50F4C16482061606940F0A4
:10054000010060610A2000F076FA002020616069F5
:1005500020F0010060614FF0FF30FFF721FE6E20B8
:10056000FFF7B4FF0A490320086010BD7047000080
:1005700001813000000006481031200400E0FFFF38
:1005800040420F002C020800ABAAAAAA400000209B
:1005900000D008407462966C10B48049CB6B8048E0
:1005A00013F0100F4FF0010215D08B6913F0100FEC
:1005B0000EBFDFF8F0C110BC70470B6884780CF8F0
:1005C000043083785B1C837042708B6913F0100FCA
:1005D000F3D010BC704713F0200F01BF40F6FF703E
:1005E000486410BC7047896911F0800F18BF027011
:1005F00010BC70476C4910B4CB6B694813F0100FF6
:100600004FF0010215D08B6913F0100F0EBFDFF809
:1006100094C110BC70470B6884780CF80430837860
:100620005B1C837042708B6913F0100FF3D010BC09
:10063000704713F0200F01BF40F6FF70486410BCF4
:100640007047896911F0800F18BF027010BC7047A5
:100650001201B1FBF2F302FB1311C901B1FBF2F17C
:10066000491C490803EB911200EB40034B4800EB97
:100670008340426201F03F01816270472DE9F04101
:100680004A4B4B4C00264B4D4FF0E02C002844D0F9
:100690009A682F68C2F30362521CB7FBF2F25F6BD9
:1006A00027F4701747F4A0175F634FF40013CCF8DA
:1006B0008032CCF800313A4B1E705E7000EB400384
:1006C000364800EB8340036B23F001030363090109
:1006D000B2FBF1F301FB1322D201B2FBF1F1491C91
:1006E000490803EB9112426201F03F0181626021EF
:1006F000C16240F2013101631021816340F6FF7154
:1007000041642D4801682DA000F03EFA2268296856
:10071000BDE8F0412FA000F037BA2268DF6A27F069
:100720000F0747F00507DF620823CCF88032CCF8CA
:100730000031C0E700EB4002184800EB8240016046
:10074000816911F0080FFBD170474FF0000C002AAF
:1007500098BF704710B400EB4000104B03EB80448F
:1007600011F8013B20462360836913F0080FFBD189
:100770000CF1010000F0FF0C9445F1D310BC704760
:10078000064BC2B200211A6001EB410103EB81412B
:100790008A6912F0080FFBD1704700000000014881
:1007A0004C0000205800002000000D4800000648C2
:1007B000480000204400002040000020414348350C
:1007C00031322072756E20617420256420487A0DC4
:1007D0000A000000535243436C6F636B3D20256455
:1007E00020487A2C2050436C6F636B3D2025642099
:1007F000487A0A007948816911F0020F08BF7047F2
:100800000121774A1170816941F0020181617047CD
:100810007448816911F0020F08BF70470121704AC6
:100820005170816941F00201816170476E4A4FF059
:10083000E023E8B14FF0200CC3F880C2C3F800C138
:10084000D36A23F0704343F0A043D362136B23F0C9
:10085000FF0343F0550313638A00604901EB004036
:10086000826002218162816821F00101816070470C
:100870004FF0100CC3F880C2C3F800C1D36A45F230
:10088000505C6FF30F1343EA0C03D362E4E7534A5F
:10089000002102EB004041627047504A012102EB07
:1008A000004041627047C2F309034C4A02EB00402A
:1008B000826942F0020282610362026942F001022F
:1008C00002610022002B0BD9D0F818C01CF0100FC9
:1008D000FAD190F800C0521C01F801CB9A42F3D330
:1008E000816911F0020FFBD0816941F00201816141
:1008F000016921F0010101617047C2F30903374A20
:1009000002EB0040826942F0020282610362C26827
:1009100042F00102C2600022002B0BD9D0F818C0AF
:100920001CF0080FFAD111F801CB80F800C0521C5E
:100930009A42F3D3816911F0020FFBD0816941F033
:1009400002018161C16821F00101C160704710B4EA
:10095000224C4FF0000C04EB0040846944F0020488
:1009600084610362C46844F00104C460046944F013
:1009700001040461846914F0020F15D19C4508D26A
:10098000846914F0080F04D111F8014B04700CF1C4
:10099000010C846914F0100F02D1047802F8014BA5
:1009A000846914F0020FE9D0816911F0100F06D1AB
:1009B000017802F8011B816911F0100FF8D08169EC
:1009C00041F002018161C16821F00101C16001694A
:1009D00021F00101016110BC7047000000000640D9
:1009E00054000020000007400000064870B50D1EAE
:1009F00006464FF0000406D9315D1CA000F0C4F893
:100A0000641CA542F8D8BDE870401AA000F0BCB83C
:100A100070B50D1E06464FF0000407D956F8241095
:100A200015A000F0B1F8641CA542F7D8BDE87040ED
:100A300010A000F0A9B8401EFDD270470178C2781E
:100A40000270C170417882784270817070470144B1
:100A5000491E814298BF704702780B7800F8013B2D
:100A600001F801298142F7D870470000252E32781D
:100A7000200000000A000000252E38782000000029
:100A8000FFF758FD4FF4E1310020FFF7F7FD00F0CC
:100A900001F8FEE72FA000F077F800210120FFF712
:100AA000C5FE374DE86820F47F4040F4AA40E86076
:100AB000686A002610B9686A0028FCD002274FF047
:100AC00020084FF003094FF0400A4FF00F0B0024AD
:100AD000686A0028FCD0A000A860AE624FF4807263
:100AE00028490120FFF7DFFEAF624FF480722549ED
:100AF0000120FFF702FF686A0028FCD048EA840062
:100B0000A860AE624FF480721E490120FFF7CBFE51
:100B1000C5F828904FF480721A490120FFF7EDFEC6
:100B2000686A0028FCD04AEA8400A860AE624FF4EC
:100B3000807214490120FFF7B6FEC5F828B04FF4C3
:100B4000807210490120FFF7D8FE641C042CBFD32B
:100B5000BDE700002D2D2D2D2D2D2D2D2D53504970
:100B60005320636F6D6D20746573742069732073F7
:100B700074617274212D2D2D2D2D2D2D0D0A000047
:100B800000000740780000200FB4044910B503AA04
:100B9000029800F055F910BC5DF814FB50000020DD
:100BA0002DE9F0410646002410687529314616A546
:100BB00011D0AFF30080002803DAC0F1000013A5C4
:100BC00007E031688A0701D511A502E0490704D57D
:100BD00010A5012401E0AFF3008000210A2306F1F3
:100BE000240707E0B0FBF3F203FB12003030785427
:100BF0001046491C0028F5D123462A463046BDE858
:100C0000F04100F0C1B80000000000002D0000001D
:100C10002B0000002000000070B504460D46214660
:100C20001068AFF300802188090502D5104A7A4484
:100C300002E00F4A7A440E32002104F1240307E057
:100C400000F00F064FEA1010965D5E5401F10101AD
:100C50000028F5D103462078000704D5702D02D076
:100C600009B1113202232046BDE8704000F08CB873
:100C7000E60200002DE9F0474FF0000A89460446DD
:100C8000C0F820A02046E1688847002876D02528B3
:100C900006D0D4E901219047206A401C2062F1E788
:100CA000E168204600258847C4F81CA006460027B6
:100CB000C4F818A02A2E09D0304600F026F938B31F
:100CC00004EB8708303EC8F8186019E059F8041B97
:100CD000204604EB87029161E1688847012F0646B0
:100CE00018D1E069002820DA25F020051DE0D8F8A9
:100CF000180000EB800006EB40003038C8F8180000
:100D00002046E1688847064600F0FFF80028EED14B
:100D1000012F0AD02E2E08D12046E16888477F1C7B
:100D20000646022F45F02005C4DBA069002803DA3F
:100D3000404245F00105A061E80701D025F010050B
:100D4000B6B1A6F14100192802D8203645F4006555
:100D50004A463146204625604D46FFF7EBF958B12B
:100D6000012806D0ED1D25F0070000F1080989E7EC
:100D700004E005F1040985E730468AE7206ABDE80A
:100D8000F0877047704770472DE9F0470D46994648
:100D90009246044600F124080168880604D5E069FB
:100DA00021F01001216000E00120A84202DDA0EB4B
:100DB000050700E00027A16907EB050202EB090027
:100DC000A1EB0000A0612078C00602D42046AFF35A
:100DD0000080002608E0D4E901211AF806009047B7
:100DE000206A401C761C20624E45F4DB2078C00649
:100DF0000AD52046AFF3008006E0D4E90121302077
:100E00009047206A401C2062381EA7F10107F4DCDD
:100E100007E0D4E9012118F805009047206A401C3A
:100E20002062281EA5F10105F3DC2046AFF3008007
:100E30002078000602D50220BDE8F0870120FBE7FC
:100E4000074B70B50D467B4400F011F80446284668
:100E500000F020F810B14FF0FF3070BD204670BD9B
:100E600037F9FFFF01694A1C02610878704700B535
:100E70008FB0CDE901310021059105497944CDE9D3
:100E8000031011466846FFF7F5FE0FB000BD0000E5
:100E9000E5FFFFFF007B00F080007047754600F023
:100EA00029F8AE4605006946534620F007008546FE
:100EB00018B020B5FFF766F9BDE820404FF00006F6
:100EC0004FF000074FF000084FF0000B21F0070132
:100ED000AC46ACE8C009ACE8C009ACE8C009ACE875
:100EE000C0098D4670470446AFF300802046FFF7E7
:100EF00036F90000004870477802002001491820A8
:100F0000ABBEFEE726000200704730380A2801D247
:100F10000120704700207047303132333435363786
:100F2000383941424344454640305800303132332D
:100F3000343536373839616263646566403078002D
:100F4000600F00004000002018000000FC000000BE
:100F5000780F000058000020800A000018010000EF
:100F60000000000000000000000000000000000081
:080F7000000000000000000079
:04000005000000C136
:00000001FF
