:020000040000FA
:10000000E01800206D010000710100007301000084
:100010007501000077010000790100000000000078
:100020000000000000000000000000007B01000054
:100030007D010000000000007F0100008101000040
:10004000830100008301000000000000B9070000E8
:100050008301000083010000830100008301000090
:100060000000000083010000830100008301000004
:1000700083010000000000008301000083010000F4
:100080008301000083010000830100008301000060
:1000900083010000130800008301000083010000B9
:1000A00083010000000000008301000083010000C4
:1000B00000000000000000000000000083010000BC
:1000C00000F002F800F042F80AA090E8000C824428
:1000D0008344AAF10107DA4501D100F037F8AFF205
:1000E000090EBAE80F0013F0010F18BFFB1A43F016
:1000F000010318470426000024260000103A24BFFC
:1001000078C878C1FAD8520724BF30C830C144BF7C
:1001100004680C60704700000023002400250026BE
:10012000103A28BF78C1FBD8520728BF30C148BF5A
:100130000B607047642901F0DF85782901F018868B
:10014000002070471FB51FBD10B510BD01F0F0FFB6
:100150001146FFF7F7FF00F0F1FF02F00EF803B4CD
:10016000FFF7F2FF03BC02F013F800000848004755
:10017000FEE7FEE7FEE7FEE7FEE7FEE7FEE7FEE757
:10018000FEE7FEE703480449024A044B70470000BB
:10019000C1000000E0100020E0180020E010002066
:1001A000F84910F4001F05D0F74A526822F00042C7
:1001B000F54B5A6010F4801F05D0F34A526822F0C4
:1001C0000052F14B5A6010F4004F05D0EE4A5268CD
:1001D00022F04002EC4B5A6010F4807F05D0EA4ACE
:1001E000526822F02002E84B5A6010F0010F05D04F
:1001F000E54A526822F00402E34B5A6010F4804F43
:1002000005D0E14A526822F01002DF4B5A6010F428
:10021000007F05D0DC4A526822F00302DA4B5A60B4
:10022000D94A1268C3430B431A40D74B1A60704730
:10023000D44910F4001F05D0D34A526842F000425E
:10024000D14B5A6010F4801F05D0CF4A526842F05B
:100250000052CD4B5A6010F4004F05D0CA4A526884
:1002600042F04002C84B5A6010F4807F05D0C64A65
:10027000526842F02002C44B5A6010F0010F05D0C2
:10028000C14A526842F00402BF4B5A6010F4804FDA
:1002900005D0BD4A526842F01002BB4B5A6010F4C0
:1002A000007F05D0B84A526842F00302B64B5A604C
:1002B000B54A126820EA01031A43B34B1A6070472B
:1002C000F0B500240025002600220C281FD80C279A
:1002D000B7FBF0FC00FB1C7707B1F0BDAA4F7F68AD
:1002E000DFF8A8C207EA0C0747F08047DFF898C29A
:1002F000CCF804700C27B7FBF0F14F1E47F4887759
:1003000047F4405747F08467CCF8087084E05028E1
:100310002AD00CDC32281BD004DC1E2810D0302858
:1003200036D111E03C2817D0462831D118E05A28A0
:100330001ED0642820D06E2822D0782828D123E02F
:1003400028240225032624E040240225032620E059
:100350003224032502261CE03C240325022618E053
:1003600046240325022614E050240325022610E02B
:100370005A24032502260CE032240325012608E036
:1003800037240325012604E03C240325012600E050
:10039000A3E700BF4FF480173F6827F4F85747F4EE
:1003A00000674FF4801CCCF80070774F7F68DFF84F
:1003B000DCC107EA0C07DFF8D0C1CCF80470B70441
:1003C00047EA8537274347F0C057CCF80C7067469B
:1003D000FF6827F00047CCF80C706746FF6847F4C9
:1003E0008007CCF80C7000BF674FFF6817F0804F94
:1003F000FAD0674FDFF890C1CCF8087067467F6885
:10040000DFF888C107EA0C07DFF888C147EA0C0764
:10041000DFF874C1CCF804705B4F7F68DFF878C1F7
:1004200007EA0C07A0F1010C47EA4C37DFF858C186
:10043000CCF80470594F4743DFF864C1CCF8007022
:10044000514FBF6807F00F07791C67463F684F435D
:10045000DFF850C1CCF800704B4FBF68C7F30317EB
:10046000791C4F4F3F68B7FBF1F7DFF83CC1CCF880
:1004700000704B4F3F68DFF824C1B7FBFCF3342713
:100480005F434FF47A7CB7FBFCF7FAB24FF4801766
:100490003F6827F4F85747EA02274FF4801CCCF84E
:1004A000007000BF19E72DE9F04100250026002764
:1004B00000230C2825D84FF00C0CBCFBF0F800FBF7
:1004C00018CCBCF1000F01D0BDE8F081DFF8B8C056
:1004D000DCF804C0DFF8B4800CEA080CDFF8A88070
:1004E000C8F804C04FF0300CBCFBF0F2A2F1010CD4
:1004F0004CF4887C4CF4405C4CF0846CC8F808C028
:10050000A3E050282AD00CDC32281BD004DC1E28A3
:1005100010D030284AD111E03C2817D0462845D1C8
:1005200018E05A281ED0642820D06E2822D07828BF
:100530003CD123E028250226032738E04025022667
:10054000032734E032250326022730E03C2503262A
:1005500002272CE046250326022728E05025032603
:10056000022724E05A250326022720E0322503260D
:1005700001271CE037250326012718E03C25032628
:10058000012714E00181300000000648FFE6FFBFAC
:100590001031200400010040FF1F00E040420F0026
:1005A0004000002044000020480000208CE700BFED
:1005B0004FF4801CDCF800C02CF4F85C4CF4006CA8
:1005C0004FF48018C8F800C0DFF8C0C1DCF804C0E0
:1005D000DFF8BC810CEA080CDFF8B081C8F804C071
:1005E0004FEA874C4CEA863C4CEA050C4CF0C05C68
:1005F000C8F80CC0C446DCF80CC04CF0004CC8F87D
:100600000CC0C446DCF80CC04CF4800CC8F80CC01C
:1006100000BFDFF878C1DCF80CC01CF0804FF8D0C8
:10062000DFF870C1DFF86481C8F808C0C446DCF8A0
:1006300004C0DFF85C810CEA080CDFF85C814CEA4E
:10064000080CDFF84881C8F804C0DFF840C1DCF8C6
:1006500004C0DFF848810CEA080CA0F101084CEA5C
:10066000483CDFF82881C8F804C04FF4002CDCF8BF
:100670002C1240F6F63C61450ED240F6BE2C614588
:100680000AD94FF47A7C01FB0CFC0CFB00FC4FF008
:100690000308BCFBF8F103E0DFF804C100FB0CF138
:1006A000DFF800C1CCF80010DFF8E0C0DCF808C0CB
:1006B0000CF00F0C0CF10102DFF8E8C0DCF800C010
:1006C0000CFB02FCDFF8E080C8F800C0DFF8BCC01B
:1006D000DCF808C0CCF3031C0CF10102DFF8C4C045
:1006E000DCF800C0BCFBF2FCDFF8C080C8F800C03A
:1006F000DFF8B0C0DCF800C0DFF8A480BCFBF8F481
:100700004FF0340C04FB0CFC4FF47A78BCFBF8FC83
:100710000CF0FF034FF4801CDCF800C02CF4F85CF4
:100720004CEA032C4FF48018C8F800C000BFCBE699
:1007300010B504462046FFF7C3FD10BD03201C4939
:100740000860704700201A490860704710B51948C2
:100750000E4908610846406940F0010048610A20DE
:1007600000F0A5F90020094908610846406920F019
:10077000010048614FF0FF30FFF712FD6E20FFF7D8
:10078000D7FFFFF7DBFF10BD7047000000000648F1
:10079000FFE6FFBF1031200400010040FF1F00E012
:1007A00040420F004000002044000020480000208C
:1007B00000D008407462966C9349C86B10F0100F1B
:1007C00015D00DE090490968904A914B1B78D1549F
:1007D0008F490978491C8E4A117001218D4A117088
:1007E0008949896901F010011029EBD110E010F05E
:1007F000200F09D08449896901F08001802907D13F
:100800000121854A117003E040F6FF717E4A516470
:1008100070478249C86B10F0100F15D00DE07F496A
:1008200009687A4A7A4B1B78D15479490978491C6E
:10083000774A11700121774A11707849896901F06E
:1008400010011029EBD110E010F0200F09D07349EE
:10085000896901F08001802907D101216E4A117058
:1008600003E040F6FF716D4A516470472DE9F04195
:1008700003461001B1FBF0F5B1FBF0F700FB1716D2
:10088000F701B7FBF0F7781C440805EB941703EB6E
:10089000430CDFF8748108EB8C4CCCF8247004F026
:1008A0003F0703EB430C08EB8C4CCCF82870BDE8F9
:1008B000F08170B504460E467CB959480568594820
:1008C000C06A20F00F00401D5649C862032000F0A6
:1008D00091F8032000F082F816E052488068C0F3D7
:1008E0000360401C50490968B1FBF0F54D48406B6E
:1008F00020F4701040F4A0104A494863152000F01D
:1009000079F8152000F06AF8002043490870414941
:10091000087004EB44003C4901EB8040006B20F080
:10092000010004EB4401384A02EB8141086332467E
:1009300029462046FFF79AFF602004EB4401324A23
:1009400002EB8141C86240F2013004EB440102EB4A
:1009500081410863102004EB440102EB814188636C
:1009600040F6FF7004EB440102EB814148642F48DC
:1009700001682FA001F0B4F9294802682A480168EB
:1009800031A001F0ADF970BD00EB40021E4B03EB4E
:100990008242116000BF00EB40021B4B03EB82421E
:1009A000926912F0080FF6D17047F0B507460C4671
:1009B0001546002606E014F8011B3846FFF7E4FF51
:1009C000701CC6B2AE42F6D3F0BD30B504460D463B
:1009D000E1B20020FFF7D8FF204630BD00F01F0233
:1009E0000121914042094FF0E02303EB8202C2F85B
:1009F0000011704700F01F02012191401A4A43097B
:100A000042F8231070470000000001485C000020FD
:100A10004E0000204D0000204C00002000000D483A
:100A2000480000200000064844000020400000204C
:100A30004143483531322072756E2061742025643F
:100A400020487A0D0A000000535243436C6F636BD9
:100A50003D20256420487A2C2050436C6F636B3D09
:100A600020256420487A0A0080E200E070B505463F
:100A70000E46002404E0295D1DA001F031F9641C3C
:100A8000B442F8D31CA001F02BF970BD70B5054637
:100A90000E46002405E055F8241018A001F020F9B6
:100AA000641CB442F7D314A001F01AF970BD00BF62
:100AB0000100A0F10100FBD1704701460A78CB7814
:100AC0000B70CA704A788B784B708A70704730B55B
:100AD00002460B461046D518691E05E004780D78CD
:100AE00000F8015B01F801498142F7D830BD0000F0
:100AF000252E3278200000000A000000252E3878CC
:100B00002000000010B5C2B02022F84932A801F040
:100B100029FA2022F54920312AA801F023FA2022BF
:100B2000F249403122A801F01DFA2022EF4960313C
:100B30001AA801F017FAEEA001F0D2F80020F3494C
:100B400008606120F2490870622048706320887054
:100B50003AAA0321EE4801F09CF800241AE03AA8D2
:100B600010F8240000063AA931F8241001F47F415E
:100B700040EA01203AA951F8241001F47F0140EA2B
:100B800011203AA951F8241040EA11603AA941F81D
:100B90002400641C082CE2DB002410E03AA850F882
:100BA000240032A951F82410884207D00120D749E7
:100BB0000860D8A001F094F842B010BD641C082C65
:100BC000ECDBD8A001F08CF81120D149087022206C
:100BD0004870332088704420C870612008716220FA
:100BE0004871632088713AAA0721C94801F051F879
:100BF00000241AE03AA810F8240000063AA931F8B7
:100C0000241001F47F4140EA01203AA951F8241050
:100C100001F47F0140EA11203AA951F8241040EA7A
:100C200011603AA941F82400641C082CE2DB00247E
:100C30000FE03AA850F824002AA951F8241088425D
:100C400006D00120B1490860BAA001F049F8B3E725
:100C5000641C082CEDDBBBA001F042F800240DE081
:100C60006120AB4908556221A94A601C11546321D7
:100C7000A01C11546421E01C1154241D402CEFDBF6
:100C8000684600F0F3FE2022A149684600F09AFF72
:100C900020229F492031684600F094FF69463AA817
:100CA00000F0D2FF00241AE03AA810F82400000651
:100CB0003AA931F8241001F47F4140EA01203AA911
:100CC00051F8241001F47F0140EA11203AA951F8AB
:100CD000241040EA11603AA941F82400641C082C51
:100CE000E2DB00240FE03AA850F8240022A951F8D2
:100CF0002410884206D001208449086095A000F0A5
:100D0000EFFF59E7641C082CEDDB96A000F0E8FF2C
:100D100000240DE061207E49085562217C4A601C58
:100D200011546321A01C11546421E01C1154241D92
:100D3000382CEFDB3AAA3821754800F0AAFF0024CE
:100D40001AE03AA810F8240000063AA931F8241055
:100D500001F47F4140EA01203AA951F8241001F43E
:100D60007F0140EA11203AA951F8241040EA1160AD
:100D70003AA941F82400641C082CE2DB00240FE0AF
:100D80003AA850F824001AA951F82410884206D035
:100D900001205E49086077A000F0A2FF0CE7641C08
:100DA000082CEDDB77A000F09BFF00BF04E710B537
:100DB0008CB078A000680B9014224C49803106A8B2
:100DC00001F0D0F874A000F08BFF01AA03210BA85A
:100DD00000F0E7FA002405E001A901EB8400FFF729
:100DE0006CFE641C052CF7DB002410E001A850F811
:100DF000240006A951F82410884207D06EA000F004
:100E00006FFF0120414908600CB010BD641C052C27
:100E1000ECDB6DA000F064FF00BFF5E710B592B009
:100E20005CA00068119020223049943109A801F09B
:100E300099F869A000F054FF01AA032111A800F05D
:100E4000BCFB002405E001A901EB8400FFF735FE9F
:100E5000641C082CF7DB002410E001A850F82400E3
:100E600009A951F82410884207D064A000F038FF87
:100E700001202649086012B010BD641C082CECDB70
:100E800062A000F02DFF00BFF5E710B59AB041A0B9
:100E90000068199030221549B4310DA801F062F8AC
:100EA0005FA000F01DFF01AA032119A800F06BFD4F
:100EB000002405E001A901EB8400FFF7FEFD641C9E
:100EC0000C2CF7DB0024C6E001A850F824000DA983
:100ED00051F82410884207D05AA000F001FF0120E9
:100EE0000A4908601AB010BDB4E00000AC2100004F
:100EF0002D2D2D2D2D2D2D2D2D736D3320746573DE
:100F0000742D2D2D2D2D2D2D0A00000058000020B0
:100F10007C0000200A736D33206572726F72310A93
:100F200000000000736D3320737563636573733164
:100F30000A0000000A736D33206572726F72320A04
:100F400000000000736D3320737563636573733243
:100F50000A0000000A736D33206572726F72330AE3
:100F600000000000736D3320737563636573733322
:100F70000A0000000A736D33206572726F72340AC2
:100F800000000000736D3320737563636573733401
:100F90000A000000616263002D2D2D2D2D2D2D2DB9
:100FA0002D534841315F6861736820746573742DF7
:100FB0002D2D2D2D2D2D0A00736861312065727243
:100FC0006F722E0A00000000736861312073756330
:100FD000636573732E0A00002D2D2D2D2D2D2D2DC3
:100FE0002D5348413235365F6861736820746573EC
:100FF000742D2D2D2D2D2D2D0A00000073686132CA
:101000003536206572726F722E0A00007368613285
:10101000353620737563636573732E0A0000000014
:101020002D2D2D2D2D2D2D2D2D5348413338345F51
:101030006861736820746573742D2D2D2D2D2D2DF1
:101040000A000000736861333834206572726F7271
:101050002E0A0000641C0C2CFFF636AF1EA000F018
:101060003FFE00BF1AB010BD10B5A2B0AFF2DC0059
:101070000068219040221D4911A800F073FF1CA0B8
:1010800000F02EFE01AA032121A800F08EFC00240E
:1010900005E001A901EB8400FFF70FFD641C102C93
:1010A000F7DB002410E001A850F8240011A951F842
:1010B0002410884207D017A000F012FE0120194921
:1010C000086022B010BD641C102CECDB16A000F0F0
:1010D00007FE00BFF5E70000736861333834207302
:1010E0007563636573732E0A000000009022000090
:1010F0002D2D2D2D2D2D2D2D2D5348413531325F88
:101100006861736820746573742D2D2D2D2D2D2D20
:101110000A000000736861353132206572726F72A7
:101120002E0A0000580000207368613531322073A8
:101130007563636573732E0A00000000FFF706FBFA
:101140004FF4E1310020FFF7B4FB4FF40230FFF71A
:1011500027F8FFF72CFEFFF761FEFFF796FEFFF77B
:1011600083FFFFF7CFFC00BFFEE700000021816195
:10117000416195490160954941609349C943816046
:101180009249C943C16092490161704770B500231B
:101190001C4611E0051911F82360EE7031F8236048
:1011A000360AAE7051F82360360C6E7051F8235039
:1011B0005B1C2D0E0555241D9442EBD370BD10B55C
:1011C000002302E0CC5CC4545B1C9342FAD310BDF4
:1011D0000023C9B201E0C1545B1C9342FBD37047AA
:1011E00070B504460020142C05D201EA02008B439E
:1011F0001843784912E081EA0205A4F114065D4023
:10120000142E01D274480FE0A4F12806142E07D240
:1012100042EA030008401A4070491043084470BD78
:101220003C3C142CFBD26E48284470BDF0B595B000
:1012300000226B4611F82240250601EB820443F898
:101240002250667845EA064543F82250A67845EADA
:10125000062543F82250E478254343F82250521CD7
:10126000102AE7DB5F4E0221B160002150F82120F7
:101270007260491C0529F9DB002202F00F01CC1E27
:1012800004F00F070B348D1C04F00F0405F00F055C
:10129000102A0EDB53F8277053F82440674053F8A8
:1012A000254053F821506C4067404FEAF77443F8EB
:1012B000214053F821103160521C502ADDDB0021FF
:1012C00010AAF36842F82130491C0529F9DB0021F6
:1012D000B16050F8213052F82140234440F82130C9
:1012E000491C0529F5DB15B0F0BDF0B50F46816945
:1012F00005461646C1F3C50001EBC601A961B1EB75
:10130000C60F696901D2491C696101EB5671C0F1D0
:1013100040046961A64216D328441C30224639464F
:10132000FFF74DFF05F11C012846FFF77FFF04E0A2
:1013300039192846FFF77AFF403404F13F00B042E4
:10134000F6D3002000E00024321B39192844BDE800
:10135000F0401C3033E73CB50C46054608221431FA
:101360006846FFF713FF208BC0F3C502382A02D26C
:10137000C2F1380201E0C2F178021B492046FFF7B2
:10138000B4FF082269462046FFF7AFFF142221462A
:101390002846FFF7FBFE5C2200212046FFF718FFDE
:1013A0003CBD10B597B0144603460A466846FFF7A1
:1013B000DDFE19466846FFF798FF69462046FFF7AD
:1013C000CAFF17B010BD00000123456789ABCDEF00
:1013D000F0E1D2C39979825AA1EBD96EDCBC1B8FA4
:1013E000D6C162CA00A00140D022000000214162A3
:1013F00001627B4901607B4941607B4981607B4997
:10140000C1607B4901617B4941617B4981617B49C5
:10141000C1617047F0B598B000226B4611F82240C8
:10142000250601EB820443F82250667845EA06451A
:1014300043F82250A67845EA062543F82250E4787E
:10144000254343F82250521C102AE7DBDFF8B0C1D5
:101450000421CCF80810002150F82120CCF80420F9
:10146000491C0829F8DBDFF89CE1002202F00F019B
:10147000CD1F05F00F068C1E4D1C04F00F0405F067
:101480000F05102A18DB53F824404FEA744787EA07
:10149000F44787EA942753F825404FEAF41585EA84
:1014A000B44585EAD40453F8265053F821603C44EF
:1014B00035442C4443F8214053F82110CCF8001057
:1014C0005EF82210CCF80010521C402ACEDB00211E
:1014D00010AADCF80C3042F82130491C0829F8DB4E
:1014E0000021CCF8081050F8213052F82140234454
:1014F00040F82130491C0829F5DB18B0F0BD2DE972
:10150000F0410F46416A05461646C1F3C50001EB9E
:10151000C6016962B1EBC60F296A01D2491C296272
:1015200001EB5671C0F140042962A64216D328444B
:10153000283022463946FFF742FE05F128012846A9
:10154000FFF768FF04E039192846FFF763FF4034CE
:1015500004F13F00B042F6D3002000E00024321B2B
:1015600039192844BDE8F0412830FFF728BE7CB582
:101570000C460546082220316846FFF707FEA08C7E
:10158000C0F3C502382A02D2C2F1380201E0C2F12A
:1015900078021D492046FFF7B2FF0822694620461F
:1015A000FFF7ADFF202221462846FFF7EFFD682216
:1015B00000212046FFF70CFE7CBD10B59AB0144602
:1015C00003460A466846FFF711FF19466846FFF7CB
:1015D00096FF69462046FFF7CAFF1AB010BD00000B
:1015E00067E6096A85AE67BB72F36E3C3AF54FA5B4
:1015F0007F520E518C68059BABD9831F19CDE05BE0
:1016000000A0014050230000D022000000214164CE
:101610000164C1648164ED490160ED494160ED49B7
:101620008160ED49C160ED490161ED494161ED49DC
:101630008161ED49C161ED490162ED494162ED49C8
:101640008162ED49C162ED490163ED494163ED49B4
:101650008163ED49C1637047002141640164C16445
:101660008164EA490160EA494160EA498160EA49E6
:10167000C160EA490161EA494161EA498161EA4997
:10168000C161EA490162EA494162EA498162EA4983
:10169000C162EA490163EA494163EA498163EA496F
:1016A000C1637047002A03D008C9521E08C0FBD18D
:1016B000704730B505460020002B11D05B1E51F855
:1016C0002340241802D352F8234006E052F82300A6
:1016D000041901D3012000E0002045F82340EBE786
:1016E00030BD2DE9F047B0B004460B460020E84677
:1016F00013F820100A0603EB800148F820204D78EB
:1017000042EA054248F820208D7842EA052248F84E
:101710002020C9780A4348F82020401C2028E7DB15
:10172000CA4E4FF0080AC6F808A0002054F820104E
:101730007160401C1028F9DB1820B060DFF81093AE
:10174000002000F00F018A1E02F00F05CA1F02F0F0
:101750000F034A1C58F8317002F00F02376008EB93
:10176000C107D7F804C0C6F800C059F830C0C6F8A1
:1017700000C009EBC00CDCF804C0C6F800C010289B
:101780001ADB58F835C0C6F800C008EBC5056D680F
:10179000356058F83350356008EBC3035B6833603D
:1017A00058F83230336008EBC20252683260F26897
:1017B00048F83120F1687960401C5028C1DBC6F838
:1017C00008A0F0682090F0682190F0682290F068FE
:1017D0002390F0682490F0682590F0682690F068D7
:1017E0002790F0682890F0682990F0682A90F068B7
:1017F0002B90F0682C90F0682D90F0682E90F06897
:101800002F900020B0602146022320AA0846FFF74F
:1018100050FF04F10801022322AA0846FFF749FFFE
:1018200004F11001022324AA0846FFF742FF04F145
:101830001801022326AA0846FFF73BFF04F1200106
:10184000022328AA0846FFF734FF04F128010223E7
:101850002AAA0846FFF72DFF04F1300102232CAA23
:101860000846FFF726FF04F1380102232EAA084696
:10187000FFF71FFF30B0BDE8F0872DE9F0410F46BC
:10188000C16C05461646C1F3C60001EBC601E9640A
:10189000B1EBC60FA96C01D2491CA96401EB5671CA
:1018A000C0F18004A964A64216D3284450302246D1
:1018B0003946FFF784FC05F150012846FFF711FF78
:1018C00004E039192846FFF70CFF803404F17F004B
:1018D000B042F6D3002000E00024321B391928441E
:1018E000BDE8F0415030FFF76ABC7FB50C460546B5
:1018F000102240316846FFF749FCB4F84C00C0F3B1
:10190000C602702A02D2C2F1700201E0C2F1F002F6
:1019100050492046FFF7B1FF102269462046FFF7E5
:10192000ACFF302221462846FFF730FCD0220021B0
:101930002046FFF74DFC7FBD7FB50C4605461022C3
:1019400040316846FFF722FCB4F84C00C0F3C602F1
:10195000702A02D2C2F1700201E0C2F1F0023D49E8
:101960002046FFF78AFF102269462046FFF785FFD1
:10197000402221462846FFF709FCD02200212046BC
:10198000FFF726FC7FBD10B5B4B0144603460A46E7
:101990006846FFF73BFE19466846FFF76EFF69464B
:1019A0002046FFF7A2FF34B010BD10B5B4B0144606
:1019B00003460A466846FFF74FFE19466846FFF79A
:1019C0005CFF69462046FFF7B7FFECE75D9DBBCBA8
:1019D000D89E05C12A299A6207D57C365A015991A9
:1019E00017DD7030D8EC2F1539590EF7672633679D
:1019F000310BC0FF874AB48E111558680D2E0CDBD1
:101A0000A78FF9641D48B547A44FFABE67E6096A77
:101A100008C9BCF385AE67BB3BA7CA8472F36E3CB2
:101A20002BF894FE3AF54FA5F1361D5F7F520E510B
:101A3000D182E6AD8C68059B1F6C3E2BABD9831F12
:101A40006BBD41FB19CDE05B79217E1300A0014005
:101A500050240000D0220000002806D0002904D025
:101A600001E008C908C0521EFBD270470021016284
:101A70004162914901609149416091498160914978
:101A8000C1609149016191494161914981619149E7
:101A9000C161704770B500231C4611E0051911F8AB
:101AA0002360EE7031F82360360AAE7051F823607F
:101AB000360C6E7051F823505B1C2D0E0555241DFD
:101AC0009442EBD370BD70B5002423460CE0CD18D2
:101AD0006E786D886DBA66F31F45CE5C45EA066583
:101AE00040F82450641C1B1D9342F0D370BDF0B528
:101AF000102200EB820353F8404DDD696C405D6BB2
:101B000084EA75464FEA764787EA75456C40DD689A
:101B100084EA76249B6A84EA75645C4040F822403B
:101B2000521C442AE5DB002200EB820450F82230EC
:101B30002469634041F82230521C402AF4DBF0BD96
:101B400030B5654C88B00123A360002350F82350C2
:101B500065605B1C082BF9DB002351F823502560DE
:101B600052F8235025605B1C402BF6DB00216A46AF
:101B7000E36842F82130491C0829F9DB002152F8BA
:101B8000213050F821506B4040F82130491C082981
:101B9000F5DB0020A06008B030BD10B50C46ADF5F7
:101BA000047D014610226846FFF756FF44A96846A7
:101BB000FFF79DFF44AA69462046FFF7C1FF0DF5D8
:101BC000047D10BDF0B50F46416A05461646C1F3C7
:101BD000C50001EBC60191B06962B1EBC60F296A7D
:101BE00001D2491C296201EB5671C0F140042962FF
:101BF000A64220D3284428302246394600F06DF909
:101C0000402205F128016846FFF75DFF2946684636
:101C1000FFF7C3FF09E0391940226846FFF753FF79
:101C200029466846FFF7B9FF403404F13F00B0424F
:101C3000F1D3002000E000242844321B3919283059
:101C400000F04BF911B0F0BD7CB50C4605460822FA
:101C500020316846FFF71EFFA08CC0F3C502382A6A
:101C600002D2C2F1380201E0C2F178021B492046DB
:101C7000FFF7A8FF082269462046FFF7A3FF2022AE
:101C800021462846FFF706FF6821204600F09CF910
:101C90007CBD10B59AB0144603460A466846FFF765
:101CA000E5FE19466846FFF78DFF69462046FFF7B7
:101CB000CBFF1AB010BD00006F168073B9B2144983
:101CC000D742241700068ADABC306FA9AA38311629
:101CD0004DEE8DE34E0EFBB000A00140D02200007F
:101CE0000FB4044910B503AA029800F0F3F910BC30
:101CF0005DF814FB500000202DE9F0410646002459
:101D000010687529314616A511D0AFF30080002860
:101D100003DAC0F1000013A507E031688A0701D596
:101D200011A502E0490704D510A5012401E0AFF395
:101D3000008000210A2306F1240707E0B0FBF3F23C
:101D400003FB1200303078541046491C0028F5D1AE
:101D500023462A463046BDE8F04100F05FB9000056
:101D6000000000002D0000002B00000020000000FB
:101D700070B504460D4621461068AFF300802188F7
:101D8000090502D5104A7A4402E00F4A7A440E321D
:101D9000002104F1240307E000F00F064FEA1010C1
:101DA000965D5E5401F101010028F5D103462078CB
:101DB000000704D5702D02D009B11132022320464C
:101DC000BDE8704000F02AB9460900002DE9F0474F
:101DD0004FF0000A89460446C0F820A02046E1687A
:101DE0008847002876D0252806D0D4E901219047DD
:101DF000206A401C2062F1E7E16820460025884700
:101E0000C4F81CA006460027C4F818A02A2E09D042
:101E1000304600F0C4F938B304EB8708303EC8F808
:101E2000186019E059F8041B204604EB8702916101
:101E3000E1688847012F064618D1E069002820DABA
:101E400025F020051DE0D8F8180000EB800006EB17
:101E500040003038C8F818002046E1688847064638
:101E600000F09DF90028EED1012F0AD02E2E08D1C6
:101E70002046E16888477F1C0646022F45F0200572
:101E8000C4DBA069002803DA404245F00105A061E7
:101E9000E80701D025F01005B6B1A6F141001928D8
:101EA00002D8203645F400654A4631462046256072
:101EB0004D46FEF73FF958B1012806D0ED1D25F03B
:101EC000070000F1080989E704E005F1040985E746
:101ED00030468AE7206ABDE8F087032A40F2308066
:101EE00010F0030C00F0158011F8013BBCF1020F5B
:101EF000624498BF11F801CB00F8013B38BF11F8DC
:101F0000013BA2F1040298BF00F801CB38BF00F8F2
:101F1000013B11F0030300F02580083AC0F008806F
:101F200051F8043B083A51F804CBA0E80810F5E753
:101F3000121D5CBF51F8043B40F8043BAFF3008036
:101F4000D20724BF11F8013B11F801CB48BF11F8AB
:101F5000012B24BF00F8013B00F801CB48BF00F87B
:101F6000012B704710B5203AC0F00B80B1E8185033
:101F7000203AA0E81850B1E81850A0E81850BFF473
:101F8000F5AF5FEA027C24BFB1E81850A0E8185012
:101F900044BF18C918C0BDE810405FEA827C24BF66
:101FA00051F8043B40F8043B08BF7047D20728BFF4
:101FB00031F8023B48BF11F8012B28BF20F8023B43
:101FC00048BF00F8012B70474FF0000200B51346E0
:101FD00094469646203922BFA0E80C50A0E80C5049
:101FE000B1F12001BFF4F7AF090728BFA0E80C50FA
:101FF00048BF0CC05DF804EB890028BF40F8042BF3
:1020000008BF704748BF20F8022B11F0804F18BF5F
:1020100000F8012B70477047704770472DE9F04773
:102020000D4699469246044600F124080168880648
:1020300004D5E06921F01001216000E00120A842F0
:1020400002DDA0EB050700E00027A16907EB050210
:1020500002EB0900A1EB0000A0612078C00602D4C9
:102060002046AFF30080002608E0D4E901211AF8E9
:1020700006009047206A401C761C20624E45F4DB27
:102080002078C0060AD52046AFF3008006E0D4E9E8
:10209000012130209047206A401C2062381EA7F1A1
:1020A0000107F4DC07E0D4E9012118F805009047A6
:1020B000206A401C2062281EA5F10105F3DC2046A1
:1020C000AFF300802078000602D50220BDE8F0873B
:1020D0000120FBE7074B70B50D467B4400F011F87B
:1020E0000446284600F020F810B14FF0FF3070BDD4
:1020F000204670BDEDE8FFFF01694A1C02610878C7
:10210000704700B58FB0CDE9013100210591054937
:102110007944CDE9031011466846FFF757FE0FB02A
:1021200000BD0000E5FFFFFF007B00F0800070476E
:10213000754600F029F8AE4605006946534620F082
:102140000700854618B020B5FEF71CF8BDE8204012
:102150004FF000064FF000074FF000084FF0000B63
:1021600021F00701AC46ACE8C009ACE8C009ACE816
:10217000C009ACE8C0098D4670470446AFF3008043
:102180002046FDF7ECFF0000004870477C1000205F
:1021900001491820ABBEFEE7260002007047303828
:1021A0000A2801D20120704700207047F4F0C7666A
:1021B000D9EDEE626BD4F2D1E2E410DC87C4674162
:1021C000A2F7F25C2BA07D29E0A84B8FB167E07AE3
:1021D00010040299E083678CEEBA677E1158829FE3
:1021E0009881209C0371124965FE0508F99FBEDEA7
:1021F000A1B87522894860384D5A8EC1E570DB6FF1
:1022000065577E38A3CB3D2932570C9C0C2F039A7F
:10221000404B7EF25224258FC5CA51D4432D421A19
:102220006CAB73AE8324ECD7E9581324363E99A9DE
:102230006A81064771253EBA6CC250789DD8D09C01
:10224000BF1678BAEACF018FDE4041412322AE5D4E
:10225000A36103B09C7A179661FF10B4AD1500F22C
:102260003F7500CB8B5EA345693DA0B50750C69A6C
:10227000AB322C2763D1DE0E5A608B1AED5BFF4325
:102280002B07868023CCE7A1A1ECBA58A725C83438
:10229000A135AFDDBA7A6193497341CC314120AEAB
:1022A0004EFAE612A27EA989E6EE9E0A9AD3554B13
:1022B0002A999221A8C14F27233CBA36BDEBFEA331
:1022C00023444D450EE83C644FC99A2A9FA44CA56F
:1022D000800000000000000000000000000000007E
:1022E00000000000000000000000000000000000EE
:1022F00000000000000000000000000000000000DE
:1023000000000000000000000000000000000000CD
:1023100000000000000000000000000000000000BD
:1023200000000000000000000000000000000000AD
:10233000000000000000000000000000000000009D
:10234000000000000000000000000000000000008D
:10235000982F8A4291443771CFFBC0B5A5DBB5E910
:102360005BC25639F111F159A4823F92D55E1CAB84
:1023700098AA07D8015B8312BE853124C37D0C5512
:10238000745DBE72FEB1DE80A706DC9B74F19BC15A
:10239000C1699BE48647BEEFC69DC10FCCA10C244A
:1023A0006F2CE92DAA84744ADCA9B05CDA88F9762E
:1023B00052513E986DC631A8C82703B0C77F59BF98
:1023C000F30BE0C64791A7D55163CA0667292914C4
:1023D000850AB72738211B2EFC6D2C4D130D385361
:1023E00054730A65BB0A6A762EC9C281852C729223
:1023F000A1E8BFA24B661AA8708B4BC2A3516CC751
:1024000019E892D1240699D685350EF470A06A1089
:1024100016C1A419086C371E4C774827B5BCB034D8
:10242000B30C1C394AAAD84E4FCA9C5BF36F2E6876
:10243000EE828F746F63A5781478C8840802C78C05
:10244000FAFFBE90EB6C50A4F7A3F9BEF27871C608
:10245000982F8A4222AE28D791443771CD65EF2359
:10246000CFFBC0B52F3B4DECA5DBB5E9BCDB8981CB
:102470005BC2563938B548F3F111F15919D005B698
:10248000A4823F929B4F19AFD55E1CAB18816DDAC9
:1024900098AA07D8420203A3015B8312BE6F70455E
:1024A000BE8531248CB2E44EC37D0C55E2B4FFD519
:1024B000745DBE726F897BF2FEB1DE80B196163B11
:1024C000A706DC9B3512C72574F19BC1942669CF02
:1024D000C1699BE4D24AF19E8647BEEFE3254F389F
:1024E000C69DC10FB5D58C8BCCA10C24659CAC7757
:1024F0006F2CE92D75022B59AA84744A83E4A66EC9
:10250000DCA9B05CD4FB41BDDA88F976B553118300
:1025100052513E98ABDF66EE6DC631A81032B42D35
:10252000C82703B03F21FB98C77F59BFE40EEFBE19
:10253000F30BE0C6C28FA83D4791A7D525A70A9304
:102540005163CA066F8203E067292914706E0E0A70
:10255000850AB727FC2FD24638211B2E26C9265CB8
:10256000FC6D2C4DED2AC45A130D3853DFB3959DE5
:1025700054730A65DE63AF8BBB0A6A76A8B2773CF8
:102580002EC9C281E6AEED47852C72923B3582148E
:10259000A1E8BFA26403F14C4B661AA8013042BC0B
:1025A000708B4BC29197F8D0A3516CC730BE5406C4
:1025B00019E892D11852EFD6240699D610A965557C
:1025C00085350EF42A20715770A06A10B8D1BB323D
:1025D00016C1A419C8D0D2B8086C371E53AB4151EC
:1025E0004C77482799EB8EDFB5BCB034A8489BE107
:1025F000B30C1C39635AC9C54AAAD84ECB8A41E3E9
:102600004FCA9C5B73E36377F36F2E68A3B8B2D6AF
:10261000EE828F74FCB2EF5D6F63A578602F174375
:102620001478C88472ABF0A10802C78CEC39641A24
:10263000FAFFBE90281E6323EB6C50A4E9BD82DE36
:10264000F7A3F9BE1579C6B2F27871C62B5372E3BF
:10265000CE3E27CA9C6126EAC7B886D107C2C021F0
:10266000D67DDAEA1EEBE0CD7F4F7DF578D16EEEB8
:10267000AA67F006BA6F1772C57D630AA698C8A24A
:1026800004983F11AE0DF9BE350B711B1B471C138F
:10269000F577DB28847D04237BABCA329324C740C3
:1026A0000ABE9E3CBCBEC915C4671D434C0D109CA0
:1026B000BED4C54CB6423ECB9C297F592A7E65FCD0
:1026C000AB6FCB5FECFAD63A8C19446C1758474A7B
:1026D0003031323334353637383941424344454658
:1026E0004030580030313233343536373839616252
:1026F00063646566403078001827000040000020C1
:102700001C000000FC000000342700005C000020DA
:102710008418000018010000000000000000000004
:1027200000000000000000000000000000000000A9
:0427300000000000A5
:04000005000000C136
:00000001FF
