:020000040000FA
:10000000D808002071010000750100007701000090
:10001000790100007B0100007D010000000000006C
:100020000000000000000000000000007F01000050
:100030008101000000000000830100008501000034
:100040008701000087010000000000005106000049
:100050008701000087010000870100008701000080
:1000600000000000870100008701000087010000F8
:1000700087010000000000008701000087010000E8
:100080008701000087010000870100008701000050
:1000900087010000AD060000870100008701000015
:1000A00087010000000000008701000087010000B8
:1000B00000000000000000000000000087010000B8
:1000C00000F002F800F044F80AA090E8000C824426
:1000D0008344AAF10107DA4501D100F039F8AFF203
:1000E000090EBAE80F0013F0010F18BFFB1A43F016
:1000F00001031847A80C0000C80C0000103A24BFE8
:1001000078C878C1FAD8520724BF30C830C144BF7C
:1001100004680C60704700000023002400250026BE
:10012000103A28BF78C1FBD8520728BF30C148BF5A
:100130000B607047642900F05584782900F08E84A4
:10014000002070471FB500F00DFE1FBD10B510BD9B
:1001500000F0C6FD1146FFF7F5FF00F0F1FB00F0DF
:10016000E4FD03B4FFF7F2FF03BC00F0EDFD000077
:1001700008480047FEE7FEE7FEE7FEE7FEE7FEE78A
:10018000FEE7FEE7FEE7FEE703480449024A044BA8
:1001900070470000C1000000D8000020D8080020EF
:1001A000D8000020FE4AFF4910F4001F03D04B681E
:1001B00023F000434B6010F4801F03D04B6823F002
:1001C00000534B6010F4004F03D04B6823F0400302
:1001D0004B6010F4807F03D04B6823F020034B600A
:1001E00010F0010F03D04B6823F004034B6010F4B0
:1001F000804F03D04B6823F010034B6010F4007F56
:1002000003D04B6823F003034B600B6862EA0000E5
:10021000184008607047E24AE24910F4001F03D01A
:100220004B6843F000434B6010F4801F03D04B68D1
:1002300043F000534B6010F4004F03D04B6843F081
:1002400040034B6010F4807F03D04B6843F02003E1
:100250004B6010F0010F03D04B6843F004034B6078
:1002600010F4804F03D04B6843F010034B6010F440
:10027000007F03D04B6843F003034B600B6890434F
:1002800018430860704770B4C74DDFF818C34FF4C7
:1002900080140C2815D80C21B1FBF0F200FB1211D0
:1002A00000291CBF70BC7047DCF8041021F4C85151
:1002B00041F08041CCF80410511E2943CCF80810BD
:1002C00059E050287ED016DC32287CD009DC1E286C
:1002D0007AD030281CBF70BC704740210222032313
:1002E00016E03C2871D046281CBF70BC70474621E0
:1002F000032202230CE05A2868D0642867D06E28B5
:1003000066D078281CBF70BC70473C2103220123B3
:10031000266826F4F85646F400662660DCF8046089
:1003200026F4C85626F08046CCF804609B0443EAC5
:100330008232114341F0C051CCF80C10DCF80C10A3
:1003400021F00041CCF80C10DCF80C1041F48001D5
:10035000CCF80C10DCF80C1011F0804FFAD0CCF86F
:100360000850DCF8041021F4C05141F4807141F0D0
:100370008041CCF80410DCF804108C4A6FF35C3137
:1003800002EB40321143CCF804108949894A4843B2
:100390001060DCF8081001F00F01491C4143516066
:1003A000DCF80810C1F30311491CB0FBF1F19160B6
:1003B0007F49B0FBF1F0342148434FF47A71B0FB30
:1003C000F1F006E01AE011E00CE013E01AE01DE0A5
:1003D00020E02168C0B221F4F85141EA00202060F9
:1003E00070BC704728210222032391E732210322A7
:1003F00002238DE73C210322022389E750210322B7
:10040000022385E75A210322022381E732210322B6
:1004100001237DE737210322012379E770B4624D80
:10042000DFF880C14FF480140C2818D80C21B1FBE0
:10043000F0F200FB121100291CBF70BC7047DCF801
:10044000041021F4C85121F08041CCF8041030216F
:10045000B1FBF0F1491E2943CCF8081059E05028AF
:100460007DD016DC32287BD009DC1E2879D03028DC
:100470001CBF70BC704740210222032316E03C28B9
:1004800070D046281CBF70BC70474621032202234F
:100490000CE05A2867D0642866D06E2865D078288A
:1004A0001CBF70BC70473C2103220123266826F440
:1004B000F85646F400662660DCF8046026F4C85658
:1004C00026F08046CCF804609B0443EA8232114354
:1004D00041F0C051CCF80C10DCF80C1041F0004198
:1004E000CCF80C10DCF80C1041F48001CCF80C10A6
:1004F000DCF80C1011F0804FFAD0CCF80850DCF882
:10050000041021F4C05141F4807141F08041CCF8D5
:100510000410DCF80410254A6FF35C3102EB403222
:100520001143CCF8041024490968A1F6BF22B2F5A2
:100530009B7F84BF1E49484307D848434FF47A71D4
:1005400048431E49A1FB001040081A4A1060DCF81D
:10055000081001F00F01491C4143516006E03BE0E7
:1005600032E02DE034E03BE03EE041E0DCF8081012
:10057000C1F30311491CB0FBF1F191600C49B0FBD0
:10058000F1F0342148434FF47A71B0FBF1F0216867
:10059000C0B221F4F85141EA0020206070BC7047DD
:1005A00001813000000006481031200400E0FFFF08
:1005B00040420F00400000202C020800ABAAAAAA6B
:1005C00028210222032371E73221032202236DE74F
:1005D0003C210322022369E750210322022365E71D
:1005E0005A210322022361E73221032201235DE71E
:1005F00037210322012359E745E612490320086009
:100600007047104900200860704710B50F4C0E4825
:100610002061606940F0010060610A2000F06BF920
:1006200000202061606920F0010060614FF0FF3020
:10063000FFF7B8FD6E20FFF726FE02490320086091
:1006400010BD704700D008407462966C00000648E8
:1006500010B48049CB6B804813F0100F4FF00102AB
:1006600015D08B6913F0100F0EBFDFF8F0C110BC6E
:1006700070470B6884780CF8043083785B1C8370B7
:1006800042708B6913F0100FF3D010BC704713F059
:10069000200F01BF40F6FF70486410BC70478969A5
:1006A00011F0800F18BF027010BC70476C4910B475
:1006B000CB6B694813F0100F4FF0010215D08B6916
:1006C00013F0100F0EBFDFF894C110BC70470B6819
:1006D00084780CF8043083785B1C837042708B69DB
:1006E00013F0100FF3D010BC704713F0200F01BFB0
:1006F00040F6FF70486410BC7047896911F0800FA4
:1007000018BF027010BC70471201B1FBF2F302FB7C
:100710001311C901B1FBF2F1491C490803EB911215
:1007200000EB40034B4800EB8340426201F03F0185
:10073000816270472DE9F0414A4B4B4C00264B4DEE
:100740004FF0E02C002844D09A682F68C2F303626F
:10075000521CB7FBF2F25F6B27F4701747F4A01737
:100760005F634FF40013CCF88032CCF800313A4B81
:100770001E705E7000EB4003364800EB8340036B55
:1007800023F0010303630901B2FBF1F301FB132220
:10079000D201B2FBF1F1491C490803EB911242620C
:1007A00001F03F0181626021C16240F201310163C9
:1007B0001021816340F6FF7141642D4801682DA02E
:1007C00000F004F922682968BDE8F0412FA000F08C
:1007D000FDB82268DF6A27F00F0747F00507DF62E0
:1007E0000823CCF88032CCF80031C0E700EB40029F
:1007F000184800EB82400160816911F0080FFBD1BD
:1008000070474FF0000C002A98BF704710B400EBFF
:100810004000104B03EB804411F8013B204623605D
:10082000836913F0080FFBD10CF1010000F0FF0CFD
:100830009445F1D310BC7047064BC2B200211A6038
:1008400001EB410103EB81418A6912F0080FFBD1F2
:1008500070470000000001484C00002054000020B8
:1008600000000D4800000648480000204400002019
:10087000400000204143483531322072756E2061BE
:100880007420256420487A0D0A0000005352434327
:100890006C6F636B3D20256420487A2C2050436C9C
:1008A0006F636B3D20256420487A0A0070B50646C8
:1008B0000D1E4FF0000406D9315D1CA000F086F833
:1008C000641CA542F8D8BDE870401AA000F07EB8BC
:1008D00070B506460D1E4FF0000407D956F82410D7
:1008E00015A000F073F8641CA542F7D8BDE870406D
:1008F00010A000F06BB8401EFDD270470178C2789E
:100900000270C170417882784270817070470144F2
:10091000491E814298BF704702780B7800F8013B6E
:1009200001F801298142F7D870470000252E32785E
:10093000200000000A000000252E3878200000006A
:10094000FFF763FE4FF4E1310020FFF7F3FE0020D4
:1009500000F002F8FEE7000007460CA000F036F8B1
:100960000FA000F033F8164D164C0026287800280A
:10097000FCD04FF40020FFF7BEFF22781249384622
:10098000FFF73FFF26702E70F0E70000737461726E
:10099000742074657374207561727421200A0000DC
:1009A00077616974696E6720666F72206F75747005
:1009B000757420646174612E2E2E2E2E21200A0063
:1009C0004D0000204E000020540000200FB40449C8
:1009D00010B503AA029800F055F910BC5DF814FB9D
:1009E000500000202DE9F0410746002510687529C8
:1009F000394616A411D0AFF30080002803DAC0F105
:100A0000000013A407E039688A0701D511A402E0A9
:100A1000490704D510A4012501E0AFF300800021AF
:100A20000A2307F1240607E0B0FBF3F203FB1200F0
:100A3000303070541046491C0028F5D12B46224610
:100A40003846BDE8F04100F0C1B8000000000000E9
:100A50002D0000002B0000002000000070B50446AF
:100A60000D4621461068AFF300802168090502D5C4
:100A7000104A7A4402E00F4A7A440E32002104F10F
:100A8000240307E000F00F064FEA1010965D5E5455
:100A900001F101010028F5D103462068000704D5C3
:100AA000702D02D009B1113202232046BDE87040FA
:100AB00000F08CB8FC0200002DE9F0474FF0000A6E
:100AC00004468946C0F820A02046E16888470028EF
:100AD00076D0252806D0D4E901219047206A401C11
:100AE0002062F1E7E168204600258847C4F81CA091
:100AF00006460027C4F818A02A2E09D0304600F078
:100B00002AF938B304EB8708303EC8F8186019E0BA
:100B100059F8041B204604EB87029161E16888477D
:100B2000012F064618D1E069002820DA25F02005BB
:100B30001DE0D8F8180000EB800006EB40003038CC
:100B4000C8F818002046E1688847064600F003F917
:100B50000028EED1012F0AD02E2E08D12046E168C0
:100B600088477F1C0646022F45F02005C4DBA0699C
:100B7000002803DA404245F00105A061E80701D0F2
:100B800025F01005B6B1A6F14100192802D820368B
:100B900045F400654A463146204625604D46FFF73C
:100BA000C9FA58B1012806D0ED1D25F0070000F163
:100BB000080989E704E005F1040985E730468AE77A
:100BC000206ABDE8F0877047704770472DE9F0470D
:100BD0000D4604469246994600F1240801688806AD
:100BE00004D5E06921F01001216000E00120A84255
:100BF00002DDA0EB050700E00027A16907EB050275
:100C000002EB0900A1EB0000A0612068C00602D43D
:100C10002046AFF30080002608E0D4E901211AF84D
:100C200006009047206A401C761C20624E45F4DB8B
:100C30002068C0060AD52046AFF3008006E0D4E95C
:100C4000012130209047206A401C2062381EA7F105
:100C50000107F4DC07E0D4E9012118F8050090470A
:100C6000206A401C2062281EA5F10105F3DC204605
:100C7000AFF300802068000602D50220BDE8F087AF
:100C80000120FBE7074B70B50C467B4400F011F8E0
:100C90000546204600F020F810B14FF0FF3070BD3F
:100CA000284670BDABFBFFFF01694A1C0261087852
:100CB000704700B58FB0CDE901310021059105499C
:100CC0007944CDE9031011466846FFF7F5FE0FB0F1
:100CD00000BD0000E5FFFFFFC06800F08000704726
:100CE000754600F029F8AE4605006946534620F0E7
:100CF0000700854618B020B5FFF746FABDE820404A
:100D00004FF000064FF000074FF000084FF0000BC7
:100D100021F00701AC46ACE8C009ACE8C009ACE87A
:100D2000C009ACE8C0098D4670470446AFF30080A7
:100D30002046FFF716FA00000048704774000020B4
:100D4000004870477800002001491820ABBEFEE73C
:100D500026000200704730380A2801D2012070476F
:100D60000020704710B5FFF7EBFF4FF00001016066
:100D700010BD30313233343536373839414243448F
:100D80004546403058003031323334353637383903
:100D9000616263646566403078000000BC0D00004D
:100DA0004000002014000000FC000000D00D0000F6
:100DB000540000208408000018010000000000001A
:100DC0000000000000000000000000000000000023
:04000005000000C136
:00000001FF
