:020000040000FA
:10000000E818002071010000750100007701000070
:10001000790100007B0100007D010000000000006C
:100020000000000000000000000000007F01000050
:100030008101000000000000830100008501000034
:100040008701000087010000000000005106000049
:10005000010F00001D0F0000870100008701000054
:1000600000000000870100008701000087010000F8
:1000700087010000000000008701000087010000E8
:100080008701000087010000870100008701000050
:1000900087010000AD060000870100008701000015
:1000A00087010000000000008701000087010000B8
:1000B00000000000000000000000000087010000B8
:1000C00000F002F800F044F80AA090E8000C824426
:1000D0008344AAF10107DA4501D100F039F8AFF203
:1000E000090EBAE80F0013F0010F18BFFB1A43F016
:1000F00001031847DC180000FC180000103A24BF68
:1001000078C878C1FAD8520724BF30C830C144BF7C
:1001100004680C60704700000023002400250026BE
:10012000103A28BF78C1FBD8520728BF30C148BF5A
:100130000B607047642901F06F82782901F0A88272
:10014000002070471FB501F027FC1FBD10B510BD82
:1001500001F0E0FB1146FFF7F5FF01F01DF801F09B
:10016000FEFB03B4FFF7F2FF03BC01F007FC000045
:1001700008480047FEE7FEE7FEE7FEE7FEE7FEE78A
:10018000FEE7FEE7FEE7FEE703480449024A044BA8
:1001900070470000C1000000E8100020E8180020AF
:1001A000E8100020FE4AFF4910F4001F03D04B68FE
:1001B00023F000434B6010F4801F03D04B6823F002
:1001C00000534B6010F4004F03D04B6823F0400302
:1001D0004B6010F4807F03D04B6823F020034B600A
:1001E00010F0010F03D04B6823F004034B6010F4B0
:1001F000804F03D04B6823F010034B6010F4007F56
:1002000003D04B6823F003034B600B6862EA0000E5
:10021000184008607047E24AE24910F4001F03D01A
:100220004B6843F000434B6010F4801F03D04B68D1
:1002300043F000534B6010F4004F03D04B6843F081
:1002400040034B6010F4807F03D04B6843F02003E1
:100250004B6010F0010F03D04B6843F004034B6078
:1002600010F4804F03D04B6843F010034B6010F440
:10027000007F03D04B6843F003034B600B6890434F
:1002800018430860704770B4C74DDFF818C34FF4C7
:1002900080140C2815D80C21B1FBF0F200FB1211D0
:1002A00000291CBF70BC7047DCF8041021F4C85151
:1002B00041F08041CCF80410511E2943CCF80810BD
:1002C00059E050287ED016DC32287CD009DC1E286C
:1002D0007AD030281CBF70BC704740210222032313
:1002E00016E03C2871D046281CBF70BC70474621E0
:1002F000032202230CE05A2868D0642867D06E28B5
:1003000066D078281CBF70BC70473C2103220123B3
:10031000266826F4F85646F400662660DCF8046089
:1003200026F4C85626F08046CCF804609B0443EAC5
:100330008232114341F0C051CCF80C10DCF80C10A3
:1003400021F00041CCF80C10DCF80C1041F48001D5
:10035000CCF80C10DCF80C1011F0804FFAD0CCF86F
:100360000850DCF8041021F4C05141F4807141F0D0
:100370008041CCF80410DCF804108C4A6FF35C3137
:1003800002EB40321143CCF804108949894A4843B2
:100390001060DCF8081001F00F01491C4143516066
:1003A000DCF80810C1F30311491CB0FBF1F19160B6
:1003B0007F49B0FBF1F0342148434FF47A71B0FB30
:1003C000F1F006E01AE011E00CE013E01AE01DE0A5
:1003D00020E02168C0B221F4F85141EA00202060F9
:1003E00070BC704728210222032391E732210322A7
:1003F00002238DE73C210322022389E750210322B7
:10040000022385E75A210322022381E732210322B6
:1004100001237DE737210322012379E770B4624D80
:10042000DFF880C14FF480140C2818D80C21B1FBE0
:10043000F0F200FB121100291CBF70BC7047DCF801
:10044000041021F4C85121F08041CCF8041030216F
:10045000B1FBF0F1491E2943CCF8081059E05028AF
:100460007DD016DC32287BD009DC1E2879D03028DC
:100470001CBF70BC704740210222032316E03C28B9
:1004800070D046281CBF70BC70474621032202234F
:100490000CE05A2867D0642866D06E2865D078288A
:1004A0001CBF70BC70473C2103220123266826F440
:1004B000F85646F400662660DCF8046026F4C85658
:1004C00026F08046CCF804609B0443EA8232114354
:1004D00041F0C051CCF80C10DCF80C1041F0004198
:1004E000CCF80C10DCF80C1041F48001CCF80C10A6
:1004F000DCF80C1011F0804FFAD0CCF80850DCF882
:10050000041021F4C05141F4807141F08041CCF8D5
:100510000410DCF80410254A6FF35C3102EB403222
:100520001143CCF8041024490968A1F6BF22B2F5A2
:100530009B7F84BF1E49484307D848434FF47A71D4
:1005400048431E49A1FB001040081A4A1060DCF81D
:10055000081001F00F01491C4143516006E03BE0E7
:1005600032E02DE034E03BE03EE041E0DCF8081012
:10057000C1F30311491CB0FBF1F191600C49B0FBD0
:10058000F1F0342148434FF47A71B0FBF1F0216867
:10059000C0B221F4F85141EA0020206070BC7047DD
:1005A00001813000000006481031200400E0FFFF08
:1005B00040420F00400000202C020800ABAAAAAA6B
:1005C00028210222032371E73221032202236DE74F
:1005D0003C210322022369E750210322022365E71D
:1005E0005A210322022361E73221032201235DE71E
:1005F00037210322012359E745E612490320086009
:100600007047104900200860704710B50F4C0E4825
:100610002061606940F0010060610A2000F097FDF0
:1006200000202061606920F0010060614FF0FF3020
:10063000FFF7B8FD6E20FFF726FE02490320086091
:1006400010BD704700D008407462966C00000648E8
:1006500010B48049CB6B804813F0100F4FF00102AB
:1006600015D08B6913F0100F0EBFDFF8F0C110BC6E
:1006700070470B6884780CF8043083785B1C8370B7
:1006800042708B6913F0100FF3D010BC704713F059
:10069000200F01BF40F6FF70486410BC70478969A5
:1006A00011F0800F18BF027010BC70476C4910B475
:1006B000CB6B694813F0100F4FF0010215D08B6916
:1006C00013F0100F0EBFDFF894C110BC70470B6819
:1006D00084780CF8043083785B1C837042708B69DB
:1006E00013F0100FF3D010BC704713F0200F01BFB0
:1006F00040F6FF70486410BC7047896911F0800FA4
:1007000018BF027010BC70471201B1FBF2F302FB7C
:100710001311C901B1FBF2F1491C490803EB911215
:1007200000EB40034B4800EB8340426201F03F0185
:10073000816270472DE9F0414A4B4B4C00264B4DEE
:100740004FF0E02C002844D09A682F68C2F303626F
:10075000521CB7FBF2F25F6B27F4701747F4A01737
:100760005F634FF40013CCF88032CCF800313A4B81
:100770001E705E7000EB4003364800EB8340036B55
:1007800023F0010303630901B2FBF1F301FB132220
:10079000D201B2FBF1F1491C490803EB911242620C
:1007A00001F03F0181626021C16240F201310163C9
:1007B0001021816340F6FF7141642D4801682DA02E
:1007C00000F01EFF22682968BDE8F0412FA000F06C
:1007D00017BF2268DF6A27F00F0747F00507DF62BF
:1007E0000823CCF88032CCF80031C0E700EB40029F
:1007F000184800EB82400160816911F0080FFBD1BD
:1008000070474FF0000C002A98BF704710B400EBFF
:100810004000104B03EB804411F8013B204623605D
:10082000836913F0080FFBD10CF1010000F0FF0CFD
:100830009445F1D310BC7047064BC2B200211A6038
:1008400001EB410103EB81418A6912F0080FFBD1F2
:1008500070470000000001484C00002058000020B4
:1008600000000D4800000648480000204400002019
:10087000400000204143483531322072756E2061BE
:100880007420256420487A0D0A0000005352434327
:100890006C6F636B3D20256420487A2C2050436C9C
:1008A0006F636B3D20256420487A0A0001F0030144
:1008B00002F00F02FE4B03EB0040836823F060035D
:1008C00043EA4111816082627047FA4808B590217D
:1008D0000170002141708170C17001460422002026
:1008E00000F096FB02226946002000F067FB002022
:1008F00000F058FBBDF8000040BA08BD10B5ED4C43
:100900000520012220702146002000F081FB0122F9
:100910002146002000F052FB002000F043FB20782D
:1009200010BD10B5E34C3520012220702146002077
:1009300000F06EFB01222146002000F03FFB00206A
:1009400000F030FB207810BD38B5DA4C352001229C
:1009500020702146002000F05BFB01222146002090
:1009600000F02CFB002000F01DFB20788DF800002B
:100970000520207001222146002000F049FB0122C1
:100980002146002000F01AFB002000F00BFB20782D
:100990008DF80100002000F005FB9DF801009DF896
:1009A000001040EA012038BDC24910B50620087089
:1009B0000122002000F02CFBBDE81040002000F0D8
:1009C000F1BA70B5BB4C052501222570B94900204C
:1009D00000F01EFB0122B749002000F0EFFA0020D2
:1009E00000F0E0FA207810F0010FEDD170BDB149B0
:1009F00010B501220A704870000A88700322002096
:100A000000F006FB002000F0CDFABDE81040D8E76A
:100A100010B5A84C0620012220702146002000F0CD
:100A2000F7FA002000F0BEFAFFF78EFF01212170D7
:100A300040F400706070000AA0700322214600207C
:100A400000F0E6FA002000F0ADFABDE81040B8E78B
:100A500010B5984C0620012220702146002000F09D
:100A6000D7FA002000F09EFAFFF76EFF01212170F7
:100A700020F400706070000AA0700322214600205C
:100A800000F0C6FA002000F08DFABDE8104098E7AB
:100A900070B5884D044606202870012229460020A2
:100AA00000F0B6FA002000F07DFA20202870200C1B
:100AB0006870200AA870EC7004222946002000F01B
:100AC000A7FA002000F06EFAFFF77BFFBDE8704048
:100AD000002000F067BA2DE9F041764D0646062069
:100AE0000C461746287001222946002000F090FA93
:100AF000002000F057FA02202870200C6870200AAD
:100B0000A870EC7004222946002000F081FA3A46D1
:100B10003146002000F07CFA002000F043FAFFF795
:100B200050FFBDE8F041002000F03CBA2DE9F04153
:100B300006460C461746FFF76BFF5E4D0620012266
:100B400028702946002000F063FA002000F02AFAFD
:100B500032202870200C6870200AA870EC700422E3
:100B60002946002000F054FA0F2202210020FFF74E
:100B70009DFE3A463146002000F04AFA002000F07F
:100B800011FA002101220846FFF790FEFFF719FF36
:100B9000BDE8F0415CE770B5464B04460320187091
:100BA0004FEA114C83F801C04FEA112C83F802C0C0
:100BB0001546D97004221946002000F029FA2A4669
:100BC0002146002000F0FAF9BDE87040002000F056
:100BD000E9B970B5374B04460B2018704FEA114C39
:100BE00083F801C04FEA112C83F802C01546D97072
:100BF00004221946002000F00BFA012221460020B1
:100C000000F0DCF92A462146002000F0D7F9BDE8C3
:100C10007040002000F0C6B970B5264B04463B205A
:100C200018704FEA114C83F801C04FEA112C83F879
:100C300002C01546D97004221946002000F0E8F9D8
:100C4000002201211046FFF731FE0222214600203A
:100C500000F0B4F92A462146002000F0AFF9002048
:100C600000F0A0F9BDE870400122002108461DE611
:100C70002DE9F0470F4C8046A32020700F0C6770C1
:100C80000E0AA67091460D46E1700422214600200E
:100C900000F0BEF9002000F085F9BB202070012291
:100CA0002146002000F0B4F903220121002003E0D6
:100CB0000000064078000020FFF7F8FD27706670FE
:100CC000A5700520E07004222146002000F0A0F964
:100CD000002201211046FFF7E9FD4A464146002067
:100CE00000F06CF9002000F05DF9BDE8F04701224A
:100CF00000210846DAE570B505460C461646FFF7B2
:100D000087FE7E496B20230C08704B70200A887088
:100D1000CC700422002000F07BF900220221104652
:100D2000FFF7C4FD04222946002000F047F93246AF
:100D30002946002000F042F9002000F033F900219C
:100D400001220846FFF7B2FDBDE8704080E62DE9BC
:100D5000F04780460D469146FFF75AFE674CA320A8
:100D60002F0C207067702E0AA670E57004222146B1
:100D7000002000F04DF9002000F014F9EB20207065
:100D800001222146002000F043F90F220221002019
:100D9000FFF78CFD27706670A5700C20E0700422B0
:100DA0002146002000F034F9002202211046FFF70E
:100DB0007DFD02224146002000F000F94A464146EE
:100DC000002000F0FBF8002000F0ECF800210122E8
:100DD0000846FFF76BFDBDE8F04739E62DE9F0471F
:100DE00080460D469146FFF713FE444CA3202F0C7E
:100DF000207067702E0AA670E5700422214600203C
:100E000000F006F9002000F0CDF8E7202070012264
:100E10002146002000F0FCF80F2202210020FFF7FD
:100E200045FD27706670A5700C20E07004222146F5
:100E3000002000F0EDF8002202211046FFF736FDF9
:100E400001224146002000F0B9F84A464146002000
:100E500000F0B4F8002000F0A5F8002101220846B7
:100E6000FFF724FDBDE8F047F2E570B5234B0446DB
:100E700003201870080C5870080A98701546D9702D
:100E800004221946002000F0C3F82A46214600201B
:100E900000F094F8BDE87040002000F083B8BBE695
:100EA00029E72DE9F041154D064606200C46174668
:100EB000287001222946002000F0AAF8002000F046
:100EC00071F802202870200C6870200AA870EC705D
:100ED00004222946002000F09BF83A4631460020C3
:100EE00000F096F8002000F05DF8FFF76AFDBDE81D
:100EF000F041002000F056B818E60000780000200D
:100F00007C48816911F0020F08BF704701217A4ABD
:100F10001170816941F002018161704777488169F0
:100F200011F0020F08BF70470121734A51708169A7
:100F300041F002018161704710B4714A4FF0E02323
:100F4000012400B34FF0200CC3F880C2C3F800C1E5
:100F5000D36A23F0704343F0A043D362136B23F0B2
:100F6000FF0343F0550313638A00624901EB00401D
:100F7000826040F2044141608462816841F0010175
:100F8000816010BC70474FF0100CC3F880C2C3F8EA
:100F900000C1D36A45F2505C6FF30F1343EA0C03B0
:100FA000D362E1E7534A002102EB004041627047FF
:100FB000504A012102EB0040416270474D4B03EB68
:100FC0000040836943F0020383610262036943F0D6
:100FD00001030361012343620023002A0BD9D0F8E7
:100FE00018C01CF0100FFAD190F800C05B1C01F87B
:100FF00001CB9342F3D3816911F0020FFBD08169D9
:1010000041F002018161016921F001010161704734
:10101000384B03EB0040836943F0020383610262B3
:10102000C36843F00103C360012343620023002A25
:101030000BD9D0F818C01CF0080FFAD111F801CB69
:1010400080F800C05B1C9342F3D3816911F0020F5A
:10105000FBD0816941F002018161C16821F0010189
:10106000C160704710B4234C4FF0000C04EB0040FB
:10107000846944F0020484610362C46844F001049A
:10108000C460046944F00104046101244462846979
:1010900014F0020F15D19C4508D2846914F0080F92
:1010A00004D111F8014B04700CF1010C846914F0A7
:1010B000100F02D1047802F8014B846914F0020F7A
:1010C000E9D0816911F0100F06D1017802F8011BF7
:1010D000816911F0100FF8D0816941F0020181613E
:1010E000C16821F00101C160016921F001010161C4
:1010F00010BC70470000064054000020000007406C
:101100000000064870B506460D1E4FF0000406D9D3
:10111000315D1CA000F074FA641CA542F8D8BDE84B
:1011200070401AA000F06CBA70B506460D1E4FF064
:10113000000407D956F8241015A000F061FA641CC9
:10114000A542F7D8BDE8704010A000F059BA401E83
:10115000FDD270470178C2780270C1704178827800
:101160004270817070470144491E814298BF7047A8
:1011700002780B7800F8013B01F801298142F7D889
:1011800070470000252E3278200000000A00000081
:10119000252E387820000000FFF737FA4FF4E131B0
:1011A0000020FFF7C7FA00F055F9FEE72DE9F843F4
:1011B000B5A000F025FA03210020FFF7BDFEFFF7E0
:1011C00084FB04460146BAA000F01AFAA4F5484090
:1011D000143804D0BDE8F843B9A000F011BA0027D4
:1011E000BC4E3846394630543218401C82F8001242
:1011F000B0F5807FF7D34FEA07384046FFF748FC49
:10120000B5A000F0FDF9002548EA05242146B5A067
:1012100000F0F6F94FF480722146AE48FFF741FE28
:101220004FF48072214606F50070FFF71EFE002481
:101230003119305D91F80012884210D02A463946A3
:10124000ABA000F0DDF93019234690F800020090C1
:10125000325D1946AEA000F0D3F9BDE8F883641CF6
:10126000B4F5807FE4D32A463946B4A000F0C8F92B
:101270006D1C102DC8D3BDE8F843B8A000F0C0B96C
:101280002DE9F843C0A000F0BBF903210020FFF7CF
:1012900053FEFFF71AFB0446014685A000F0B0F9A3
:1012A000A4F54840143804D0BDE8F84384A000F009
:1012B000A7B90027874E3846394630543218401CAB
:1012C00082F80012B0F5807FF7D34FEA0738404626
:1012D000FFF7DEFB80A000F093F9002548EA052423
:1012E000214680A000F08CF94FF4807221467948A5
:1012F000FFF7D7FD4FF48072214606F50070FFF727
:10130000CEFD00243119305D91F80012884210D0D2
:101310002A46394676A000F073F93019234690F832
:1013200000020090325D194679A000F069F9BDE82D
:10133000F883641CB4F5807FE4D32A4639467FA045
:1013400000F05EF96D1C102DC8D3BDE8F84398A0DD
:1013500000F056B92DE9F8439FA000F051F90321A0
:101360000020FFF7E9FDFFF7B0FA0446014650A060
:1013700000F046F9A4F54840143804D0BDE8F8431D
:101380004FA000F03DB90027524E38463946305440
:101390003218401C82F80012B0F5807FF7D34FEA74
:1013A00007384046FFF774FB4BA000F029F90025F1
:1013B00048EA052421464BA000F022F94FF4807240
:1013C00021464448FFF798FD4FF48072214606F508
:1013D0000070FFF765FD00243119305D91F80012AF
:1013E000884210D02A46394641A000F009F9301948
:1013F000234690F800020090325D194644A000F0A8
:10140000FFF8BDE8F883641CB4F5807FE4D32A4676
:1014100039464AA000F0F4F86D1C102DC8D3BDE881
:10142000F84363A000F0ECB810B503210020FFF7EB
:1014300083FDFFF74AFA044601461DA000F0E0F8DC
:10144000A4F54840143808BF10BD1DA0BDE81040E9
:1014500000F0D6B810B503210020FFF76DFDFFF7AF
:1014600034FA0446014612A000F0CAF8A4F5484038
:1014700014381CBF12A000F0C3F8FFF797FEFFF767
:10148000FFFEBDE8104065E72D2D2D2D2D2D2D2DB6
:101490002D5350494D205831207465737420737456
:1014A000617274212D2D2D2D2D2D2D0A000000008F
:1014B000466C6173204944203D20307825780A002D
:1014C00072656164204944206973206661696C21FA
:1014D0000A000000880000206572617365206F6B50
:1014E0000A00000061646472203D2025780A000033
:1014F000736563746F723D2025642C5061676520AD
:101500003D2025642054657374204661696C0A008F
:101510007772697465627566665B25645D3D20302F
:101520007825782C72656164627566665B25645DFA
:101530003D2030782578200A000000007365637430
:101540006F723D2025642C50616765203D20256425
:10155000205465737420706173730A002D2D2D2D36
:101560002D2D2D2D2D5350494D205831207465734C
:10157000742066696E6973686564212D2D2D2D2D8B
:101580002D2D0A0A000000002D2D2D2D2D2D2D2D85
:101590002D5350494D205832207465737420737454
:1015A000617274212D2D2D2D2D2D2D0A000000008E
:1015B0002D2D2D2D2D2D2D2D2D5350494D20746564
:1015C00073742066696E6973686564212D2D2D2DF5
:1015D0002D2D2D0A0A0000002D2D2D2D2D2D2D2D08
:1015E0002D5350494D205834207465737420737402
:1015F000617274212D2D2D2D2D2D2D0A000000003E
:101600000FB4044910B503AA029800F055F910BCB4
:101610005DF814FB500000202DE9F041074600253D
:1016200010687529394616A411D0AFF30080002840
:1016300003DAC0F1000013A407E039688A0701D576
:1016400011A402E0490704D510A4012501E0AFF37D
:10165000008000210A2307F1240607E0B0FBF3F223
:1016600003FB1200303070541046491C0028F5D19D
:101670002B4622463846BDE8F04100F0C1B80000D4
:10168000000000002D0000002B00000020000000E2
:1016900070B504460D4621461068AFF300802168FE
:1016A000090502D5104A7A4402E00F4A7A440E3204
:1016B000002104F1240307E000F00F064FEA1010A8
:1016C000965D5E5401F101010028F5D103462068C2
:1016D000000704D5702D02D009B111320223204633
:1016E000BDE8704000F08CB8FC0200002DE9F04726
:1016F0004FF0000A04468946C0F820A02046E16861
:101700008847002876D0252806D0D4E901219047C3
:10171000206A401C2062F1E7E168204600258847E6
:10172000C4F81CA006460027C4F818A02A2E09D029
:10173000304600F02AF938B304EB8708303EC8F889
:10174000186019E059F8041B204604EB87029161E8
:10175000E1688847012F064618D1E069002820DAA1
:1017600025F020051DE0D8F8180000EB800006EBFE
:1017700040003038C8F818002046E168884706461F
:1017800000F003F90028EED1012F0AD02E2E08D147
:101790002046E16888477F1C0646022F45F0200559
:1017A000C4DBA069002803DA404245F00105A061CE
:1017B000E80701D025F01005B6B1A6F141001928BF
:1017C00002D8203645F400654A4631462046256059
:1017D0004D46FEF7AFFC58B1012806D0ED1D25F0AF
:1017E000070000F1080989E704E005F1040985E72D
:1017F00030468AE7206ABDE8F08770477047704737
:101800002DE9F0470D4604469246994600F124081A
:101810000168880604D5E06921F01001216000E02C
:101820000120A84202DDA0EB050700E00027A16926
:1018300007EB050202EB0900A1EB0000A0612068A4
:10184000C00602D42046AFF30080002608E0D4E9A9
:1018500001211AF806009047206A401C761C20627D
:101860004E45F4DB2068C0060AD52046AFF3008061
:1018700006E0D4E9012130209047206A401C206214
:10188000381EA7F10107F4DC07E0D4E9012118F8BC
:1018900005009047206A401C2062281EA5F1010522
:1018A000F3DC2046AFF300802068000602D502205A
:1018B000BDE8F0870120FBE7074B70B50C467B4481
:1018C00000F011F80546204600F020F810B14FF066
:1018D000FF3070BD284670BD77EFFFFF01694A1CDD
:1018E00002610878704700B58FB0CDE90131002161
:1018F000059105497944CDE9031011466846FFF783
:10190000F5FE0FB000BD0000E5FFFFFFC06800F06E
:1019100080007047754600F029F8AE46050069461C
:10192000534620F00700854618B020B5FEF72CFC82
:10193000BDE820404FF000064FF000074FF00008D0
:101940004FF0000B21F00701AC46ACE8C009ACE851
:10195000C009ACE8C009ACE8C0098D467047044630
:10196000AFF300802046FEF7FCFB00000048704704
:1019700088100020004870478C1000200149182072
:10198000ABBEFEE726000200704730380A2801D2BD
:10199000012070470020704710B5FFF7EBFF4FF0B4
:1019A0000001016010BD30313233343536373839FB
:1019B000414243444546403058003031323334359B
:1019C00036373839616263646566403078000000FC
:1019D000F01900004000002018000000FC0000008A
:1019E000081A00005800002090180000180100009C
:1019F00000000000000000000000000000000000E7
:081A00000000000000000000DE
:04000005000000C136
:00000001FF
