:020000040000FA
:10000000C08601209D020000A1020000A3020000A2
:10001000A5020000A7020000A902000000000000E5
:10002000000000000000000000000000AB02000023
:10003000AD02000000000000AF0200000309000054
:10004000B3020000B3020000000000007B090000C2
:10005000C1230000DF230000B3020000B302000050
:1000600000000000B3020000B3020000B302000071
:10007000B302000000000000B3020000B302000061
:10008000B3020000B3020000B3020000B30200009C
:10009000B3020000E7090000B3020000B302000051
:1000A000B302000000000000B3020000B302000031
:1000B000000000000000000000000000B30200008B
:1000C00000F002F800F0BCF80AA090E8000C8244AE
:1000D0008344AAF10107DA4501D100F0B1F8AFF28B
:1000E000090EBAE80F0013F0010F18BFFB1A43F016
:1000F00001031847E8C6020008C7020010F8013BD8
:100100000A4413F0030408BF10F8014B1D1108BF87
:1001100010F8015B641E05D010F8016B641E01F835
:10012000016BF9D1002D15D010F8014B03F00C0331
:100130000C2BA1EB04040ABF10F8013BA4EB8314C1
:10014000A4EB032405F1010314F8016B5B1E01F815
:10015000016BF9D5914238BF10F8013BD1D37047FC
:100160000023002400250026103A28BF78C1FBD8C0
:10017000520728BF30C148BF0B6070476E2924F07A
:100180007584702924F0CA84662928F09581652930
:1001900028F09281672928F08F816129AFF30080D0
:1001A00003681B0A28BF41F08001692924F02284DA
:1001B000642924F01F84752924F01C846F2925F0FC
:1001C000BB84782924F09684E92925F05384E42916
:1001D00025F05084F52925F04D84EF2925F0B884C9
:1001E000F82924F095840368DB0928BF41F08001D9
:1001F000632925F0C283732925F0C783E32925F0FD
:10020000F385F32925F0F885002070471FB528F005
:1002100010F99DE8030025F0C1F824F02CFE25F02C
:1002200029FD04000020002127F084FA401C6060B2
:100230000020002127F094FAE0601FBD10B510BD2A
:1002400026F038F81146FFF7E1FF01F083FB26F0B6
:1002500056F803B4FFF7F2FF03BC26F083F8000062
:1002600080F30888704700000B49D1F800C04A6845
:100270005CF8043B1068184442F8040B8C4528BF16
:10028000A1F1DC0C8A4228BFA1F1DC02C1F800C058
:100290004A6020F000407047546E00200848004734
:1002A000FEE7FEE7FEE7FEE7FEE7FEE7FEE7FEE726
:1002B000FEE7FEE703480449044A054B7047000087
:1002C000C1000000C06E0020C0860120C0100120C7
:1002D000C0100120F84910F4001F05D0F74A5268F9
:1002E00022F00042F54B5A6010F4801F05D0F34A0B
:1002F000526822F00052F14B5A6010F4004F05D0C2
:10030000EE4A526822F04002EC4B5A6010F4807FB3
:1003100005D0EA4A526822F02002E84B5A6010F0F9
:10032000010F05D0E54A526822F00402E34B5A60FF
:1003300010F4804F05D0E14A526822F01002DF4BE2
:100340005A6010F4007F05D0DC4A526822F00302A4
:10035000DA4B5A60D94A1268C3430B431A40D74B51
:100360001A607047D44910F4001F05D0D34A526870
:1003700042F00042D14B5A6010F4801F05D0CF4AA2
:10038000526842F00052CD4B5A6010F4004F05D035
:10039000CA4A526842F04002C84B5A6010F4807F4B
:1003A00005D0C64A526842F02002C44B5A6010F091
:1003B000010F05D0C14A526842F00402BF4B5A6097
:1003C00010F4804F05D0BD4A526842F01002BB4B7A
:1003D0005A6010F4007F05D0B84A526842F0030218
:1003E000B64B5A60B54A126820EA01031A43B34B70
:1003F0001A607047F0B500240025002600220C2862
:100400001FD80C27B7FBF0FC00FB1C7707B1F0BD31
:10041000AA4F7F68DFF8A8C207EA0C0747F08047B9
:10042000DFF898C2CCF804700C27B7FBF0F14F1E30
:1004300047F4887747F4405747F40017CCF8087022
:1004400084E050282AD00CDC32281BD004DC1E2883
:1004500010D0302836D111E03C2817D0462831D1B1
:1004600018E05A281ED0642820D06E2822D0782880
:1004700028D123E028240225032624E04024022555
:10048000032620E03224032502261CE03C24032519
:10049000022618E046240325022614E050240325F2
:1004A000022610E05A24032502260CE032240325FC
:1004B000012608E037240325012604E03C24032517
:1004C000012600E0A3E700BF4FF480173F6827F440
:1004D000F85747F400674FF4801CCCF80070774F52
:1004E0007F68DFF8DCC107EA0C07DFF8D0C1CCF881
:1004F0000470B70447EA8537274347F0C057CCF864
:100500000C706746FF6827F00047CCF80C70674610
:10051000FF6847F48007CCF80C7000BF674FFF6896
:1005200017F0804FFAD0674FDFF890C1CCF8087011
:1005300067467F68DFF888C107EA0C07DFF888C1E3
:1005400047EA0C07DFF874C1CCF804705B4F7F6892
:10055000DFF878C107EA0C07A0F1010C47EA4C3735
:10056000DFF858C1CCF80470594F4743DFF864C135
:10057000CCF80070514FBF6807F00F07791C674631
:100580003F684F43DFF850C1CCF800704B4FBF6855
:10059000C7F30317791C4F4F3F68B7FBF1F7DFF83C
:1005A0003CC1CCF800704B4F3F68DFF824C1B7FB6B
:1005B000FCF334275F434FF47A7CB7FBFCF7FAB2C5
:1005C0004FF480173F6827F4F85747EA02274FF4A3
:1005D000801CCCF8007000BF19E72DE9F041002520
:1005E0000026002700230C2825D84FF00C0CBCFB5C
:1005F000F0F800FB18CCBCF1000F01D0BDE8F08191
:10060000DFF8B8C0DCF804C0DFF8B4800CEA080CEE
:10061000DFF8A880C8F804C04FF0300CBCFBF0F243
:10062000A2F1010C4CF4887C4CF4405C4CF4001CAE
:10063000C8F808C0A3E050282AD00CDC32281BD010
:1006400004DC1E2810D030284AD111E03C2817D0F5
:10065000462845D118E05A281ED0642820D06E289C
:1006600022D078283CD123E028250226032738E031
:1006700040250226032734E032250326022730E0F6
:100680003C25032602272CE046250326022728E0E6
:1006900050250326022724E05A250326022720E0BE
:1006A0003225032601271CE037250326012718E001
:1006B0003C250326012714E0018130000000064894
:1006C000FFE6FFBF1031200000010040FF1F00E0E7
:1006D00040420F004000002044000020480000205D
:1006E0008CE700BF4FF4801CDCF800C02CF4F85CF1
:1006F0004CF4006C4FF48018C8F800C0DFF810C24A
:10070000DCF804C0DFF80C820CEA080CDFF8008289
:10071000C8F804C04FEA874C4CEA863C4CEA050C0A
:100720004CF0C05CC8F80CC0C446DCF80CC04CF0FF
:10073000004CC8F80CC0C446DCF80CC04CF4800C6B
:10074000C8F80CC000BFDFF8C8C1DCF80CC01CF052
:10075000804FF8D0DFF8C0C1DFF8B481C8F808C016
:10076000C446DCF804C0DFF8AC810CEA080CDFF802
:10077000AC814CEA080CDFF89881C8F804C0DFF8B7
:1007800090C1DCF804C0DFF898810CEA080CA0F1F5
:1007900001084CEA483CDFF87881C8F804C04FF4FF
:1007A000002CDCF82C1240F6F63C61450ED240F6E7
:1007B000BE2C61450AD94FF47A7C01FB0CFC0CFB82
:1007C00000FC4FF00308BCFBF8F103E0DFF854C174
:1007D00000FB0CF1DFF850C1CCF80010DFF830C19D
:1007E000DCF808C00CF00F0C0CF10102DFF838C186
:1007F000DCF800C00CFB02FCDFF83081C8F800C058
:10080000DFF80CC1DCF808C0CCF3031C0CF10102CA
:10081000DFF814C1DCF800C0BCFBF2FCDFF810818B
:10082000C8F800C0DFF800C1DCF800C0DFF8F480D1
:10083000BCFBF8F44FF0340C04FB0CFC4FF47A785A
:10084000BCFBF8FC0CF0FF034FF4801CDCF800C08C
:100850002CF4F85C4CEA032C4FF48018C8F800C064
:1008600000BFCBE610B504462046FFF7C3FD10BD20
:10087000032030490860704700202E490860704707
:1008800070B52D48224908610846406940F00100D2
:1008900048610A2000F057FD00201D490861084604
:1008A000406920F0010048614FF0FF30FFF712FD72
:1008B0006E20FFF7D7FF2149481EB0F1807F00D39B
:1008C0001BE0481E4FF0E02250615017072200281D
:1008D00007DA53071D0E1A4B00F00F04241F1D5595
:1008E00003E053071C0E174B1C5400BF00204FF0B1
:1008F000E02290610720106100BFFFF7B9FF70BDD3
:10090000704711480068401C0F490860704700009C
:1009100000000648FFE6FFBF103120000001004044
:10092000FF1F00E040420F00400000204400002074
:100930004800002000D008407462966CB0AD010001
:1009400018ED00E000E400E04C00002010B50024A9
:1009500000BF0EE0BE48007838B1142000F0AAFCB9
:100960000020BC490870BA4908701E2000F0A2FCA3
:10097000641CB4F57A7FEDD310BD70B5B648C56B75
:1009800015F0100F1DD015E0B3480068C4B2B1488F
:100990000078202808DAB148AE4909784454AD48B7
:1009A0000078401CAB490870204622F00AFE012066
:1009B000A7490870A848806900F010001028E3D10A
:1009C00010E015F0200F09D0A348806900F08000E6
:1009D000802807D10120A249087003E040F6FF708B
:1009E0009D49486470BD70B59E48C56B15F0100FE9
:1009F0000ED006E09B480068C4B221469A4801F038
:100A0000D3FC9848806900F010001028F2D110E063
:100A100015F0200F09D09348806900F080008028ED
:100A200007D101208E49087003E040F6FF708D4920
:100A3000486470BD2DE9F04103461001B1FBF0F5AB
:100A4000B1FBF0F700FB1716F701B7FBF0F7781CC6
:100A5000440805EB941703EB430CDFF8FC8108EB2B
:100A60008C4CCCF8247004F03F0703EB430C08EBEC
:100A70008C4CCCF82870BDE8F08170B504460E4669
:100A80007CB97A4805687A48C06A20F00F00401D9A
:100A90007749C862032000F0D1F8032000F0C2F8C3
:100AA00016E073488068C0F30360401C7149096810
:100AB000B1FBF0F56E48406B20F4701040F4A010CC
:100AC0006B494863152000F0B9F8152000F0AAF82A
:100AD0000020634908705E49087004EB44005E49D9
:100AE00001EB8040006B20F0010004EB44015A4A06
:100AF00002EB81410863324629462046FFF79AFF00
:100B0000602004EB4401544A02EB8141C86240F288
:100B1000013004EB440102EB81410863102004EB37
:100B2000440102EB8141886340F6FF7004EB44010D
:100B300002EB814148644FF47A7000F09DFB70BD78
:100B400000EB4002444B03EB8242116000BF00EB1C
:100B50004002414B03EB8242926912F0080FF6D13A
:100B60007047F0B507460C461546002605E014F818
:100B7000011B3846FFF7E4FF761CAE42F7D3F0BD09
:100B800010B5044609E0207830B10122214600204A
:100B9000FFF7E7FF641C00E010BDF4E730B5044642
:100BA0000D46E1B20120FFF7CBFF204630BD70B506
:100BB00005460E46002404E0295D2FA023F08AFE9E
:100BC000641CB442F8D32EA023F084FE70BD0FB491
:100BD00030B5ADF5017D054686A8009001A8009AC4
:100BE000859923F065FE044600200090002C04DA6D
:100BF0000DF5017D30BC5DF814FBB4F5007F01D923
:100C00004FF40074224601A92846FFF7AAFF00BF4F
:100C1000EEE71149086000BF0F49896911F0080F1C
:100C2000FAD1704700F01F020121914042094FF0B4
:100C3000E02303EB8202C2F80011704700F01F02AC
:100C4000012191400F4A430942F8231070470000E8
:100C500051000020520000200000014848110020EF
:100C60005000002000000D487413002048000020B0
:100C700000000648440000202530325820000000C3
:100C80000A00000080E200E070B505460C466FF3F4
:100C900008050AE028464C498847B4F5007F00D291
:100CA00070BD05F50075A4F50074002CF2D100BFED
:100CB000F6E72DE9F04107460E4615466FF30807A3
:100CC000B6F5007F02D94FF4007602E0042E00D280
:100CD000042600241CE0002000EB8400285C012195
:100CE00001EB8401695C00EB0120022101EB84012E
:100CF000695C00EB0140032101EB8401695C00EBBE
:100D0000016807EB840041462F4A323A9047641C41
:100D1000B4EB960FDFD3BDE8F08110B503466FF357
:100D20000803B1F5007F02D94FF4007102E00429F5
:100D300000D20421002004E053F820401460121D6A
:100D4000401CB0EB910FF7D310BD2DE9F0470646DC
:100D50000F46154639463046FFF796FF6FF30806F3
:100D6000B7F5007F02D94FF4007702E0042F00D2DC
:100D70000427002423E0002000EB8400285C0121EC
:100D800001EB8401695C00EB0120022101EB84018D
:100D9000695C00EB0140032101EB8401695C00EB1D
:100DA000016806EB84004146074A323A904756F8FC
:100DB0002490C84502D00120BDE8F087641CB4EB44
:100DC000970FD8D30020F7E76B1C001270B50546CB
:100DD0000E46002422E0FA48C06840F00400F849BA
:100DE000C86015F0800F06D0F648806840F00040DB
:100DF000F449886005E0F348C06840F00040F149DC
:100E0000C8606806050E012000F054FAEC488068BE
:100E100040F00400EA498860601CC4B2082CDADBA8
:100E2000002422E0E648C06840F00400E449C860BD
:100E300016F0800F06D0E348806840F00040E1499A
:100E4000886005E0DF48C06840F00040DD49C860C8
:100E50007006060E012000F02DFAD948806840F097
:100E60000400D7498860601CC4B2082CDADBD4487F
:100E7000C06840F00200D249C860012000F01AFAB0
:100E8000CF48806840F00200CD49886070BD70B5E1
:100E9000CD48008800F00304CB480088C0F38705E4
:100EA00029462046FFF792FF70BD10B5F9B1022226
:100EB00002EB40020A2392FBF3F403FB142301220A
:100EC0009A40C14B1B881A43BF4B1A80022202EB87
:100ED00040020A2392FBF3F403FB1422521C012369
:100EE0009340B94A12889A43B74B1A801FE00222F6
:100EF00002EB40020A2392FBF3F403FB14230122CA
:100F00009A40B14B1B889343AF4A1380022202EBF5
:100F100040020A2392FBF3F403FB1422521C012328
:100F200003FA02F2A84B1B881A43A74B1A8010BD84
:100F300010B54FF48000FFF7CDF9A448406B20F0C6
:100F4000F000A24948639E48006840F006009C49B2
:100F500008609E48006B20F040409C490863994817
:100F6000006840F000409749086001210020FFF729
:100F70009CFF01210846FFF798FF01210220FFF79F
:100F800094FF01210320FFF790FF01210420FFF7C8
:100F90008CFFFFF77CFF4FF4C87000F06DF9002163
:100FA0000846FFF782FF00210120FFF77EFF0021A6
:100FB0000220FFF77AFF00210320FFF776FF0021D0
:100FC0000420FFF772FFFFF762FF4FF4C87000F0D4
:100FD00053F900210846FFF7F9FE10BD2DE9F04155
:100FE00005460E4600242EE035F8240040B905EBF6
:100FF00084014988C82201FB02F000F05BF920E07F
:10100000002715E06F48806840F000506D49886007
:1010100035F8240000F04EF96A48C06840F00050EE
:101020006849C86035F8240000F044F9781C87B29C
:1010300005EB84004088B842E4DC142000F01CF981
:1010400000BF601C84B2B442CEDBBDE8F08170B555
:1010500004460025002600BF1FE0002614E0594882
:10106000806840F0005057498860142000F022F951
:101070005448C06840F000505249C8604FF4A57011
:1010800000F018F9701CC6B2FF2EE8DB012C02DD5F
:10109000642000F0F1F8681CC5B2A542DDDB70BD2C
:1010A00070B504460025002600BF1EE0002613E0B0
:1010B0004448806840F0005042498860642000F055
:1010C000F9F84048C06840F000503E49C860FA2036
:1010D00000F0F0F8701CC6B2FF2EE9DB012C02DD37
:1010E000642000F0C9F8681CC5B2A542DEDB70BD03
:1010F00070B504460025002600BF1EE0002613E060
:101100003048806840F000502E498860AF2000F0E1
:10111000D1F82C48C06840F000502A49C860AF2080
:1011200000F0C8F8701CC6B2FF2EE9DB012C02DD0E
:10113000642000F0A1F8681CC5B2A542DEDB70BDDA
:1011400000B5ADF5017D01AA4FF400712048FFF70D
:10115000E4FD9DF8A500012804D19DF8A4001D49D7
:10116000087002E003201B4908701A480078012823
:1011700004D0022806D003280CD107E00120FFF795
:1011800066FF07E00120FFF78BFF03E00120FFF778
:10119000AFFF00BF00BF0DF5017D00BD00B5ADF58F
:1011A000017D01AA4FF400710948FFF7B6FD9DF8D3
:1011B000A500012810D19DF8A400064908700EE092
:1011C00000000B4800000A485C00002000000648B0
:1011D00000FE02005E00002003201A490870194832
:1011E0000078012804D0022806D003280CD107E09B
:1011F0000220FFF72CFF07E00220FFF751FF03E07A
:101200000220FFF775FF00BF00BF0DF5017D00BD97
:1012100010B50D48006B20F040600B49086308468C
:10122000006C20F0005008640848006840F000504E
:10123000064908600846C06840F00050C860FFF7E3
:101240007FFF10BD5E0000200000064800000A4835
:101250004048006820F000603E4908603E488068D1
:1012600020F001003C4988601E2088600846006D1F
:1012700020F007000865704710B5384B1A68364BE8
:101280009B6823F00103344CA3604FF47A73B2FBE4
:10129000F3F141434B1E236023469B6843F0010357
:1012A000A36000BF2C4BDB68002BFBD0FF232A4C34
:1012B000236110BD10B5294B1A68274B9B6823F09A
:1012C0000103254CA360264BB2FBF3F141434B1EB7
:1012D000236023469B6843F00103A36000BF1E4BBD
:1012E000DB68002BFBD0FF231B4C236110BD1A4889
:1012F000806820F0010018498860322008600846A4
:10130000806840F00100886000BF1348C068002872
:10131000FBD0FF201049086170470F48806820F01B
:1013200001000D498860AF2008600846806840F0E1
:101330000100886000BF0848C0680028FBD0FF207B
:1013400005490861704700BF0100A0F10100FBD111
:1013500070470000000006480000034848000020D5
:1013600040420F00FE48406B20F07070FC4948631B
:10137000FC48006840F4C050FA490860F848406BE7
:1013800020F00300F6494863F648006840F0010089
:10139000F44908600846C06840F40060C860084628
:1013A000806840F4805088600846C06840F00100C2
:1013B000C860704770B504460E46EA48C06840F001
:1013C0000100E849C8600A20FFF7BDFFE5488068D2
:1013D00040F00100E349886004F0FE04084600681C
:1013E00040F4805008600A20FFF7ADFF002524E09C
:1013F00014F0010F06D0DB48806840F48050D949D2
:10140000886005E0D748C06840F48050D549C8607E
:10141000D448806840F40060D24988600A20FFF711
:1014200092FFD048C06840F40060CE49C8600A20EE
:10143000FFF789FF6410681CC5B2082DD8DB0025B2
:1014400024E016F0010F06D0C648806840F48050B2
:10145000C449886005E0C348C06840F48050C14971
:10146000C860C048806840F40060BE4988600A20B7
:10147000FFF769FFBB48C06840F40060B949C86025
:101480000A20FFF760FF7610681CC5B2082DD8DB74
:10149000B448C06840F00100B249C86070BD70B582
:1014A00004460025AF48C06840F00100AD49C8605F
:1014B0000A20FFF748FFAB48806840F00100A949C7
:1014C000886044F001040846006840F480500860D9
:1014D0000A20FFF738FF002624E014F0010F06D0A1
:1014E000A048806840F480509E49886005E09D488F
:1014F000C06840F480509B49C8609A48806840F4B6
:101500000060984988600A20FFF71DFF9548C06871
:1015100040F400609349C8600A20FFF714FF64108C
:10152000701CC6B2082ED8DB8E48006820F48050AC
:101530008C4908600A20FFF706FF00261EE06D10A8
:101540008848406910F4805F02D045F0800501E0D2
:1015500005F07F058348806840F400608149886019
:101560000A20FFF7F0FE7F48C06840F400607D4924
:10157000C8600A20FFF7E7FE701CC6B2082EDEDB4B
:101580007848C06840F001007649C860284670BDC0
:1015900010B5044600218E20FFF70CFF802108467D
:1015A000FFF708FF61788C20FFF704FFA1788820FF
:1015B000FFF700FFE1788620FFF7FCFE2179842009
:1015C000FFF7F8FE61798220FFF7F4FEA179802011
:1015D000FFF7F0FEE1798A20FFF7ECFE80218E20F4
:1015E000FFF7E8FE10BD10B504468C20FFF757FF4B
:1015F00060708820FFF753FFA0708620FFF74FFF31
:10160000E0708420FFF74BFF20718220FFF747FF37
:1016100060718020FFF743FF00F07F00A0718A20F7
:10162000FFF73DFFE07110BD1CB504466846FFF7AB
:10163000DAFF9DF80100001100EB80004FF4FA6121
:1016400001EB40009DF8011001F00F010844A0805B
:101650009DF8020000F00F009DF80210091101EB47
:10166000810100EB4100A0719DF8030000F00F0024
:101670009DF80310091101EB810100EB4100E071BD
:101680009DF8040000F00F009DF80410091101EB13
:10169000810100EB410020709DF8050000F00F0073
:1016A0009DF80510091101EB810100EB410060700C
:1016B0009DF8060000F00F009DF80610091101EBDF
:1016C000810100EB4100A0709DF8070000F00700C9
:1016D00020721CBD0146002203E0521CA1F10A0049
:1016E000C1B20A29F9D2100741EA106070470146D9
:1016F00000BF080900EB8000420001F00F00104419
:10170000C0B270470146CA1701EB92729210B1EB5A
:10171000820212D1642091FBF0F200FB121050B94A
:101720004FF4C87091FBF0F200FB121008B90120D1
:1017300070470020FCE70120FAE70020F8E7F0B549
:1017400003460C461546642093FBF0F0C6B26420B5
:1017500093FBF0F700FB1730C1B2132E07DD03E057
:101760000000064800000B4801F16400C1B20846C1
:10177000CF1701EB977701EBA702072092FBF0F759
:1017800000FB172082B25719601EDFF8B0C11CF8A9
:101790000000384482B2CF1701EB9777BF10B1EB4E
:1017A000870703D1032C01DA501E82B2072092FB77
:1017B000F0F700FB1720C0B2F0BD2DE9F041044660
:1017C0000D464FF0000637465D4A4FF000032046B5
:1017D000294622F0C3FF06465A480088B0423CD052
:1017E00058490E8040F2B27710E03846FFF78AFF82
:1017F00040B1B6F5B77F02D3A6F5B77604E0781C02
:1018000087B206E0A6F26D16781C87B2B6F5B67FF1
:10181000EBD800BF4C488780002716E04A498888EB
:10182000FFF770FF30B1012F04D11D2E01D31D3EF3
:1018300009E00CE04548C05DB04203D84348C05DB4
:10184000361A00E003E0781C87B21C2EE6D200BFF7
:10185000781C3D498871701CC871394A00232046A4
:10186000294622F07BFF16464FF46160B6FBF0F08C
:10187000354908704FF46160B6FBF0F100FB116070
:101880003C21B0FBF1F0304948704FF46160B6FB89
:10189000F0F100FB11603C21B0FBF1F201FB120002
:1018A000294988700B46DA7999799888FFF747FFBC
:1018B0002549087208468088642190FBF1F0C3B284
:1018C0001846FFF707FF224908701F4880886421E7
:1018D00090FBF1F201FB1200C3B21846FFF7FAFECB
:1018E0001B49487018498879FFF7F4FE1849887039
:1018F0001549C879FFF7EEFE1549C87012490978F5
:101900000831C8B2FFF7E6FE114908710E49487860
:10191000FFF7E0FE0E4948710B498878FFF7DAFEC1
:101920000B4988710849087AFFF7D4FE0849C87145
:101930000846FFF72DFE0020BDE8F081AC850200CF
:10194000805101006800002068110020B885020065
:1019500060000020002080F3108800BFFEF790FF99
:10196000FFF776FC4FF461210120FFF786F821F0A4
:10197000C6FA4FF4E1310020FFF77FF800F00EFFC8
:1019800003F01CFAFFF7EEFC00F08DF800F006F80B
:1019900000F09AF801E022F0BDFDFCE700B5ADF5DE
:1019A000017D01AA4FF40071FB48FFF7B6F99DF8DD
:1019B000880001281DD19DF88400F84908609DF831
:1019C0008500096841EA0020F44908609DF8860016
:1019D000096841EA0040F14908609DF887000968FC
:1019E00041EA0060ED49086008460068EC4908607B
:1019F00002E0EC48EA4908600DF5017D00BD00B544
:101A0000ADF5017D01AA4FF40071E348FFF785F9B8
:101A10009DF8350058B100208DF83500FA208DF87A
:101A2000340001AA4FF40071DB48FFF78EF99DF8EE
:101A30003400DD4908700846007821F0D1FE1420FA
:101A4000FFF71AFC0DF5017D00BD00B5ADF5017D78
:101A500001AA4FF40071D048FFF75FF99DF8240008
:101A600060B19DF82400012808D000208DF82400E2
:101A700001AA4FF40071C848FFF767F99DF82400E8
:101A8000CA4908700846007818B9002021F02EFFD6
:101A900006E0C6480078012802D11E2021F026FF6A
:101AA0000DF5017D00BD00B5ADF5017D01AA4FF436
:101AB0000071B948FFF731F99DF81400BC4981F86D
:101AC00040000DF5017D00BD70B5ADF5007D00262F
:101AD0004FF400720021B64800F0DFFE6A464FF472
:101AE0000071B34800F015FB4FF400726946B0482E
:101AF00023F0ACFA4FF4FF71AD4800F095FA0446BC
:101B0000AB4890F8FF01AA4991F8FE1100EB0120C3
:101B100085B2A748B0F84100A0F55051353902D13F
:101B2000AC4200D1012626B920F0C2F90120A1491A
:101B3000087020F0D6FA00F06DF9FFF760FF22F090
:101B40006EFDFFF7F5F9FFF780FFFFF761FB0DF57D
:101B5000007D70BD10B58EB0182297A108A823F0A3
:101B6000FCFA20229AA1684623F0F7FA91480078FF
:101B7000012804D101F097F91C200EB010BD0A20F5
:101B8000FFF77AFB01F025FA03F07FF903F05BF928
:101B900018B100209649087002E0012094490870AD
:101BA00001F008FA03E001F06FF91720E5E720F0F3
:101BB000B1F90028F7D120F009FB172208A901206C
:101BC00021F040FF1F226946042021F03BFF20F056
:101BD00056FB044624B1204601F084F92046CCE7A8
:101BE00022F03DFD2046C8E710B5ADF5007D20F0A0
:101BF00019FD04460F2C06D0204601F095F9204629
:101C00000DF5007D10BD20F01BFF04466A464FF421
:101C100000716148FFF781F8654890F840008DF841
:101C200010006A464FF400715B48FFF78EF8162CDF
:101C300004D0204601F09AF92046E1E7002001F0A7
:101C4000D7F92046DCE710B55A480078012803D1BF
:101C500001F029F91C2010BD01F0BBF903F015F9C2
:101C600003F0F1F818B100206149087002E001208A
:101C70005F49087001F09EF903E001F005F91720B3
:101C8000E9E720F047F90028F7D120F050FC04469E
:101C900020F020F9204601F0FEF92046DBE710B5E0
:101CA00001F097F920F0CCF9012803D101F0ECF80C
:101CB000172010BD012001F09BF900203D4908705C
:101CC00000BFF6E710B5ADF5007D3A480078012871
:101CD00005D101F0E8F81C200DF5007D10BD6A4625
:101CE0004FF400712C48FFF718F89DF810000128F8
:101CF00004D102202E4981F840000FE09DF8100029
:101D0000022804D101202A4981F8400006E09DF80C
:101D1000100018B90020264981F8400021F046F84B
:101D20000446204601F085F92046D5E710B501F0BC
:101D300041F920F0EFF8B8B91E222E49012021F018
:101D400081FE1C222C49042021F07CFE1920FFF783
:101D500093FA0D222949022021F074FE1A22284903
:101D6000052021F06FFE16E00D222649012021F00A
:101D700069FE16222449042021F064FE1920FFF791
:101D80007BFA0A222149022021F05CFE0D22204923
:101D9000052021F057FE10BD00FE02007C0500204A
:101DA00028110020400D0300800500202411002090
:101DB0007211002079050020E88EB7E58F96E59B2B
:101DC000BAE4BBB6E58C85E4B8AD2E2E2E0000003B
:101DD000526563656976696E67204669726D7761E1
:101DE0007265205061636B6167652E2E2E000000C6
:101DF000780500200B01002077030020300200202E
:101E0000CA0400204E020020F60400205B020020DD
:101E10000C05002000B589B004226DA101A823F0B3
:101E20002AFA6C4800789DF80410884219D1694854
:101E3000401C00789DF80510884212D16548801C2E
:101E400000789DF8061088420BD14FF43F3062496C
:101E500008606048614908605E4820306049086059
:101E600006E060485C4908605C4908605C490860BD
:101E700009B000BD59480068704710B504462722D4
:101E800059A1204623F0E2F80020206442F2B3205A
:101E9000A4F8440010BD70B504464F48006823F014
:101EA0005FF8451C2A464C480168204623F0E3F9B8
:101EB0004A48006823F054F8451C2A464748016800
:101EC00004F1200023F0D7F94548006823F048F8D2
:101ED000451C2A464248016804F1400023F0CBF932
:101EE00070BD10B504464021204623F07BF9402107
:101EF00004F1400023F076F9502104F1800023F032
:101F000071F910BD30B591B004460025402101A8FB
:101F100023F08AF912223EA1204623F097F800BF51
:101F200017E0402101A823F07FF93E4800EB85111E
:101F30002A4803682848026801A822F0D7FC04F167
:101F4000400101EB8510402201A923F07FF8681CB5
:101F5000C5B2042DE5DB002084F840014FF47A700F
:101F6000A4F84201012084F8410140F6640104F61E
:101F7000461023F037F940F66400A4F844014FF40A
:101F8000006104F5A37023F02DF911B030BD70B5D8
:101F900090B005460C464021684623F045F9A4B1AF
:101FA0000E4803680C4821460268684622F09EFCF1
:101FB0004021284623F016F9684622F0D1FF064654
:101FC00032466946284623F041F810B070BD000043
:101FD000534A590020FC0200840500208805002097
:101FE0008C05002090050020473043374A305A3393
:101FF000424F2E696F74636C6F75642E74656E63E7
:10200000656E74646576696365732E636F6D000039
:10201000246F74612F7265706F72742F25732F2572
:1020200073000000C485020010B502460B464FF64F
:10203000FF7109E010784840C0B20F4C34F810002E
:1020400080EA21215B1E521C002BF3D1C84380B2D1
:1020500010BD10B5034609E008785840C0B2064CE0
:1020600034F8100080EA2323521E491C002AF3D1C1
:10207000D84380B210BD0000C48602002DE9F047AD
:10208000C6B006460C4617464FF00008C24620462A
:10209000E11704EB11710911A4EB0111C1F1100A50
:1020A000BAF1100F03D0012046B0BDE8F0872046FA
:1020B000E11704EB11714FEA2119684607F000FAA5
:1020C00080223949684607F010FA8046B8F1000FBF
:1020D00004D0684607F0FEF90220E5E7002511E08C
:1020E00007EB051306EB05120121684608F001F91C
:1020F0008046B8F1000F04D0684607F0EBF90320E2
:10210000D2E76D1C4D45EBD3684607F0E3F9E0B22A
:10211000CAE72DE9F047C6B006460C4617464FF011
:102120000008C2462046E11704EB11710911A4EB27
:102130000111C1F1100ABAF1100F03D0012046B00D
:10214000BDE8F0872046E11704EB11714FEA211931
:10215000684607F0B5F980221349684607F0C4FACB
:102160008046B8F1000F04D0684607F0B3F90220AA
:10217000E5E7002511E007EB051306EB051200214A
:10218000684608F0B6F88046B8F1000F04D06846FB
:1021900007F0A0F90420D2E76D1C4D45EBD368464B
:1021A00007F098F9E0B2CAE79605002000B9704739
:1021B0000260C160C3684360C368836000BFF6E724
:1021C00000B970470021C16041608160016000BFBB
:1021D000F7E7014611B96FF0320070470868FCE775
:1021E00000B5024612B96FF01E0000BDD2E9010130
:1021F000884201D10020F8E7D2E90101884203D2E8
:10220000D2E90110401AF0E71046FFF7E2FFD2E9E9
:102210000113C91A401AE8E730B5044614B96FF043
:10222000280030BD2046FFF7D4FF05462046FFF7C3
:10223000D7FF281AF5E72DE9F04104460F46164668
:1022400000251CB96FF01400BDE8F08117B96FF0DC
:102250001500F9E7D4E90101884214D22046FFF7BE
:10226000BFFFB04201D9304602E02046FFF7B8FF79
:1022700005462A463846616822F0E8FE6068284430
:1022800060602846E0E72046FFF7A3FFE268616848
:10229000891A401AB0420AD935462A46384661683A
:1022A00022F0D4FE6068284460602846CCE72046CF
:1022B000FFF78FFFE2686168891A451A2A46384697
:1022C000616822F0C3FEE0686060721B79192046E5
:1022D000FFF7B1FF05442846B6E72DE9F041044673
:1022E0000F46154600261CB96FF00A00BDE8F081C4
:1022F00017B96FF00B00F9E72046FFF78DFFA842F2
:1023000002D86FF00C00F1E7D4E9010188422AD825
:102310002046FFF75EFFD4E90212891A461AB54239
:1023200013D82A463946A06822F090FEA0682844B7
:10233000A0602046FFF74DFFE1680844A16888428D
:1023400001D1E068A0602846D0E732463946A0684F
:1023500022F07CFEE068A060AA1BB9192046FFF7B6
:10236000BCFF3044C2E72A463946A06822F06EFE20
:10237000A0682844A0602846B8E72DE9F041074648
:102380000C461546002614B9701EBDE8F0812A4699
:1023900021463846FFF7A1FF0646AE4202D06FF055
:1023A0000100F2E73046F0E713B5044614B94FF0E8
:1023B000FF301CBD012201A92046FFF78EFFF8E780
:1023C000F048806910F0020F08D00120EE49087033
:1023D000EC48806940F00200EA4988617047EB48A8
:1023E000806910F0020F08D00120E9490870E74821
:1023F000806940F00200E5498861704770B5044685
:102400000D4684B9042000F0B3F9042000F0A4F9CB
:10241000E048C06A4FF6F071884345F21051084415
:10242000DC49C86214E0052000F0A2F9052000F0A4
:1024300093F9D848C06A20F0704040F0A040D549D8
:10244000C8620846006B20F0FF0040F055000863AA
:10245000A800CC494FF4803202FB04118860012CA3
:1024600006D140F20220C74902FB0411486007E090
:1024700040F20220C3494FF4803202FB041148604D
:102480000120C049020402FB04118862BD481146C4
:1024900001FB0400806840F00100BA4902FB04110E
:1024A000886070BD0021B74A4FF4803303FB0022DF
:1024B000516270470121B34A0B0403FB00225162B1
:1024C000704770B5C2F30902AE4C4FF4803505FB7E
:1024D0000044A46944F00204AA4D4FF4803606FB80
:1024E0000055AC61A74C354605FB00442262A54C63
:1024F00005FB0044246944F00104A24D06FB00558D
:102500002C6101249F4D06FB00556C62002310E0F6
:1025100000BF9C4C4FF4803505FB0044A46914F0C7
:10252000100FF6D1974C05FB004424780C70491C21
:102530005B1C9342ECD300BF924C4FF4803505FBFB
:102540000044A46914F0020FF6D08E4C05FB004441
:10255000A46944F002048B4D4FF4803606FB00550D
:10256000AC61884C354605FB0044246924F0010425
:10257000844D06FB00552C6170BD70B5C2F3090295
:10258000804C4FF4803505FB0044A46944F00204FC
:102590007C4D4FF4803606FB0055AC61794C3546D6
:1025A00005FB00442262774C05FB0044E46844F0DC
:1025B0000104744D06FB0055EC600124714D06FBCF
:1025C00000556C62002312E000BF6E4C4FF4803562
:1025D00005FB0044A46914F0080FF6D10C78694D8E
:1025E0004FF4803606FB00552C70491C5B1C93424F
:1025F000EAD300BF634C4FF4803505FB0044A46967
:1026000014F0020FF6D05F4C05FB0044A46944F0BF
:1026100002045C4D4FF4803606FB0055AC61594C0A
:10262000354605FB0044E46824F00104554D06FBE3
:102630000055EC6070BDF0B50024524D4FF480366B
:1026400006FB0055AD6945F002054E4E4FF480374C
:1026500007FB0066B5614B4D3E4606FB00552B62FD
:10266000484D06FB0055ED6845F00105454E07FB5A
:102670000066F560434D3E4606FB00552D6945F06A
:102680000105404E07FB0066356101253D4E07FB05
:102690000066756222E09C4211D23A4D4FF48036BA
:1026A00006FB0055AD6915F0080F08D10D78354EC1
:1026B0004FF4803707FB00663570491C641C314DB0
:1026C0004FF4803606FB0055AD6915F0100F05D1AB
:1026D0002C4D06FB00552D781570521C294D4FF4DA
:1026E000803606FB0055AD6915F0020FD3D007E028
:1026F000244D4FF4803606FB00552D781570521C82
:10270000204D4FF4803606FB0055AD6915F0100FD3
:10271000EED01C4D06FB0055AD6945F00205194E83
:102720004FF4803707FB0066B561164D3E4606FB49
:102730000055ED6825F00105124E07FB0066F560B7
:10274000104D3E4606FB00552D6925F001050D4E46
:1027500007FB00663561F0BD00F01F0201219140CA
:1027600042094FF0E02303EB8202C2F800117047E8
:1027700000F01F0201219140074A430942F823104B
:102780007047000000000640A6050020000007403A
:10279000A70500200000064880E200E010B50021F7
:1027A0000846FFF72BFEF748C06A20F44050F54971
:1027B000C862F548006840F04000F34908600846E8
:1027C000C06840F04000C860EE48C06A20F0C00019
:1027D000EC49C862EC48006840F00800EA4908602B
:1027E0000846806840F008008860E648C06A20F427
:1027F0004040E449C862E448006840F08000E24993
:1028000008600846806840F08000886010BD08B508
:1028100000BFDE4890F8400020B1DC4890F840004E
:1028200002280BD1D848C06840F00800D649C860DB
:102830000846806840F0800088600AE0D248C0689E
:1028400040F08000D049C8600846806840F0080029
:10285000886000BF9020CE490870002048708870C2
:10286000C8700422FFF789FE022269460020FFF7A4
:1028700028FE00BFC448806840F00800C249886054
:102880000846806840F08000886000BF9DF8010025
:102890009DF8001040EA012008BD2DE9F0410746EF
:1028A0000D46164600BFB94890F8400020B1B74821
:1028B00090F8400002280BD1B348C06840F00800EF
:1028C000B149C8600846806840F0800088600AE02E
:1028D000AD48C06840F08000AB49C86008468068D9
:1028E00040F00800886000BF0320A9490870280C48
:1028F0004870280A8870CD7004220020FFF73DFE42
:102900004FEA1628002408E007EB04214FF48072F8
:102910000020FFF7D6FD601C84B24445F4D316F0C6
:10292000FF0F05D0F2B207EB04210020FFF7C9FD2D
:1029300000BF9548806840F00800934988600846C9
:10294000806840F08000886000BFBDE8F08110B56D
:1029500000BF8E4890F8400020B18C4890F84000AD
:1029600002280BD18848C06840F008008649C8603A
:102970000846806840F0800088600AE08248C068AD
:1029800040F080008049C8600846806840F0080038
:10299000886000BF06207E49087001220020FFF7F2
:1029A000ECFD00BF7848806840F0080076498860F8
:1029B0000846806840F08000886000BF10BD10B5F8
:1029C00000BF724890F8400020B1704890F8400075
:1029D00002280BD16C48C06840F008006A49C86002
:1029E0000846806840F0800088600AE06648C06859
:1029F00040F080006449C8600846806840F00800E4
:102A0000886000BF04206249087001220020FFF79F
:102A1000B4FD00BF5C48806840F008005A498860F7
:102A20000846806840F08000886000BF10BD10B587
:102A300000BF564890F8400020B1544890F840003C
:102A400002280BD15048C06840F008004E49C860C9
:102A50000846806840F0800088600AE04A48C06804
:102A600040F080004849C8600846806840F008008F
:102A7000886000BF05204649087001220020FFF74A
:102A80007CFD012242490020FFF71BFD00BF3E48AC
:102A9000806840F008003C4988600846806840F043
:102AA0008000886000BF3A48007810BD10B54FF430
:102AB000FA7409E00120FEF7DFFBFFF7B8FF10F022
:102AC000010F01D1002010BD2000A4F101018CB242
:102AD000F0D10120F7E710B504462403FFF737FFD4
:102AE000FFF7E4FF08B1012010BD00BF274890F8B0
:102AF000400020B1254890F8400002280BD1224820
:102B0000C06840F008002049C8600846806840F06E
:102B1000800088600AE01C48C06840F080001A49C4
:102B2000C8600846806840F00800886000BF202028
:102B300017490870200C4870200A8870CC70042255
:102B40000020FFF71AFD00BF0F48806840F0080022
:102B50000D4988600846806840F08000886000BFAA
:102B6000FFF7A4FF08B10120BEE70020BCE710B5C5
:102B700004462404FFF7EBFEFFF798FF50B1012055
:102B800010BD00000000064800000A487211002035
:102B9000843B002000BFB84890F8400020B1B64800
:102BA00090F8400002280BD1B448C06840F00800FB
:102BB000B249C8600846806840F0800088600AE03A
:102BC000AE48C06840F08000AC49C86008468068E4
:102BD00040F00800886000BFD820A9490870200C88
:102BE0004870200A8870CC7004220020FFF7C5FCD2
:102BF00000BFA248806840F00800A04988600846ED
:102C0000806840F08000886000BFFFF74FFF08B188
:102C10000120B5E70020B3E710B5FFF798FEFFF7F6
:102C200045FF08B1012010BD00BF934890F8400057
:102C300020B1914890F8400002280BD18F48C0681D
:102C400040F008008D49C8600846806840F0800068
:102C500088600AE08948C06840F080008749C86001
:102C60000846806840F00800886000BFC72084499B
:102C7000087001220020FFF780FC00BF7F488068B9
:102C800040F008007D4988600846806840F0800078
:102C9000886000BFFFF70AFF08B10120C3E70020EA
:102CA000C1E770B505460C461646FFF750FE00BF5B
:102CB000714890F8400020B16F4890F84000022819
:102CC0000BD16E48C06840F008006C49C8600846E7
:102CD000806840F0800088600AE06848C06840F082
:102CE00080006649C8600846806840F00800886037
:102CF00000BF022062490870200C4870200A8870CA
:102D0000CC7004220020FFF738FC32462946002010
:102D1000FFF733FC00BF5948806840F0080057496E
:102D200088600846806840F08000886000BFFFF738
:102D3000BDFE08B1012070BD0020FCE72DE9F04187
:102D400007460E461446F0B2C0F58075AC4200DC72
:102D5000254616E02A4631463846FFF7A2FF10B155
:102D60000120BDE8F081AC4200D10BE02F442E449D
:102D7000601B84B2B4F5807F02DD4FF4807500E003
:102D80002546E7E700BF0020EBE72DE9F05F81462D
:102D900088461646DFF8ECB04FEA1837C8F30B0A3E
:102DA000CAF58054A64200DC344661E039034FF492
:102DB00080525846FFF771FD002508E00AEB050038
:102DC0001BF80000FF2800D003E0681C85B2A54274
:102DD000F4DB00BFA5422ADA3846FFF77CFE40B19B
:102DE000FFF7DCFC3846FFF776FE10B10120BDE8A6
:102DF000F09F002507E019F8050005EB0A010BF824
:102E00000100681C85B2A542F5DB39034FF48052FE
:102E10005846FFF793FFD0B1FFF7C0FC39034FF4DA
:102E200080525846FFF78AFF88B10120DFE722462B
:102E300041464846FFF782FF48B1FFF7AFFC224604
:102E400041464846FFF77AFF08B10120CFE7A64286
:102E500000D10EE07F1C4FF0000AA144A044301BBB
:102E600086B2B6F5805F02DD4FF4805400E0344650
:102E70009CE700BF0020BAE77211002000000A485A
:102E8000843B0020943B002010B52222E44901201D
:102E900020F0D8FD1E20FEF7EFF92822E14904209A
:102EA00020F0D0FD10BD10B51322DF49012020F025
:102EB000C9FD1E20FEF7E0F91722DC49042020F0AE
:102EC000C1FD1E20FEF7D8F92C22D949022020F09E
:102ED000B9FD1E20FEF7D0F93222D649052020F098
:102EE000B1FD10BD1FB50446002000900190029076
:102EF00003902246D0A1684621F0F8FC1922D2495D
:102F0000012020F09FFD1920FEF7B6F91C22CF49C1
:102F1000042020F097FD1920FEF7AEF90F22694634
:102F2000022020F08FFD1FBD1FB504460020009039
:102F30000190029003902246BFA1684621F0D6FC82
:102F40001322C349012020F07DFD1E20FEF794F9D5
:102F50001922C049062020F075FD1E20FEF78CF9CD
:102F60000F226946072020F06DFD1FBD1FB50446E6
:102F7000002000900190029003902246AEA1684686
:102F800021F0B4FC21F065FB1422B349012020F0AC
:102F900059FD1E20FEF770F91D22B049062020F0D1
:102FA00051FD1E20FEF768F90F226946072020F028
:102FB00049FD1FBD10B51922A949012020F042FD8D
:102FC0002820FEF759F91922A649042020F03AFDDD
:102FD00010BD10B51C22A449012020F033FD28208B
:102FE000FEF74AF91C22A149042020F02BFD10BD58
:102FF00010B504466CB90D229D49012020F022FD38
:103000002820FEF739F914229A49062020F01AFDEB
:103010000EE0012C0CD10D229749012020F012FD69
:103020001E20FEF729F913229449042020F00AFDFE
:1030300010BD10B50446192C0DD113229049012062
:1030400020F000FD1E20FEF717F915228D490420FF
:1030500020F0F8FC1EE01A2C0DD10E228A49012026
:1030600020F0F0FC1E20FEF707F90C22874904200F
:1030700020F0E8FC0EE01B2C0CD10D22844901202D
:1030800020F0E0FC1E20FEF7F7F80D228149042015
:1030900020F0D8FC10BD1FB5044600200090019020
:1030A00002900390224664A1684621F01FFC1D2C6B
:1030B0000DD113227849012020F0C4FC1E20FEF718
:1030C000DBF819227549042020F0BCFC14E027220B
:1030D0007349012020F0B6FC1E20FEF7CDF8222215
:1030E0007049042020F0AEFC1E20FEF7C5F80F2228
:1030F0006946022020F0A6FC1FBD10B5044684B925
:103100000D226949012020F09DFC2820FEF7B4F82B
:103110000F226649062020F095FC1E20FEF7ACF831
:1031200021E0012C0DD10D226149012020F08AFC03
:103130001E20FEF7A1F80D225E49062020F082FC39
:1031400011E0022C0FD10A225B49012020F07AFC09
:103150001E20FEF791F80B225849042020F072FC43
:103160001E20FEF789F810BD10B519223C49012038
:1031700020F068FC1E20FEF77FF819223949042050
:1031800020F060FC10BD10B51E224D49012020F03A
:1031900059FC1E20FEF770F81C224A49042020F03A
:1031A00051FC10BD10B50D224749012020F04AFC0A
:1031B0001E20FEF761F81A224449042020F042FC48
:1031C00011224349022020F03DFC1E20FEF754F856
:1031D00012224049052020F035FC10BD10B50D220B
:1031E0003D49012020F02EFC1E20FEF745F8162256
:1031F0003A49042020F026FC10BD10B51E20FEF731
:103200003BF811223649012020F01CFC1E20FEF75D
:1032100033F813223349042020F014FC10BD0000C1
:10322000AE070020640A0020DB06002068090020A9
:10323000EE0600207F0900204572726F7220436FF6
:10324000646520256400000065060020CF0800208A
:103250007E060020EB0800209106002004090020D3
:10326000A8050020F9070020C10500201208002051
:10327000C106002041090020CE060020550900208B
:103280001A070020B10900202D070020C6090020E0
:103290003B070020D20900200D06002078080020FE
:1032A000200600209108002048070020DF090020A8
:1032B00055070020EE09002062070020FB090020CE
:1032C00047060020B30800206C070020060A0020F3
:1032D00079070020200A00208A070020320A0020F7
:1032E000D00700208C0A002010B5044600BF082C2F
:1032F00002DD4FF0FF3010BD00BFA100491C4FF4AC
:10330000807202EBC100102100F0E3FF00BFA100BA
:10331000491C4FF4807202EBC10000F0B7FF002897
:10332000F5D1A100491C4FF4007202EBC1001F212E
:1033300000F0CFFF0120A040FB4909888143FA48F3
:1033400001800020F94921F81400F949085500BF0F
:10335000A100491C4FF4407202EBC10000F096FF3F
:103360000028F5D10120C6E72DE9F04104460E46BC
:1033700017461D4600BF082C03DD4FF0FF30BDE8A7
:10338000F08100BF012E04D0022E03D0042E03D101
:1033900001E000BF00BF02E06FF00400EFE700BFF4
:1033A00015F0060F02D06FF00500E8E705B3012E17
:1033B00002D0022E1AD106E015F0210F02D16FF0D3
:1033C0000500DCE713E015F0200F05D015F0800FA5
:1033D00002D16FF00500D2E715F0100F05D015F0FF
:1033E000800F02D16FF00500C9E700E000BF00BF09
:1033F0002046FFF779FF05F0F00242EA0601A2003D
:10340000521C002303EBC20000F063FF7FB9C948E0
:1034100007880088401CC749088008460088A0F536
:103420007F41F03903D14FF44040C249088039123E
:10343000A200521C4FF4806303EBC20000F049FF6E
:10344000A100491C4FF4806202EBC10101F58070BC
:10345000F9B200F03EFFA100491C4FF4807202EB6C
:10346000C100012100F035FF00BFA100491C4FF44D
:10347000807202EBC10000F009FF0028F5D105F0D1
:103480000100A040AC4909880843AB4908800120ED
:10349000A040A54909888143A34801800020A34991
:1034A00021F81400A249085500BFA100491C4FF49F
:1034B000407202EBC10000F0E9FE0028F5D060B2D6
:1034C0005DE710B5044600BF082C02DD4FF0FF3069
:1034D00010BD00BF00BFA100491C002202EBC100CB
:1034E00000F0D4FE00F00F00012802D06FF00400BD
:1034F000EEE700BF00BFA100491C4FF4407202EB91
:10350000C10000F0C3FE132802D06FF00200DFE715
:1035100000BFA100491C4FF4807202EBC1000221E0
:1035200000F0D7FE00BFA100491C4FF4807202EBEF
:10353000C10000F0ABFE0028F5D10EE0A100491C4F
:103540004FF4807202EBC10000F0A0FE28B92046C3
:10355000FFF7CAFE6FF00300BAE7A100491C4FF461
:10356000407202EBC10000F091FE1428E6D1012068
:10357000AEE770B504460D46164600BF082C02DDC6
:103580004FF0FF3070BD00BF00BFA100491C0022FA
:1035900002EBC10000F07AFE00F00F00012802D01B
:1035A0006FF00400EEE700BF00BFA100491C4FF41C
:1035B000407202EBC10000F069FE132802D06FF0E8
:1035C0000200DFE700BF2978687861F31F20014619
:1035D000A87861F31F200146287861F31F20014677
:1035E000481C00D011B96FF00B00CBE716B96FF093
:1035F0000A00C7E7A100491C4FF4406202EBC1007A
:103600000422294600F0B6FE3112A200521C4FF4EB
:10361000805303EBC20000F05CFEA100491C4FF494
:10362000805202EBC10101F58070F1B200F051FE51
:10363000A100491C4FF4807202EBC100042100F08C
:1036400048FE00BFA100491C4FF4807202EBC1008C
:1036500000F01CFE0028F5D10120A0403649098861
:10366000084201D000208DE716E0A100491C4FF46C
:10367000007202EBC10000F009FE10F0080F0BD041
:10368000A100491C4FF4007202EBC100082100F0B8
:1036900020FE6FF00C0075E7A100491C4FF440724A
:1036A00002EBC10000F0F2FD1728DED1012069E72E
:1036B00010B5044600BF082C02DD4FF0FF3010BDEE
:1036C00000BF00BFA100491C002202EBC10000F0B6
:1036D000DDFD00F00F00012802D06FF00400EEE7DE
:1036E00000BFA100491C4FF4807202EBC100082109
:1036F00000F0EFFD00BFA100491C4FF4807202EB07
:10370000C10000F0C3FD0028F5D10120A04006490A
:1037100009888143044801800120A04006490988A6
:1037200008420BD00020CAE7B80A0020944B0020C2
:10373000BA0A0020B40A0020B60A002010E0A10056
:10374000491C4FF4007202EBC10000F09FFD10F025
:10375000080F05D02046FFF7C7FD6FF00C00AEE75D
:10376000A100491C4FF4407202EBC10000F08EFD35
:103770000028E4D10120A2E72DE9F0410446884663
:1037800015460026002700BF082C02DD701EBDE88C
:10379000F08100BF00BFA100491C002202EBC10064
:1037A00000F074FD00F00F00012802D06FF004005B
:1037B000EDE700BF00BF15B96FF00D00E7E700BFF0
:1037C000A100491C4FF4407202EBC10000F05EFD05
:1037D0000646172E04D01C2E02D06FF00600D6E746
:1037E0000120A040F7490988084228D0A100491CBF
:1037F0004FF4007202EBC10000F048FD00F01F061C
:1038000016F0100F10D0A100491C4FF4007202EB0B
:10381000C100102100F05DFD0120A040E9490988A8
:103820008143E84801800AE016F0080F05D02046E1
:10383000FFF75AFD6FF00C00A9E70020A7E7A100F1
:10384000491C4FF4F85202EBC10000F01FFD800646
:10385000070CBD4200DD3D4623E0204600F0B8FDE8
:103860000746A100491C4FF4407202EBC10000F072
:103870000DFD0646172E07D01C2E05D02046FFF75B
:1038800033FD6FF0060082E70120A040CE49098891
:10389000084203D0BD4201DD002078E7BD4200DCD4
:1038A00000E0DAE700BF2A464146204600F0FCFD72
:1038B000A100491C4FF4807202EBC100202100F0EE
:1038C00008FD00BFA100491C4FF4807202EBC1004B
:1038D00000F0DCFC0028F5D10120A040B94909889E
:1038E0000843B8490880284651E72DE9F0470446C7
:1038F000884616460027002500BF082C02DD681EFA
:10390000BDE8F08700BF00BFA100491C002202EB08
:10391000C10000F0BBFC00F00F00012802D06FF0E6
:103920000400EDE700BF00BF16B96FF00D00E7E738
:1039300000BFA100491C4FF4F05202EBC10000F09F
:10394000A5FC8006050CB54200DA2E4638E020467C
:1039500000F074FD0546A100491C4FF4407202EBD3
:10396000C10000F093FC0746172F1ED01C2F16D164
:1039700005B126E0204600F02BFD8146A100491C40
:103980004FF4F85202EBC10000F080FCB9EB802F3D
:103990000BD12046FFF7A8FC6FF00600B0E72046E9
:1039A000FFF7A2FC6FF00600AAE70120A0408649BD
:1039B0000988084202D00DB90020A1E705B100E056
:1039C000C5E700BFB54200DA2E46324641462046E2
:1039D00000F0ACFDA100491C4FF4807202EBC10065
:1039E000402100F076FC00BFA100491C4FF480721A
:1039F00002EBC10000F04AFC0028F5D130467FE719
:103A00002DE9F04704468A4616461D46DDF820900B
:103A10000027B84600BF082C02DD781EBDE8F087FD
:103A200000BFA100491C002202EBC10000F02EFCE7
:103A300000F00F00022802D0042802D100E000BFED
:103A400002E06FF00400E9E700BF00BF16B96FF0B5
:103A50000D00E3E700BF2878697860F31F2108466E
:103A6000A97860F31F210846E97860F31F21084612
:103A7000286810B96FF00B00D0E7B9F1000F02D140
:103A80006FF00A00CAE7A100491C4FF4407202EB34
:103A9000C10000F0FBFB0746422F04D0222F02D0CA
:103AA0006FF00600BAE7A100491C4FF4406202EB38
:103AB000C1000422294600F05DFC4FEA2921A20042
:103AC000521C4FF4805303EBC20000F002FCA10033
:103AD000491C4FF4805202EBC10101F5807009F0DE
:103AE000FF0100F0F6FBA100491C4FF4F85202EB75
:103AF000C10000F0CBFB80064FEA1048464500DDD0
:103B000046461CE0204600F063FC8046A100491CAC
:103B10004FF4407202EBC10000F0B8FB10B96FF037
:103B200003007BE70120A04027490988084203D011
:103B3000464501DD002071E7464500DC00E0E1E795
:103B400000BF32465146204600F0AEFCA100491CA1
:103B50004FF4807202EBC100202100F0BAFB00BFDD
:103B6000A100491C4FF4807202EBC10000F08EFBF3
:103B70000028F5D12AE0A100491C4FF4007202EBA5
:103B8000C10000F083FB00F01F0717F0100F09D0F1
:103B9000A100491C4FF4007202EBC100102100F09B
:103BA00098FB14E017F0080F10D0A100491C4FF447
:103BB000007202EBC100082100F08BFB6FF00C00DB
:103BC0002CE70000B80A0020B60A0020D3E700BFA7
:103BD000304623E72DE9FC4704468A4616461F4631
:103BE000DDF82880002500BF082C02DD681EBDE836
:103BF000FC8700BFA100491C002202EBC10000F0BD
:103C000045FB814600F00F00022802D0042802D1B3
:103C100000E000BF02E06FF00400E8E700BF00BF73
:103C200016B96FF00D00E2E700BFF84830F8140055
:103C3000E8B91AE0204600F001FC0546A100491C45
:103C40004FF4407202EBC10000F020FB10B96FF09E
:103C50000300CCE70120A040ED490988084202D0CA
:103C60000DB90020C3E705B100E0E3E700BF002085
:103C7000E849085509F00700022802D004287DD140
:103C800057E0E24830F81400E8BB082269462046B5
:103C900000F04CFCA100491C4FF4807202EBC10003
:103CA000402100F016FB00BFA100491C4FF48072B8
:103CB00002EBC10000F0EAFA0028F5D19DF80000FF
:103CC00038709DF8010078709DF80200B8709DF87A
:103CD0000300F8709DF80400A8F800009DF80500A6
:103CE000B8F8001000EB0120A8F800009DF80600CD
:103CF000C64921F814009DF8070031F8141000EBB4
:103D00000120C24900E004E021F814008020C149EC
:103D10000855BE4830F81400B04201DD354602E0D7
:103D2000BA4830F814502A465146204600F0FEFBAF
:103D300055E0B64830F81400A8BB02226946204678
:103D400000F0F4FBA100491C4FF4807202EBC100AB
:103D5000402100F0BEFA00BFA100491C4FF4807260
:103D600002EBC10000F092FA0028F5D19DF80000A6
:103D7000A64921F814009DF8010000E027E031F881
:103D8000141000EB0120A14921F81400084630F876
:103D9000140040F2EA51884206DD2046FFF7A4FAFB
:103DA0006FF47A7023E702E080209A49085597481B
:103DB00030F81400B04201DD354602E0934830F897
:103DC00014502A465146204600F0B0FB07E0294631
:103DD000204600F0EDFB8D4820F8145000BF00BFD6
:103DE000A100491C4FF4807202EBC100402100F099
:103DF00070FA00BFA100491C4FF4807202EBC100B1
:103E000000F044FA0028F5D1804830F81400401B37
:103E10007E4921F81400084630F8140028B17D4886
:103E2000005D40F001007B4908552846DFE62DE99A
:103E3000F04104460E461546002700BF082C02DD5F
:103E4000781EBDE8F08100BF082E78D2DFE806F0CA
:103E5000041C232F3B4D596B2F78012F07D10120D4
:103E6000A0406B4909880843694908800BE03FB9C5
:103E70000120A0406649098881436548018002E02D
:103E80006FF00900DDE75DE061480088204100F047
:103E90000100287056E0A100491C4FF4F85202EBD3
:103EA000C10000F0F3F98006000C28804AE0A10070
:103EB000491C4FF4F05202EBC10000F0E7F9800614
:103EC000000C28803EE028781F2802DD6FF00900F2
:103ED000B7E72A7802F01F01A200521C4FF40073CA
:103EE00003EBC20000F0F5F92CE0A100491C4FF4EF
:103EF000007202EBC10000F0C9F900F01F00287049
:103F000020E028781F2802DD6FF0090099E72A7861
:103F100002F01F01A200521C4FF4305303EBC20009
:103F200000F0D7F90EE0A100491C4FF4305202EB2B
:103F3000C10000F0ABF900F01F00287000BF6FF067
:103F400009007EE700BF01207BE770B504460E46FE
:103F5000154600BF082C02DD4FF0FF3070BD00BFDA
:103F6000082E75D2DFE806F0BB040E182F3A58A1D0
:103F70002978A200521C4FF4B05303EBC20000F0AA
:103F8000A8F9AFE02978A200521C4FF4A85303EB24
:103F9000C20000F09EF9A5E02A881112A200521C6E
:103FA0004FF4905303EBC20000F093F92A88D1B28A
:103FB000A200521C4FF4905303EBC20202F5807032
:103FC00000F087F98EE0A100491C4FF4406202EB3B
:103FD000C1000422294600F0CDF983E02A8811129D
:103FE000A200521C4FF4805303EBC20000F071F9A1
:103FF0002A88D1B2A200521C4FF4805303EBC202B4
:1040000002F5807000F065F96CE00000944B002030
:10401000B60A0020BA0A002000BFA100491C0022F5
:1040200002EBC10000F032F900F00F00012802D0CD
:104030006FF0040092E700BFA100491C4FF43C520E
:1040400002EBC10000F022F918B16FF0010085E722
:1040500045E0A100491C4FF4807202EBC10022210F
:1040600000F037F916E0A100491C4FF4007202EB92
:10407000C10000F00BF910F0080F0BD0A100491C93
:104080004FF4007202EBC100082100F022F96FF03A
:104090000C0063E7A100491C4FF4807202EBC100E1
:1040A00000F0F4F80028DED11CE000BFA100491C9C
:1040B000002202EBC10000F0E9F800F00F00012837
:1040C00002D06FF0040049E700BF2978A200521C1B
:1040D0004FF43C5303EBC20000F0FBF802E06FF03A
:1040E00009003BE700BF012038E72DE9F041044615
:1040F0000E46154600BF082C03DD4FF0FF30BDE82B
:10410000F08100BF0D2E6FD2DFE806F007121C26EB
:104110003D48B55F7A7F848EA100A100491C002232
:1041200002EBC10000F0B2F800F0F0002870A5E04A
:10413000A100491C4FF4B05202EBC10000F0A6F8F8
:1041400028709BE0A100491C4FF4A85202EBC1006B
:1041500000F09CF8287091E0A100491C4FF49052A7
:1041600002EBC10101F5807000F090F80746A10054
:10417000491C4FF4905202EBC10000F087F807EBA6
:104180000020287000BFA100491C4FF4406202EBE0
:10419000C1000422294600F0C0F86FE0A100491CCC
:1041A0004FF4805202EBC10101F5807000F06EF80F
:1041B0000746A100491C4FF4805202EBC10000F0F9
:1041C00065F807EB0020288058E000BFA100491CDB
:1041D000002202EBC10000F059F800F00F000128A6
:1041E00003D06FF004008AE745E000BFA100491C3E
:1041F0004FF43C5202EBC10000F048F828803DE04B
:10420000204600F0E5F8288000BF204600F016F9AF
:10421000288000BFA100491C4FF4407202EBC1008E
:1042200000F034F8287029E0A100491C002202EBBC
:10423000C10000F02BF8012804D1204600F0FEF860
:10424000288003E00F4830F81400288016E000BFF3
:10425000A100491C002202EBC10000F017F800F099
:104260000F00012802D06FF0040048E700BF0648A5
:10427000005D287002E06FF0010040E700BF012000
:104280003DE70000944B0020BA0A002070B50446B8
:10429000E14988688047E0490869804700BFDE48F7
:1042A000C169C4F307408847DB48C169C4F30720EC
:1042B0008847E0B2D84AD1698847D749886980479A
:1042C0000546D54948698047D349C868804728468C
:1042D00070BD70B504460D46CF4988688047CE4909
:1042E0000869804744F00404CB48C169C4F307401F
:1042F0008847C948C169C4F307208847E0B2C64A65
:10430000D1698847C448C16928468847C249486975
:104310008047C149C868804770BD2DE9F041044617
:104320000E4617460025BC4988688047BA49086987
:10433000804700BFB848C169C4F307408847B64802
:10434000C169C4F307208847E0B2B34AD1698847FE
:1043500000BF05E0B049886980477055681C85B288
:10436000BD42F7DBAC4948698047AB49C868804724
:10437000BDE8F0812DE9F04104460E4617460025C0
:10438000A54988688047A4490869804744F0040427
:10439000A148C169C4F3074088479F48C169C4F375
:1043A00007208847E0B29C4AD169884700BF05E0F2
:1043B000705D994AD1698847681C85B2BD42F7DBB8
:1043C0009549486980479449C8688047BDE8F081AD
:1043D00070B504460025002600BFA100491C4FF41B
:1043E000005202EBC100FFF751FF0646A100491C35
:1043F0004FF4005202EBC10101F58070FFF746FF58
:1044000000EB062086B2AEB1A100491C4FF4005269
:1044100002EBC100FFF73AFF0546A100491C4FF42B
:10442000005202EBC10101F58070FFF72FFF00EB96
:10443000052085B2B542D0D1284670BD70B504467E
:104440000025002600BFA100491C4FF4185202EBC2
:10445000C100FFF71BFF0646A100491C4FF418528C
:1044600002EBC10101F58070FFF710FF00EB0620A1
:1044700086B2AEB1A100491C4FF4185202EBC10044
:10448000FFF704FF0546A100491C4FF4185202EB48
:10449000C10101F58070FFF7F9FE00EB052085B240
:1044A000B542D0D1284670BD2DE9F04704460F46ED
:1044B00016460025A8460EB9BDE8F087A100491CA4
:1044C0004FF4105202EBC10101F58070FFF7DEFEE0
:1044D0008146A100491C4FF4105202EBC100FFF7C6
:1044E000D5FE09EB002085B22902A000801C01EB5B
:1044F000C008324639464046FFF73CFFA81985B24E
:104500002912A200521C4FF4105303EBC200FFF714
:10451000E0FEA100491C4FF4105202EBC10101F56D
:104520008070E9B2FFF7D5FE00BFC5E72DE9F0477F
:1045300004460F4616460025A8460EB9BDE8F0878A
:10454000A100491C4FF4205202EBC10101F580701B
:10455000FFF79CFE8146A100491C4FF4205202EB5C
:10456000C100FFF793FE09EB002085B22902A000ED
:10457000C01C01EBC008324639464046FFF7CDFE6D
:10458000A81985B22912A200521C4FF4205303EB44
:10459000C200FFF79EFEA100491C4FF4205202EB1F
:1045A000C10101F58070E9B2FFF793FE00BFC5E7D6
:1045B0002DE9F04104460E460025A100491C4FF4A8
:1045C000205202EBC10101F58070FFF75FFE074644
:1045D000A100491C4FF4205202EBC100FFF756FE28
:1045E00007EB002085B2A81985B22912A200521C3F
:1045F0004FF4205303EBC200FFF76BFEA100491CF0
:104600004FF4205202EBC10101F58070E9B2FFF7CF
:1046100060FEBDE8F0810000C40A002070477047CA
:104620007047704701460878704701707047002056
:104630007047704700B141B9AFF21F02F94B9A6061
:10464000AFF22503F74AD36002E0F64A9060D160EA
:10465000704700B141B9AFF23702F24B1A61AFF2C5
:104660003D03F04A536102E0EE4A10615161704728
:1046700000BFEC4A128812F4807FFAD000B141B931
:10468000AFF25F02E74B9A61AFF26103E54AD36193
:1046900002E0E44A9061D161704700BFE14A1288AC
:1046A00012F4007FFAD000B141B9AFF27D02DD4BC8
:1046B0009A61AFF28103DB4AD36102E0D94A90618B
:1046C000D161704710B54FF43850FFF7DFFD10F09F
:1046D000010F01D0012400E00024204610BD10B5D8
:1046E00000244FF43850FFF7D1FD10F0300F01D007
:1046F000012400E00024204610BD10B54FF43850CE
:10470000FFF7C4FD044624F0800421464FF43850DE
:10471000FFF7DFFD4FF43850FFF7B8FD044644F0D3
:10472000800421464FF43850FFF7D3FD10BD70B51B
:10473000054600244FF43850FFF7A8FD044614F056
:10474000400F02D14FF0FF3070BD24F03804012D2E
:1047500002D144F0300401E044F0380421464FF423
:104760003850FFF7B6FDFFF7C8FF4FF43850FFF79A
:104770008DFD0446012D04D114F0300F06D0002029
:10478000E2E714F0380F01D00020DDE74FF0FF30F2
:10479000DAE770B5044600254FF43850FFF776FD90
:1047A0000546C5F38010207005F03800202802D09F
:1047B000382803D100BF0120607002E00020607043
:1047C00000BF00BF05F03800102805D0182802D01F
:1047D000202804D100BF00BF0120A07002E000200B
:1047E000A07000BF00BF05F03800082805D01828C9
:1047F00002D0202804D100BF00BF0120E07002E0F9
:104800000020E07000BF00BF70BD70B505460024F9
:104810002878012802D144F0400401E024F040044B
:104820006878012802D144F0380412E0E8780128C1
:1048300008D1A878012802D144F0180409E044F016
:10484000080406E0A878012802D144F0100400E032
:1048500000BF21464FF43850FFF73BFDFFF74DFFF7
:1048600070BD70B50026002400254FF4B050FFF74E
:104870000DFD06464FF4C050FFF708FD04462546DF
:1048800006EB052085B2284670BD70B50446E5B23A
:10489000261229464FF4B050FFF71BFD31464FF466
:1048A000C050FFF716FD70BD70B50026002400252E
:1048B0004FF4A850FFF7EAFC00F0F0064FF4B850B0
:1048C000FFF7E4FC0446254606EB052085B22846A2
:1048D00070BD70B50446E5B2261205F0F0014FF444
:1048E000A850FFF7F6FC31464FF4B850FFF7F1FC43
:1048F00070BD00B585B0062269464FF41060FFF721
:104900000CFD042204A99001FFF707FD042203A96E
:104910004FF4A060FFF701FD042202A94FF470607C
:10492000FFF7FBFC80210020FFF7D3FC0020FFF7FE
:10493000ADFC062269464FF41060FFF71BFD042210
:1049400004A99001FFF716FD042203A94FF4A0600B
:10495000FFF710FD042202A94FF47060FFF70AFD73
:1049600005B000BD2DE9F04105460E460027FFF7D2
:10497000C0FFF5B100BF002404E0285D384447B211
:10498000601C44B2082CF8DB102F03DD4FF0FF3021
:10499000BDE8F08100240AE0295DA200521C4FF41A
:1049A000F85303EBC200FFF794FC601C44B2082CE0
:1049B000F2DBEEB10027002404E0305D384447B25A
:1049C000601C44B2082CF8DB102F02DD4FF0FF30E2
:1049D000DEE700240AE0315DA200521C4FF4F053E0
:1049E00003EBC200FFF775FC601C44B2082CF2DB3D
:1049F0000020CDE72DE9FC4106460C4600250020AD
:104A000000900190102E7BD2DFE806F0080E1D19F1
:104A1000212529364355585C60616570FFF769FFB1
:104A200071E00000C40A00201CB100940098083016
:104A30000190DDE90001FFF795FFBDE8FC812088CA
:104A4000FFF747FF5FE0FFF72FFF20805BE0208844
:104A5000FFF71BFF57E0FFF704FF208053E020889B
:104A600001124FF49850FFF734FC2088C1B24FF484
:104A7000A050FFF72EFC46E04FF4A050FFF706FCD5
:104A800007464FF49850FFF701FC07EB0020208009
:104A900039E08248807820708048C07860707F4814
:104AA0000079A0707D484079E0707C488079207161
:104AB0000020607127E0FFF720FE24E02046FFF78A
:104AC000A4FE20E02046FFF764FE1CE01BE02078F7
:104AD000FFF72DFEB1E7FFF702FEC5B268B2401C3A
:104AE00002D1401EA9E70BE025700CE0FFF7EAFDBC
:104AF000C5B268B2401C01D1401E9EE7257002E09D
:104B00004FF0FF3099E700BF002096E770B50446EC
:104B10004FF4D850FFF7BAFB20704FF4D050FFF796
:104B2000B5FB05464FF4C850FFF7B0FB05EB00207E
:104B3000608070BD10B5044621784FF4D850FFF75F
:104B4000C8FB608801124FF4C850FFF7C2FB6088B1
:104B5000C1B24FF4D050FFF7BCFB10BD10B5002020
:104B6000FFF794FB10BD70B50446002534F03A0001
:104B700001D0681E70BD0020FFF788FB0546254365
:104B800029460020FFF7A5FB0020F3E710B50446F7
:104B9000062221464FF41060FFF7BFFB042204F108
:104BA0000E019001FFF7B9FB042204F10A014FF452
:104BB000A060FFF7B2FB0422A11D4FF47060FFF765
:104BC000ACFB37480078A07435484178E1748178AF
:104BD0002175C178617533480078A07510BD10B596
:104BE0000446062221464FF41060FFF7C3FB04225F
:104BF00004F10E019001FFF7BDFB042204F10A014C
:104C00004FF4A060FFF7B6FB0422A11D4FF47060C3
:104C1000FFF7B0FBA07C22490870E07C4870207D43
:104C20008870607DC870A07D1E49087010BD70B589
:104C300005460C46062D1CD2DFE805F003070B0FD6
:104C400013172046FFF7CBFF16E02046FFF79EFF25
:104C500012E02078FFF787FF70BDFFF77FFF20701D
:104C60000AE02046FFF766FF06E02046FFF74EFF0A
:104C700002E04FF0FF30EFE700BF0020ECE770B537
:104C800004464FF43850FFF701FB0546C5F380009A
:104C9000E070C5F34000A07070BD0000C40A0020A1
:104CA000E40A0020E80A00200EB58D490968009149
:104CB0004FF40021D1F80C1201918A490968029140
:104CC0000099C1F30722114401700099C1F3074113
:104CD000009A01EB126141700199C1F3072211445E
:104CE00081700199C1F30741019A01EB1261C17012
:104CF0000299C1F30722114401710299C1F30741DE
:104D0000029A01EB12614171017801EBD1724FEA15
:104D10006202B1EB420202D00178491C01700EBD63
:104D200001B5012269461046FDF727FC08BD08B50C
:104D300000200090012269461046FDF7C2FB9DF855
:104D4000000008BD0020684948627047012066499C
:104D500048627047002080F3108800BF7047012030
:104D600080F3108800BF704710B503210120FDF7C4
:104D700045FBFFF7E7FF5D48006B20F0C0005B4993
:104D800008630846006C40F4002008645848006836
:104D900040F40020564908605448006B20F0300071
:104DA000524908630846006C40F48020086450486B
:104DB000006840F480204E49086010BD10B5FFF730
:104DC000D3FF4C494C48FFF735FC4C494C48FFF7A2
:104DD00040FC4C494C48FFF760FC4C48FFF764FF2F
:104DE00010BD1FB54A4B0FCB8DE80F00694601205F
:104DF000FFF700FE401C01D104B010BD0120FBE70D
:104E0000704710B54148801D01F01BF83F480E3037
:104E100001F024F83D480A3001F02DF83B481230EB
:104E200001F036F802203949887510BD10B53949AE
:104E3000002000F0B6FFAFF23702AFF239010846AA
:104E400000F09DF810BD08B569460F20FFF7D2FDB0
:104E5000401C00D108BD9DF80000FBE710B50446DA
:104E60002A48FFF721FF29490020FFF7E0FE2146ED
:104E70000120FFF7DCFE04222146244820F020F820
:104E800008B1002010BD0120FCE710B51848C0682B
:104E900040F400201649C8600220FCF7EDF91448E0
:104EA000806840F40020124988604FF4E160FCF70C
:104EB000E3F910BD70B504460D46AAB221460120A3
:104EC000FEF75AFC70BD70B504460D460026AAB226
:104ED00021460120FEF709FD86B2304670BD000074
:104EE0000802080010020800000007400000064801
:104EF00000000A48554D00005F4D0000454D000080
:104F00004D4D0000214D00002F4D0000A44F00200A
:104F1000C4880200A44B002010B50422F9494FF4C4
:104F20007060FFF727FA0422F7494FF4A060FFF7FB
:104F300021FA0422F5499001FFF71CFA10BD10B5C3
:104F400080210020FFF7C5F90020FFF79FF9FFF748
:104F5000E3FF0622EE494FF41060FFF70BFA10BD95
:104F600010B580210020FFF7B4F90020FFF78EF97B
:104F70000622E7494FF41060FFF7FCF910BD10B5A9
:104F8000AFF26B03E34C2360AFF24D03E24C2360BE
:104F9000AFF23303E14C236008B1DE4B186009B176
:104FA000DD4B19600AB1DD4B1A6010BD7CB50622DD
:104FB00069464FF41060FFF7B0F90120D84909683D
:104FC0000870D749096848700620D5490968887073
:104FD0000020D3490968C870D1480068051DD14830
:104FE0000068000E2870CF480068000C6870CD483B
:104FF0000068000AA870CB480068E8700020C84923
:1050000009680881C648006800F10A0580202870F8
:1050100000206870C249096808730021C048006810
:105020004173BF4800688173BD480068C1730020A8
:10503000BB49096808740021B94800684174B84840
:1050400000688174B6480068C1740020B4490968DA
:1050500008750021B24800684175B1480068817543
:10506000AF480068C1750020AD4909680876002185
:10507000AB4800684176AA4800688176A848006875
:10508000C176A3480078A64909680877A048417806
:10509000A348006841779E488178A14800688177DD
:1050A0009B48C1789E480068C177994801799C481F
:1050B000006880F82010964841799948006880F887
:1050C0002110062406E00021954800681C30015597
:1050D000601CC4B2102CF6DB002406E000219048CE
:1050E00000682C300155601CC4B2402CF6DB002453
:1050F00006E000218A4800686C300155601CC4B28B
:10510000802CF6DB63208649096881F8EC00822157
:105110008348006880F8ED1053218148006880F8CA
:10512000EE1063217E48006880F8EF107CBD7CB5EE
:105130000024FFF73BFF042435222146641C7848F5
:105140000068EC30425401222146641C7448006817
:10515000EC3042542146641C71480068EC304254E3
:105160003D222146641C6E480068EC304254072200
:105170002146641C6A480068EC30425401222146F2
:10518000641C67480068EC3042546148027821464C
:10519000641C63480068EC3042545D484278214604
:1051A000641C5F480068EC304254594882782146BC
:1051B000641C5B480068EC3042545548C278214674
:1051C000641C57480068EC3042545148027921462B
:1051D000641C53480068EC3042544D4842792146E3
:1051E000641C4F480068EC3042540C222146641C79
:1051F0004B480068EC30425400222046611C8CB2BF
:1052000047490968EC310A5400250AE04648425DE6
:105210002046611C8CB242490968EC310A54681C72
:1052200085B24148405D0028F0D13948C278204617
:10523000611C8CB23A490968EC310A54344802794D
:105240002046611C8CB236490968EC310A5430485A
:1052500042792046611C8CB231490968EC310A540C
:10526000E81CC1B2281D221A2D480068EC30815478
:1052700037222046611C8CB229490968EC310A5456
:1052800006222046611C8CB225490968EC310A547B
:1052900001222046611C8CB221490968EC310A5474
:1052A00003222046611C8CB21D490968EC310A5466
:1052B00006222046611C8CB219490968EC310A5457
:1052C0000F222046611C8CB215490968EC310A5442
:1052D0003A222046611C8CB211490968EC310A540B
:1052E0003B222046611C8CB20D490968EC310A54FE
:1052F000FF222046611C8CB209490968EC310A542E
:1053000025461AE0F00A0020F80A0020F40A0020DE
:10531000340B0020180B00201C0B0020200B002059
:10532000300B00202C0B0020100B00200021FE4829
:105330000068EC304155681C85B2B5F59C7FF5DB03
:10534000FF208DF804008DF805008DF806008DF81B
:105350000700432001AB4FF409720090F248016846
:10536000F2480078FEF74CFB7CBD7CB50024FFF7CB
:105370001DFEEF480078032803D0ED48007804288C
:105380002CD10020E849096888720021E6480068AD
:10539000C172E8480078E44909680873E548417833
:1053A000E14800684173E3488178DF480068817311
:1053B000E048C178DC480068C173DF4800788DF8A8
:1053C0000400DD4840788DF80500DB4880788DF8D2
:1053D0000600D948C0788DF8070008E0FF208DF856
:1053E00004008DF805008DF806008DF807000424F0
:1053F00035222146641CCC480068EC30425401221E
:105400002146641CC8480068EC30425403222146FF
:10541000641CC5480068EC3042543D222146641C9F
:10542000C1480068EC30425407222146641CBE4843
:105430000068EC30425401222146641CBA480068DE
:10544000EC304254BD4802782146641CB6480068DE
:10545000EC304254B94842782146641CB248006896
:10546000EC304254B54882782146641CAE4800684E
:10547000EC304254B148C2782146641CAA48006806
:10548000EC304254AD4802792146641CA6480068BD
:10549000EC304254A94842792146641CA248006875
:1054A000EC3042549DF80700FF2867D13222204695
:1054B000611C8CB29C490968EC310A5404222046D4
:1054C000611C8CB298490968EC310A5499480278F9
:1054D0002046611C8CB294490968EC310A54954805
:1054E00042782046611C8CB28F490968EC310A541D
:1054F000904882782046611C8CB28B490968EC3157
:105500000A548C48C2782046611C8CB286490968CE
:10551000EC310A5436222046611C8CB2824909685B
:10552000EC310A5404222046611C8CB27E49096881
:10553000EC310A54804802782046611C8CB27A49CA
:105540000968EC310A547C4842782046611C8CB2D0
:1055500075490968EC310A54774882782046611C05
:105560008CB271490968EC310A547348C2782046FC
:10557000611C8CB26C490968EC310A540C2220463B
:10558000611C8CB268490968EC310A54002220463B
:10559000611C8CB264490968EC310A54002509E0A9
:1055A0006748425D2046611C8CB25F490968EC3156
:1055B0000A546D1C6248405D0028F1D15F48C278F2
:1055C0002046611C8CB258490968EC310A545B488A
:1055D00002792046611C8CB253490968EC310A54A7
:1055E000564842792046611C8CB24F490968EC311B
:1055F0000A54E81CC1B2281D221A4B480068EC303E
:10560000815437222046611C8CB247490968EC312D
:105610000A5408222046611C8CB243490968EC31C7
:105620000A5401222046611C8CB23F490968EC31C2
:105630000A5403222046611C8CB23B490968EC31B4
:105640000A5406222046611C8CB237490968EC31A5
:105650000A540F222046611C8CB233490968EC3190
:105660000A543A222046611C8CB22F490968EC3159
:105670000A543B222046611C8CB22B490968EC314C
:105680000A541F222046611C8CB227490968EC315C
:105690000A5421222046611C8CB223490968EC314E
:1056A0000A54FF222046611C8CB21F490968EC3164
:1056B0000A54254605E000211B480068EC3041559E
:1056C0006D1CB5F59C7FF6DB432001AB4FF40972EE
:1056D00000901548016815480078FEF791F97CBDE7
:1056E0007CB50024FFF762FC042400200E49096801
:1056F000887200210C480068C17235222146641C62
:1057000009480068EC30425401222146641C0648D6
:105710000068EC30425404222146641C02480068B0
:10572000EC3042543D220DE0300B0020240B0020D1
:10573000000B0020F00A0020250B0020340B002075
:10574000100B00202146641CF7480068EC304254DE
:1057500007222146641CF4480068EC3042540122C0
:105760002146641CF0480068EC304254EF4802784F
:105770002146641CEC480068EC304254EB48427807
:105780002146641CE8480068EC304254E7488278BF
:105790002146641CE4480068EC304254E348C27877
:1057A0002146641CE0480068EC304254DF4802792E
:1057B0002146641CDC480068EC304254DB484279E6
:1057C0002146641CD8480068EC30425432222146FD
:1057D000641CD5480068EC30425404222046611C09
:1057E0008CB2D1490968EC310A54D148027820467C
:1057F000611C8CB2CC490968EC310A54CC4842781F
:105800002046611C8CB2C8490968EC310A54C8486A
:1058100082782046611C8CB2C3490968EC310A5475
:10582000C348C2782046611C8CB2BF490968EC317C
:105830000A5436222046611C8CB2BB490968EC31FF
:105840000A5404222046611C8CB2B7490968EC3125
:105850000A54B84802782046611C8CB2B2490968E3
:10586000EC310A54B34842782046611C8CB2AE49F0
:105870000968EC310A54AF4882782046611C8CB22A
:10588000A9490968EC310A54AA48C2782046611C2B
:105890008CB2A5490968EC310A54FF222046611CEC
:1058A0008CB2A1490968EC310A54254605E0002173
:1058B0009D480068EC3041556D1CB5F59C7FF6DBCA
:1058C000FF208DF804008DF805008DF806008DF896
:1058D0000700432001AB4FF4097200909248016821
:1058E00095480078FEF78CF87CBD2DE9FF41924881
:1058F0000078FEF7A3FD071E0BDD01A802AB3A46B8
:105900000090894801688C480078FEF763F987B2F7
:1059100003E0002004B0BDE8F081BDF80400432896
:1059200074D181480068007F80490978884224D179
:105930007D480068407F7D49497888421DD17A487A
:105940000068807F79498978884216D17648006856
:10595000C07F7649C97888420FD17348006890F8B3
:10596000200072490979884207D16F48006890F891
:1059700021006E494979884201D00020CAE74FF0E2
:10598000000869480468F034A7F1F000051989E0BF
:10599000207833284ED007DC70B1012813D00328BB
:1059A00021D0062878D132E0352807D0362861D0BA
:1059B000FF2871D12C4674E0641C72E0641C641CE6
:1059C00014F8018B6DE0641C641C14F8010B5B4936
:1059D000087014F8010B487014F8010B887014F863
:1059E000010BC8705DE0641C14F8016B14F8010B26
:1059F0005349087014F8010B487014F8010B8870B3
:105A000014F8010BC870301F04444AE04DE0641CD8
:105A100014F8016B14F8010B4A49087014F8010BD3
:105A2000487014F8010B887014F8010BC870301F0F
:105A3000044436E0641C14F8016B14F8010B42496D
:105A4000086014F8011B4048006801EB00203E4943
:105A5000086014F8011B3C48006801EB00203A493B
:105A6000086014F8011B3848006801EB0020364933
:105A7000086016E0641C14F8016B14F8010B2D4942
:105A8000087014F8010B487014F8010B887014F8B2
:105A9000010BC87005E0FFE7641C14F8016B344487
:105AA00000BF00BFAC42FFF473AF4FFA88F031E79C
:105AB0000020264908600A20254908600020254961
:105AC0000870704710B50124224890F900000228A0
:105AD00044DA1F4800681D490968884258D21E48A8
