:020000040000FA
:10000000404D0120DD000000E1000000E3000000A1
:10001000E5000000E7000000E9000000000000002B
:10002000000000000000000000000000EB000000E5
:10003000ED00000000000000EF00000027070000B6
:10004000F3000000F3000000000000001B080000A7
:10005000A91F0000C71F0000F3000000F30000000C
:1000600000000000F3000000F3000000F3000000B7
:10007000F300000000000000F3000000F3000000A7
:10008000F3000000F3000000F3000000F3000000A4
:10009000F300000075080000F3000000F30000000A
:1000A000F300000000000000F3000000F300000077
:1000B000000000000000000000000000F30000004D
:1000C000DFF80CD024F0D2FB00480047B91900003B
:1000D000404D012080F30888704700000548004724
:1000E000FEE7FEE7FEE7FEE7FEE7FEE7FEE7FEE7E8
:1000F000FEE7FEE7C1000000F84910F4001F05D03C
:10010000F74A526822F00042F54B5A6010F4801F03
:1001100005D0F34A526822F00052F14B5A6010F4B5
:10012000004F05D0EE4A526822F04002EC4B5A6074
:1001300010F4807F05D0EA4A526822F02002E84B92
:100140005A6010F0010F05D0E54A526822F004020F
:10015000E34B5A6010F4804F05D0E14A526822F018
:100160001002DF4B5A6010F4007F05D0DC4A526861
:1001700022F00302DA4B5A60D94A1268C3430B4398
:100180001A40D74B1A607047D44910F4001F05D0AD
:10019000D34A526842F00042D14B5A6010F4801F9B
:1001A00005D0CF4A526842F00052CD4B5A6010F44D
:1001B000004F05D0CA4A526842F04002C84B5A600C
:1001C00010F4807F05D0C64A526842F02002C44B2A
:1001D0005A6010F0010F05D0C14A526842F0040283
:1001E000BF4B5A6010F4804F05D0BD4A526842F0B0
:1001F0001002BB4B5A6010F4007F05D0B84A526819
:1002000042F00302B64B5A60B54A126820EA010375
:100210001A43B34B1A607047F0B50024002500263E
:1002200000220C281FD80C27B7FBF0FC00FB1C7722
:1002300007B1F0BDAA4F7F68DFF8A8C207EA0C0734
:1002400047F08047DFF898C2CCF804700C27B7FB62
:10025000F0F14F1E47F4887747F4405747F40017F2
:10026000CCF8087084E050282AD00CDC32281BD04F
:1002700004DC1E2810D0302836D111E03C2817D0DD
:10028000462831D118E05A281ED0642820D06E2884
:1002900022D0782828D123E028240225032624E030
:1002A00040240225032620E03224032502261CE0F8
:1002B0003C240325022618E046240325022614E0E8
:1002C00050240325022610E05A24032502260CE0C0
:1002D00032240325012608E037240325012604E003
:1002E0003C240325012600E0A3E700BF4FF480175C
:1002F0003F6827F4F85747F400674FF4801CCCF8A8
:100300000070774F7F68DFF8DCC107EA0C07DFF881
:10031000D0C1CCF80470B70447EA8537274347F0CB
:10032000C057CCF80C706746FF6827F00047CCF840
:100330000C706746FF6847F48007CCF80C7000BF6C
:10034000674FFF6817F0804FFAD0674FDFF890C112
:10035000CCF8087067467F68DFF888C107EA0C07A9
:10036000DFF888C147EA0C07DFF874C1CCF80470E5
:100370005B4F7F68DFF878C107EA0C07A0F1010C3A
:1003800047EA4C37DFF858C1CCF80470594F47435F
:10039000DFF864C1CCF80070514FBF6807F00F0759
:1003A000791C67463F684F43DFF850C1CCF80070B6
:1003B0004B4FBF68C7F30317791C4F4F3F68B7FB1C
:1003C000F1F7DFF83CC1CCF800704B4F3F68DFF825
:1003D00024C1B7FBFCF334275F434FF47A7CB7FBAF
:1003E000FCF7FAB24FF480173F6827F4F85747EA52
:1003F00002274FF4801CCCF8007000BF19E72DE9EC
:10040000F04100250026002700230C2825D84FF0B6
:100410000C0CBCFBF0F800FB18CCBCF1000F01D0B9
:10042000BDE8F081DFF8B8C0DCF804C0DFF8B480C4
:100430000CEA080CDFF8A880C8F804C04FF0300CB4
:10044000BCFBF0F2A2F1010C4CF4887C4CF4405C53
:100450004CF4001CC8F808C0A3E050282AD00CDCDB
:1004600032281BD004DC1E2810D030284AD111E0DD
:100470003C2817D0462845D118E05A281ED06428B9
:1004800020D06E2822D078283CD123E028250226CF
:10049000032738E040250226032734E032250326CF
:1004A000022730E03C25032602272CE046250326C0
:1004B000022728E050250326022724E05A25032698
:1004C000022720E03225032601271CE037250326DA
:1004D000012718E03C250326012714E001813000A4
:1004E00000000648FFE6FFBF103120000001004079
:1004F000FF1F00E040420F004000002044000020A9
:10050000480000208CE700BF4FF4801CDCF800C0DE
:100510002CF4F85C4CF4006C4FF48018C8F800C060
:10052000DFF810C2DCF804C0DFF80C820CEA080C1B
:10053000DFF80082C8F804C04FEA874C4CEA863CDA
:100540004CEA050C4CF0C05CC8F80CC0C446DCF8A2
:100550000CC04CF0004CC8F80CC0C446DCF80CC011
:100560004CF4800CC8F80CC000BFDFF8C8C1DCF840
:100570000CC01CF0804FF8D0DFF8C0C1DFF8B481A8
:10058000C8F808C0C446DCF804C0DFF8AC810CEA47
:10059000080CDFF8AC814CEA080CDFF89881C8F849
:1005A00004C0DFF890C1DCF804C0DFF898810CEAE1
:1005B000080CA0F101084CEA483CDFF87881C8F843
:1005C00004C04FF4002CDCF82C1240F6F63C6145D8
:1005D0000ED240F6BE2C61450AD94FF47A7C01FB5D
:1005E0000CFC0CFB00FC4FF00308BCFBF8F103E033
:1005F000DFF854C100FB0CF1DFF850C1CCF800105B
:10060000DFF830C1DCF808C00CF00F0C0CF101026F
:10061000DFF838C1DCF800C00CFB02FCDFF83081E9
:10062000C8F800C0DFF80CC1DCF808C0CCF3031C2C
:100630000CF10102DFF814C1DCF800C0BCFBF2FCD5
:10064000DFF81081C8F800C0DFF800C1DCF800C096
:10065000DFF8F480BCFBF8F44FF0340C04FB0CFC26
:100660004FF47A78BCFBF8FC0CF0FF034FF4801CCD
:10067000DCF800C02CF4F85C4CEA032C4FF4801832
:10068000C8F800C000BFCBE610B504462046FFF70F
:10069000C3FD10BD032030490860704700202E497B
:1006A0000860704770B52D482249086108464069C6
:1006B00040F0010048610A2000F077FE00201D494B
:1006C00008610846406920F0010048614FF0FF30A2
:1006D000FFF712FD6E20FFF7D7FF2149481EB0F14A
:1006E000807F00D31BE0481E4FF0E022506150177E
:1006F0000722002807DA53071D0E1A4B00F00F04DB
:10070000241F1D5503E053071C0E174B1C5400BF3C
:1007100000204FF0E02290610720106100BFFFF73A
:10072000B9FF70BD704711480068401C0F49086050
:100730007047000000000648FFE6FFBF10312000B0
:1007400000010040FF1F00E040420F004000002079
:10075000440000204800002000D008407462966CDD
:10076000B0AD010018ED00E000E400E04C00002016
:1007700010B50346002002E00C5C1C54401C904263
:10078000FAD310BD10B50346002001E01954401CF7
:100790009042FBD310BD30B503460C46002106E065
:1007A000585C655CA84201D0012030BD491C9142D3
:1007B000F6D30020F9E701460A78CB780B70CA70AF
:1007C0004A788B784B708A70704730B502460B467A
:1007D0001046D518691E05E004780D7800F8015B15
:1007E00001F801498142F7D830BD000010B500245E
:1007F00000BF0EE0A748007838B1142000F08CFD4F
:100800000020A5490870A34908701E2000F084FD4F
:10081000641CB4F57A7FEDD310BDA049C86B10F00D
:10082000100F15D00DE09D4909689D4A9A4B1B7821
:10083000D15499490978491C974A11700121954A68
:1008400011709649896901F010011029EBD110E06F
:1008500010F0200F09D09149896901F080018029A9
:1008600007D101218F4A117003E040F6FF718B4AD6
:10087000516470478C49C86B10F0100F15D00DE013
:1008800089490968864A844B1B78D1548249097882
:10089000491C814A117001217E4A1170824989697F
:1008A00001F010011029EBD110E010F0200F09D059
:1008B0007D49896901F08001802907D10121794AA8
:1008C000117003E040F6FF71774A516470472DE9DB
:1008D000F04103461001B1FBF0F5B1FBF0F700FB6E
:1008E0001716F701B7FBF0F7781C440805EB9417CF
:1008F00003EB430CDFF8A48108EB8C4CCCF824709C
:1009000004F03F0703EB430C08EB8C4CCCF8287049
:10091000BDE8F08170B504460E467CB963480568B1
:100920006348C06A20F00F00401D6149C86203207F
:1009300000F0A7F8032000F098F816E05C48806803
:10094000C0F30360401C5B490968B1FBF0F55848EF
:10095000406B20F4701040F4A010554948631520F6
:1009600000F08FF8152000F080F800204D49087045
:100970004849087004EB4400484901EB8040006B93
:1009800020F0010004EB4401444A02EB814108637A
:10099000324629462046FFF79AFF602004EB4401C7
:1009A0003E4A02EB8141C86240F2013004EB44014F
:1009B00002EB81410863102004EB440102EB81410A
:1009C000886340F6FF7004EB440102EB8141486408
:1009D0004FF47A7000F082FC70BD00EB40022F4BA8
:1009E00003EB8242116000BF00EB40022B4B03EB94
:1009F0008242926912F0080FF6D17047F0B50746AF
:100A00000C461546002606E014F8011B3846FFF791
:100A1000E4FF701CC6B2AE42F6D3F0BD10B504467A
:100A200009E0207830B1012221460020FFF7E6FFDF
:100A3000641C00E010BDF4E730B504460D46E1B299
:100A40000120FFF7CAFF204630BD70B505460E46AF
:100A5000002404E0295D18A024F046F9641CB44287
:100A6000F8D317A024F040F970BD00F01F02012157
:100A7000914042094FF0E02303EB8202C2F80011DB
:100A8000704700F01F02012191400E4A430942F8CD
:100A90002310704751000020520000200000014840
:100AA000C40300205000002000000D484800002032
:100AB0000000064844000020253032582000000085
:100AC0000A00000080E200E070B505460C466FF3B6
:100AD00008050AE028464C498847B4F5007F00D253
:100AE00070BD05F50075A4F50074002CF2D100BFAF
:100AF000F6E72DE9F04107460E4615466FF3080765
:100B0000B6F5007F02D94FF4007602E0042E00D241
:100B1000042600241CE0002000EB8400285C012156
:100B200001EB8401695C00EB0120022101EB8401EF
:100B3000695C00EB0140032101EB8401695C00EB7F
:100B4000016807EB840041462F4A323A9047641C03
:100B5000B4EB960FDFD3BDE8F08110B503466FF319
:100B60000803B1F5007F02D94FF4007102E00429B7
:100B700000D20421002004E053F820401460121D2C
:100B8000401CB0EB910FF7D310BD2DE9F04706469E
:100B90000F46154639463046FFF796FF6FF30806B5
:100BA000B7F5007F02D94FF4007702E0042F00D29E
:100BB0000427002423E0002000EB8400285C0121AE
:100BC00001EB8401695C00EB0120022101EB84014F
:100BD000695C00EB0140032101EB8401695C00EBDF
:100BE000016806EB84004146074A323A904756F8BE
:100BF0002490C84502D00120BDE8F087641CB4EB06
:100C0000970FD8D30020F7E76B1C00122DE9FE4F99
:100C100006460F4692469B46F9A103C9CDE901015C
:100C2000F9A00068009040220021F848FFF7AAFDD3
:100C3000002405E001A8005DF4490855601CC4B219
:100C4000052CF7DBB0464646642098FBF0F03030C8
:100C5000C2B22046611CCCB2EC490A54642098FB15
:100C6000F0F100FB11600A2190FBF1F03030C2B2CC
:100C70002046611CCCB2E5490A540A2098FBF0F1E9
:100C800000FB11603030C2B22046611CCCB2DF499B
:100C90000A542C222046611CCCB2DC490A54B946C5
:100CA0004F46642099FBF0F03030C2B22046611C00
:100CB000CCB2D6490A54642099FBF0F100FB1170C4
:100CC0000A2190FBF1F03030C2B22046611CCCB258
:100CD000CE490A540A2099FBF0F100FB1170303024
:100CE000C2B22046611CCCB2C8490A542C2220460C
:100CF000611CCCB2C5490A5427222046611CCCB2E3
:100D0000C2490A54002506E01AF805006119BF4AD5
:100D10005054681CC5B21AF805000028F4D16019B7
:100D2000C4B227222046611CCCB2B8490A542C22F6
:100D30002046611CCCB2B5490A540A209BFBF0F056
:100D40003030C2B22046611CCCB2B0490A540A20ED
:100D50009BFBF0F100FB11B03030C2B22046611CA9
:100D6000CCB2AA490A54002506E01DF80500611915
:100D7000A64A5054681CC5B2042DF6DB6019C4B2F3
:100D8000A248BDE8FE8F2DE9FF4F83B006460F460F
:100D90009246DDF840B09AA103C9CDE901019AA0BD
:100DA00000680090402200219848FFF7EBFC0024E7
:100DB00005E001A8005D95490855601CC4B2052CEA
:100DC000F7DBB0464646642098FBF0F03030C2B204
:100DD0002046611CCCB28D490A54642098FBF0F186
:100DE00000FB11600A2190FBF1F03030C2B22046C6
:100DF000611CCCB285490A540A2098FBF0F100FB33
:100E000011603030C2B22046611CCCB27F490A5416
:100E10002C222046611CCCB27C490A54B9464F466C
:100E2000642099FBF0F03030C2B22046611CCCB295
:100E300076490A54642099FBF0F100FB11700A21F5
:100E400090FBF1F03030C2B22046611CCCB26F4949
:100E50000A540A2099FBF0F100FB11703030C2B245
:100E60002046611CCCB269490A542C222046611CE0
:100E7000CCB266490A5427222046611CCCB2634991
:100E80000A54002506E01AF8050061195F4A50541B
:100E9000681CC5B206988542F5D36019C4B22722F2
:100EA0002046611CCCB259490A542C222046611CB0
:100EB000CCB256490A540A209BFBF0F03030C2B243
:100EC0002046611CCCB251490A540A209BFBF0F128
:100ED00000FB11B03030C2B22046611CCCB24B498D
:100EE0000A54002506E01DF805006119474A5054D0
:100EF000681CC5B2042DF6DB6019C4B2434807B0C4
:100F0000BDE8F08F2DE9FE4F06460F4692469B4600
:100F10003FA103C9CDE901013BA000680090402238
:100F200000213A48FFF72EFC002405E001A8005DEF
:100F300036490855601CC4B2052CF7DBB04646465E
:100F4000642098FBF0F03030C2B22046611CCCB275
:100F50002E490A54642098FBF0F100FB11600A212D
:100F600090FBF1F03030C2B22046611CCCB2274970
:100F70000A540A2098FBF0F100FB11603030C2B235
:100F80002046611CCCB221490A542C222046611C07
:100F9000CCB21E490A54B9464F46642099FBF0F082
:100FA0003030C2B22046611CCCB218490A546420C9
:100FB00099FBF0F100FB11700A2190FBF1F0303049
:100FC000C2B22046611CCCB210490A540A2099FBD7
:100FD000F0F100FB11703030C2B22046611CCCB27F
:100FE0000A490A542C222046611CCCB207490A54F3
:100FF00027222046611CCCB204490A54002512E085
:101000004443313628000000293B0D0AF803002034
:1010100044433234280000001AF805006119854A5B
:101020005054681CC5B21AF805000028F4D16019A4
:10103000C4B227222046611CCCB27E490A542C221D
:101040002046611CCCB27B490A540A209BFBF0F07D
:101050003030C2B22046611CCCB276490A540A2014
:101060009BFBF0F100FB11B03030C2B22046611C96
:10107000CCB270490A54002506E01DF8050061193C
:101080006C4A5054681CC5B2042DF6DB6019C4B21A
:101090006848BDE8FE8F2DE9FE4F06460F46924692
:1010A0009B4665A103C9CDE90101AFF2A400006828
:1010B0000090402200215F48FFF764FB002405E018
:1010C00001A8005D5B490855601CC4B2052CF7DB24
:1010D000B0464646642098FBF0F03030C2B220465D
:1010E000611CCCB253490A54642098FBF0F100FB18
:1010F00011600A2190FBF1F03030C2B22046611C31
:10110000CCB24C490A540A2098FBF0F100FB116064
:101110003030C2B22046611CCCB246490A542C225F
:101120002046611CCCB243490A54B9464F4664205C
:1011300099FBF0F03030C2B22046611CCCB23D4980
:101140000A54642099FBF0F100FB11700A2190FB16
:10115000F1F03030C2B22046611CCCB235490A549D
:101160000A2099FBF0F100FB11703030C2B220462A
:10117000611CCCB22F490A542C222046611CCCB2EF
:101180002C490A5427222046611CCCB229490A5412
:10119000002506E01AF805006119264A5054681C1B
:1011A000C5B21AF805000028F4D16019C4B227228C
:1011B0002046611CCCB21F490A542C222046611CD7
:1011C000CCB21C490A540A209BFBF0F03030C2B26A
:1011D0002046611CCCB217490A540A209BFBF0F14F
:1011E00000FB11B03030C2B22046611CCCB21149B4
:1011F0000A54002506E01DF8050061190D4A5054F7
:10120000681CC5B2042DF6DB6019C4B20948BDE8FC
:10121000FE8F10B504462046FFF700FCFFF7E6FA04
:1012200010BD10B506A0FFF7F4FF08A0FFF7F1FF0F
:1012300010BD0000F80300204443333228000000B2
:10124000434C522830293B0D0A00000044495228E3
:1012500031293B0D0A0000001448006B20F47F4048
:10126000124908631248006820F4700010490860B1
:101270000846406940F470004861704770B500BF8F
:101280000B48406900F47004012000F027F808487A
:10129000406900F47005B4F5700FF1D0B5F5700F2A
:1012A000EED0AC42ECD1204670BD000000000648F4
:1012B00000000A484048006820F000603E4908608D
:1012C0003E48806820F001003C4988601E2088600C
:1012D0000846006D20F007000865704710B5384BD0
:1012E0001A68364B9B6823F00103344CA3604FF41B
:1012F0007A73B2FBF3F141434B1E236023469B6894
:1013000043F00103A36000BF2C4BDB68002BFBD034
:10131000FF232A4C236110BD10B5294B1A68274BB7
:101320009B6823F00103254CA360264BB2FBF3F12D
:1013300041434B1E236023469B6843F00103A36097
:1013400000BF1E4BDB68002BFBD0FF231B4C23612F
:1013500010BD1A48806820F00100184988603220CA
:1013600008600846806840F00100886000BF1348AC
:10137000C0680028FBD0FF201049086170470F4863
:10138000806820F001000D498860AF2008600846A1
:10139000806840F00100886000BF0848C0680028ED
:1013A000FBD0FF2005490861704700BF0100A0F194
:1013B0000100FBD170470000000006480000034810
:1013C0004800002040420F00FE48406B20F0707043
:1013D000FC494863FC48006840F4C050FA49086082
:1013E000F848406B20F00300F6494863F64800686F
:1013F00040F00100F44908600846C06840F400600D
:10140000C8600846806840F4805088600846C0681C
:1014100040F00100C860704770B504460E46EA48C7
:10142000C06840F00100E849C8600A20FFF7BDFF2E
:10143000E548806840F00100E349886004F0FE045C
:101440000846006840F4805008600A20FFF7ADFFAE
:10145000002524E014F0010F06D0DB48806840F43A
:101460008050D949886005E0D748C06840F4805072
:10147000D549C860D448806840F40060D24988608B
:101480000A20FFF792FFD048C06840F40060CE49C0
:10149000C8600A20FFF789FF6410681CC5B2082DD8
:1014A000D8DB002524E016F0010F06D0C64880687E
:1014B00040F48050C449886005E0C348C06840F4E7
:1014C0008050C149C860C048806840F40060BE498F
:1014D00088600A20FFF769FFBB48C06840F40060DD
:1014E000B949C8600A20FFF760FF7610681CC5B2D2
:1014F000082DD8DBB448C06840F00100B249C8608C
:1015000070BD70B504460025AF48C06840F00100CA
:10151000AD49C8600A20FFF748FFAB48806840F03B
:101520000100A949886044F001040846006840F4BD
:10153000805008600A20FFF738FF002624E014F0EE
:10154000010F06D0A048806840F480509E49886012
:1015500005E09D48C06840F480509B49C8609A48A7
:10156000806840F40060984988600A20FFF71DFFFA
:101570009548C06840F400609349C8600A20FFF7AE
:1015800014FF6410701CC6B2082ED8DB8E480068A9
:1015900020F480508C4908600A20FFF706FF0026DF
:1015A0001EE06D108848406910F4805F02D045F05D
:1015B000800501E005F07F058348806840F4006005
:1015C000814988600A20FFF7F0FE7F48C06840F438
:1015D00000607D49C8600A20FFF7E7FE701CC6B2B4
:1015E000082EDEDB7848C06840F001007649C8600C
:1015F000284670BD10B5044600218E20FFF70CFF71
:1016000080210846FFF708FF61788C20FFF704FF70
:10161000A1788820FFF700FFE1788620FFF7FCFE25
:1016200021798420FFF7F8FE61798220FFF7F4FE2C
:10163000A1798020FFF7F0FEE1798A20FFF7ECFE28
:1016400080218E20FFF7E8FE10BD10B504468C20E7
:10165000FFF757FF60708820FFF753FFA0708620C8
:10166000FFF74FFFE0708420FFF74BFF20718220CF
:10167000FFF747FF60718020FFF743FF00F07F0016
:10168000A0718A20FFF73DFFE07110BD1CB5044634
:101690006846FFF7DAFF9DF80100001100EB8000BB
:1016A0004FF4FA6101EB40009DF8011001F00F01C9
:1016B0000844A0809DF8020000F00F009DF8021081
:1016C000091101EB810100EB4100A0719DF80300BD
:1016D00000F00F009DF80310091101EB810100EBF0
:1016E0004100E0719DF8040000F00F009DF8041027
:1016F000091101EB810100EB410020709DF805000C
:1017000000F00F009DF80510091101EB810100EBBD
:10171000410060709DF8060000F00F009DF8061073
:10172000091101EB810100EB4100A0709DF8070059
:1017300000F0070020721CBD0146002203E0521C8D
:10174000A1F10A00C1B20A29F9D2100741EA1060DA
:101750007047014600BF080900EB8000420001F01D
:101760000F001044C0B270470146CA1701EB9272D5
:101770009210B1EB820212D1642091FBF0F200FBD7
:10178000121050B94FF4C87091FBF0F200FB121028
:1017900008B9012070470020FCE70120FAE700208B
:1017A000F8E7F0B503460C461546642093FBF0F0CD
:1017B000C6B2642093FBF0F700FB1730C1B2132EC2
:1017C00007DD03E00000064800000B4801F164005B
:1017D000C1B20846CF1701EB977701EBA7020720AC
:1017E00092FBF0F700FB172082B25719601EDFF85A
:1017F000B0C11CF80000384482B2CF1701EB9777D4
:10180000BF10B1EB870703D1032C01DA501E82B25F
:10181000072092FBF0F700FB1720C0B2F0BD2DE9C6
:10182000F04104460D464FF0000637465D4A4FF042
:1018300000032046294622F048FB06465A48008805
:10184000B0423CD058490E8040F2B27710E03846A2
:10185000FFF78AFF40B1B6F5B77F02D3A6F5B7769A
:1018600004E0781C87B206E0A6F26D16781C87B2F9
:10187000B6F5B67FEBD800BF4C488780002716E04E
:101880004A498888FFF770FF30B1012F04D11D2E1F
:1018900001D31D3E09E00CE04548C05DB04203D8CD
:1018A0004348C05D361A00E003E0781C87B21C2E66
:1018B000E6D200BF781C3D498871701CC871394A56
:1018C00000232046294622F000FB16464FF46160B3
:1018D000B6FBF0F0354908704FF46160B6FBF0F1EB
:1018E00000FB11603C21B0FBF1F0304948704FF42F
:1018F0006160B6FBF0F100FB11603C21B0FBF1F23E
:1019000001FB1200294988700B46DA799979988889
:10191000FFF747FF2549087208468088642190FB3D
:10192000F1F0C3B21846FFF707FF224908701F48BD
:101930008088642190FBF1F201FB1200C3B21846CB
:10194000FFF7FAFE1B49487018498879FFF7F4FE43
:10195000184988701549C879FFF7EEFE1549C87017
:10196000124909780831C8B2FFF7E6FE114908713B
:101970000E494878FFF7E0FE0E4948710B49887818
:10198000FFF7DAFE0B4988710849087AFFF7D4FEA1
:101990000849C8710846FFF72DFE0020BDE8F08118
:1019A0000C63020080510100640000203804002014
:1019B000186302005C000020002080F3108800BF44
:1019C000FEF770FEFFF776FC4FF4E1310020FEF7E2
:1019D000A1FF00F0D7FC04F0B1FBFFF7F5FCFFF727
:1019E0003BFC00F007F800F016F801E001F073F995
:1019F000FCE7000000B5ADF5017D01AA4FF40071D0
:101A00008048FFF7AAF89DF804007F4981F840005C
:101A10000DF5017D00BD70B5ADF5007D002601F02E
:101A200083FB4FF400720021774800F02AFD6A46DC
:101A30004FF40071744800F06AFA4FF4007269467E
:101A4000714822F0ABFA4FF4FF716F4800F0EAF9E9
:101A500004466D4890F8FF016B4991F8FE1100EBC8
:101A6000012085B26848B0F84100A0F550513539E1
:101A700002D1AC4200D1012626B921F0F1FA0120B1
:101A80006249087001F024FB21F0B0FB00F0C0F8BF
:101A900001F054FB0DF5007D70BD30B5ADF5017D55
:101AA00003255A480078012805D101F0D3FB1C20FA
:101AB0000DF5017D30BD02F027F908E02800A5F101
:101AC0000101CDB203D101F0AAFB1720F0E721F00C
:101AD000F9FA0028F2D121F0FEFB21F055FC044672
:101AE00024B1204601F0D6FD2046E1E7002002F0B7
:101AF000B5FBB0F5500F01D11820D9E721F012FE47
:101B000004460F2C04D0204601F0F0FD2046CFE71C
:101B100021F098FF04463C4890F840008DF80400FE
:101B200001AA4FF400713748FFF72FF8162C04D0A4
:101B3000204601F007FE2046BAE7002002F0F5F843
:101B40002046B5E770B5032430480078012803D15A
:101B500001F080FB1C2070BD02F0D6F808E02000E8
:101B6000A4F10101CCB203D101F059FB1720F2E737
:101B700021F0A8FA0028F2D121F058FD054621F005
:101B800081FA284602F02AF92846E4E710B504460F
:101B9000204601F083FA01F0AFFA10BD10B5012024
:101BA00002F05CFBB0F5500F01D1182010BD02F01F
:101BB000ABF821F004FB012803D101F030FB172022
:101BC000F4E7012002F0B1F800201049087000BFCE
:101BD000ECE710B5022002F041FBB0F5500F01D147
:101BE000182010BD09480078012803D101F032FB0C
:101BF0001C20F6E722F0DAF80446204602F0BCF892
:101C00002046EEE7000208004204002066000020A3
:101C100000B589B004226DA101A822F016FA6C4823
:101C200000789DF80410884219D16948401C00785A
:101C30009DF80510884212D16548801C00789DF8F7
:101C4000061088420BD14FF43F306249086060486B
:101C5000614908605E4820306049086006E06048DD
:101C60005C4908605C4908605C49086009B000BDD7
:101C700059480068704710B50446272259A12046EC
:101C800022F08CF90020206442F2B320A4F8440032
:101C900010BD70B504464F48006822F0EBF9451CB2
:101CA0002A464C480168204622F0CFF94A4800688D
:101CB00022F0E0F9451C2A464748016804F120005B
:101CC00022F0C3F94548006822F0D4F9451C2A46A1
:101CD0004248016804F1400022F0B7F970BD10B528
:101CE00004464021204622F080F9402104F14000C2
:101CF00022F07BF9502104F1800022F076F910BD2A
:101D000030B591B004460025402101A822F06DF9BC
:101D100012223EA1204622F041F900BF17E04021E7
:101D200001A822F062F93E4800EB85112A480368B9
:101D30002848026801A822F0FBFF04F1400101EBF2
:101D40008510402201A922F029F9681CC5B2042D92
:101D5000E5DB002084F840014FF47A70A4F84201DA
:101D6000012084F8410140F6640104F6461022F097
:101D70003CF940F66400A4F844014FF4006104F516
:101D8000A37022F032F911B030BD70B590B00546A5
:101D90000C464021684622F028F9A4B10E48036899
:101DA0000C4821460268684622F0C2FF40212846BE
:101DB00022F01BF9684622F05DF906463246694674
:101DC000284622F0EBF810B070BD0000534C5900CB
:101DD00020FC0200680000206C0000207000002041
:101DE00074000020473043374A305A33424F2E693F
:101DF0006F74636C6F75642E74656E63656E746466
:101E00006576696365732E636F6D0000246F74617E
:101E10002F7265706F72742F25732F257300000069
:101E20002463020010B502460B464FF6FF7109E02D
:101E300010784840C0B20F4C34F8100080EA2121DD
:101E40005B1E521C002BF3D1C84380B210BD10B5ED
:101E5000034609E008785840C0B2064C34F8100038
:101E600080EA2323521E491C002AF3D1D84380B2B2
:101E700010BD0000246402002DE9F047C6B00646FC
:101E80000C4617464FF00008C2462046E11704EB07
:101E900011710911A4EB0111C1F1100ABAF1100F6F
:101EA00003D0012046B0BDE8F0872046E11704EBDF
:101EB00011714FEA2119684608F0DAFB802239498E
:101EC000684608F0EAFB8046B8F1000F04D0684687
:101ED00008F0D8FB0220E5E7002511E007EB051329
:101EE00006EB05120121684609F0DBFA8046B8F1DD
:101EF000000F04D0684608F0C5FB0320D2E76D1C34
:101F00004D45EBD3684608F0BDFBE0B2CAE72DE9CA
:101F1000F047C6B006460C4617464FF00008C246CA
:101F20002046E11704EB11710911A4EB0111C1F175
:101F3000100ABAF1100F03D0012046B0BDE8F087B7
:101F40002046E11704EB11714FEA2119684608F0A9
:101F50008FFB80221349684608F09EFC8046B8F14A
:101F6000000F04D0684608F08DFB0220E5E700254D
:101F700011E007EB051306EB05120021684609F096
:101F800090FA8046B8F1000F04D0684608F07AFB5A
:101F90000420D2E76D1C4D45EBD3684608F072FB78
:101FA000E0B2CAE77A000020F048806910F0020F22
:101FB00008D00120EE490870EC48806940F002002A
:101FC000EA4988617047EB48806910F0020F08D039
:101FD0000120E9490870E748806940F00200E549BE
:101FE0008861704770B504460D4684B9042000F03E
:101FF000B3F9042000F0A4F9E048C06A4FF6F0718C
:10200000884345F210510844DC49C86214E00520B9
:1020100000F0A2F9052000F093F9D848C06A20F03A
:10202000704040F0A040D549C8620846006B20F0DF
:10203000FF0040F055000863A800CC494FF48032FF
:1020400002FB04118860012C06D140F20220C7492E
:1020500002FB0411486007E040F20220C3494FF43C
:10206000803202FB041148600120C049020402FBD7
:1020700004118862BD48114601FB0400806840F0ED
:102080000100BA4902FB0411886070BD0021B74A03
:102090004FF4803303FB0022516270470121B34AA1
:1020A0000B0403FB00225162704770B5C2F30902B2
:1020B000AE4C4FF4803505FB0044A46944F00204A3
:1020C000AA4D4FF4803606FB0055AC61A74C35464F
:1020D00005FB00442262A54C05FB0044246944F042
:1020E0000104A24D06FB00552C6101249F4D06FB07
:1020F00000556C62002310E000BF9C4C4FF480350B
:1021000005FB0044A46914F0100FF6D1974C05FBB1
:10211000004424780C70491C5B1C9342ECD300BF34
:10212000924C4FF4803505FB0044A46914F0020F73
:10213000F6D08E4C05FB0044A46944F002048B4D9C
:102140004FF4803606FB0055AC61884C354605FBE4
:102150000044246924F00104844D06FB00552C61E1
:1021600070BD70B5C2F30902804C4FF4803505FB99
:102170000044A46944F002047C4D4FF4803606FB11
:102180000055AC61794C354605FB00442262774C22
:1021900005FB0044E46844F00104744D06FB00555F
:1021A000EC600124714D06FB00556C62002312E0C7
:1021B00000BF6E4C4FF4803505FB0044A46914F059
:1021C000080FF6D10C78694D4FF4803606FB0055A8
:1021D0002C70491C5B1C9342EAD300BF634C4FF444
:1021E000803505FB0044A46914F0020FF6D05F4C63
:1021F00005FB0044A46944F002045C4D4FF48036B2
:1022000006FB0055AC61594C354605FB0044E468BB
:1022100024F00104554D06FB0055EC6070BDF0B58F
:102220000024524D4FF4803606FB0055AD6945F051
:1022300002054E4E4FF4803707FB0066B5614B4DEB
:102240003E4606FB00552B62484D06FB0055ED68E7
:1022500045F00105454E07FB0066F560434D3E46DF
:1022600006FB00552D6945F00105404E07FB006651
:10227000356101253D4E07FB0066756222E09C42F8
:1022800011D23A4D4FF4803606FB0055AD6915F07A
:10229000080F08D10D78354E4FF4803707FB0066E4
:1022A0003570491C641C314D4FF4803606FB0055D7
:1022B000AD6915F0100F05D12C4D06FB00552D789A
:1022C0001570521C294D4FF4803606FB0055AD6940
:1022D00015F0020FD3D007E0244D4FF4803606FBF3
:1022E00000552D781570521C204D4FF4803606FB9A
:1022F0000055AD6915F0100FEED01C4D06FB0055D2
:10230000AD6945F00205194E4FF4803707FB0066B2
:10231000B561164D3E4606FB0055ED6825F00105FA
:10232000124E07FB0066F560104D3E4606FB005559
:102330002D6925F001050D4E07FB00663561F0BDE6
:1023400000F01F020121914042094FF0E02303EB0E
:102350008202C2F80011704700F01F020121914073
:10236000074A430942F82310704700000000064066
:102370008A000020000007408B0000200000064873
:1023800080E200E010B500210846FFF72BFEF74879
:10239000C06A20F44050F549C862F548006840F032
:1023A0004000F34908600846C06840F04000C8603B
:1023B000EE48C06A20F0C000EC49C862EC480068F2
:1023C00040F00800EA4908600846806840F00800CC
:1023D0008860E648C06A20F44040E449C862E448A6
:1023E000006840F08000E24908600846806840F0DC
:1023F0008000886010BD08B500BFDE4890F840003E
:1024000020B1DC4890F8400002280BD1D848C068C1
:1024100040F00800D649C8600846806840F0800057
:1024200088600AE0D248C06840F08000D049C860A7
:102430000846806840F00800886000BF9020CE49C0
:102440000870002048708870C8700422FFF789FE69
:10245000022269460020FFF728FE00BFC4488068BA
:1024600040F00800C24988600846806840F080005B
:10247000886000BF9DF801009DF8001040EA01202F
:1024800008BD2DE9F04107460D46164600BFB94884
:1024900090F8400020B1B74890F8400002280BD1D6
:1024A000B348C06840F00800B149C8600846806879
:1024B00040F0800088600AE0AD48C06840F08000CD
:1024C000AB49C8600846806840F00800886000BFDB
:1024D0000320A9490870280C4870280A8870CD701C
:1024E00004220020FFF73DFE4FEA1628002408E0F2
:1024F00007EB04214FF480720020FFF7D6FD601C2B
:1025000084B24445F4D316F0FF0F05D0F2B207EBC6
:1025100004210020FFF7C9FD00BF9548806840F006
:102520000800934988600846806840F08000886011
:1025300000BFBDE8F08110B500BF8E4890F84000A4
:1025400020B18C4890F8400002280BD18848C06820
:1025500040F008008649C8600846806840F0800066
:1025600088600AE08248C06840F080008049C86006
:102570000846806840F00800886000BF06207E4959
:10258000087001220020FFF7ECFD00BF784880684A
:1025900040F00800764988600846806840F0800076
:1025A000886000BF10BD10B500BF724890F84000B1
:1025B00020B1704890F8400002280BD16C48C068E8
:1025C00040F008006A49C8600846806840F0800012
:1025D00088600AE06648C06840F080006449C860CE
:1025E0000846806840F00800886000BF0420624907
:1025F000087001220020FFF7B4FD00BF5C4880682E
:1026000040F008005A4988600846806840F0800021
:10261000886000BF10BD10B500BF564890F840005C
:1026200020B1544890F8400002280BD15048C068AF
:1026300040F008004E49C8600846806840F08000BD
:1026400088600AE04A48C06840F080004849C86095
:102650000846806840F00800886000BF05204649B1
:10266000087001220020FFF77CFD01224249002072
:10267000FFF71BFD00BF3E48806840F008003C4962
:1026800088600846806840F08000886000BF3A4853
:10269000007810BD10B54FF4FA7409E00120FEF780
:1026A0001DFEFFF7B8FF10F0010F01D1002010BD93
:1026B0002000A4F101018CB2F0D10120F7E710B5A0
:1026C00004462403FFF737FFFFF7E4FF08B10120BA
:1026D00010BD00BF274890F8400020B1254890F871
:1026E000400002280BD12248C06840F00800204971
:1026F000C8600846806840F0800088600AE01C4896
:10270000C06840F080001A49C8600846806840F000
:102710000800886000BF202017490870200C48700E
:10272000200A8870CC7004220020FFF71AFD00BF39
:102730000F48806840F008000D49886008468068AE
:1027400040F08000886000BFFFF7A4FF08B10120BF
:10275000BEE70020BCE710B504462404FFF7EBFEFB
:10276000FFF798FF50B1012010BD0000000006489F
:1027700000000A48420400204206002000BFB8487A
:1027800090F8400020B1B64890F8400002280BD1E4
:10279000B448C06840F00800B249C8600846806884
:1027A00040F0800088600AE0AE48C06840F08000D9
:1027B000AC49C8600846806840F00800886000BFE7
:1027C000D820A9490870200C4870200A8870CC7065
:1027D00004220020FFF7C5FC00BFA248806840F03B
:1027E0000800A04988600846806840F08000886042
:1027F00000BFFFF74FFF08B10120B5E70020B3E7A6
:1028000010B5FFF798FEFFF745FF08B1012010BD96
:1028100000BF934890F8400020B1914890F84000E4
:1028200002280BD18F48C06840F008008D49C8606D
:102830000846806840F0800088600AE08948C068E7
:1028400040F080008749C8600846806840F0080072
:10285000886000BFC7208449087001220020FFF76C
:1028600080FC00BF7F48806840F008007D49886098
:102870000846806840F08000886000BFFFF70AFFCC
:1028800008B10120C3E70020C1E770B505460C463A
:102890001646FFF750FE00BF714890F8400020B187
:1028A0006F4890F8400002280BD16E48C06840F095
:1028B00008006C49C8600846806840F08000886065
:1028C0000AE06848C06840F080006649C860084671
:1028D000806840F00800886000BF022062490870EC
:1028E000200C4870200A8870CC7004220020FFF76A
:1028F00038FC324629460020FFF733FC00BF594818
:10290000806840F00800574988600846806840F0B9
:102910008000886000BFFFF7BDFE08B1012070BDD8
:102920000020FCE72DE9F04107460E461446F0B2C0
:10293000C0F58075AC4200DC254616E02A463146DB
:102940003846FFF7A2FF10B10120BDE8F081AC428C
:1029500000D10BE02F442E44601B84B2B4F5807F7D
:1029600002DD4FF4807500E02546E7E700BF002058
:10297000EBE72DE9F05F814688461646DFF8ECB0BC
:102980004FEA1837C8F30B0ACAF58054A64200DC98
:10299000344661E039034FF480525846FFF771FD29
:1029A000002508E00AEB05001BF80000FF2800D016
:1029B00003E0681C85B2A542F4DB00BFA5422ADA19
:1029C0003846FFF77CFE40B1FFF7DCFC3846FFF7E6
:1029D00076FE10B10120BDE8F09F002507E019F850
:1029E000050005EB0A010BF80100681C85B2A54241
:1029F000F5DB39034FF480525846FFF793FFD0B10F
:102A0000FFF7C0FC39034FF480525846FFF78AFFA6
:102A100088B10120DFE7224641464846FFF782FFA2
:102A200048B1FFF7AFFC224641464846FFF77AFF20
:102A300008B10120CFE7A64200D10EE07F1C4FF085
:102A4000000AA144A044301B86B2B6F5805F02DDC7
:102A50004FF4805400E034469CE700BF0020BAE702
:102A60004204002000000A484206002052060020CE
:102A70002DE9F04704464FF00008F548006800785B
:102A8000F4490870F4480078F4490870F448007874
:102A900000283ED0F3A0FDF7C1FFFDF7A7FEF4A08C
:102AA000FDF7BCFFFDF7A2FE00BFEB4807782BE067
:102AB00008F10100F8490978884202D14FF006096F
:102AC00001E04FF0040907EB470000EB0710E04B73
:102AD0001B6803EB8000401CC4EB041300EB4302B3
:102AE00008EBC8003C2303EB80014B46A020FEF717
:102AF00009FA8246FDF792FFFDF778FE08F1010022
:102B000000F0FF08781CC7B2E44800788742CFDBAA
:102B10007FE0E3480078401EC5B2CF4800782844E3
:102B200000EB400303EB0010C94B1B6803EB800074
:102B3000401CC4EB041300EB430205EBC5003C232F
:102B400003EB80010023A020FEF7DCF98246FDF7AD
:102B500065FFFDF74BFEC0480078284400EB4003BA
:102B600003EB0010BA4B1B6803EB8000401CC4EB66
:102B7000041300EB430205EBC5003C2303EB80018B
:102B80000423A020FEF7BEF98246FDF747FFFDF7BC
:102B90002DFEC1480078401EC6B2AF4800783044D0
:102BA00000EB400303EB0010A94B1B6803EB800014
:102BB000401CC4EB041300EB430206EBC6003C23AD
:102BC00003EB80010023A020FEF79CF98246FDF76D
:102BD00025FFFDF70BFEA0480078304400EB4003D2
:102BE00003EB00109A4B1B6803EB8000401CC4EB06
:102BF000041300EB430206EBC6003C2303EB800109
:102C00000623A020FEF77EF98246FDF707FFFDF7B9
:102C1000EDFD0020A34908709F480078A049087086
:102C2000BDE8F08710B553E00024FEF727FB04460B
:102C3000B4F5600F28D19C48007800EB400101EB0F
:102C400000108349096801EB800090F848000628CD
:102C500018D2DFE800F00603090C1014FEF71DFF80
:102C600011E0FEF7B6FF0EE0FEF76CFF0BE0002070
:102C7000FEF78CFF07E00120FEF788FF03E0FEF778
:102C80008DFF00E000BF23E0B4F5500F20D186484F
:102C900000787149087084480078401D7F490870A9
:102CA000084600786B490978884210DD6948007849
:102CB0007A49087067480078052805DB6548007880
:102CC000401F6549087002E000206349087000E079
:102CD000AAE700BF10BD05E00024FEF7CFFA0446C6
:102CE00004B100E0F8E700BF4FF49670FEF7F6FA83
:102CF0006E485749086000206B49087056490870B3
:102D00005348006800785349087008460078052148
:102D100090FBF1F018B105206049087003E04D48C0
:102D200000785E49087001204D4908705A490870C2
:102D300000F0DFF905462846FFF79AFE9BE10024E4
:102D4000FEF79CFA0446B4F5E00F75D0B4F5300FE9
:102D500073D0B4F5500F43D0B4F5600F6ED101209D
:102D6000504908705048007800EB400101EB00101A
:102D70003749096801EB8000006C4D49884202D157
:102D8000FFF750FF2BE04848007800EB400101EBD3
:102D900000102F49096801EB8000006C444988420B
:102DA0001DD041480078434908702B4800784249BB
:102DB00008703A480078414908703B48007800EBB9
:102DC000400101EB00102249096801EB8000006C12
:102DD0001F4908600020344908701F4908708DE0C1
:102DE0000120304908701A480068406C3049884218
:102DF00025D017480068406C2C4988420AD11448F5
:102E00000068406C12490860002027490870124988
:102E100008701CE00E480068406C0D4908602548A9
:102E2000007821490870244800780B49087023482D
:102E300000781A4908700AE050E041E05DE004487B
:102E40000068406C1A49884201D100F077F955E0DA
:102E5000A8020020B0020020AC020020AF02002037
:102E6000B7020020434C522830293B0D0A000000D5
:102E700044433234283131342C34302C27506C65A3
:102E80006173652073656C65637420747970652760
:102E90002C3135293B0D0A00B1020020AD02002083
:102EA000B3020020B2020020AE0200208C000020FD
:102EB00054160020B4020020B5020020B602002003
:102EC0006D480078401E6C49087008460078FF285D
:102ED00003D16A480078401E08700FE06648007809
:102EE000401C6549087008460078644909788842A2
:102EF00002D100206049087000E000BF00BF5E48BA
:102F0000007850BB5E48007838BB5E4800780228E5
:102F100006D15D48007818B900205C49087002E0CD
:102F200001205A4908700020554908705848006827
:102F300000785249087008460078052190FBF1F0AE
:102F400018B105205349087003E04C4800785149F6
:102F500008700120504908707EE0474800784849D1
:102F60000978884211DB444800784A490978884248
:102F70000BDA0020454908703F480078404909783D
:102F8000401A401C4449087066E03B4800783C49C0
:102F90000978884231DA01203C49087036480078C7
:102FA00006281CDC3448007818B901203A4908701A
:102FB00003E0334800783849087000203049087031
:102FC0002E480078052190FBF1F018B10520314919
:102FD000087041E0294800782E4908703CE02848F4
:102FE0000078801F2649087008460078801D29490E
:102FF00008700620284908702EE01F4800782549EF
:103000000978884228DB0120204908701B48007895
:1030100019490978401A052811DA17480078C01DA7
:1030200016490978401A1C49087014480078801F16
:103030001349087011480078164908700CE01048D0
:103040000078801D0E49087008460078801D1149DF
:1030500008700120104908700B480078012801D140
:103060000A49087000F045F805462846FFF700FDBC
:103070006420FEF733F962E6AE020020B0020020C1
:10308000AC020020B3020020B2020020B7020020F0
:10309000A8020020AD020020B102002010B5ADF55D
:1030A000007D04466A464FF400717648FDF755FDF1
:1030B0008DF810406A464FF400717248FDF765FDC7
:1030C000704810300078704908700DF5007D10BD13
:1030D00010B56C48103000786B49087008460078CD
:1030E00030B108460078012802D00120FFF7D6FF52
:1030F00010BD65480078704710B5FEF792F8624839
:103100000078012806D161A0FEF783F867A0FEF7DA
:1031100080F808E05C48007828B96EA0FEF779F8DE
:1031200076A0FEF776F810BD10B5FEF77AF87DA010
:10313000FEF76FF885A0FEF76CF810BD70B50A2099
:10314000FEF7CCF8FEF76DF84F48007801282DD136
:1031500087A0FEF75EF88EA0FEF75BF8FEF788FD0D
:103160000646042332465221D220FDF7CBFE054607
:10317000FEF74FF88DA0FEF74CF8042393A28621AA
:10318000D220FDF7BFFE0546FEF743F891A0FEF7FB
:1031900040F80423974ABA21D220FDF7B3FE054632
:1031A000FEF737F894A0FEF734F82CE09CA0FEF769
:1031B00030F8A2A0FEF72DF8FEF75AFD06460423CC
:1031C00032465221D220FDF79DFE0546FEF721F83A
:1031D000A1A0FEF71EF804237CA28621D220FDF7D1
:1031E00091FE0546FEF715F8A3A0FEF712F804239A
:1031F000804ABA21D220FDF785FE0546FEF709F880
:10320000A5A0FEF706F807E00024FEF737F804460D
:10321000B4F5600F00D100E0F6E700BF70BD10B557
:10322000FDF7FFFF18480078012809D1A4A0FDF799
:10323000F0FFAEA0FDF7EDFFB6A0FDF7EAFF08E056
:10324000BEA0FDF7E6FFC7A0FDF7E3FFCEA0FDF7A8
:10325000E0FF10BD10B5FDF7E4FF0B480078012832
:103260000CD1D3A0FDF7D5FFDAA0FDF7D2FFE4A083
:10327000FDF7CFFFEFA0FDF7CCFF0AE2F7A0FDF7C7
:10328000C8FFFDE100FE0200B802002044433234D2
:10329000283139322C39372C27C9E8D6C3B3C9B9FC
:1032A000A6272C32293B0D0A00000000444332348B
:1032B000283135362C3135312C272D202243616EB3
:1032C00063656C22B7B5BBD8202D272C34293B0D64
:1032D0000A00000044433234283135362C39372C6B
:1032E00027536574205375636365737366756C6CDF
:1032F00079272C32293B0D0A000000004443323468
:10330000283135362C3135312C272D202243616E62
:1033100063656C2252657475726E202D272C3429DA
:103320003B0D0A0044433234283135302C313234DD
:103330002C27C9E8B1B8B3F5CABCBBAFD6D02E2E86
:103340002E272C32293B0D0A000000004443323462
:10335000283135362C3136342C276465766963651F
:1033600020696E69742E2E2E272C32293B0D0A00FF
:1033700044433332283134302C31302C27486F6DA0
:10338000652050616765272C32293B0D0A0000003B
:10339000444332342839302C38322C27446576693E
:1033A00063653A272C34293B0D0A0000444332342C
:1033B0002839302C3133342C2744657669636556BF
:1033C00065723A272C34293B0D0A000056315F31D3
:1033D00000000000444332342839302C3138362C78
:1033E000274669726D776172653A272C34293B0D47
:1033F0000A0000009F040020444332342831363054
:103400002C3232302C272D2022456E746572224ECC
:10341000657874202D272C34293B0D0A000000000C
:1034200044433332283230342C31302C27D6F7D273
:10343000B3272C32293B0D0A0000000044433234EC
:103440002839302C38322C27C9E8B1B8C3FB3A27C9
:103450002C34293B0D0A0000444332342839302CE7
:103460003133342C27C9E8B1B8B0E6B1BE3A272CC5
:1034700034293B0D0A000000444332342839302CF3
:103480003138362C27B9CCBCFEB0E6B1BE3A272C79
:1034900034293B0D0A0000004443323428313530D2
:1034A0002C3232302C272D2022456E746572224E2C
:1034B000657874202D272C34293B0D0A000000006C
:1034C00044433234283132362C38382C27506C653E
:1034D00061736520636865636B206E6574776F72D6
:1034E0006B272C31293B0D0A000000004443323485
:1034F000283134342C3133362C27616E64206E65CC
:1035000074776F726B206361626C65272C31293B85
:103510000D0A000044433234283135302C31383420
:103520002C272D202243616E63656C2252657475D1
:10353000726E202D272C34293B0D0A00444332346F
:10354000283134342C38382C27C7EBBCECB2E9CD09
:10355000F8CFDFCAC7B7F1C1ACBDD3272C31293BA7
:103560000D0A000044433234283136382C313336CA
:103570002C27B2A2BCECB2E9CDF8C2E7D7B4CCACF0
:10358000272C31293B0D0A00444332342831353091
:103590002C3138342C272D202243616E63656C2238
:1035A000B7B5BBD8202D272C34293B0D0A000000CD
:1035B00044433234283135362C39342C274465764F
:1035C0006963652041626E6F726D616C272C3129D1
:1035D0003B0D0A0044433234283133322C31333826
:1035E0002C27506C6561736520466163746F727936
:1035F000205265736574272C31293B0D0A000000A9
:1036000044433234283130322C3138322C27416E49
:103610006420446F776E6C6F6164204669726D77C9
:1036200061726520416761696E272C31293B0D0A63
:103630000000000044433234283135302C32323619
:103640002C272D202243616E63656C2252657475B0
:10365000726E202D272C34293B0D0A00444332344E
:10366000283136382C39342C27C9E8B1B8D7B4CC36
:10367000ACD2ECB3A3272C31293B0D0A000000008B
:103680008FA0FDF7C6FD97A0FDF7C3FD9EA0FDF737
:10369000C0FD10BD7FB5044600200090019002904F
:1036A0000390FDF7BEFD2246A1A1684621F040FB34
:1036B000A348007801280CD1A2A0FDF7AAFD0123A0
:1036C0006A469D219620FDF71DFC0546FDF7A1FDEC
:1036D0000BE0A6A0FDF79DFD01236A469D219620E3
:1036E000FDF710FC0546FDF794FD7FBD7FB5044650
:1036F00000200090019002900390FDF792FD224679
:103700008BA1684621F014FB8D48007801280CD16C
:10371000A0A0FDF77EFD01236A469D219620FDF7BE
:10372000F1FB0546FDF775FD0BE0A5A0FDF771FD6A
:1037300001236A469D219620FDF7E4FB0546FDF72F
:1037400068FD7FBD7FB50446002000900190029087
:103750000390FDF766FD224675A1684621F0E8FA60
:103760007748007801280CD19EA0FDF752FD012377
:103770006A469D219620FDF7C5FB0546FDF749FDEC
:103780000BE0A2A0FDF745FD01236A469D2196208E
:10379000FDF7B8FB0546FDF73CFD7FBD10B588B0D1
:1037A00000240CE004F11E02A1A1684621F0C0FA39
:1037B0006846FDF72EFD0A20FDF790FD641D192CCB
:1037C000F0DB5F480078012803D1A1A0FDF721FDBF
:1037D00002E0A5A0FDF71DFD08B010BD30B589B011
:1037E000A8A0FDF716FDAAA0FDF713FDABA0FDF7FD
:1037F00010FDB0A0FDF70DFDB4A0FDF70AFDB9A0C6
:10380000FDF707FDBDA0FDF704FDC2A0FDF701FD1A
:10381000C6A0FDF7FEFCCCA0FDF7FBFCD0A0FDF799
:10382000F8FC1E2410E0A4F11E0000EB800505EB5F
:10383000D570401000F13102D0A101A821F078FA32
:1038400001A8FDF7E6FCE41C5A2CECDB232410E075
:10385000A4F1190000EB800505EBD570401000F1D4
:103860008602CAA101A821F063FA01A8FDF7D1FCE4
:10387000E41C6E2CECDBC9A0FDF7CBFCCCA0FDF763
:10388000C8FCD0A0FDF7C5FCD3A0FDF7C2FCD7A0B3
:10389000FDF7BFFCDBA0FDF7BCFCE0A0FDF7B9FC29
:1038A000E4A0FDF7B6FCE9A0FDF7B3FCEEA0FDF740
:1038B000B0FCF4A0FDF7ADFCF9A0FDF7AAFCFDE11A
:1038C00044433234283135362C3133382C27C7EB7A
:1038D000BBD6B8B4B3F6B3A7C9E8D6C3272C3129F1
:1038E0003B0D0A0044433234283135362C3138320E
:1038F0002C27B2A2D6D8D0C2CFC2D4D8B9CCBCFE65
:10390000272C31293B0D0A0044433234283135300D
:103910002C3232362C272D202243616E63656C22B7
:10392000B7B5BBD8202D272C34293B0D0A00000049
:103930004572726F7220436F646520256400000039
:10394000B802002044433234283134342C3131352C
:103950002C27476574204669726D77617265204532
:103960007272272C31293B0D0A0000004443323487
:10397000283135362C3131352C27BBF1C8A1B9CCD3
:10398000BCFED0C5CFA2CAA7B0DC272C31293B0D85
:103990000A00000044433234283133322C313135AF
:1039A0002C27446F776E6C6F6164204669726D7767
:1039B00061726520457272272C31293B0D0A000087
:1039C00044433234283139322C3131352C27CFC29F
:1039D000D4D8B9CCBCFECAA7B0DC272C31293B0D0A
:1039E0000A00000044433234283134342C3131355C
:1039F0002C275665726966204669726D776172651B
:103A000020457272272C31293B0D0A004443323481
:103A1000283139322C3131352C27D1E9D6A4B9CC13
:103A2000BCFECAA7B0DC272C31293B0D0A000000E0
:103A30005342432830293B44433234283331302C1D
:103A400025642C27A1FD272C32293B0D0A000000FC
:103A500044433234283335342C32302C274E6574AD
:103A6000272C32293B0D0A004443323428333334A7
:103A70002C32302C27CDF8BFDA272C32293B0D0A07
:103A800000000000434C522830293B0D0A00000082
:103A90004449522831293B0D0A000000504C28317E
:103AA00035392C34392C3334362C34392C32293BEB
:103AB0000D0A0000504C283133342C37342C33326B
:103AC000312C37342C32293B0D0A0000504C283160
:103AD00035392C34392C3133342C37342C32293BC2
:103AE0000D0A0000504C283334362C34392C333234
:103AF000312C37342C32293B0D0A0000504C283130
:103B000033342C37342C3133342C3232342C3229A8
:103B10003B0D0A00504C283332312C37342C3332D1
:103B2000312C3232342C32293B0D0A00504C2831D2
:103B300033342C3232342C3332312C3232342C3276
:103B4000293B0D0A00000000504C283334362C3439
:103B5000392C3334362C3139392C32293B0D0A00BB
:103B6000504C283332312C3232342C3334362C3111
:103B700039392C32293B0D0A0000000050532831FE
:103B800035392C25642C32293B0D0A005053282549
:103B9000642C3139392C32293B0D0A00505328311D
:103BA00033392C3231392C32293B0D0A0000000008
:103BB0005053283134342C3231342C32293B0D0A05
:103BC000000000005053283134392C3230392C3267
:103BD000293B0D0A000000005053283135342C32A7
:103BE00030342C32293B0D0A00000000504C2833A1
:103BF00034362C37342C3332312C39392C34293BA0
:103C00000D0A0000504C283334362C39392C33320D
:103C1000312C3132342C34293B0D0A00504C2833DE
:103C200034362C37342C3334362C39392C34293B68
:103C30000D0A0000504C283332312C39392C3332E4
:103C4000312C3132342C34293B0D0A00504C2833AE
:103C500034362C3134392C3332312C3137342C3446
:103C6000293B0D0A00000000504C283334362C311B
:103C700037342C3332312C3139392C34293B0D0A6D
:103C800000000000504C283334362C3134392C33AA
:103C900034362C3137342C34293B0D0A0000000017
:103CA000504C283332312C3137342C3332312C31D3
:103CB00039392C34293B0D0A000000005CA0FDF7C7
:103CC000A8FA61A0FDF7A5FA65A0FDF7A2FA6AA01F
:103CD000FDF79FFA6EA0FDF79CFA73A0FDF799FA25
:103CE00077A0FDF796FA7CA0FDF793FA80A0FDF788
:103CF00090FA85A0FDF78DFA89A0FDF78AFA8EA0CB
:103D0000FDF787FA09B030BD10B5FFF767FDFFF783
:103D100045FD8F480078012803D18EA0FDF779FA80
:103D200002E095A0FDF775FA10BD10B50446FDF749
:103D300078FA87480078012810D134B997A0FDF7A8
:103D400068FA9EA0FDF765FA04E0012C02D1A4A058
:103D5000FDF75FFAACA0FDF75CFA0CE01CB9B4A06B
:103D6000FDF757FA04E0012C02D1B9A0FDF751FA92
:103D7000BFA0FDF74EFA10BD10B50446FDF751FA8D
:103D800073480078012814D1192C03D1C2A0FDF783
:103D900040FA0AE01A2C03D1C8A0FDF73AFA04E071
:103DA0001B2C02D1CDA0FDF734FAD5A0FDF731FAD6
:103DB00013E0192C03D1DCA0FDF72BFA0AE01A2C32
:103DC00003D1E2A0FDF725FA04E01B2C02D1E7A005
:103DD000FDF71FFAEDA0FDF71CFA10BD7FB50446F4
:103DE00000200090019002900390FDF71AFA2246FD
:103DF000AFF2C441684620F09BFF55480078012887
:103E000015D11D2C03D1EBA0FDF703FA0BE0F4A0B4
:103E1000FDF7FFF901236A469621C220FDF772F8EB
:103E20000546FDF7F6F9F8A0FDF7F3F915E2FFE115
:103E3000504C283332362C34392C3330312C373433
:103E40002C34293B0D0A0000504C283330312C34DF
:103E5000392C3237362C37342C34293B0D0A0000EC
:103E6000504C283332362C34392C3330312C343901
:103E70002C34293B0D0A0000504C283237362C37A1
:103E8000342C3330312C34392C34293B0D0A0000CA
:103E9000504C283139362C34392C3137312C3734C9
:103EA0002C34293B0D0A0000504C283137312C347A
:103EB000392C3134362C37342C34293B0D0A000090
:103EC000504C283139362C34392C3137312C343997
:103ED0002C34293B0D0A0000504C283134362C3745
:103EE000342C3137312C34392C34293B0D0A000065
:103EF000504C283235312C34392C3232362C373470
:103F00002C34293B0D0A0000504C283232362C3418
:103F1000392C3230312C37342C34293B0D0A000037
:103F2000504C283235312C34392C3232362C34393D
:103F30002C34293B0D0A0000504C283230312C37EC
:103F4000342C3232362C34392C34293B0D0A000003
:103F5000B802002044433234283136382C31323410
:103F60002C27436F6E6E656374696E672E2E2E2745
:103F70002C32293B0D0A00004443323428313734B7
:103F80002C3132342C27D5FDD4DAC1ACBDD32E2E42
:103F90002E272C32293B0D0A000000004443323406
:103FA000283139322C39372C27446F776E6C6F618A
:103FB00064272C32293B0D0A0000000044433234B0
:103FC000283137342C3134312C27537563636573B2
:103FD0007366756C6C79272C32293B0D0A00000042
:103FE00044433234283135362C3131392C2753654E
:103FF00074205375636365737366756C6C79272CD5
:1040000032293B0D0A000000444332342831353058
:104010002C3138332C272D202243616E63656C22AE
:1040200052657475726E202D272C34293B0D0A00C1
:1040300044433234283139322C3131392C27CFC224
:10404000D4D8B3C9B9A6272C32293B0D0A000000E9
:1040500044433234283139322C3131392C27C9E8E4
:10406000D6C3B3C9B9A6272C32293B0D0A000000DC
:1040700044433234283135302C3138332C272D202D
:104080002243616E63656C22B7B5BBD8202D272C07
:1040900034293B0D0A0000004443323428313632C3
:1040A0002C3132342C274669726D77617265204558
:1040B0006D707479272C31293B0D0A00444332344A
:1040C000283136322C3132342C274A756D70204518
:1040D00072726F72272C31293B0D0A00444332342F
:1040E000283136322C3132342C27577269746520CE
:1040F0004572726F72272C31293B0D0A00000000B7
:1041000044433234283135302C3135342C272D209E
:104110002243616E63656C2252657475726E202D48
:10412000272C34293B0D0A004443323428313830DF
:104130002C3132342C27CEB4BCECB2E2B5BDB9CCB4
:10414000BCFE272C31293B0D0A00000044433234C9
:10415000283139322C3132342C27CCF8D7AACAA7CF
:10416000B0DC272C31293B0D0A00000044433234D7
:10417000283139322C3132342C27D0B4C8EBCAA7BD
:10418000B0DC272C31293B0D0A00000044433234B7
:10419000283135302C3135342C272D202243616EC7
:1041A00063656C22B7B5BBD8202D272C34293B0D75
:1041B0000A00000044433234283136382C3132347E
:1041C0002C2755706461746520436F756E7420539D
:1041D000756363657373272C32293B0D0A00000059
:1041E00044433234283136382C3132342C27557040
:1041F0006461746520436F756E7420457272272C5C
:1042000031293B0D0A00000044433234283136384E
:104210002C3135342C272D202243616E63656C22AE
:1042200052657475726E202D272C34293B0D0A00BF
:104230001D2C03D14FA0FCF7ECFF0BE056A0FCF7C0
:10424000E8FF01236A469621C220FCF75BFE054683
:10425000FCF7DFFF59A0FCF7DCFF7FBD70B504461B
:10426000FCF7DFFF5F480078012816D11CB95EA07B
:10427000FCF7CFFF0AE0012C03D165A0FCF7C9FFD2
:1042800004E0022C02D16CA0FCF7C3FF72A0FCF783
:10429000C0FF7BA0FCF7BDFF15E01CB982A0FCF7B6
:1042A000B8FF0AE0012C03D189A0FCF7B2FF04E0BB
:1042B000022C02D190A0FCF7ACFF99A0FCF7A9FF5B
:1042C000A1A0FCF7A6FF0AE00025FCF7D7FF0546F2
:1042D000B5F5600F02D0B5F5500F00D100E0F3E75F
:1042E00000BF284670BD10B50446FCF79AFF3D4854
:1042F0000078012810D11CB99DA0FCF78AFF1BE0B3
:10430000012C03D1A3A0FCF784FF15E0022C13D1EC
:10431000A8A0FCF77EFF0FE01CB9AEA0FCF779FF68
:104320000AE0012C03D1B3A0FCF773FF04E0022CD8
:1043300002D1B8A0FCF76DFFBDA0FCF76AFF10BD6D
:1043400070B588B004460D46202168461FF04DFE2A
:104350004FF48C706843B0FBF4F000F16406324611
:10436000BAA1684620F0E4FC6846FCF752FF08B0AA
:1043700070BD000044433234283136382C31323499
:104380002C27B8FCD0C2B5E3CAFDB3C9B9A6272C07
:1043900032293B0D0A0000004443323428313638BC
:1043A0002C3132342C27B8FCD0C2B5E3CAFDCAA7E1
:1043B000B0DC272C31293B0D0A0000004443323485
:1043C000283134382C3138342C272D202243616E8B
:1043D00063656C22B7B5BBD8202D272C34293B0D43
:1043E0000A000000B802002044433234283134343B
:1043F0002C38382C27446F776E6C6F6164204669C7
:10440000726D77617265272C32293B0D0A0000001E
:1044100044433234283134342C38382C27526573D5
:10442000746F726520466163746F7279203F272C28
:1044300032293B0D0A000000444332342831343421
:104440002C38382C274A554D5020415050203F27BA
:104450002C32293B0D0A00004443323428313434D5
:104460002C3133322C272D2022456E746572224E5A
:10447000657874202D272C34293B0D0A000000009C
:1044800044433234283134342C3136362C272D2015
:104490002243616E63656C2252657475726E202DC5
:1044A000272C34293B0D0A0044433234283134345C
:1044B0002C38382C27D0C2B9CCBCFEB0FCA3ACCA77
:1044C000C7B7F1CFC2D4D8272C32293B0D0A000040
:1044D00044433234283134342C38382C27CAC7B7F7
:1044E000F1BBD6B8B4B3F6B3A7C9E8D6C3272C320C
:1044F000293B0D0A00000000444332342831343493
:104500002C38382C27CAC7B7F1BDF8C8EBD3A6D3CF
:10451000C3B3CCD0F2272C32293B0D0A0000000097
:1045200044433234283134342C3133322C272D207B
:1045300022456E74657222BCCCD0F8202D272C3415
:10454000293B0D0A00000000444332342831343442
:104550002C3136362C272D202243616E63656C2268
:10456000B7B5BBD8202D272C34293B0D0A000000FD
:1045700044433234283136362C39382C27446F776F
:104580006E6C6F6164696E672E2E2E272C35293B69
:104590000D0A000044433234283136362C39382C89
:1045A000275570646174696E672E2E2E272C35296D
:1045B0003B0D0A0044433234283136362C39382C2E
:1045C000275761746974696E672E2E2E272C352942
:1045D0003B0D0A0044433234283136362C39382C0E
:1045E00027CFC2D4D8D6D02E2E2E272C35293B0D3E
:1045F0000A00000044433234283136362C39382C36
:1046000027D0A3D1E9D6D02E2E2E272C35293B0D2D
:104610000A00000044433234283136362C39382C15
:1046200027B5C8B4FD2E2E2E272C35293B0D0A00A8
:10463000424F58283130302C3136302C3338302C22
:104640003138302C3136293B0D0A0000424F584694
:10465000283130302C3136302C25642C3138302C38
:1046600035293B0D0A00000010B5044600BF082C98
:1046700002DD4FF0FF3010BD00BFA100491C4FF418
:10468000807202EBC100102100F0E3FF00BFA10027
:10469000491C4FF4807202EBC10000F0B7FF002804
:1046A000F5D1A100491C4FF4007202EBC1001F219B
:1046B00000F0CFFF0120A040FB4909888143FA4860
:1046C00001800020F94921F81400F949085500BF7C
:1046D000A100491C4FF4407202EBC10000F096FFAC
:1046E0000028F5D10120C6E72DE9F04104460E4629
:1046F00017461D4600BF082C03DD4FF0FF30BDE814
:10470000F08100BF012E04D0022E03D0042E03D16D
:1047100001E000BF00BF02E06FF00400EFE700BF60
:1047200015F0060F02D06FF00500E8E705B3012E83
:1047300002D0022E1AD106E015F0210F02D16FF03F
:104740000500DCE713E015F0200F05D015F0800F11
:1047500002D16FF00500D2E715F0100F05D015F06B
:10476000800F02D16FF00500C9E700E000BF00BF75
:104770002046FFF779FF05F0F00242EA0601A200A9
:10478000521C002303EBC20000F063FF7FB9C9484D
:1047900007880088401CC749088008460088A0F5A3
:1047A0007F41F03903D14FF44040C24908803912AB
:1047B000A200521C4FF4806303EBC20000F049FFDB
:1047C000A100491C4FF4806202EBC10101F5807029
:1047D000F9B200F03EFFA100491C4FF4807202EBD9
:1047E000C100012100F035FF00BFA100491C4FF4BA
:1047F000807202EBC10000F009FF0028F5D105F03E
:104800000100A040AC4909880843AB490880012059
:10481000A040A54909888143A34801800020A349FD
:1048200021F81400A249085500BFA100491C4FF40B
:10483000407202EBC10000F0E9FE0028F5D060B242
:104840005DE710B5044600BF082C02DD4FF0FF30D5
:1048500010BD00BF00BFA100491C002202EBC10037
:1048600000F0D4FE00F00F00012802D06FF0040029
:10487000EEE700BF00BFA100491C4FF4407202EBFD
:10488000C10000F0C3FE132802D06FF00200DFE782
:1048900000BFA100491C4FF4807202EBC10002214D
:1048A00000F0D7FE00BFA100491C4FF4807202EB5C
:1048B000C10000F0ABFE0028F5D10EE0A100491CBC
:1048C0004FF4807202EBC10000F0A0FE28B9204630
:1048D000FFF7CAFE6FF00300BAE7A100491C4FF4CE
:1048E000407202EBC10000F091FE1428E6D10120D5
:1048F000AEE770B504460D46164600BF082C02DD33
:104900004FF0FF3070BD00BF00BFA100491C002266
:1049100002EBC10000F07AFE00F00F00012802D087
:104920006FF00400EEE700BF00BFA100491C4FF488
:10493000407202EBC10000F069FE132802D06FF054
:104940000200DFE700BF2978687861F31F20014685
:10495000A87861F31F200146287861F31F200146E3
:10496000481C00D011B96FF00B00CBE716B96FF0FF
:104970000A00C7E7A100491C4FF4406202EBC100E6
:104980000422294600F0B6FE3112A200521C4FF458
:10499000805303EBC20000F05CFEA100491C4FF401
:1049A000805202EBC10101F58070F1B200F051FEBE
:1049B000A100491C4FF4807202EBC100042100F0F9
:1049C00048FE00BFA100491C4FF4807202EBC100F9
:1049D00000F01CFE0028F5D10120A04036490988CE
:1049E000084201D000208DE716E0A100491C4FF4D9
:1049F000007202EBC10000F009FE10F0080F0BD0AE
:104A0000A100491C4FF4007202EBC100082100F024
:104A100020FE6FF00C0075E7A100491C4FF44072B6
:104A200002EBC10000F0F2FD1728DED1012069E79A
:104A300010B5044600BF082C02DD4FF0FF3010BD5A
:104A400000BF00BFA100491C002202EBC10000F022
:104A5000DDFD00F00F00012802D06FF00400EEE74A
:104A600000BFA100491C4FF4807202EBC100082175
:104A700000F0EFFD00BFA100491C4FF4807202EB73
:104A8000C10000F0C3FD0028F5D10120A040064977
:104A900009888143044801800120A0400649098813
:104AA00008420BD00020CAE7BE020020A01600205A
:104AB000C0020020BA020020BC02002010E0A100C9
:104AC000491C4FF4007202EBC10000F09FFD10F092
:104AD000080F05D02046FFF7C7FD6FF00C00AEE7CA
:104AE000A100491C4FF4407202EBC10000F08EFDA2
:104AF0000028E4D10120A2E72DE9F04104468846D0
:104B000015460026002700BF082C02DD701EBDE8F8
:104B1000F08100BF00BFA100491C002202EBC100D0
:104B200000F074FD00F00F00012802D06FF00400C7
:104B3000EDE700BF00BF15B96FF00D00E7E700BF5C
:104B4000A100491C4FF4407202EBC10000F05EFD71
:104B50000646172E04D01C2E02D06FF00600D6E7B2
:104B60000120A040F7490988084228D0A100491C2B
:104B70004FF4007202EBC10000F048FD00F01F0688
:104B800016F0100F10D0A100491C4FF4007202EB78
:104B9000C100102100F05DFD0120A040E949098815
:104BA0008143E84801800AE016F0080F05D020464E
:104BB000FFF75AFD6FF00C00A9E70020A7E7A1005E
:104BC000491C4FF4F85202EBC10000F01FFD8006B3
:104BD000070CBD4200DD3D4623E0204600F0B8FD55
:104BE0000746A100491C4FF4407202EBC10000F0DF
:104BF0000DFD0646172E07D01C2E05D02046FFF7C8
:104C000033FD6FF0060082E70120A040CE490988FD
:104C1000084203D0BD4201DD002078E7BD4200DC40
:104C200000E0DAE700BF2A464146204600F0FCFDDE
:104C3000A100491C4FF4807202EBC100202100F05A
:104C400008FD00BFA100491C4FF4807202EBC100B7
:104C500000F0DCFC0028F5D10120A040B94909880A
:104C60000843B8490880284651E72DE9F047044633
:104C7000884616460027002500BF082C02DD681E66
:104C8000BDE8F08700BF00BFA100491C002202EB75
:104C9000C10000F0BBFC00F00F00012802D06FF053
:104CA0000400EDE700BF00BF16B96FF00D00E7E7A5
:104CB00000BFA100491C4FF4F05202EBC10000F00C
:104CC000A5FC8006050CB54200DA2E4638E02046E9
:104CD00000F074FD0546A100491C4FF4407202EB40
:104CE000C10000F093FC0746172F1ED01C2F16D1D1
:104CF00005B126E0204600F02BFD8146A100491CAD
:104D00004FF4F85202EBC10000F080FCB9EB802FA9
:104D10000BD12046FFF7A8FC6FF00600B0E7204655
:104D2000FFF7A2FC6FF00600AAE70120A040864929
:104D30000988084202D00DB90020A1E705B100E0C2
:104D4000C5E700BFB54200DA2E463246414620464E
:104D500000F0ACFDA100491C4FF4807202EBC100D1
:104D6000402100F076FC00BFA100491C4FF4807286
:104D700002EBC10000F04AFC0028F5D130467FE785
:104D80002DE9F04704468A4616461D46DDF8209078
:104D90000027B84600BF082C02DD781EBDE8F0876A
:104DA00000BFA100491C002202EBC10000F02EFC54
:104DB00000F00F00022802D0042802D100E000BF5A
:104DC00002E06FF00400E9E700BF00BF16B96FF022
:104DD0000D00E3E700BF2878697860F31F210846DB
:104DE000A97860F31F210846E97860F31F2108467F
:104DF000286810B96FF00B00D0E7B9F1000F02D1AD
:104E00006FF00A00CAE7A100491C4FF4407202EBA0
:104E1000C10000F0FBFB0746422F04D0222F02D036
:104E20006FF00600BAE7A100491C4FF4406202EBA4
:104E3000C1000422294600F05DFC4FEA2921A200AE
:104E4000521C4FF4805303EBC20000F002FCA1009F
:104E5000491C4FF4805202EBC10101F5807009F04A
:104E6000FF0100F0F6FBA100491C4FF4F85202EBE1
:104E7000C10000F0CBFB80064FEA1048464500DD3C
:104E800046461CE0204600F063FC8046A100491C19
:104E90004FF4407202EBC10000F0B8FB10B96FF0A4
:104EA00003007BE70120A04027490988084203D07E
:104EB000464501DD002071E7464500DC00E0E1E702
:104EC00000BF32465146204600F0AEFCA100491C0E
:104ED0004FF4807202EBC100202100F0BAFB00BF4A
:104EE000A100491C4FF4807202EBC10000F08EFB60
:104EF0000028F5D12AE0A100491C4FF4007202EB12
:104F0000C10000F083FB00F01F0717F0100F09D05D
:104F1000A100491C4FF4007202EBC100102100F007
:104F200098FB14E017F0080F10D0A100491C4FF4B3
:104F3000007202EBC100082100F08BFB6FF00C0047
:104F40002CE70000BE020020BC020020D3E700BF17
:104F5000304623E72DE9FC4704468A4616461F469D
:104F6000DDF82880002500BF082C02DD681EBDE8A2
:104F7000FC8700BFA100491C002202EBC10000F029
:104F800045FB814600F00F00022802D0042802D120
:104F900000E000BF02E06FF00400E8E700BF00BFE0
:104FA00016B96FF00D00E2E700BFF84830F81400C2
:104FB000E8B91AE0204600F001FC0546A100491CB2
:104FC0004FF4407202EBC10000F020FB10B96FF00B
:104FD0000300CCE70120A040ED490988084202D037
:104FE0000DB90020C3E705B100E0E3E700BF0020F2
:104FF000E849085509F00700022802D004287DD1AD
:1050000057E0E24830F81400E8BB08226946204621
:1050100000F04CFCA100491C4FF4807202EBC1006F
:10502000402100F016FB00BFA100491C4FF4807224
:1050300002EBC10000F0EAFA0028F5D19DF800006B
:1050400038709DF8010078709DF80200B8709DF8E6
:105050000300F8709DF80400A8F800009DF8050012
:10506000B8F8001000EB0120A8F800009DF8060039
:10507000C64921F814009DF8070031F8141000EB20
:105080000120C24900E004E021F814008020C14959
:105090000855BE4830F81400B04201DD354602E044
:1050A000BA4830F814502A465146204600F0FEFB1C
:1050B00055E0B64830F81400A8BB022269462046E5
:1050C00000F0F4FBA100491C4FF4807202EBC10018
:1050D000402100F0BEFA00BFA100491C4FF48072CD
:1050E00002EBC10000F092FA0028F5D19DF8000013
:1050F000A64921F814009DF8010000E027E031F8EE
:10510000141000EB0120A14921F81400084630F8E2
:10511000140040F2EA51884206DD2046FFF7A4FA67
:105120006FF47A7023E702E080209A490855974887
:1051300030F81400B04201DD354602E0934830F803
:1051400014502A465146204600F0B0FB07E029469D
:10515000204600F0EDFB8D4820F8145000BF00BF42
:10516000A100491C4FF4807202EBC100402100F005
:1051700070FA00BFA100491C4FF4807202EBC1001D
:1051800000F044FA0028F5D1804830F81400401BA4
:105190007E4921F81400084630F8140028B17D48F3
:1051A000005D40F001007B4908552846DFE62DE907
:1051B000F04104460E461546002700BF082C02DDCC
:1051C000781EBDE8F08100BF082E78D2DFE806F037
:1051D000041C232F3B4D596B2F78012F07D1012041
:1051E000A0406B4909880843694908800BE03FB932
:1051F0000120A0406649098881436548018002E09A
:105200006FF00900DDE75DE061480088204100F0B3
:105210000100287056E0A100491C4FF4F85202EB3F
:10522000C10000F0F3F98006000C28804AE0A100DC
:10523000491C4FF4F05202EBC10000F0E7F9800680
:10524000000C28803EE028781F2802DD6FF009005E
:10525000B7E72A7802F01F01A200521C4FF4007336
:1052600003EBC20000F0F5F92CE0A100491C4FF45B
:10527000007202EBC10000F0C9F900F01F002870B5
:1052800020E028781F2802DD6FF0090099E72A78CE
:1052900002F01F01A200521C4FF4305303EBC20076
:1052A00000F0D7F90EE0A100491C4FF4305202EB98
:1052B000C10000F0ABF900F01F00287000BF6FF0D4
:1052C00009007EE700BF01207BE770B504460E466B
:1052D000154600BF082C02DD4FF0FF3070BD00BF47
:1052E000082E75D2DFE806F0BB040E182F3A58A13D
:1052F0002978A200521C4FF4B05303EBC20000F017
:10530000A8F9AFE02978A200521C4FF4A85303EB90
:10531000C20000F09EF9A5E02A881112A200521CDA
:105320004FF4905303EBC20000F093F92A88D1B2F6
:10533000A200521C4FF4905303EBC20202F580709E
:1053400000F087F98EE0A100491C4FF4406202EBA7
:10535000C1000422294600F0CDF983E02A88111209
:10536000A200521C4FF4805303EBC20000F071F90D
:105370002A88D1B2A200521C4FF4805303EBC20220
:1053800002F5807000F065F96CE00000A0160020C6
:10539000BC020020C002002000BFA100491C002266
:1053A00002EBC10000F032F900F00F00012802D03A
:1053B0006FF0040092E700BFA100491C4FF43C527B
:1053C00002EBC10000F022F918B16FF0010085E78F
:1053D00045E0A100491C4FF4807202EBC10022217C
:1053E00000F037F916E0A100491C4FF4007202EBFF
:1053F000C10000F00BF910F0080F0BD0A100491C00
:105400004FF4007202EBC100082100F022F96FF0A6
:105410000C0063E7A100491C4FF4807202EBC1004D
:1054200000F0F4F80028DED11CE000BFA100491C08
:10543000002202EBC10000F0E9F800F00F000128A3
:1054400002D06FF0040049E700BF2978A200521C87
:105450004FF43C5303EBC20000F0FBF802E06FF0A6
:1054600009003BE700BF012038E72DE9F041044681
:105470000E46154600BF082C03DD4FF0FF30BDE897
:10548000F08100BF0D2E6FD2DFE806F007121C2658
:105490003D48B55F7A7F848EA100A100491C00229F
:1054A00002EBC10000F0B2F800F0F0002870A5E0B7
:1054B000A100491C4FF4B05202EBC10000F0A6F865
:1054C00028709BE0A100491C4FF4A85202EBC100D8
:1054D00000F09CF8287091E0A100491C4FF4905214
:1054E00002EBC10101F5807000F090F80746A100C1
:1054F000491C4FF4905202EBC10000F087F807EB13
:105500000020287000BFA100491C4FF4406202EB4C
:10551000C1000422294600F0C0F86FE0A100491C38
:105520004FF4805202EBC10101F5807000F06EF87B
:105530000746A100491C4FF4805202EBC10000F065
:1055400065F807EB0020288058E000BFA100491C47
:10555000002202EBC10000F059F800F00F00012812
:1055600003D06FF004008AE745E000BFA100491CAA
:105570004FF43C5202EBC10000F048F828803DE0B7
:10558000204600F0E5F8288000BF204600F016F91C
:10559000288000BFA100491C4FF4407202EBC100FB
:1055A00000F034F8287029E0A100491C002202EB29
:1055B000C10000F02BF8012804D1204600F0FEF8CD
:1055C000288003E00F4830F81400288016E000BF60
:1055D000A100491C002202EBC10000F017F800F006
:1055E0000F00012802D06FF0040048E700BF064812
:1055F000005D287002E06FF0010040E700BF01206D
:105600003DE70000A0160020C002002070B504464F
:10561000E14988688047E0490869804700BFDE4863
:10562000C169C4F307408847DB48C169C4F3072058
:105630008847E0B2D84AD1698847D7498869804706
:105640000546D54948698047D349C86880472846F8
:1056500070BD70B504460D46CF4988688047CE4975
:105660000869804744F00404CB48C169C4F307408B
:105670008847C948C169C4F307208847E0B2C64AD1
:10568000D1698847C448C16928468847C2494869E2
:105690008047C149C868804770BD2DE9F041044684
:1056A0000E4617460025BC4988688047BA490869F4
:1056B000804700BFB848C169C4F307408847B6486F
:1056C000C169C4F307208847E0B2B34AD16988476B
:1056D00000BF05E0B049886980477055681C85B2F5
:1056E000BD42F7DBAC4948698047AB49C868804791
:1056F000BDE8F0812DE9F04104460E46174600252D
:10570000A54988688047A4490869804744F0040493
:10571000A148C169C4F3074088479F48C169C4F3E1
:1057200007208847E0B29C4AD169884700BF05E05E
:10573000705D994AD1698847681C85B2BD42F7DB24
:105740009549486980479449C8688047BDE8F08119
:1057500070B504460025002600BFA100491C4FF487
:10576000005202EBC100FFF751FF0646A100491CA1
:105770004FF4005202EBC10101F58070FFF746FFC4
:1057800000EB062086B2AEB1A100491C4FF40052D6
:1057900002EBC100FFF73AFF0546A100491C4FF498
:1057A000005202EBC10101F58070FFF72FFF00EB03
:1057B000052085B2B542D0D1284670BD70B50446EB
:1057C0000025002600BFA100491C4FF4185202EB2F
:1057D000C100FFF71BFF0646A100491C4FF41852F9
:1057E00002EBC10101F58070FFF710FF00EB06200E
:1057F00086B2AEB1A100491C4FF4185202EBC100B1
:10580000FFF704FF0546A100491C4FF4185202EBB4
:10581000C10101F58070FFF7F9FE00EB052085B2AC
:10582000B542D0D1284670BD2DE9F04704460F4659
:1058300016460025A8460EB9BDE8F087A100491C10
:105840004FF4105202EBC10101F58070FFF7DEFE4C
:105850008146A100491C4FF4105202EBC100FFF732
:10586000D5FE09EB002085B22902A000801C01EBC7
:10587000C008324639464046FFF73CFFA81985B2BA
:105880002912A200521C4FF4105303EBC200FFF781
:10589000E0FEA100491C4FF4105202EBC10101F5DA
:1058A0008070E9B2FFF7D5FE00BFC5E72DE9F047EC
:1058B00004460F4616460025A8460EB9BDE8F087F7
:1058C000A100491C4FF4205202EBC10101F5807088
:1058D000FFF79CFE8146A100491C4FF4205202EBC9
:1058E000C100FFF793FE09EB002085B22902A0005A
:1058F000C01C01EBC008324639464046FFF7CDFEDA
:10590000A81985B22912A200521C4FF4205303EBB0
:10591000C200FFF79EFEA100491C4FF4205202EB8B
:10592000C10101F58070E9B2FFF793FE00BFC5E742
:105930002DE9F04104460E460025A100491C4FF414
:10594000205202EBC10101F58070FFF75FFE0746B0
:10595000A100491C4FF4205202EBC100FFF756FE94
:1059600007EB002085B2A81985B22912A200521CAB
:105970004FF4205303EBC200FFF76BFEA100491C5C
:105980004FF4205202EBC10101F58070E9B2FFF73C
:1059900060FEBDE8F0810000C8020020704770473B
:1059A00070477047014608787047017070470020C3
:1059B0007047704700B141B9AFF21F02F94B9A60CE
:1059C000AFF22503F74AD36002E0F64A9060D16057
:1059D000704700B141B9AFF23702F24B1A61AFF232
:1059E0003D03F04A536102E0EE4A10615161704795
:1059F00000BFEC4A128812F4807FFAD000B141B99E
:105A0000AFF25F02E74B9A61AFF26103E54AD361FF
:105A100002E0E44A9061D161704700BFE14A128818
:105A200012F4007FFAD000B141B9AFF27D02DD4B34
:105A30009A61AFF28103DB4AD36102E0D94A9061F7
:105A4000D161704710B54FF43850FFF7DFFD10F00B
:105A5000010F01D0012400E00024204610BD10B544
:105A600000244FF43850FFF7D1FD10F0300F01D073
:105A7000012400E00024204610BD10B54FF438503A
:105A8000FFF7C4FD044624F0800421464FF438504B
:105A9000FFF7DFFD4FF43850FFF7B8FD044644F040
:105AA000800421464FF43850FFF7D3FD10BD70B588
:105AB000054600244FF43850FFF7A8FD044614F0C3
:105AC000400F02D14FF0FF3070BD24F03804012D9B
:105AD00002D144F0300401E044F0380421464FF490
